Archive member included to satisfy reference by file (symbol)

c:/st/stm32cubeide_1.11.0/stm32cubeide/plugins/com.st.stm32cube.ide.mcu.externaltools.gnu-tools-for-stm32.10.3-2021.10.win32_1.0.200.202301161003/tools/bin/../lib/gcc/arm-none-eabi/10.3.1/../../../../arm-none-eabi/lib/thumb/v7e-m+fp/hard\libc_nano.a(lib_a-errno.o)
                              ./Core/Src/syscalls.o (__errno)
c:/st/stm32cubeide_1.11.0/stm32cubeide/plugins/com.st.stm32cube.ide.mcu.externaltools.gnu-tools-for-stm32.10.3-2021.10.win32_1.0.200.202301161003/tools/bin/../lib/gcc/arm-none-eabi/10.3.1/../../../../arm-none-eabi/lib/thumb/v7e-m+fp/hard\libc_nano.a(lib_a-exit.o)
                              c:/st/stm32cubeide_1.11.0/stm32cubeide/plugins/com.st.stm32cube.ide.mcu.externaltools.gnu-tools-for-stm32.10.3-2021.10.win32_1.0.200.202301161003/tools/bin/../lib/gcc/arm-none-eabi/10.3.1/../../../../arm-none-eabi/lib/thumb/v7e-m+fp/hard/crt0.o (exit)
c:/st/stm32cubeide_1.11.0/stm32cubeide/plugins/com.st.stm32cube.ide.mcu.externaltools.gnu-tools-for-stm32.10.3-2021.10.win32_1.0.200.202301161003/tools/bin/../lib/gcc/arm-none-eabi/10.3.1/../../../../arm-none-eabi/lib/thumb/v7e-m+fp/hard\libc_nano.a(lib_a-impure.o)
                              c:/st/stm32cubeide_1.11.0/stm32cubeide/plugins/com.st.stm32cube.ide.mcu.externaltools.gnu-tools-for-stm32.10.3-2021.10.win32_1.0.200.202301161003/tools/bin/../lib/gcc/arm-none-eabi/10.3.1/../../../../arm-none-eabi/lib/thumb/v7e-m+fp/hard\libc_nano.a(lib_a-exit.o) (_global_impure_ptr)
c:/st/stm32cubeide_1.11.0/stm32cubeide/plugins/com.st.stm32cube.ide.mcu.externaltools.gnu-tools-for-stm32.10.3-2021.10.win32_1.0.200.202301161003/tools/bin/../lib/gcc/arm-none-eabi/10.3.1/../../../../arm-none-eabi/lib/thumb/v7e-m+fp/hard\libc_nano.a(lib_a-init.o)
                              c:/st/stm32cubeide_1.11.0/stm32cubeide/plugins/com.st.stm32cube.ide.mcu.externaltools.gnu-tools-for-stm32.10.3-2021.10.win32_1.0.200.202301161003/tools/bin/../lib/gcc/arm-none-eabi/10.3.1/../../../../arm-none-eabi/lib/thumb/v7e-m+fp/hard/crt0.o (__libc_init_array)
c:/st/stm32cubeide_1.11.0/stm32cubeide/plugins/com.st.stm32cube.ide.mcu.externaltools.gnu-tools-for-stm32.10.3-2021.10.win32_1.0.200.202301161003/tools/bin/../lib/gcc/arm-none-eabi/10.3.1/../../../../arm-none-eabi/lib/thumb/v7e-m+fp/hard\libc_nano.a(lib_a-memcpy-stub.o)
                              ./Core/Src/utilities.o (memcpy)
c:/st/stm32cubeide_1.11.0/stm32cubeide/plugins/com.st.stm32cube.ide.mcu.externaltools.gnu-tools-for-stm32.10.3-2021.10.win32_1.0.200.202301161003/tools/bin/../lib/gcc/arm-none-eabi/10.3.1/../../../../arm-none-eabi/lib/thumb/v7e-m+fp/hard\libc_nano.a(lib_a-memset.o)
                              c:/st/stm32cubeide_1.11.0/stm32cubeide/plugins/com.st.stm32cube.ide.mcu.externaltools.gnu-tools-for-stm32.10.3-2021.10.win32_1.0.200.202301161003/tools/bin/../lib/gcc/arm-none-eabi/10.3.1/../../../../arm-none-eabi/lib/thumb/v7e-m+fp/hard/crt0.o (memset)
c:/st/stm32cubeide_1.11.0/stm32cubeide/plugins/com.st.stm32cube.ide.mcu.externaltools.gnu-tools-for-stm32.10.3-2021.10.win32_1.0.200.202301161003/tools/bin/../lib/gcc/arm-none-eabi/10.3.1/../../../../arm-none-eabi/lib/thumb/v7e-m+fp/hard\libm.a(lib_a-wf_log.o)
                              ./Core/Src/loadcell.o (logf)
c:/st/stm32cubeide_1.11.0/stm32cubeide/plugins/com.st.stm32cube.ide.mcu.externaltools.gnu-tools-for-stm32.10.3-2021.10.win32_1.0.200.202301161003/tools/bin/../lib/gcc/arm-none-eabi/10.3.1/../../../../arm-none-eabi/lib/thumb/v7e-m+fp/hard\libm.a(lib_a-wf_pow.o)
                              ./Core/Src/loadcell.o (powf)
c:/st/stm32cubeide_1.11.0/stm32cubeide/plugins/com.st.stm32cube.ide.mcu.externaltools.gnu-tools-for-stm32.10.3-2021.10.win32_1.0.200.202301161003/tools/bin/../lib/gcc/arm-none-eabi/10.3.1/../../../../arm-none-eabi/lib/thumb/v7e-m+fp/hard\libm.a(lib_a-ef_log.o)
                              c:/st/stm32cubeide_1.11.0/stm32cubeide/plugins/com.st.stm32cube.ide.mcu.externaltools.gnu-tools-for-stm32.10.3-2021.10.win32_1.0.200.202301161003/tools/bin/../lib/gcc/arm-none-eabi/10.3.1/../../../../arm-none-eabi/lib/thumb/v7e-m+fp/hard\libm.a(lib_a-wf_log.o) (__ieee754_logf)
c:/st/stm32cubeide_1.11.0/stm32cubeide/plugins/com.st.stm32cube.ide.mcu.externaltools.gnu-tools-for-stm32.10.3-2021.10.win32_1.0.200.202301161003/tools/bin/../lib/gcc/arm-none-eabi/10.3.1/../../../../arm-none-eabi/lib/thumb/v7e-m+fp/hard\libm.a(lib_a-ef_pow.o)
                              c:/st/stm32cubeide_1.11.0/stm32cubeide/plugins/com.st.stm32cube.ide.mcu.externaltools.gnu-tools-for-stm32.10.3-2021.10.win32_1.0.200.202301161003/tools/bin/../lib/gcc/arm-none-eabi/10.3.1/../../../../arm-none-eabi/lib/thumb/v7e-m+fp/hard\libm.a(lib_a-wf_pow.o) (__ieee754_powf)
c:/st/stm32cubeide_1.11.0/stm32cubeide/plugins/com.st.stm32cube.ide.mcu.externaltools.gnu-tools-for-stm32.10.3-2021.10.win32_1.0.200.202301161003/tools/bin/../lib/gcc/arm-none-eabi/10.3.1/../../../../arm-none-eabi/lib/thumb/v7e-m+fp/hard\libm.a(lib_a-ef_sqrt.o)
                              c:/st/stm32cubeide_1.11.0/stm32cubeide/plugins/com.st.stm32cube.ide.mcu.externaltools.gnu-tools-for-stm32.10.3-2021.10.win32_1.0.200.202301161003/tools/bin/../lib/gcc/arm-none-eabi/10.3.1/../../../../arm-none-eabi/lib/thumb/v7e-m+fp/hard\libm.a(lib_a-ef_pow.o) (__ieee754_sqrtf)
c:/st/stm32cubeide_1.11.0/stm32cubeide/plugins/com.st.stm32cube.ide.mcu.externaltools.gnu-tools-for-stm32.10.3-2021.10.win32_1.0.200.202301161003/tools/bin/../lib/gcc/arm-none-eabi/10.3.1/../../../../arm-none-eabi/lib/thumb/v7e-m+fp/hard\libm.a(lib_a-math_errf.o)
                              c:/st/stm32cubeide_1.11.0/stm32cubeide/plugins/com.st.stm32cube.ide.mcu.externaltools.gnu-tools-for-stm32.10.3-2021.10.win32_1.0.200.202301161003/tools/bin/../lib/gcc/arm-none-eabi/10.3.1/../../../../arm-none-eabi/lib/thumb/v7e-m+fp/hard\libm.a(lib_a-ef_pow.o) (__math_uflowf)
c:/st/stm32cubeide_1.11.0/stm32cubeide/plugins/com.st.stm32cube.ide.mcu.externaltools.gnu-tools-for-stm32.10.3-2021.10.win32_1.0.200.202301161003/tools/bin/../lib/gcc/arm-none-eabi/10.3.1/../../../../arm-none-eabi/lib/thumb/v7e-m+fp/hard\libm.a(lib_a-sf_fabs.o)
                              c:/st/stm32cubeide_1.11.0/stm32cubeide/plugins/com.st.stm32cube.ide.mcu.externaltools.gnu-tools-for-stm32.10.3-2021.10.win32_1.0.200.202301161003/tools/bin/../lib/gcc/arm-none-eabi/10.3.1/../../../../arm-none-eabi/lib/thumb/v7e-m+fp/hard\libm.a(lib_a-ef_pow.o) (fabsf)
c:/st/stm32cubeide_1.11.0/stm32cubeide/plugins/com.st.stm32cube.ide.mcu.externaltools.gnu-tools-for-stm32.10.3-2021.10.win32_1.0.200.202301161003/tools/bin/../lib/gcc/arm-none-eabi/10.3.1/../../../../arm-none-eabi/lib/thumb/v7e-m+fp/hard\libm.a(lib_a-sf_finite.o)
                              c:/st/stm32cubeide_1.11.0/stm32cubeide/plugins/com.st.stm32cube.ide.mcu.externaltools.gnu-tools-for-stm32.10.3-2021.10.win32_1.0.200.202301161003/tools/bin/../lib/gcc/arm-none-eabi/10.3.1/../../../../arm-none-eabi/lib/thumb/v7e-m+fp/hard\libm.a(lib_a-wf_pow.o) (finitef)
c:/st/stm32cubeide_1.11.0/stm32cubeide/plugins/com.st.stm32cube.ide.mcu.externaltools.gnu-tools-for-stm32.10.3-2021.10.win32_1.0.200.202301161003/tools/bin/../lib/gcc/arm-none-eabi/10.3.1/../../../../arm-none-eabi/lib/thumb/v7e-m+fp/hard\libm.a(lib_a-sf_nan.o)
                              c:/st/stm32cubeide_1.11.0/stm32cubeide/plugins/com.st.stm32cube.ide.mcu.externaltools.gnu-tools-for-stm32.10.3-2021.10.win32_1.0.200.202301161003/tools/bin/../lib/gcc/arm-none-eabi/10.3.1/../../../../arm-none-eabi/lib/thumb/v7e-m+fp/hard\libm.a(lib_a-wf_log.o) (nanf)
c:/st/stm32cubeide_1.11.0/stm32cubeide/plugins/com.st.stm32cube.ide.mcu.externaltools.gnu-tools-for-stm32.10.3-2021.10.win32_1.0.200.202301161003/tools/bin/../lib/gcc/arm-none-eabi/10.3.1/../../../../arm-none-eabi/lib/thumb/v7e-m+fp/hard\libm.a(lib_a-sf_scalbn.o)
                              c:/st/stm32cubeide_1.11.0/stm32cubeide/plugins/com.st.stm32cube.ide.mcu.externaltools.gnu-tools-for-stm32.10.3-2021.10.win32_1.0.200.202301161003/tools/bin/../lib/gcc/arm-none-eabi/10.3.1/../../../../arm-none-eabi/lib/thumb/v7e-m+fp/hard\libm.a(lib_a-ef_pow.o) (scalbnf)
c:/st/stm32cubeide_1.11.0/stm32cubeide/plugins/com.st.stm32cube.ide.mcu.externaltools.gnu-tools-for-stm32.10.3-2021.10.win32_1.0.200.202301161003/tools/bin/../lib/gcc/arm-none-eabi/10.3.1/thumb/v7e-m+fp/hard\libgcc.a(_arm_addsubdf3.o)
                              ./Core/Src/loadcell.o (__aeabi_dsub)
c:/st/stm32cubeide_1.11.0/stm32cubeide/plugins/com.st.stm32cube.ide.mcu.externaltools.gnu-tools-for-stm32.10.3-2021.10.win32_1.0.200.202301161003/tools/bin/../lib/gcc/arm-none-eabi/10.3.1/thumb/v7e-m+fp/hard\libgcc.a(_arm_truncdfsf2.o)
                              ./Core/Src/loadcell.o (__aeabi_d2f)
c:/st/stm32cubeide_1.11.0/stm32cubeide/plugins/com.st.stm32cube.ide.mcu.externaltools.gnu-tools-for-stm32.10.3-2021.10.win32_1.0.200.202301161003/tools/bin/../lib/gcc/arm-none-eabi/10.3.1/thumb/v7e-m+fp/hard\libgcc.a(_aeabi_uldivmod.o)
                              ./Drivers/STM32F4xx_HAL_Driver/Src/stm32f4xx_hal_rcc.o (__aeabi_uldivmod)
c:/st/stm32cubeide_1.11.0/stm32cubeide/plugins/com.st.stm32cube.ide.mcu.externaltools.gnu-tools-for-stm32.10.3-2021.10.win32_1.0.200.202301161003/tools/bin/../lib/gcc/arm-none-eabi/10.3.1/thumb/v7e-m+fp/hard\libgcc.a(_udivmoddi4.o)
                              c:/st/stm32cubeide_1.11.0/stm32cubeide/plugins/com.st.stm32cube.ide.mcu.externaltools.gnu-tools-for-stm32.10.3-2021.10.win32_1.0.200.202301161003/tools/bin/../lib/gcc/arm-none-eabi/10.3.1/thumb/v7e-m+fp/hard\libgcc.a(_aeabi_uldivmod.o) (__udivmoddi4)
c:/st/stm32cubeide_1.11.0/stm32cubeide/plugins/com.st.stm32cube.ide.mcu.externaltools.gnu-tools-for-stm32.10.3-2021.10.win32_1.0.200.202301161003/tools/bin/../lib/gcc/arm-none-eabi/10.3.1/thumb/v7e-m+fp/hard\libgcc.a(_dvmd_tls.o)
                              c:/st/stm32cubeide_1.11.0/stm32cubeide/plugins/com.st.stm32cube.ide.mcu.externaltools.gnu-tools-for-stm32.10.3-2021.10.win32_1.0.200.202301161003/tools/bin/../lib/gcc/arm-none-eabi/10.3.1/thumb/v7e-m+fp/hard\libgcc.a(_aeabi_uldivmod.o) (__aeabi_ldiv0)

Discarded input sections

 .text          0x0000000000000000        0x0 c:/st/stm32cubeide_1.11.0/stm32cubeide/plugins/com.st.stm32cube.ide.mcu.externaltools.gnu-tools-for-stm32.10.3-2021.10.win32_1.0.200.202301161003/tools/bin/../lib/gcc/arm-none-eabi/10.3.1/thumb/v7e-m+fp/hard/crti.o
 .data          0x0000000000000000        0x0 c:/st/stm32cubeide_1.11.0/stm32cubeide/plugins/com.st.stm32cube.ide.mcu.externaltools.gnu-tools-for-stm32.10.3-2021.10.win32_1.0.200.202301161003/tools/bin/../lib/gcc/arm-none-eabi/10.3.1/thumb/v7e-m+fp/hard/crti.o
 .bss           0x0000000000000000        0x0 c:/st/stm32cubeide_1.11.0/stm32cubeide/plugins/com.st.stm32cube.ide.mcu.externaltools.gnu-tools-for-stm32.10.3-2021.10.win32_1.0.200.202301161003/tools/bin/../lib/gcc/arm-none-eabi/10.3.1/thumb/v7e-m+fp/hard/crti.o
 .data          0x0000000000000000        0x4 c:/st/stm32cubeide_1.11.0/stm32cubeide/plugins/com.st.stm32cube.ide.mcu.externaltools.gnu-tools-for-stm32.10.3-2021.10.win32_1.0.200.202301161003/tools/bin/../lib/gcc/arm-none-eabi/10.3.1/thumb/v7e-m+fp/hard/crtbegin.o
 .rodata        0x0000000000000000       0x24 c:/st/stm32cubeide_1.11.0/stm32cubeide/plugins/com.st.stm32cube.ide.mcu.externaltools.gnu-tools-for-stm32.10.3-2021.10.win32_1.0.200.202301161003/tools/bin/../lib/gcc/arm-none-eabi/10.3.1/thumb/v7e-m+fp/hard/crtbegin.o
 .text          0x0000000000000000       0x7c c:/st/stm32cubeide_1.11.0/stm32cubeide/plugins/com.st.stm32cube.ide.mcu.externaltools.gnu-tools-for-stm32.10.3-2021.10.win32_1.0.200.202301161003/tools/bin/../lib/gcc/arm-none-eabi/10.3.1/../../../../arm-none-eabi/lib/thumb/v7e-m+fp/hard/crt0.o
 .data          0x0000000000000000        0x0 c:/st/stm32cubeide_1.11.0/stm32cubeide/plugins/com.st.stm32cube.ide.mcu.externaltools.gnu-tools-for-stm32.10.3-2021.10.win32_1.0.200.202301161003/tools/bin/../lib/gcc/arm-none-eabi/10.3.1/../../../../arm-none-eabi/lib/thumb/v7e-m+fp/hard/crt0.o
 .bss           0x0000000000000000        0x0 c:/st/stm32cubeide_1.11.0/stm32cubeide/plugins/com.st.stm32cube.ide.mcu.externaltools.gnu-tools-for-stm32.10.3-2021.10.win32_1.0.200.202301161003/tools/bin/../lib/gcc/arm-none-eabi/10.3.1/../../../../arm-none-eabi/lib/thumb/v7e-m+fp/hard/crt0.o
 .ARM.extab     0x0000000000000000        0x0 c:/st/stm32cubeide_1.11.0/stm32cubeide/plugins/com.st.stm32cube.ide.mcu.externaltools.gnu-tools-for-stm32.10.3-2021.10.win32_1.0.200.202301161003/tools/bin/../lib/gcc/arm-none-eabi/10.3.1/../../../../arm-none-eabi/lib/thumb/v7e-m+fp/hard/crt0.o
 .ARM.exidx     0x0000000000000000       0x10 c:/st/stm32cubeide_1.11.0/stm32cubeide/plugins/com.st.stm32cube.ide.mcu.externaltools.gnu-tools-for-stm32.10.3-2021.10.win32_1.0.200.202301161003/tools/bin/../lib/gcc/arm-none-eabi/10.3.1/../../../../arm-none-eabi/lib/thumb/v7e-m+fp/hard/crt0.o
 .ARM.attributes
                0x0000000000000000       0x1c c:/st/stm32cubeide_1.11.0/stm32cubeide/plugins/com.st.stm32cube.ide.mcu.externaltools.gnu-tools-for-stm32.10.3-2021.10.win32_1.0.200.202301161003/tools/bin/../lib/gcc/arm-none-eabi/10.3.1/../../../../arm-none-eabi/lib/thumb/v7e-m+fp/hard/crt0.o
 .group         0x0000000000000000        0xc ./Core/Src/ads1256.o
 .group         0x0000000000000000        0xc ./Core/Src/ads1256.o
 .group         0x0000000000000000        0xc ./Core/Src/ads1256.o
 .group         0x0000000000000000        0xc ./Core/Src/ads1256.o
 .group         0x0000000000000000        0xc ./Core/Src/ads1256.o
 .group         0x0000000000000000        0xc ./Core/Src/ads1256.o
Memory Configuration

Name             Origin             Length             Attributes
RAM              0x0000000020000000 0x0000000000018000 xrw
FLASH            0x0000000008000000 0x0000000000080000 xr
*default*        0x0000000000000000 0xffffffffffffffff

Linker script and memory map

LOAD c:/st/stm32cubeide_1.11.0/stm32cubeide/plugins/com.st.stm32cube.ide.mcu.externaltools.gnu-tools-for-stm32.10.3-2021.10.win32_1.0.200.202301161003/tools/bin/../lib/gcc/arm-none-eabi/10.3.1/thumb/v7e-m+fp/hard/crti.o
LOAD c:/st/stm32cubeide_1.11.0/stm32cubeide/plugins/com.st.stm32cube.ide.mcu.externaltools.gnu-tools-for-stm32.10.3-2021.10.win32_1.0.200.202301161003/tools/bin/../lib/gcc/arm-none-eabi/10.3.1/thumb/v7e-m+fp/hard/crtbegin.o
LOAD c:/st/stm32cubeide_1.11.0/stm32cubeide/plugins/com.st.stm32cube.ide.mcu.externaltools.gnu-tools-for-stm32.10.3-2021.10.win32_1.0.200.202301161003/tools/bin/../lib/gcc/arm-none-eabi/10.3.1/../../../../arm-none-eabi/lib/thumb/v7e-m+fp/hard/crt0.o
LOAD ./Core/Src/ads1256.o
LOAD ./Core/Src/loadcell.o
LOAD ./Core/Src/main.o
LOAD ./Core/Src/stm32f4xx_hal_msp.o
LOAD ./Core/Src/stm32f4xx_it.o
LOAD ./Core/Src/syscalls.o
LOAD ./Core/Src/sysmem.o
LOAD ./Core/Src/system_stm32f4xx.o
LOAD ./Core/Src/utilities.o
LOAD ./Core/Startup/startup_stm32f401retx.o
LOAD ./Drivers/STM32F4xx_HAL_Driver/Src/stm32f4xx_hal.o
LOAD ./Drivers/STM32F4xx_HAL_Driver/Src/stm32f4xx_hal_cortex.o
LOAD ./Drivers/STM32F4xx_HAL_Driver/Src/stm32f4xx_hal_dma.o
LOAD ./Drivers/STM32F4xx_HAL_Driver/Src/stm32f4xx_hal_dma_ex.o
LOAD ./Drivers/STM32F4xx_HAL_Driver/Src/stm32f4xx_hal_exti.o
LOAD ./Drivers/STM32F4xx_HAL_Driver/Src/stm32f4xx_hal_flash.o
LOAD ./Drivers/STM32F4xx_HAL_Driver/Src/stm32f4xx_hal_flash_ex.o
LOAD ./Drivers/STM32F4xx_HAL_Driver/Src/stm32f4xx_hal_flash_ramfunc.o
LOAD ./Drivers/STM32F4xx_HAL_Driver/Src/stm32f4xx_hal_gpio.o
LOAD ./Drivers/STM32F4xx_HAL_Driver/Src/stm32f4xx_hal_pcd.o
LOAD ./Drivers/STM32F4xx_HAL_Driver/Src/stm32f4xx_hal_pcd_ex.o
LOAD ./Drivers/STM32F4xx_HAL_Driver/Src/stm32f4xx_hal_pwr.o
LOAD ./Drivers/STM32F4xx_HAL_Driver/Src/stm32f4xx_hal_pwr_ex.o
LOAD ./Drivers/STM32F4xx_HAL_Driver/Src/stm32f4xx_hal_rcc.o
LOAD ./Drivers/STM32F4xx_HAL_Driver/Src/stm32f4xx_hal_rcc_ex.o
LOAD ./Drivers/STM32F4xx_HAL_Driver/Src/stm32f4xx_hal_tim.o
LOAD ./Drivers/STM32F4xx_HAL_Driver/Src/stm32f4xx_hal_tim_ex.o
LOAD ./Drivers/STM32F4xx_HAL_Driver/Src/stm32f4xx_hal_uart.o
LOAD ./Drivers/STM32F4xx_HAL_Driver/Src/stm32f4xx_ll_dma.o
LOAD ./Drivers/STM32F4xx_HAL_Driver/Src/stm32f4xx_ll_exti.o
LOAD ./Drivers/STM32F4xx_HAL_Driver/Src/stm32f4xx_ll_gpio.o
LOAD ./Drivers/STM32F4xx_HAL_Driver/Src/stm32f4xx_ll_rcc.o
LOAD ./Drivers/STM32F4xx_HAL_Driver/Src/stm32f4xx_ll_rtc.o
LOAD ./Drivers/STM32F4xx_HAL_Driver/Src/stm32f4xx_ll_spi.o
LOAD ./Drivers/STM32F4xx_HAL_Driver/Src/stm32f4xx_ll_tim.o
LOAD ./Drivers/STM32F4xx_HAL_Driver/Src/stm32f4xx_ll_usb.o
LOAD ./Drivers/STM32F4xx_HAL_Driver/Src/stm32f4xx_ll_utils.o
START GROUP
LOAD c:/st/stm32cubeide_1.11.0/stm32cubeide/plugins/com.st.stm32cube.ide.mcu.externaltools.gnu-tools-for-stm32.10.3-2021.10.win32_1.0.200.202301161003/tools/bin/../lib/gcc/arm-none-eabi/10.3.1/../../../../arm-none-eabi/lib/thumb/v7e-m+fp/hard\libc_nano.a
LOAD c:/st/stm32cubeide_1.11.0/stm32cubeide/plugins/com.st.stm32cube.ide.mcu.externaltools.gnu-tools-for-stm32.10.3-2021.10.win32_1.0.200.202301161003/tools/bin/../lib/gcc/arm-none-eabi/10.3.1/../../../../arm-none-eabi/lib/thumb/v7e-m+fp/hard\libm.a
END GROUP
START GROUP
LOAD c:/st/stm32cubeide_1.11.0/stm32cubeide/plugins/com.st.stm32cube.ide.mcu.externaltools.gnu-tools-for-stm32.10.3-2021.10.win32_1.0.200.202301161003/tools/bin/../lib/gcc/arm-none-eabi/10.3.1/thumb/v7e-m+fp/hard\libgcc.a
LOAD c:/st/stm32cubeide_1.11.0/stm32cubeide/plugins/com.st.stm32cube.ide.mcu.externaltools.gnu-tools-for-stm32.10.3-2021.10.win32_1.0.200.202301161003/tools/bin/../lib/gcc/arm-none-eabi/10.3.1/../../../../arm-none-eabi/lib/thumb/v7e-m+fp/hard\libc_nano.a
END GROUP
START GROUP
LOAD c:/st/stm32cubeide_1.11.0/stm32cubeide/plugins/com.st.stm32cube.ide.mcu.externaltools.gnu-tools-for-stm32.10.3-2021.10.win32_1.0.200.202301161003/tools/bin/../lib/gcc/arm-none-eabi/10.3.1/thumb/v7e-m+fp/hard\libgcc.a
LOAD c:/st/stm32cubeide_1.11.0/stm32cubeide/plugins/com.st.stm32cube.ide.mcu.externaltools.gnu-tools-for-stm32.10.3-2021.10.win32_1.0.200.202301161003/tools/bin/../lib/gcc/arm-none-eabi/10.3.1/../../../../arm-none-eabi/lib/thumb/v7e-m+fp/hard\libc_nano.a
LOAD c:/st/stm32cubeide_1.11.0/stm32cubeide/plugins/com.st.stm32cube.ide.mcu.externaltools.gnu-tools-for-stm32.10.3-2021.10.win32_1.0.200.202301161003/tools/bin/../lib/gcc/arm-none-eabi/10.3.1/../../../../arm-none-eabi/lib/thumb/v7e-m+fp/hard\libnosys.a
END GROUP
START GROUP
LOAD c:/st/stm32cubeide_1.11.0/stm32cubeide/plugins/com.st.stm32cube.ide.mcu.externaltools.gnu-tools-for-stm32.10.3-2021.10.win32_1.0.200.202301161003/tools/bin/../lib/gcc/arm-none-eabi/10.3.1/thumb/v7e-m+fp/hard\libgcc.a
LOAD c:/st/stm32cubeide_1.11.0/stm32cubeide/plugins/com.st.stm32cube.ide.mcu.externaltools.gnu-tools-for-stm32.10.3-2021.10.win32_1.0.200.202301161003/tools/bin/../lib/gcc/arm-none-eabi/10.3.1/../../../../arm-none-eabi/lib/thumb/v7e-m+fp/hard\libc_nano.a
LOAD c:/st/stm32cubeide_1.11.0/stm32cubeide/plugins/com.st.stm32cube.ide.mcu.externaltools.gnu-tools-for-stm32.10.3-2021.10.win32_1.0.200.202301161003/tools/bin/../lib/gcc/arm-none-eabi/10.3.1/../../../../arm-none-eabi/lib/thumb/v7e-m+fp/hard\libnosys.a
END GROUP
LOAD c:/st/stm32cubeide_1.11.0/stm32cubeide/plugins/com.st.stm32cube.ide.mcu.externaltools.gnu-tools-for-stm32.10.3-2021.10.win32_1.0.200.202301161003/tools/bin/../lib/gcc/arm-none-eabi/10.3.1/thumb/v7e-m+fp/hard/crtend.o
LOAD c:/st/stm32cubeide_1.11.0/stm32cubeide/plugins/com.st.stm32cube.ide.mcu.externaltools.gnu-tools-for-stm32.10.3-2021.10.win32_1.0.200.202301161003/tools/bin/../lib/gcc/arm-none-eabi/10.3.1/thumb/v7e-m+fp/hard/crtn.o
                0x0000000020018000                _estack = (ORIGIN (RAM) + LENGTH (RAM))
                0x0000000000000200                _Min_Heap_Size = 0x200
                0x0000000000000400                _Min_Stack_Size = 0x400

.isr_vector     0x0000000008000000      0x194
                0x0000000008000000                . = ALIGN (0x4)
 *(.isr_vector)
 .isr_vector    0x0000000008000000      0x194 ./Core/Startup/startup_stm32f401retx.o
                0x0000000008000000                g_pfnVectors
                0x0000000008000194                . = ALIGN (0x4)

.text           0x0000000008000194     0x40b4
                0x0000000008000194                . = ALIGN (0x4)
 *(.text)
 .text          0x0000000008000194       0x40 c:/st/stm32cubeide_1.11.0/stm32cubeide/plugins/com.st.stm32cube.ide.mcu.externaltools.gnu-tools-for-stm32.10.3-2021.10.win32_1.0.200.202301161003/tools/bin/../lib/gcc/arm-none-eabi/10.3.1/thumb/v7e-m+fp/hard/crtbegin.o
 .text          0x00000000080001d4       0x30 c:/st/stm32cubeide_1.11.0/stm32cubeide/plugins/com.st.stm32cube.ide.mcu.externaltools.gnu-tools-for-stm32.10.3-2021.10.win32_1.0.200.202301161003/tools/bin/../lib/gcc/arm-none-eabi/10.3.1/thumb/v7e-m+fp/hard\libgcc.a(_aeabi_uldivmod.o)
                0x00000000080001d4                __aeabi_uldivmod
 .text          0x0000000008000204      0x2d0 c:/st/stm32cubeide_1.11.0/stm32cubeide/plugins/com.st.stm32cube.ide.mcu.externaltools.gnu-tools-for-stm32.10.3-2021.10.win32_1.0.200.202301161003/tools/bin/../lib/gcc/arm-none-eabi/10.3.1/thumb/v7e-m+fp/hard\libgcc.a(_udivmoddi4.o)
                0x0000000008000204                __udivmoddi4
 .text          0x00000000080004d4        0x4 c:/st/stm32cubeide_1.11.0/stm32cubeide/plugins/com.st.stm32cube.ide.mcu.externaltools.gnu-tools-for-stm32.10.3-2021.10.win32_1.0.200.202301161003/tools/bin/../lib/gcc/arm-none-eabi/10.3.1/thumb/v7e-m+fp/hard\libgcc.a(_dvmd_tls.o)
                0x00000000080004d4                __aeabi_idiv0
                0x00000000080004d4                __aeabi_ldiv0
 *(.text*)
 .text.LL_DMA_EnableStream
                0x00000000080004d8       0x40 ./Core/Src/ads1256.o
 .text.LL_DMA_DisableStream
                0x0000000008000518       0x40 ./Core/Src/ads1256.o
 .text.LL_DMA_GetDataTransferDirection
                0x0000000008000558       0x30 ./Core/Src/ads1256.o
 .text.LL_DMA_SetDataLength
                0x0000000008000588       0x48 ./Core/Src/ads1256.o
 .text.LL_DMA_ConfigAddresses
                0x00000000080005d0       0x78 ./Core/Src/ads1256.o
 .text.LL_DMA_IsActiveFlag_TC3
                0x0000000008000648       0x28 ./Core/Src/ads1256.o
 .text.LL_DMA_ClearFlag_TC3
                0x0000000008000670       0x1c ./Core/Src/ads1256.o
 .text.LL_DMA_ClearFlag_TC4
                0x000000000800068c       0x1a ./Core/Src/ads1256.o
 .text.LL_SPI_Enable
                0x00000000080006a6       0x20 ./Core/Src/ads1256.o
 .text.LL_SPI_Disable
                0x00000000080006c6       0x20 ./Core/Src/ads1256.o
 .text.LL_SPI_DMA_GetRegAddr
                0x00000000080006e6       0x18 ./Core/Src/ads1256.o
 .text.LL_TIM_SetCounter
                0x00000000080006fe       0x1c ./Core/Src/ads1256.o
 .text.LL_TIM_GetCounter
                0x000000000800071a       0x18 ./Core/Src/ads1256.o
 .text.LL_GPIO_IsInputPinSet
                0x0000000008000732       0x2a ./Core/Src/ads1256.o
 .text.LL_GPIO_SetOutputPin
                0x000000000800075c       0x1c ./Core/Src/ads1256.o
 .text.LL_GPIO_ResetOutputPin
                0x0000000008000778       0x1e ./Core/Src/ads1256.o
 *fill*         0x0000000008000796        0x2 
 .text.ads1256_HAL_is_DRDY_high
                0x0000000008000798       0x1c ./Core/Src/ads1256.o
 .text.ads1256_HAL_reset
                0x00000000080007b4       0x28 ./Core/Src/ads1256.o
                0x00000000080007b4                ads1256_HAL_reset
 .text.ads1256_HAL_Setup_Buffers
                0x00000000080007dc       0x60 ./Core/Src/ads1256.o
                0x00000000080007dc                ads1256_HAL_Setup_Buffers
 .text.ads1256_HAL_SPI_Transfer
                0x000000000800083c       0xb8 ./Core/Src/ads1256.o
                0x000000000800083c                ads1256_HAL_SPI_Transfer
 .text.ads1256_init
                0x00000000080008f4       0xbc ./Core/Src/ads1256.o
                0x00000000080008f4                ads1256_init
 .text.ads1256_configure
                0x00000000080009b0       0xd0 ./Core/Src/ads1256.o
                0x00000000080009b0                ads1256_configure
 .text.ads1256_get_samples
                0x0000000008000a80       0xf8 ./Core/Src/ads1256.o
                0x0000000008000a80                ads1256_get_samples
 .text.ads1256_send_command
                0x0000000008000b78       0x78 ./Core/Src/ads1256.o
                0x0000000008000b78                ads1256_send_command
 .text.__NVIC_EnableIRQ
                0x0000000008000bf0       0x3c ./Core/Src/loadcell.o
 .text.__NVIC_DisableIRQ
                0x0000000008000c2c       0x48 ./Core/Src/loadcell.o
 .text.__NVIC_ClearPendingIRQ
                0x0000000008000c74       0x3c ./Core/Src/loadcell.o
 .text.LL_DMA_DisableStream
                0x0000000008000cb0       0x40 ./Core/Src/loadcell.o
 .text.LL_DMA_ClearFlag_TC3
                0x0000000008000cf0       0x1c ./Core/Src/loadcell.o
 .text.LL_DMA_ClearFlag_TC4
                0x0000000008000d0c       0x1a ./Core/Src/loadcell.o
 .text.LL_DMA_ClearFlag_TE3
                0x0000000008000d26       0x1c ./Core/Src/loadcell.o
 .text.LL_DMA_ClearFlag_TE4
                0x0000000008000d42       0x1a ./Core/Src/loadcell.o
 .text.LL_SPI_Disable
                0x0000000008000d5c       0x20 ./Core/Src/loadcell.o
 .text.LL_TIM_SetCounter
                0x0000000008000d7c       0x1c ./Core/Src/loadcell.o
 .text.LL_TIM_GetCounter
                0x0000000008000d98       0x18 ./Core/Src/loadcell.o
 .text.LL_GPIO_SetOutputPin
                0x0000000008000db0       0x1c ./Core/Src/loadcell.o
 .text.LL_EXTI_IsActiveFlag_0_31
                0x0000000008000dcc       0x2c ./Core/Src/loadcell.o
 .text.LL_EXTI_ClearFlag_0_31
                0x0000000008000df8       0x20 ./Core/Src/loadcell.o
 .text.delay_us
                0x0000000008000e18       0x30 ./Core/Src/loadcell.o
                0x0000000008000e18                delay_us
 .text.lc_measure_load
                0x0000000008000e48       0xec ./Core/Src/loadcell.o
                0x0000000008000e48                lc_measure_load
 .text.lc_do_lc_prepare
                0x0000000008000f34       0xdc ./Core/Src/loadcell.o
                0x0000000008000f34                lc_do_lc_prepare
 .text.lc_do_lc_running
                0x0000000008001010       0x70 ./Core/Src/loadcell.o
                0x0000000008001010                lc_do_lc_running
 .text.lc_do_lc_stopping
                0x0000000008001080       0xc4 ./Core/Src/loadcell.o
                0x0000000008001080                lc_do_lc_stopping
 .text.lc_convert_and_send_data
                0x0000000008001144       0x70 ./Core/Src/loadcell.o
                0x0000000008001144                lc_convert_and_send_data
 .text.lc_Error_Handler
                0x00000000080011b4       0x16 ./Core/Src/loadcell.o
                0x00000000080011b4                lc_Error_Handler
 *fill*         0x00000000080011ca        0x2 
 .text.__NVIC_GetPriorityGrouping
                0x00000000080011cc       0x1c ./Core/Src/main.o
 .text.__NVIC_EnableIRQ
                0x00000000080011e8       0x3c ./Core/Src/main.o
 .text.__NVIC_DisableIRQ
                0x0000000008001224       0x48 ./Core/Src/main.o
 .text.__NVIC_SetPriority
                0x000000000800126c       0x54 ./Core/Src/main.o
 .text.NVIC_EncodePriority
                0x00000000080012c0       0x66 ./Core/Src/main.o
 *fill*         0x0000000008001326        0x2 
 .text.LL_DMA_SetDataTransferDirection
                0x0000000008001328       0x48 ./Core/Src/main.o
 .text.LL_DMA_GetDataTransferDirection
                0x0000000008001370       0x30 ./Core/Src/main.o
 .text.LL_DMA_SetMode
                0x00000000080013a0       0x48 ./Core/Src/main.o
 .text.LL_DMA_SetPeriphIncMode
                0x00000000080013e8       0x48 ./Core/Src/main.o
 .text.LL_DMA_SetMemoryIncMode
                0x0000000008001430       0x48 ./Core/Src/main.o
 .text.LL_DMA_SetPeriphSize
                0x0000000008001478       0x48 ./Core/Src/main.o
 .text.LL_DMA_SetMemorySize
                0x00000000080014c0       0x48 ./Core/Src/main.o
 .text.LL_DMA_SetStreamPriorityLevel
                0x0000000008001508       0x48 ./Core/Src/main.o
 .text.LL_DMA_SetDataLength
                0x0000000008001550       0x48 ./Core/Src/main.o
 .text.LL_DMA_SetChannelSelection
                0x0000000008001598       0x48 ./Core/Src/main.o
 .text.LL_DMA_DisableFifoMode
                0x00000000080015e0       0x40 ./Core/Src/main.o
 .text.LL_DMA_ConfigAddresses
                0x0000000008001620       0x78 ./Core/Src/main.o
 .text.LL_DMA_EnableIT_TE
                0x0000000008001698       0x40 ./Core/Src/main.o
 .text.LL_DMA_EnableIT_TC
                0x00000000080016d8       0x40 ./Core/Src/main.o
 .text.LL_IWDG_Enable
                0x0000000008001718       0x1c ./Core/Src/main.o
 .text.LL_IWDG_ReloadCounter
                0x0000000008001734       0x1c ./Core/Src/main.o
 .text.LL_IWDG_EnableWriteAccess
                0x0000000008001750       0x1c ./Core/Src/main.o
 .text.LL_IWDG_SetPrescaler
                0x000000000800176c       0x20 ./Core/Src/main.o
 .text.LL_IWDG_SetReloadCounter
                0x000000000800178c       0x20 ./Core/Src/main.o
 .text.LL_IWDG_IsReady
                0x00000000080017ac       0x26 ./Core/Src/main.o
 .text.LL_RTC_SetAsynchPrescaler
                0x00000000080017d2       0x28 ./Core/Src/main.o
 .text.LL_RTC_SetSynchPrescaler
                0x00000000080017fa       0x2a ./Core/Src/main.o
 .text.LL_SPI_SetStandard
                0x0000000008001824       0x26 ./Core/Src/main.o
 .text.LL_SPI_EnableDMAReq_RX
                0x000000000800184a       0x20 ./Core/Src/main.o
 .text.LL_SPI_EnableDMAReq_TX
                0x000000000800186a       0x20 ./Core/Src/main.o
 .text.LL_SPI_DMA_GetRegAddr
                0x000000000800188a       0x18 ./Core/Src/main.o
 .text.LL_TIM_EnableCounter
                0x00000000080018a2       0x20 ./Core/Src/main.o
 .text.LL_TIM_DisableARRPreload
                0x00000000080018c2       0x20 ./Core/Src/main.o
 .text.LL_TIM_SetCounter
                0x00000000080018e2       0x1c ./Core/Src/main.o
 .text.LL_TIM_SetClockSource
                0x00000000080018fe       0x2a ./Core/Src/main.o
 .text.LL_TIM_SetTriggerOutput
                0x0000000008001928       0x26 ./Core/Src/main.o
 .text.LL_TIM_DisableMasterSlaveMode
                0x000000000800194e       0x20 ./Core/Src/main.o
 *fill*         0x000000000800196e        0x2 
 .text.LL_SYSCFG_SetEXTISource
                0x0000000008001970       0x5c ./Core/Src/main.o
 .text.LL_GPIO_SetPinMode
                0x00000000080019cc       0x5e ./Core/Src/main.o
 .text.LL_GPIO_SetPinPull
                0x0000000008001a2a       0x5e ./Core/Src/main.o
 .text.LL_GPIO_SetOutputPin
                0x0000000008001a88       0x1c ./Core/Src/main.o
 .text.LL_GPIO_ResetOutputPin
                0x0000000008001aa4       0x1e ./Core/Src/main.o
 *fill*         0x0000000008001ac2        0x2 
 .text.LL_AHB1_GRP1_EnableClock
                0x0000000008001ac4       0x30 ./Core/Src/main.o
 .text.LL_APB1_GRP1_EnableClock
                0x0000000008001af4       0x30 ./Core/Src/main.o
 .text.LL_RCC_EnableRTC
                0x0000000008001b24       0x20 ./Core/Src/main.o
 .text.main     0x0000000008001b44      0x1bc ./Core/Src/main.o
                0x0000000008001b44                main
 .text.SystemClock_Config
                0x0000000008001d00       0xe0 ./Core/Src/main.o
                0x0000000008001d00                SystemClock_Config
 .text.MX_IWDG_Init
                0x0000000008001de0       0x40 ./Core/Src/main.o
 .text.MX_RTC_Init
                0x0000000008001e20       0x74 ./Core/Src/main.o
 .text.MX_SPI2_Init
                0x0000000008001e94      0x164 ./Core/Src/main.o
 .text.MX_TIM2_Init
                0x0000000008001ff8       0x68 ./Core/Src/main.o
 .text.MX_TIM3_Init
                0x0000000008002060       0x60 ./Core/Src/main.o
 .text.MX_DMA_Init
                0x00000000080020c0       0x50 ./Core/Src/main.o
 .text.MX_GPIO_Init
                0x0000000008002110      0x140 ./Core/Src/main.o
 .text.Error_Handler
                0x0000000008002250        0xa ./Core/Src/main.o
                0x0000000008002250                Error_Handler
 *fill*         0x000000000800225a        0x2 
 .text.HAL_MspInit
                0x000000000800225c       0x50 ./Core/Src/stm32f4xx_hal_msp.o
                0x000000000800225c                HAL_MspInit
 .text.LL_DMA_EnableStream
                0x00000000080022ac       0x40 ./Core/Src/stm32f4xx_it.o
 .text.LL_DMA_DisableStream
                0x00000000080022ec       0x40 ./Core/Src/stm32f4xx_it.o
 .text.LL_DMA_IsActiveFlag_TC3
                0x000000000800232c       0x28 ./Core/Src/stm32f4xx_it.o
 .text.LL_DMA_IsActiveFlag_TC4
                0x0000000008002354       0x26 ./Core/Src/stm32f4xx_it.o
 .text.LL_DMA_IsActiveFlag_TE3
                0x000000000800237a       0x28 ./Core/Src/stm32f4xx_it.o
 .text.LL_DMA_IsActiveFlag_TE4
                0x00000000080023a2       0x26 ./Core/Src/stm32f4xx_it.o
 .text.LL_DMA_ClearFlag_TC3
                0x00000000080023c8       0x1c ./Core/Src/stm32f4xx_it.o
 .text.LL_DMA_ClearFlag_TC4
                0x00000000080023e4       0x1a ./Core/Src/stm32f4xx_it.o
 .text.LL_DMA_ClearFlag_TE3
                0x00000000080023fe       0x1c ./Core/Src/stm32f4xx_it.o
 .text.LL_DMA_ClearFlag_TE4
                0x000000000800241a       0x1a ./Core/Src/stm32f4xx_it.o
 .text.LL_SPI_Enable
                0x0000000008002434       0x20 ./Core/Src/stm32f4xx_it.o
 .text.LL_SPI_Disable
                0x0000000008002454       0x20 ./Core/Src/stm32f4xx_it.o
 .text.LL_GPIO_SetOutputPin
                0x0000000008002474       0x1c ./Core/Src/stm32f4xx_it.o
 .text.LL_GPIO_ResetOutputPin
                0x0000000008002490       0x1e ./Core/Src/stm32f4xx_it.o
 *fill*         0x00000000080024ae        0x2 
 .text.LL_EXTI_IsActiveFlag_0_31
                0x00000000080024b0       0x2c ./Core/Src/stm32f4xx_it.o
 .text.LL_EXTI_ClearFlag_0_31
                0x00000000080024dc       0x20 ./Core/Src/stm32f4xx_it.o
 .text.NMI_Handler
                0x00000000080024fc        0x6 ./Core/Src/stm32f4xx_it.o
                0x00000000080024fc                NMI_Handler
 .text.HardFault_Handler
                0x0000000008002502        0x6 ./Core/Src/stm32f4xx_it.o
                0x0000000008002502                HardFault_Handler
 .text.MemManage_Handler
                0x0000000008002508        0x6 ./Core/Src/stm32f4xx_it.o
                0x0000000008002508                MemManage_Handler
 .text.BusFault_Handler
                0x000000000800250e        0x6 ./Core/Src/stm32f4xx_it.o
                0x000000000800250e                BusFault_Handler
 .text.UsageFault_Handler
                0x0000000008002514        0x6 ./Core/Src/stm32f4xx_it.o
                0x0000000008002514                UsageFault_Handler
 .text.SVC_Handler
                0x000000000800251a        0xe ./Core/Src/stm32f4xx_it.o
                0x000000000800251a                SVC_Handler
 .text.DebugMon_Handler
                0x0000000008002528        0xe ./Core/Src/stm32f4xx_it.o
                0x0000000008002528                DebugMon_Handler
 .text.PendSV_Handler
                0x0000000008002536        0xe ./Core/Src/stm32f4xx_it.o
                0x0000000008002536                PendSV_Handler
 .text.SysTick_Handler
                0x0000000008002544        0xc ./Core/Src/stm32f4xx_it.o
                0x0000000008002544                SysTick_Handler
 .text.DMA1_Stream3_IRQHandler
                0x0000000008002550       0xe0 ./Core/Src/stm32f4xx_it.o
                0x0000000008002550                DMA1_Stream3_IRQHandler
 .text.DMA1_Stream4_IRQHandler
                0x0000000008002630       0x30 ./Core/Src/stm32f4xx_it.o
                0x0000000008002630                DMA1_Stream4_IRQHandler
 .text.EXTI9_5_IRQHandler
                0x0000000008002660       0x4c ./Core/Src/stm32f4xx_it.o
                0x0000000008002660                EXTI9_5_IRQHandler
 .text.SystemInit
                0x00000000080026ac       0x24 ./Core/Src/system_stm32f4xx.o
                0x00000000080026ac                SystemInit
 .text.int_pow  0x00000000080026d0       0x38 ./Core/Src/utilities.o
                0x00000000080026d0                int_pow
 .text.frac_roundf
                0x0000000008002708       0x8c ./Core/Src/utilities.o
                0x0000000008002708                frac_roundf
 .text.float_to_char_opt
                0x0000000008002794      0x1a4 ./Core/Src/utilities.o
                0x0000000008002794                float_to_char_opt
 .text.Reset_Handler
                0x0000000008002938       0x50 ./Core/Startup/startup_stm32f401retx.o
                0x0000000008002938                Reset_Handler
 .text.Default_Handler
                0x0000000008002988        0x2 ./Core/Startup/startup_stm32f401retx.o
                0x0000000008002988                RTC_Alarm_IRQHandler
                0x0000000008002988                EXTI2_IRQHandler
                0x0000000008002988                SPI4_IRQHandler
                0x0000000008002988                TIM1_CC_IRQHandler
                0x0000000008002988                DMA2_Stream5_IRQHandler
                0x0000000008002988                DMA1_Stream5_IRQHandler
                0x0000000008002988                PVD_IRQHandler
                0x0000000008002988                SDIO_IRQHandler
                0x0000000008002988                TAMP_STAMP_IRQHandler
                0x0000000008002988                EXTI3_IRQHandler
                0x0000000008002988                TIM1_UP_TIM10_IRQHandler
                0x0000000008002988                I2C3_ER_IRQHandler
                0x0000000008002988                EXTI0_IRQHandler
                0x0000000008002988                I2C2_EV_IRQHandler
                0x0000000008002988                DMA1_Stream2_IRQHandler
                0x0000000008002988                FPU_IRQHandler
                0x0000000008002988                DMA2_Stream2_IRQHandler
                0x0000000008002988                SPI1_IRQHandler
                0x0000000008002988                TIM1_BRK_TIM9_IRQHandler
                0x0000000008002988                DMA2_Stream3_IRQHandler
                0x0000000008002988                USART6_IRQHandler
                0x0000000008002988                DMA2_Stream0_IRQHandler
                0x0000000008002988                TIM4_IRQHandler
                0x0000000008002988                I2C1_EV_IRQHandler
                0x0000000008002988                DMA1_Stream6_IRQHandler
                0x0000000008002988                DMA1_Stream1_IRQHandler
                0x0000000008002988                TIM3_IRQHandler
                0x0000000008002988                RCC_IRQHandler
                0x0000000008002988                Default_Handler
                0x0000000008002988                EXTI15_10_IRQHandler
                0x0000000008002988                ADC_IRQHandler
                0x0000000008002988                DMA1_Stream7_IRQHandler
                0x0000000008002988                TIM5_IRQHandler
                0x0000000008002988                DMA2_Stream7_IRQHandler
                0x0000000008002988                I2C3_EV_IRQHandler
                0x0000000008002988                RTC_WKUP_IRQHandler
                0x0000000008002988                SPI2_IRQHandler
                0x0000000008002988                DMA1_Stream0_IRQHandler
                0x0000000008002988                EXTI4_IRQHandler
                0x0000000008002988                WWDG_IRQHandler
                0x0000000008002988                TIM2_IRQHandler
                0x0000000008002988                OTG_FS_WKUP_IRQHandler
                0x0000000008002988                TIM1_TRG_COM_TIM11_IRQHandler
                0x0000000008002988                EXTI1_IRQHandler
                0x0000000008002988                USART2_IRQHandler
                0x0000000008002988                I2C2_ER_IRQHandler
                0x0000000008002988                DMA2_Stream1_IRQHandler
                0x0000000008002988                FLASH_IRQHandler
                0x0000000008002988                DMA2_Stream4_IRQHandler
                0x0000000008002988                USART1_IRQHandler
                0x0000000008002988                OTG_FS_IRQHandler
                0x0000000008002988                SPI3_IRQHandler
                0x0000000008002988                I2C1_ER_IRQHandler
                0x0000000008002988                DMA2_Stream6_IRQHandler
 *fill*         0x000000000800298a        0x2 
 .text.HAL_Init
                0x000000000800298c       0x44 ./Drivers/STM32F4xx_HAL_Driver/Src/stm32f4xx_hal.o
                0x000000000800298c                HAL_Init
 .text.HAL_InitTick
                0x00000000080029d0       0x60 ./Drivers/STM32F4xx_HAL_Driver/Src/stm32f4xx_hal.o
                0x00000000080029d0                HAL_InitTick
 .text.HAL_IncTick
                0x0000000008002a30       0x28 ./Drivers/STM32F4xx_HAL_Driver/Src/stm32f4xx_hal.o
                0x0000000008002a30                HAL_IncTick
 .text.HAL_GetTick
                0x0000000008002a58       0x18 ./Drivers/STM32F4xx_HAL_Driver/Src/stm32f4xx_hal.o
                0x0000000008002a58                HAL_GetTick
 .text.__NVIC_SetPriorityGrouping
                0x0000000008002a70       0x48 ./Drivers/STM32F4xx_HAL_Driver/Src/stm32f4xx_hal_cortex.o
 .text.__NVIC_GetPriorityGrouping
                0x0000000008002ab8       0x1c ./Drivers/STM32F4xx_HAL_Driver/Src/stm32f4xx_hal_cortex.o
 .text.__NVIC_SetPriority
                0x0000000008002ad4       0x54 ./Drivers/STM32F4xx_HAL_Driver/Src/stm32f4xx_hal_cortex.o
 .text.NVIC_EncodePriority
                0x0000000008002b28       0x66 ./Drivers/STM32F4xx_HAL_Driver/Src/stm32f4xx_hal_cortex.o
 *fill*         0x0000000008002b8e        0x2 
 .text.SysTick_Config
                0x0000000008002b90       0x44 ./Drivers/STM32F4xx_HAL_Driver/Src/stm32f4xx_hal_cortex.o
 .text.HAL_NVIC_SetPriorityGrouping
                0x0000000008002bd4       0x16 ./Drivers/STM32F4xx_HAL_Driver/Src/stm32f4xx_hal_cortex.o
                0x0000000008002bd4                HAL_NVIC_SetPriorityGrouping
 .text.HAL_NVIC_SetPriority
                0x0000000008002bea       0x38 ./Drivers/STM32F4xx_HAL_Driver/Src/stm32f4xx_hal_cortex.o
                0x0000000008002bea                HAL_NVIC_SetPriority
 .text.HAL_SYSTICK_Config
                0x0000000008002c22       0x18 ./Drivers/STM32F4xx_HAL_Driver/Src/stm32f4xx_hal_cortex.o
                0x0000000008002c22                HAL_SYSTICK_Config
 *fill*         0x0000000008002c3a        0x2 
 .text.HAL_RCC_OscConfig
                0x0000000008002c3c      0x4f0 ./Drivers/STM32F4xx_HAL_Driver/Src/stm32f4xx_hal_rcc.o
                0x0000000008002c3c                HAL_RCC_OscConfig
 .text.HAL_RCC_ClockConfig
                0x000000000800312c      0x1cc ./Drivers/STM32F4xx_HAL_Driver/Src/stm32f4xx_hal_rcc.o
                0x000000000800312c                HAL_RCC_ClockConfig
 .text.HAL_RCC_GetSysClockFreq
                0x00000000080032f8      0x18c ./Drivers/STM32F4xx_HAL_Driver/Src/stm32f4xx_hal_rcc.o
                0x00000000080032f8                HAL_RCC_GetSysClockFreq
 .text.HAL_RCCEx_PeriphCLKConfig
                0x0000000008003484      0x1dc ./Drivers/STM32F4xx_HAL_Driver/Src/stm32f4xx_hal_rcc_ex.o
                0x0000000008003484                HAL_RCCEx_PeriphCLKConfig
 .text.HAL_UART_Transmit
                0x0000000008003660      0x124 ./Drivers/STM32F4xx_HAL_Driver/Src/stm32f4xx_hal_uart.o
                0x0000000008003660                HAL_UART_Transmit
 .text.UART_WaitOnFlagUntilTimeout
                0x0000000008003784       0xdc ./Drivers/STM32F4xx_HAL_Driver/Src/stm32f4xx_hal_uart.o
 .text.LL_EXTI_EnableIT_0_31
                0x0000000008003860       0x24 ./Drivers/STM32F4xx_HAL_Driver/Src/stm32f4xx_ll_exti.o
 .text.LL_EXTI_DisableIT_0_31
                0x0000000008003884       0x28 ./Drivers/STM32F4xx_HAL_Driver/Src/stm32f4xx_ll_exti.o
 .text.LL_EXTI_EnableEvent_0_31
                0x00000000080038ac       0x24 ./Drivers/STM32F4xx_HAL_Driver/Src/stm32f4xx_ll_exti.o
 .text.LL_EXTI_DisableEvent_0_31
                0x00000000080038d0       0x28 ./Drivers/STM32F4xx_HAL_Driver/Src/stm32f4xx_ll_exti.o
 .text.LL_EXTI_EnableRisingTrig_0_31
                0x00000000080038f8       0x24 ./Drivers/STM32F4xx_HAL_Driver/Src/stm32f4xx_ll_exti.o
 .text.LL_EXTI_DisableRisingTrig_0_31
                0x000000000800391c       0x28 ./Drivers/STM32F4xx_HAL_Driver/Src/stm32f4xx_ll_exti.o
 .text.LL_EXTI_EnableFallingTrig_0_31
                0x0000000008003944       0x24 ./Drivers/STM32F4xx_HAL_Driver/Src/stm32f4xx_ll_exti.o
 .text.LL_EXTI_DisableFallingTrig_0_31
                0x0000000008003968       0x28 ./Drivers/STM32F4xx_HAL_Driver/Src/stm32f4xx_ll_exti.o
 .text.LL_EXTI_Init
                0x0000000008003990      0x102 ./Drivers/STM32F4xx_HAL_Driver/Src/stm32f4xx_ll_exti.o
                0x0000000008003990                LL_EXTI_Init
 .text.LL_GPIO_SetPinMode
                0x0000000008003a92       0x5e ./Drivers/STM32F4xx_HAL_Driver/Src/stm32f4xx_ll_gpio.o
 .text.LL_GPIO_SetPinOutputType
                0x0000000008003af0       0x30 ./Drivers/STM32F4xx_HAL_Driver/Src/stm32f4xx_ll_gpio.o
 .text.LL_GPIO_SetPinSpeed
                0x0000000008003b20       0x5e ./Drivers/STM32F4xx_HAL_Driver/Src/stm32f4xx_ll_gpio.o
 .text.LL_GPIO_SetPinPull
                0x0000000008003b7e       0x5e ./Drivers/STM32F4xx_HAL_Driver/Src/stm32f4xx_ll_gpio.o
 .text.LL_GPIO_SetAFPin_0_7
                0x0000000008003bdc       0x5e ./Drivers/STM32F4xx_HAL_Driver/Src/stm32f4xx_ll_gpio.o
 .text.LL_GPIO_SetAFPin_8_15
                0x0000000008003c3a       0x62 ./Drivers/STM32F4xx_HAL_Driver/Src/stm32f4xx_ll_gpio.o
 .text.LL_GPIO_Init
                0x0000000008003c9c       0xe6 ./Drivers/STM32F4xx_HAL_Driver/Src/stm32f4xx_ll_gpio.o
                0x0000000008003c9c                LL_GPIO_Init
 .text.LL_RTC_SetHourFormat
                0x0000000008003d82       0x26 ./Drivers/STM32F4xx_HAL_Driver/Src/stm32f4xx_ll_rtc.o
 .text.LL_RTC_EnableInitMode
                0x0000000008003da8       0x1c ./Drivers/STM32F4xx_HAL_Driver/Src/stm32f4xx_ll_rtc.o
 .text.LL_RTC_DisableInitMode
                0x0000000008003dc4       0x1c ./Drivers/STM32F4xx_HAL_Driver/Src/stm32f4xx_ll_rtc.o
 .text.LL_RTC_SetAsynchPrescaler
                0x0000000008003de0       0x28 ./Drivers/STM32F4xx_HAL_Driver/Src/stm32f4xx_ll_rtc.o
 .text.LL_RTC_SetSynchPrescaler
                0x0000000008003e08       0x2a ./Drivers/STM32F4xx_HAL_Driver/Src/stm32f4xx_ll_rtc.o
 .text.LL_RTC_EnableWriteProtection
                0x0000000008003e32       0x1a ./Drivers/STM32F4xx_HAL_Driver/Src/stm32f4xx_ll_rtc.o
 .text.LL_RTC_DisableWriteProtection
                0x0000000008003e4c       0x20 ./Drivers/STM32F4xx_HAL_Driver/Src/stm32f4xx_ll_rtc.o
 .text.LL_RTC_IsActiveFlag_INIT
                0x0000000008003e6c       0x26 ./Drivers/STM32F4xx_HAL_Driver/Src/stm32f4xx_ll_rtc.o
 *fill*         0x0000000008003e92        0x2 
 .text.LL_SYSTICK_IsActiveCounterFlag
                0x0000000008003e94       0x28 ./Drivers/STM32F4xx_HAL_Driver/Src/stm32f4xx_ll_rtc.o
 .text.LL_RTC_Init
                0x0000000008003ebc       0x5e ./Drivers/STM32F4xx_HAL_Driver/Src/stm32f4xx_ll_rtc.o
                0x0000000008003ebc                LL_RTC_Init
 .text.LL_RTC_EnterInitMode
                0x0000000008003f1a       0x6a ./Drivers/STM32F4xx_HAL_Driver/Src/stm32f4xx_ll_rtc.o
                0x0000000008003f1a                LL_RTC_EnterInitMode
 .text.LL_SPI_IsEnabled
                0x0000000008003f84       0x26 ./Drivers/STM32F4xx_HAL_Driver/Src/stm32f4xx_ll_spi.o
 .text.LL_SPI_SetCRCPolynomial
                0x0000000008003faa       0x20 ./Drivers/STM32F4xx_HAL_Driver/Src/stm32f4xx_ll_spi.o
 .text.LL_SPI_Init
                0x0000000008003fca       0xa4 ./Drivers/STM32F4xx_HAL_Driver/Src/stm32f4xx_ll_spi.o
                0x0000000008003fca                LL_SPI_Init
 .text.LL_TIM_SetPrescaler
                0x000000000800406e       0x1c ./Drivers/STM32F4xx_HAL_Driver/Src/stm32f4xx_ll_tim.o
 .text.LL_TIM_SetAutoReload
                0x000000000800408a       0x1c ./Drivers/STM32F4xx_HAL_Driver/Src/stm32f4xx_ll_tim.o
 .text.LL_TIM_SetRepetitionCounter
                0x00000000080040a6       0x1c ./Drivers/STM32F4xx_HAL_Driver/Src/stm32f4xx_ll_tim.o
 .text.LL_TIM_GenerateEvent_UPDATE
                0x00000000080040c2       0x20 ./Drivers/STM32F4xx_HAL_Driver/Src/stm32f4xx_ll_tim.o
 *fill*         0x00000000080040e2        0x2 
 .text.LL_TIM_Init
                0x00000000080040e4       0xf4 ./Drivers/STM32F4xx_HAL_Driver/Src/stm32f4xx_ll_tim.o
                0x00000000080040e4                LL_TIM_Init
 .text.__libc_init_array
                0x00000000080041d8       0x48 c:/st/stm32cubeide_1.11.0/stm32cubeide/plugins/com.st.stm32cube.ide.mcu.externaltools.gnu-tools-for-stm32.10.3-2021.10.win32_1.0.200.202301161003/tools/bin/../lib/gcc/arm-none-eabi/10.3.1/../../../../arm-none-eabi/lib/thumb/v7e-m+fp/hard\libc_nano.a(lib_a-init.o)
                0x00000000080041d8                __libc_init_array
 .text.memset   0x0000000008004220       0x10 c:/st/stm32cubeide_1.11.0/stm32cubeide/plugins/com.st.stm32cube.ide.mcu.externaltools.gnu-tools-for-stm32.10.3-2021.10.win32_1.0.200.202301161003/tools/bin/../lib/gcc/arm-none-eabi/10.3.1/../../../../arm-none-eabi/lib/thumb/v7e-m+fp/hard\libc_nano.a(lib_a-memset.o)
                0x0000000008004220                memset
 *(.glue_7)
 .glue_7        0x0000000008004230        0x0 linker stubs
 *(.glue_7t)
 .glue_7t       0x0000000008004230        0x0 linker stubs
 *(.eh_frame)
 .eh_frame      0x0000000008004230        0x0 c:/st/stm32cubeide_1.11.0/stm32cubeide/plugins/com.st.stm32cube.ide.mcu.externaltools.gnu-tools-for-stm32.10.3-2021.10.win32_1.0.200.202301161003/tools/bin/../lib/gcc/arm-none-eabi/10.3.1/thumb/v7e-m+fp/hard/crtbegin.o
 *(.init)
 .init          0x0000000008004230        0x4 c:/st/stm32cubeide_1.11.0/stm32cubeide/plugins/com.st.stm32cube.ide.mcu.externaltools.gnu-tools-for-stm32.10.3-2021.10.win32_1.0.200.202301161003/tools/bin/../lib/gcc/arm-none-eabi/10.3.1/thumb/v7e-m+fp/hard/crti.o
                0x0000000008004230                _init
 .init          0x0000000008004234        0x8 c:/st/stm32cubeide_1.11.0/stm32cubeide/plugins/com.st.stm32cube.ide.mcu.externaltools.gnu-tools-for-stm32.10.3-2021.10.win32_1.0.200.202301161003/tools/bin/../lib/gcc/arm-none-eabi/10.3.1/thumb/v7e-m+fp/hard/crtn.o
 *(.fini)
 .fini          0x000000000800423c        0x4 c:/st/stm32cubeide_1.11.0/stm32cubeide/plugins/com.st.stm32cube.ide.mcu.externaltools.gnu-tools-for-stm32.10.3-2021.10.win32_1.0.200.202301161003/tools/bin/../lib/gcc/arm-none-eabi/10.3.1/thumb/v7e-m+fp/hard/crti.o
                0x000000000800423c                _fini
 .fini          0x0000000008004240        0x8 c:/st/stm32cubeide_1.11.0/stm32cubeide/plugins/com.st.stm32cube.ide.mcu.externaltools.gnu-tools-for-stm32.10.3-2021.10.win32_1.0.200.202301161003/tools/bin/../lib/gcc/arm-none-eabi/10.3.1/thumb/v7e-m+fp/hard/crtn.o
                0x0000000008004248                . = ALIGN (0x4)
                0x0000000008004248                _etext = .

.vfp11_veneer   0x0000000008004248        0x0
 .vfp11_veneer  0x0000000008004248        0x0 linker stubs

.v4_bx          0x0000000008004248        0x0
 .v4_bx         0x0000000008004248        0x0 linker stubs

.iplt           0x0000000008004248        0x0
 .iplt          0x0000000008004248        0x0 c:/st/stm32cubeide_1.11.0/stm32cubeide/plugins/com.st.stm32cube.ide.mcu.externaltools.gnu-tools-for-stm32.10.3-2021.10.win32_1.0.200.202301161003/tools/bin/../lib/gcc/arm-none-eabi/10.3.1/thumb/v7e-m+fp/hard/crtbegin.o

.rodata         0x0000000008004248       0x94
                0x0000000008004248                . = ALIGN (0x4)
 *(.rodata)
 .rodata        0x0000000008004248       0x28 ./Core/Src/main.o
 *(.rodata*)
 .rodata.STREAM_OFFSET_TAB
                0x0000000008004270        0x8 ./Core/Src/ads1256.o
 .rodata.STREAM_OFFSET_TAB
                0x0000000008004278        0x8 ./Core/Src/loadcell.o
 .rodata.ThisFileName
                0x0000000008004280        0xb ./Core/Src/loadcell.o
 *fill*         0x000000000800428b        0x1 
 .rodata.STREAM_OFFSET_TAB
                0x000000000800428c        0x8 ./Core/Src/main.o
 .rodata.ThisFileName
                0x0000000008004294        0x7 ./Core/Src/main.o
 *fill*         0x000000000800429b        0x1 
 .rodata.STREAM_OFFSET_TAB
                0x000000000800429c        0x8 ./Core/Src/stm32f4xx_it.o
 .rodata.AHBPrescTable
                0x00000000080042a4       0x10 ./Core/Src/system_stm32f4xx.o
                0x00000000080042a4                AHBPrescTable
 .rodata.charcodes.3
                0x00000000080042b4       0x25 ./Core/Src/utilities.o
                0x00000000080042dc                . = ALIGN (0x4)
 *fill*         0x00000000080042d9        0x3 

.ARM.extab      0x00000000080042dc        0x0
                0x00000000080042dc                . = ALIGN (0x4)
 *(.ARM.extab* .gnu.linkonce.armextab.*)
                0x00000000080042dc                . = ALIGN (0x4)

.ARM            0x00000000080042dc        0x8
                0x00000000080042dc                . = ALIGN (0x4)
                0x00000000080042dc                __exidx_start = .
 *(.ARM.exidx*)
 .ARM.exidx     0x00000000080042dc        0x8 c:/st/stm32cubeide_1.11.0/stm32cubeide/plugins/com.st.stm32cube.ide.mcu.externaltools.gnu-tools-for-stm32.10.3-2021.10.win32_1.0.200.202301161003/tools/bin/../lib/gcc/arm-none-eabi/10.3.1/thumb/v7e-m+fp/hard\libgcc.a(_udivmoddi4.o)
                0x00000000080042e4                __exidx_end = .
                0x00000000080042e4                . = ALIGN (0x4)

.rel.dyn        0x00000000080042e4        0x0
 .rel.iplt      0x00000000080042e4        0x0 c:/st/stm32cubeide_1.11.0/stm32cubeide/plugins/com.st.stm32cube.ide.mcu.externaltools.gnu-tools-for-stm32.10.3-2021.10.win32_1.0.200.202301161003/tools/bin/../lib/gcc/arm-none-eabi/10.3.1/thumb/v7e-m+fp/hard/crtbegin.o

.preinit_array  0x00000000080042e4        0x0
                0x00000000080042e4                . = ALIGN (0x4)
                0x00000000080042e4                PROVIDE (__preinit_array_start = .)
 *(.preinit_array*)
                0x00000000080042e4                PROVIDE (__preinit_array_end = .)
                0x00000000080042e4                . = ALIGN (0x4)

.init_array     0x00000000080042e4        0x4
                0x00000000080042e4                . = ALIGN (0x4)
                0x00000000080042e4                PROVIDE (__init_array_start = .)
 *(SORT_BY_NAME(.init_array.*))
 *(.init_array*)
 .init_array    0x00000000080042e4        0x4 c:/st/stm32cubeide_1.11.0/stm32cubeide/plugins/com.st.stm32cube.ide.mcu.externaltools.gnu-tools-for-stm32.10.3-2021.10.win32_1.0.200.202301161003/tools/bin/../lib/gcc/arm-none-eabi/10.3.1/thumb/v7e-m+fp/hard/crtbegin.o
                0x00000000080042e8                PROVIDE (__init_array_end = .)
                0x00000000080042e8                . = ALIGN (0x4)

.fini_array     0x00000000080042e8        0x4
                0x00000000080042e8                . = ALIGN (0x4)
                [!provide]                        PROVIDE (__fini_array_start = .)
 *(SORT_BY_NAME(.fini_array.*))
 *(.fini_array*)
 .fini_array    0x00000000080042e8        0x4 c:/st/stm32cubeide_1.11.0/stm32cubeide/plugins/com.st.stm32cube.ide.mcu.externaltools.gnu-tools-for-stm32.10.3-2021.10.win32_1.0.200.202301161003/tools/bin/../lib/gcc/arm-none-eabi/10.3.1/thumb/v7e-m+fp/hard/crtbegin.o
                [!provide]                        PROVIDE (__fini_array_end = .)
                0x00000000080042ec                . = ALIGN (0x4)
                0x00000000080042ec                _sidata = LOADADDR (.data)

.data           0x0000000020000000       0x14 load address 0x00000000080042ec
                0x0000000020000000                . = ALIGN (0x4)
                0x0000000020000000                _sdata = .
 *(.data)
 *(.data*)
 .data.LastCollectedPointer
                0x0000000020000000        0x1 ./Core/Src/loadcell.o
                0x0000000020000000                LastCollectedPointer
 *fill*         0x0000000020000001        0x3 
 .data.ProbeScaleFactor
                0x0000000020000004        0x4 ./Core/Src/loadcell.o
                0x0000000020000004                ProbeScaleFactor
 .data.SystemCoreClock
                0x0000000020000008        0x4 ./Core/Src/system_stm32f4xx.o
                0x0000000020000008                SystemCoreClock
 .data.uwTickPrio
                0x000000002000000c        0x4 ./Drivers/STM32F4xx_HAL_Driver/Src/stm32f4xx_hal.o
                0x000000002000000c                uwTickPrio
 .data.uwTickFreq
                0x0000000020000010        0x1 ./Drivers/STM32F4xx_HAL_Driver/Src/stm32f4xx_hal.o
                0x0000000020000010                uwTickFreq
 *(.RamFunc)
 *(.RamFunc*)
                0x0000000020000014                . = ALIGN (0x4)
 *fill*         0x0000000020000011        0x3 
                0x0000000020000014                _edata = .

.igot.plt       0x0000000020000014        0x0 load address 0x0000000008004300
 .igot.plt      0x0000000020000014        0x0 c:/st/stm32cubeide_1.11.0/stm32cubeide/plugins/com.st.stm32cube.ide.mcu.externaltools.gnu-tools-for-stm32.10.3-2021.10.win32_1.0.200.202301161003/tools/bin/../lib/gcc/arm-none-eabi/10.3.1/thumb/v7e-m+fp/hard/crtbegin.o
                0x0000000020000014                . = ALIGN (0x4)

.bss            0x0000000020000014      0x488 load address 0x0000000008004300
                0x0000000020000014                _sbss = .
                0x0000000020000014                __bss_start__ = _sbss
 *(.bss)
 .bss           0x0000000020000014       0x1c c:/st/stm32cubeide_1.11.0/stm32cubeide/plugins/com.st.stm32cube.ide.mcu.externaltools.gnu-tools-for-stm32.10.3-2021.10.win32_1.0.200.202301161003/tools/bin/../lib/gcc/arm-none-eabi/10.3.1/thumb/v7e-m+fp/hard/crtbegin.o
 *(.bss*)
 .bss.RX_Buffer
                0x0000000020000030        0x8 ./Core/Src/ads1256.o
                0x0000000020000030                RX_Buffer
 .bss.TX_Buffer
                0x0000000020000038        0x8 ./Core/Src/ads1256.o
                0x0000000020000038                TX_Buffer
 .bss.ProbeDataBuffer
                0x0000000020000040      0x200 ./Core/Src/loadcell.o
                0x0000000020000040                ProbeDataBuffer
 .bss.ProbeDataPointer
                0x0000000020000240        0x1 ./Core/Src/loadcell.o
                0x0000000020000240                ProbeDataPointer
 .bss.ProbeStarted
                0x0000000020000241        0x1 ./Core/Src/loadcell.o
                0x0000000020000241                ProbeStarted
 *fill*         0x0000000020000242        0x2 
 .bss.TxBuffer  0x0000000020000244      0x200 ./Core/Src/loadcell.o
                0x0000000020000244                TxBuffer
 .bss.huart2    0x0000000020000444       0x44 ./Core/Src/main.o
                0x0000000020000444                huart2
 .bss.SpiDmaRxBuf
                0x0000000020000488        0x8 ./Core/Src/main.o
                0x0000000020000488                SpiDmaRxBuf
 .bss.SpiDmaTxBuf
                0x0000000020000490        0x8 ./Core/Src/main.o
                0x0000000020000490                SpiDmaTxBuf
 .bss.uwTick    0x0000000020000498        0x4 ./Drivers/STM32F4xx_HAL_Driver/Src/stm32f4xx_hal.o
                0x0000000020000498                uwTick
 *(COMMON)
                0x000000002000049c                . = ALIGN (0x4)
                0x000000002000049c                _ebss = .
                0x000000002000049c                __bss_end__ = _ebss

._user_heap_stack
                0x000000002000049c      0x604 load address 0x0000000008004300
                0x00000000200004a0                . = ALIGN (0x8)
 *fill*         0x000000002000049c        0x4 
                [!provide]                        PROVIDE (end = .)
                0x00000000200004a0                PROVIDE (_end = .)
                0x00000000200006a0                . = (. + _Min_Heap_Size)
 *fill*         0x00000000200004a0      0x200 
                0x0000000020000aa0                . = (. + _Min_Stack_Size)
 *fill*         0x00000000200006a0      0x400 
                0x0000000020000aa0                . = ALIGN (0x8)

/DISCARD/
 libc.a(*)
 libm.a(*)
 libgcc.a(*)

.ARM.attributes
                0x0000000000000000       0x30
 *(.ARM.attributes)
 .ARM.attributes
                0x0000000000000000       0x1e c:/st/stm32cubeide_1.11.0/stm32cubeide/plugins/com.st.stm32cube.ide.mcu.externaltools.gnu-tools-for-stm32.10.3-2021.10.win32_1.0.200.202301161003/tools/bin/../lib/gcc/arm-none-eabi/10.3.1/thumb/v7e-m+fp/hard/crti.o
 .ARM.attributes
                0x000000000000001e       0x34 c:/st/stm32cubeide_1.11.0/stm32cubeide/plugins/com.st.stm32cube.ide.mcu.externaltools.gnu-tools-for-stm32.10.3-2021.10.win32_1.0.200.202301161003/tools/bin/../lib/gcc/arm-none-eabi/10.3.1/thumb/v7e-m+fp/hard/crtbegin.o
 .ARM.attributes
                0x0000000000000052       0x34 ./Core/Src/ads1256.o
 .ARM.attributes
                0x0000000000000086       0x34 ./Core/Src/loadcell.o
 .ARM.attributes
                0x00000000000000ba       0x34 ./Core/Src/main.o
 .ARM.attributes
                0x00000000000000ee       0x34 ./Core/Src/stm32f4xx_hal_msp.o
 .ARM.attributes
                0x0000000000000122       0x34 ./Core/Src/stm32f4xx_it.o
 .ARM.attributes
                0x0000000000000156       0x34 ./Core/Src/system_stm32f4xx.o
 .ARM.attributes
                0x000000000000018a       0x34 ./Core/Src/utilities.o
 .ARM.attributes
                0x00000000000001be       0x21 ./Core/Startup/startup_stm32f401retx.o
 .ARM.attributes
                0x00000000000001df       0x34 ./Drivers/STM32F4xx_HAL_Driver/Src/stm32f4xx_hal.o
 .ARM.attributes
                0x0000000000000213       0x34 ./Drivers/STM32F4xx_HAL_Driver/Src/stm32f4xx_hal_cortex.o
 .ARM.attributes
                0x0000000000000247       0x34 ./Drivers/STM32F4xx_HAL_Driver/Src/stm32f4xx_hal_rcc.o
 .ARM.attributes
                0x000000000000027b       0x34 ./Drivers/STM32F4xx_HAL_Driver/Src/stm32f4xx_hal_rcc_ex.o
 .ARM.attributes
                0x00000000000002af       0x34 ./Drivers/STM32F4xx_HAL_Driver/Src/stm32f4xx_hal_uart.o
 .ARM.attributes
                0x00000000000002e3       0x34 ./Drivers/STM32F4xx_HAL_Driver/Src/stm32f4xx_ll_exti.o
 .ARM.attributes
                0x0000000000000317       0x34 ./Drivers/STM32F4xx_HAL_Driver/Src/stm32f4xx_ll_gpio.o
 .ARM.attributes
                0x000000000000034b       0x34 ./Drivers/STM32F4xx_HAL_Driver/Src/stm32f4xx_ll_rtc.o
 .ARM.attributes
                0x000000000000037f       0x34 ./Drivers/STM32F4xx_HAL_Driver/Src/stm32f4xx_ll_spi.o
 .ARM.attributes
                0x00000000000003b3       0x34 ./Drivers/STM32F4xx_HAL_Driver/Src/stm32f4xx_ll_tim.o
 .ARM.attributes
                0x00000000000003e7       0x34 c:/st/stm32cubeide_1.11.0/stm32cubeide/plugins/com.st.stm32cube.ide.mcu.externaltools.gnu-tools-for-stm32.10.3-2021.10.win32_1.0.200.202301161003/tools/bin/../lib/gcc/arm-none-eabi/10.3.1/../../../../arm-none-eabi/lib/thumb/v7e-m+fp/hard\libc_nano.a(lib_a-init.o)
 .ARM.attributes
                0x000000000000041b       0x34 c:/st/stm32cubeide_1.11.0/stm32cubeide/plugins/com.st.stm32cube.ide.mcu.externaltools.gnu-tools-for-stm32.10.3-2021.10.win32_1.0.200.202301161003/tools/bin/../lib/gcc/arm-none-eabi/10.3.1/../../../../arm-none-eabi/lib/thumb/v7e-m+fp/hard\libc_nano.a(lib_a-memset.o)
 .ARM.attributes
                0x000000000000044f       0x1e c:/st/stm32cubeide_1.11.0/stm32cubeide/plugins/com.st.stm32cube.ide.mcu.externaltools.gnu-tools-for-stm32.10.3-2021.10.win32_1.0.200.202301161003/tools/bin/../lib/gcc/arm-none-eabi/10.3.1/thumb/v7e-m+fp/hard\libgcc.a(_aeabi_uldivmod.o)
 .ARM.attributes
                0x000000000000046d       0x34 c:/st/stm32cubeide_1.11.0/stm32cubeide/plugins/com.st.stm32cube.ide.mcu.externaltools.gnu-tools-for-stm32.10.3-2021.10.win32_1.0.200.202301161003/tools/bin/../lib/gcc/arm-none-eabi/10.3.1/thumb/v7e-m+fp/hard\libgcc.a(_udivmoddi4.o)
 .ARM.attributes
                0x00000000000004a1       0x1e c:/st/stm32cubeide_1.11.0/stm32cubeide/plugins/com.st.stm32cube.ide.mcu.externaltools.gnu-tools-for-stm32.10.3-2021.10.win32_1.0.200.202301161003/tools/bin/../lib/gcc/arm-none-eabi/10.3.1/thumb/v7e-m+fp/hard\libgcc.a(_dvmd_tls.o)
 .ARM.attributes
                0x00000000000004bf       0x1e c:/st/stm32cubeide_1.11.0/stm32cubeide/plugins/com.st.stm32cube.ide.mcu.externaltools.gnu-tools-for-stm32.10.3-2021.10.win32_1.0.200.202301161003/tools/bin/../lib/gcc/arm-none-eabi/10.3.1/thumb/v7e-m+fp/hard/crtn.o
OUTPUT(loadcell-f401.elf elf32-littlearm)
LOAD linker stubs
LOAD c:/st/stm32cubeide_1.11.0/stm32cubeide/plugins/com.st.stm32cube.ide.mcu.externaltools.gnu-tools-for-stm32.10.3-2021.10.win32_1.0.200.202301161003/tools/bin/../lib/gcc/arm-none-eabi/10.3.1/../../../../arm-none-eabi/lib/thumb/v7e-m+fp/hard\libc.a
LOAD c:/st/stm32cubeide_1.11.0/stm32cubeide/plugins/com.st.stm32cube.ide.mcu.externaltools.gnu-tools-for-stm32.10.3-2021.10.win32_1.0.200.202301161003/tools/bin/../lib/gcc/arm-none-eabi/10.3.1/../../../../arm-none-eabi/lib/thumb/v7e-m+fp/hard\libm.a
LOAD c:/st/stm32cubeide_1.11.0/stm32cubeide/plugins/com.st.stm32cube.ide.mcu.externaltools.gnu-tools-for-stm32.10.3-2021.10.win32_1.0.200.202301161003/tools/bin/../lib/gcc/arm-none-eabi/10.3.1/thumb/v7e-m+fp/hard\libgcc.a

.debug_info     0x0000000000000000     0xf190
 .debug_info    0x0000000000000000      0xcfc ./Core/Src/ads1256.o
 .debug_info    0x0000000000000cfc     0x16f6 ./Core/Src/loadcell.o
 .debug_info    0x00000000000023f2     0x2793 ./Core/Src/main.o
 .debug_info    0x0000000000004b85      0x9fd ./Core/Src/stm32f4xx_hal_msp.o
 .debug_info    0x0000000000005582      0x826 ./Core/Src/stm32f4xx_it.o
 .debug_info    0x0000000000005da8      0x54f ./Core/Src/system_stm32f4xx.o
 .debug_info    0x00000000000062f7      0x56b ./Core/Src/utilities.o
 .debug_info    0x0000000000006862       0x22 ./Core/Startup/startup_stm32f401retx.o
 .debug_info    0x0000000000006884      0x906 ./Drivers/STM32F4xx_HAL_Driver/Src/stm32f4xx_hal.o
 .debug_info    0x000000000000718a      0xd85 ./Drivers/STM32F4xx_HAL_Driver/Src/stm32f4xx_hal_cortex.o
 .debug_info    0x0000000000007f0f      0x98c ./Drivers/STM32F4xx_HAL_Driver/Src/stm32f4xx_hal_rcc.o
 .debug_info    0x000000000000889b      0x5a3 ./Drivers/STM32F4xx_HAL_Driver/Src/stm32f4xx_hal_rcc_ex.o
 .debug_info    0x0000000000008e3e     0x31b4 ./Drivers/STM32F4xx_HAL_Driver/Src/stm32f4xx_hal_uart.o
 .debug_info    0x000000000000bff2      0x35e ./Drivers/STM32F4xx_HAL_Driver/Src/stm32f4xx_ll_exti.o
 .debug_info    0x000000000000c350      0x874 ./Drivers/STM32F4xx_HAL_Driver/Src/stm32f4xx_ll_gpio.o
 .debug_info    0x000000000000cbc4      0xe1e ./Drivers/STM32F4xx_HAL_Driver/Src/stm32f4xx_ll_rtc.o
 .debug_info    0x000000000000d9e2      0x7f4 ./Drivers/STM32F4xx_HAL_Driver/Src/stm32f4xx_ll_spi.o
 .debug_info    0x000000000000e1d6      0xfba ./Drivers/STM32F4xx_HAL_Driver/Src/stm32f4xx_ll_tim.o

.debug_abbrev   0x0000000000000000     0x259b
 .debug_abbrev  0x0000000000000000      0x21a ./Core/Src/ads1256.o
 .debug_abbrev  0x000000000000021a      0x34d ./Core/Src/loadcell.o
 .debug_abbrev  0x0000000000000567      0x3e9 ./Core/Src/main.o
 .debug_abbrev  0x0000000000000950      0x19b ./Core/Src/stm32f4xx_hal_msp.o
 .debug_abbrev  0x0000000000000aeb      0x200 ./Core/Src/stm32f4xx_it.o
 .debug_abbrev  0x0000000000000ceb      0x116 ./Core/Src/system_stm32f4xx.o
 .debug_abbrev  0x0000000000000e01      0x14e ./Core/Src/utilities.o
 .debug_abbrev  0x0000000000000f4f       0x12 ./Core/Startup/startup_stm32f401retx.o
 .debug_abbrev  0x0000000000000f61      0x23e ./Drivers/STM32F4xx_HAL_Driver/Src/stm32f4xx_hal.o
 .debug_abbrev  0x000000000000119f      0x316 ./Drivers/STM32F4xx_HAL_Driver/Src/stm32f4xx_hal_cortex.o
 .debug_abbrev  0x00000000000014b5      0x2aa ./Drivers/STM32F4xx_HAL_Driver/Src/stm32f4xx_hal_rcc.o
 .debug_abbrev  0x000000000000175f      0x1a8 ./Drivers/STM32F4xx_HAL_Driver/Src/stm32f4xx_hal_rcc_ex.o
 .debug_abbrev  0x0000000000001907      0x305 ./Drivers/STM32F4xx_HAL_Driver/Src/stm32f4xx_hal_uart.o
 .debug_abbrev  0x0000000000001c0c      0x154 ./Drivers/STM32F4xx_HAL_Driver/Src/stm32f4xx_ll_exti.o
 .debug_abbrev  0x0000000000001d60      0x20e ./Drivers/STM32F4xx_HAL_Driver/Src/stm32f4xx_ll_gpio.o
 .debug_abbrev  0x0000000000001f6e      0x222 ./Drivers/STM32F4xx_HAL_Driver/Src/stm32f4xx_ll_rtc.o
 .debug_abbrev  0x0000000000002190      0x206 ./Drivers/STM32F4xx_HAL_Driver/Src/stm32f4xx_ll_spi.o
 .debug_abbrev  0x0000000000002396      0x205 ./Drivers/STM32F4xx_HAL_Driver/Src/stm32f4xx_ll_tim.o

.debug_aranges  0x0000000000000000      0xe10
 .debug_aranges
                0x0000000000000000       0xd8 ./Core/Src/ads1256.o
 .debug_aranges
                0x00000000000000d8       0xe0 ./Core/Src/loadcell.o
 .debug_aranges
                0x00000000000001b8      0x1d8 ./Core/Src/main.o
 .debug_aranges
                0x0000000000000390       0x28 ./Core/Src/stm32f4xx_hal_msp.o
 .debug_aranges
                0x00000000000003b8       0xf8 ./Core/Src/stm32f4xx_it.o
 .debug_aranges
                0x00000000000004b0       0x28 ./Core/Src/system_stm32f4xx.o
 .debug_aranges
                0x00000000000004d8       0x40 ./Core/Src/utilities.o
 .debug_aranges
                0x0000000000000518       0x28 ./Core/Startup/startup_stm32f401retx.o
 .debug_aranges
                0x0000000000000540       0xf0 ./Drivers/STM32F4xx_HAL_Driver/Src/stm32f4xx_hal.o
 .debug_aranges
                0x0000000000000630      0x118 ./Drivers/STM32F4xx_HAL_Driver/Src/stm32f4xx_hal_cortex.o
 .debug_aranges
                0x0000000000000748       0x88 ./Drivers/STM32F4xx_HAL_Driver/Src/stm32f4xx_hal_rcc.o
 .debug_aranges
                0x00000000000007d0       0x48 ./Drivers/STM32F4xx_HAL_Driver/Src/stm32f4xx_hal_rcc_ex.o
 .debug_aranges
                0x0000000000000818      0x200 ./Drivers/STM32F4xx_HAL_Driver/Src/stm32f4xx_hal_uart.o
 .debug_aranges
                0x0000000000000a18       0x70 ./Drivers/STM32F4xx_HAL_Driver/Src/stm32f4xx_ll_exti.o
 .debug_aranges
                0x0000000000000a88       0x70 ./Drivers/STM32F4xx_HAL_Driver/Src/stm32f4xx_ll_gpio.o
 .debug_aranges
                0x0000000000000af8      0x160 ./Drivers/STM32F4xx_HAL_Driver/Src/stm32f4xx_ll_rtc.o
 .debug_aranges
                0x0000000000000c58       0x90 ./Drivers/STM32F4xx_HAL_Driver/Src/stm32f4xx_ll_spi.o
 .debug_aranges
                0x0000000000000ce8      0x128 ./Drivers/STM32F4xx_HAL_Driver/Src/stm32f4xx_ll_tim.o

.debug_ranges   0x0000000000000000      0xd28
 .debug_ranges  0x0000000000000000       0xc8 ./Core/Src/ads1256.o
 .debug_ranges  0x00000000000000c8       0xd0 ./Core/Src/loadcell.o
 .debug_ranges  0x0000000000000198      0x1c8 ./Core/Src/main.o
 .debug_ranges  0x0000000000000360       0x18 ./Core/Src/stm32f4xx_hal_msp.o
 .debug_ranges  0x0000000000000378       0xe8 ./Core/Src/stm32f4xx_it.o
 .debug_ranges  0x0000000000000460       0x18 ./Core/Src/system_stm32f4xx.o
 .debug_ranges  0x0000000000000478       0x30 ./Core/Src/utilities.o
 .debug_ranges  0x00000000000004a8       0x20 ./Core/Startup/startup_stm32f401retx.o
 .debug_ranges  0x00000000000004c8       0xe0 ./Drivers/STM32F4xx_HAL_Driver/Src/stm32f4xx_hal.o
 .debug_ranges  0x00000000000005a8      0x108 ./Drivers/STM32F4xx_HAL_Driver/Src/stm32f4xx_hal_cortex.o
 .debug_ranges  0x00000000000006b0       0x78 ./Drivers/STM32F4xx_HAL_Driver/Src/stm32f4xx_hal_rcc.o
 .debug_ranges  0x0000000000000728       0x38 ./Drivers/STM32F4xx_HAL_Driver/Src/stm32f4xx_hal_rcc_ex.o
 .debug_ranges  0x0000000000000760      0x220 ./Drivers/STM32F4xx_HAL_Driver/Src/stm32f4xx_hal_uart.o
 .debug_ranges  0x0000000000000980       0x60 ./Drivers/STM32F4xx_HAL_Driver/Src/stm32f4xx_ll_exti.o
 .debug_ranges  0x00000000000009e0       0x60 ./Drivers/STM32F4xx_HAL_Driver/Src/stm32f4xx_ll_gpio.o
 .debug_ranges  0x0000000000000a40      0x150 ./Drivers/STM32F4xx_HAL_Driver/Src/stm32f4xx_ll_rtc.o
 .debug_ranges  0x0000000000000b90       0x80 ./Drivers/STM32F4xx_HAL_Driver/Src/stm32f4xx_ll_spi.o
 .debug_ranges  0x0000000000000c10      0x118 ./Drivers/STM32F4xx_HAL_Driver/Src/stm32f4xx_ll_tim.o

.debug_macro    0x0000000000000000    0x1a997
 .debug_macro   0x0000000000000000      0x383 ./Core/Src/ads1256.o
 .debug_macro   0x0000000000000383      0xa84 ./Core/Src/ads1256.o
 .debug_macro   0x0000000000000e07      0x2a1 ./Core/Src/ads1256.o
 .debug_macro   0x00000000000010a8       0x2e ./Core/Src/ads1256.o
 .debug_macro   0x00000000000010d6       0x28 ./Core/Src/ads1256.o
 .debug_macro   0x00000000000010fe       0x22 ./Core/Src/ads1256.o
 .debug_macro   0x0000000000001120       0x8e ./Core/Src/ads1256.o
 .debug_macro   0x00000000000011ae       0x51 ./Core/Src/ads1256.o
 .debug_macro   0x00000000000011ff      0x103 ./Core/Src/ads1256.o
 .debug_macro   0x0000000000001302       0x6a ./Core/Src/ads1256.o
 .debug_macro   0x000000000000136c      0x1df ./Core/Src/ads1256.o
 .debug_macro   0x000000000000154b       0x1c ./Core/Src/ads1256.o
 .debug_macro   0x0000000000001567       0x22 ./Core/Src/ads1256.o
 .debug_macro   0x0000000000001589       0xd9 ./Core/Src/ads1256.o
 .debug_macro   0x0000000000001662     0x102d ./Core/Src/ads1256.o
 .debug_macro   0x000000000000268f      0x11f ./Core/Src/ads1256.o
 .debug_macro   0x00000000000027ae     0xb86c ./Core/Src/ads1256.o
 .debug_macro   0x000000000000e01a       0x6d ./Core/Src/ads1256.o
 .debug_macro   0x000000000000e087     0x367e ./Core/Src/ads1256.o
 .debug_macro   0x0000000000011705      0x174 ./Core/Src/ads1256.o
 .debug_macro   0x0000000000011879       0x5c ./Core/Src/ads1256.o
 .debug_macro   0x00000000000118d5      0x416 ./Core/Src/ads1256.o
 .debug_macro   0x0000000000011ceb      0x9fe ./Core/Src/ads1256.o
 .debug_macro   0x00000000000126e9      0x115 ./Core/Src/ads1256.o
 .debug_macro   0x00000000000127fe       0xf8 ./Core/Src/ads1256.o
 .debug_macro   0x00000000000128f6       0xa5 ./Core/Src/ads1256.o
 .debug_macro   0x000000000001299b      0x15f ./Core/Src/ads1256.o
 .debug_macro   0x0000000000012afa      0x287 ./Core/Src/ads1256.o
 .debug_macro   0x0000000000012d81       0x5f ./Core/Src/ads1256.o
 .debug_macro   0x0000000000012de0      0x236 ./Core/Src/ads1256.o
 .debug_macro   0x0000000000013016      0x132 ./Core/Src/ads1256.o
 .debug_macro   0x0000000000013148      0x264 ./Core/Src/ads1256.o
 .debug_macro   0x00000000000133ac       0x2e ./Core/Src/ads1256.o
 .debug_macro   0x00000000000133da      0x11a ./Core/Src/ads1256.o
 .debug_macro   0x00000000000134f4       0x85 ./Core/Src/ads1256.o
 .debug_macro   0x0000000000013579       0x89 ./Core/Src/ads1256.o
 .debug_macro   0x0000000000013602      0x295 ./Core/Src/ads1256.o
 .debug_macro   0x0000000000013897      0x217 ./Core/Src/ads1256.o
 .debug_macro   0x0000000000013aae      0x248 ./Core/Src/ads1256.o
 .debug_macro   0x0000000000013cf6       0xba ./Core/Src/ads1256.o
 .debug_macro   0x0000000000013db0      0x126 ./Core/Src/ads1256.o
 .debug_macro   0x0000000000013ed6      0x1e6 ./Core/Src/ads1256.o
 .debug_macro   0x00000000000140bc       0x64 ./Core/Src/ads1256.o
 .debug_macro   0x0000000000014120      0x43d ./Core/Src/ads1256.o
 .debug_macro   0x000000000001455d      0x23b ./Core/Src/ads1256.o
 .debug_macro   0x0000000000014798      0x5f3 ./Core/Src/ads1256.o
 .debug_macro   0x0000000000014d8b      0x1ab ./Core/Src/ads1256.o
 .debug_macro   0x0000000000014f36      0x149 ./Core/Src/ads1256.o
 .debug_macro   0x000000000001507f       0xe8 ./Core/Src/ads1256.o
 .debug_macro   0x0000000000015167      0x116 ./Core/Src/ads1256.o
 .debug_macro   0x000000000001527d      0x1a6 ./Core/Src/ads1256.o
 .debug_macro   0x0000000000015423      0x788 ./Core/Src/ads1256.o
 .debug_macro   0x0000000000015bab       0x61 ./Core/Src/ads1256.o
 .debug_macro   0x0000000000015c0c       0xbc ./Core/Src/ads1256.o
 .debug_macro   0x0000000000015cc8       0x12 ./Core/Src/ads1256.o
 .debug_macro   0x0000000000015cda       0x12 ./Core/Src/ads1256.o
 .debug_macro   0x0000000000015cec       0x52 ./Core/Src/ads1256.o
 .debug_macro   0x0000000000015d3e       0x1e ./Core/Src/ads1256.o
 .debug_macro   0x0000000000015d5c       0x3c ./Core/Src/ads1256.o
 .debug_macro   0x0000000000015d98       0x34 ./Core/Src/ads1256.o
 .debug_macro   0x0000000000015dcc       0x16 ./Core/Src/ads1256.o
 .debug_macro   0x0000000000015de2       0x43 ./Core/Src/ads1256.o
 .debug_macro   0x0000000000015e25       0x34 ./Core/Src/ads1256.o
 .debug_macro   0x0000000000015e59       0x10 ./Core/Src/ads1256.o
 .debug_macro   0x0000000000015e69       0x58 ./Core/Src/ads1256.o
 .debug_macro   0x0000000000015ec1       0x71 ./Core/Src/ads1256.o
 .debug_macro   0x0000000000015f32       0x1c ./Core/Src/ads1256.o
 .debug_macro   0x0000000000015f4e      0x12a ./Core/Src/ads1256.o
 .debug_macro   0x0000000000016078      0x341 ./Core/Src/ads1256.o
 .debug_macro   0x00000000000163b9       0x10 ./Core/Src/ads1256.o
 .debug_macro   0x00000000000163c9       0x35 ./Core/Src/ads1256.o
 .debug_macro   0x00000000000163fe       0x20 ./Core/Src/ads1256.o
 .debug_macro   0x000000000001641e      0x19b ./Core/Src/ads1256.o
 .debug_macro   0x00000000000165b9       0xd6 ./Core/Src/ads1256.o
 .debug_macro   0x000000000001668f       0x22 ./Core/Src/ads1256.o
 .debug_macro   0x00000000000166b1       0xd0 ./Core/Src/ads1256.o
 .debug_macro   0x0000000000016781       0x6a ./Core/Src/ads1256.o
 .debug_macro   0x00000000000167eb      0x4e0 ./Core/Src/loadcell.o
 .debug_macro   0x0000000000016ccb       0x1c ./Core/Src/loadcell.o
 .debug_macro   0x0000000000016ce7       0x10 ./Core/Src/loadcell.o
 .debug_macro   0x0000000000016cf7       0x10 ./Core/Src/loadcell.o
 .debug_macro   0x0000000000016d07       0x1c ./Core/Src/loadcell.o
 .debug_macro   0x0000000000016d23       0x52 ./Core/Src/loadcell.o
 .debug_macro   0x0000000000016d75       0x22 ./Core/Src/loadcell.o
 .debug_macro   0x0000000000016d97       0x10 ./Core/Src/loadcell.o
 .debug_macro   0x0000000000016da7       0x52 ./Core/Src/loadcell.o
 .debug_macro   0x0000000000016df9       0xd5 ./Core/Src/loadcell.o
 .debug_macro   0x0000000000016ece       0x1c ./Core/Src/loadcell.o
 .debug_macro   0x0000000000016eea       0x3d ./Core/Src/loadcell.o
 .debug_macro   0x0000000000016f27       0x16 ./Core/Src/loadcell.o
 .debug_macro   0x0000000000016f3d      0x145 ./Core/Src/loadcell.o
 .debug_macro   0x0000000000017082       0x16 ./Core/Src/loadcell.o
 .debug_macro   0x0000000000017098       0x16 ./Core/Src/loadcell.o
 .debug_macro   0x00000000000170ae       0x29 ./Core/Src/loadcell.o
 .debug_macro   0x00000000000170d7       0x65 ./Core/Src/loadcell.o
 .debug_macro   0x000000000001713c      0x20f ./Core/Src/loadcell.o
 .debug_macro   0x000000000001734b       0x95 ./Core/Src/loadcell.o
 .debug_macro   0x00000000000173e0       0x10 ./Core/Src/loadcell.o
 .debug_macro   0x00000000000173f0      0x4e6 ./Core/Src/main.o
 .debug_macro   0x00000000000178d6      0x37f ./Core/Src/stm32f4xx_hal_msp.o
 .debug_macro   0x0000000000017c55      0x389 ./Core/Src/stm32f4xx_it.o
 .debug_macro   0x0000000000017fde      0x1e8 ./Core/Src/system_stm32f4xx.o
 .debug_macro   0x00000000000181c6      0x37f ./Core/Src/utilities.o
 .debug_macro   0x0000000000018545      0x248 ./Drivers/STM32F4xx_HAL_Driver/Src/stm32f4xx_hal.o
 .debug_macro   0x000000000001878d      0x1e8 ./Drivers/STM32F4xx_HAL_Driver/Src/stm32f4xx_hal_cortex.o
 .debug_macro   0x0000000000018975      0x20c ./Drivers/STM32F4xx_HAL_Driver/Src/stm32f4xx_hal_rcc.o
 .debug_macro   0x0000000000018b81      0x1e8 ./Drivers/STM32F4xx_HAL_Driver/Src/stm32f4xx_hal_rcc_ex.o
 .debug_macro   0x0000000000018d69      0x1e9 ./Drivers/STM32F4xx_HAL_Driver/Src/stm32f4xx_hal_uart.o
 .debug_macro   0x0000000000018f52      0x20f ./Drivers/STM32F4xx_HAL_Driver/Src/stm32f4xx_ll_exti.o
 .debug_macro   0x0000000000019161       0xe2 ./Drivers/STM32F4xx_HAL_Driver/Src/stm32f4xx_ll_exti.o
 .debug_macro   0x0000000000019243      0x22a ./Drivers/STM32F4xx_HAL_Driver/Src/stm32f4xx_ll_gpio.o
 .debug_macro   0x000000000001946d      0x143 ./Drivers/STM32F4xx_HAL_Driver/Src/stm32f4xx_ll_gpio.o
 .debug_macro   0x00000000000195b0      0x284 ./Drivers/STM32F4xx_HAL_Driver/Src/stm32f4xx_ll_rtc.o
 .debug_macro   0x0000000000019834      0x437 ./Drivers/STM32F4xx_HAL_Driver/Src/stm32f4xx_ll_rtc.o
 .debug_macro   0x0000000000019c6b      0x297 ./Drivers/STM32F4xx_HAL_Driver/Src/stm32f4xx_ll_spi.o
 .debug_macro   0x0000000000019f02      0x235 ./Drivers/STM32F4xx_HAL_Driver/Src/stm32f4xx_ll_spi.o
 .debug_macro   0x000000000001a137      0x273 ./Drivers/STM32F4xx_HAL_Driver/Src/stm32f4xx_ll_tim.o
 .debug_macro   0x000000000001a3aa      0x5ed ./Drivers/STM32F4xx_HAL_Driver/Src/stm32f4xx_ll_tim.o

.debug_line     0x0000000000000000     0xf1d4
 .debug_line    0x0000000000000000      0xe13 ./Core/Src/ads1256.o
 .debug_line    0x0000000000000e13     0x122d ./Core/Src/loadcell.o
 .debug_line    0x0000000000002040     0x15af ./Core/Src/main.o
 .debug_line    0x00000000000035ef      0xa40 ./Core/Src/stm32f4xx_hal_msp.o
 .debug_line    0x000000000000402f      0xd33 ./Core/Src/stm32f4xx_it.o
 .debug_line    0x0000000000004d62      0x774 ./Core/Src/system_stm32f4xx.o
 .debug_line    0x00000000000054d6      0xd28 ./Core/Src/utilities.o
 .debug_line    0x00000000000061fe       0x88 ./Core/Startup/startup_stm32f401retx.o
 .debug_line    0x0000000000006286      0x9da ./Drivers/STM32F4xx_HAL_Driver/Src/stm32f4xx_hal.o
 .debug_line    0x0000000000006c60      0xc89 ./Drivers/STM32F4xx_HAL_Driver/Src/stm32f4xx_hal_cortex.o
 .debug_line    0x00000000000078e9      0xd54 ./Drivers/STM32F4xx_HAL_Driver/Src/stm32f4xx_hal_rcc.o
 .debug_line    0x000000000000863d      0xa08 ./Drivers/STM32F4xx_HAL_Driver/Src/stm32f4xx_hal_rcc_ex.o
 .debug_line    0x0000000000009045     0x2a7f ./Drivers/STM32F4xx_HAL_Driver/Src/stm32f4xx_hal_uart.o
 .debug_line    0x000000000000bac4      0x868 ./Drivers/STM32F4xx_HAL_Driver/Src/stm32f4xx_ll_exti.o
 .debug_line    0x000000000000c32c      0x9af ./Drivers/STM32F4xx_HAL_Driver/Src/stm32f4xx_ll_gpio.o
 .debug_line    0x000000000000ccdb      0xe31 ./Drivers/STM32F4xx_HAL_Driver/Src/stm32f4xx_ll_rtc.o
 .debug_line    0x000000000000db0c      0x9e8 ./Drivers/STM32F4xx_HAL_Driver/Src/stm32f4xx_ll_spi.o
 .debug_line    0x000000000000e4f4      0xce0 ./Drivers/STM32F4xx_HAL_Driver/Src/stm32f4xx_ll_tim.o

.debug_str      0x0000000000000000    0x9be79
 .debug_str     0x0000000000000000    0x93dc1 ./Core/Src/ads1256.o
                                      0x943ec (size before relaxing)
 .debug_str     0x0000000000093dc1     0x2912 ./Core/Src/loadcell.o
                                      0x96b43 (size before relaxing)
 .debug_str     0x00000000000966d3      0xb0a ./Core/Src/main.o
                                      0x9719e (size before relaxing)
 .debug_str     0x00000000000971dd       0x51 ./Core/Src/stm32f4xx_hal_msp.o
                                      0x94207 (size before relaxing)
 .debug_str     0x000000000009722e      0x16c ./Core/Src/stm32f4xx_it.o
                                      0x93fd3 (size before relaxing)
 .debug_str     0x000000000009739a       0x87 ./Core/Src/system_stm32f4xx.o
                                      0x81827 (size before relaxing)
 .debug_str     0x0000000000097421      0x106 ./Core/Src/utilities.o
                                      0x93d7e (size before relaxing)
 .debug_str     0x0000000000097527       0x36 ./Core/Startup/startup_stm32f401retx.o
                                         0x80 (size before relaxing)
 .debug_str     0x000000000009755d      0x5f9 ./Drivers/STM32F4xx_HAL_Driver/Src/stm32f4xx_hal.o
                                      0x82249 (size before relaxing)
 .debug_str     0x0000000000097b56      0x2a1 ./Drivers/STM32F4xx_HAL_Driver/Src/stm32f4xx_hal_cortex.o
                                      0x81f6a (size before relaxing)
 .debug_str     0x0000000000097df7      0x233 ./Drivers/STM32F4xx_HAL_Driver/Src/stm32f4xx_hal_rcc.o
                                      0x81c5b (size before relaxing)
 .debug_str     0x000000000009802a       0xf9 ./Drivers/STM32F4xx_HAL_Driver/Src/stm32f4xx_hal_rcc_ex.o
                                      0x8198a (size before relaxing)
 .debug_str     0x0000000000098123      0x644 ./Drivers/STM32F4xx_HAL_Driver/Src/stm32f4xx_hal_uart.o
                                      0x821e8 (size before relaxing)
 .debug_str     0x0000000000098767      0x2ed ./Drivers/STM32F4xx_HAL_Driver/Src/stm32f4xx_ll_exti.o
                                      0x81e9d (size before relaxing)
 .debug_str     0x0000000000098a54      0x62a ./Drivers/STM32F4xx_HAL_Driver/Src/stm32f4xx_ll_gpio.o
                                      0x82ce2 (size before relaxing)
 .debug_str     0x000000000009907e      0xd0f ./Drivers/STM32F4xx_HAL_Driver/Src/stm32f4xx_ll_rtc.o
                                      0x84aa1 (size before relaxing)
 .debug_str     0x0000000000099d8d      0xe37 ./Drivers/STM32F4xx_HAL_Driver/Src/stm32f4xx_ll_spi.o
                                      0x87aea (size before relaxing)
 .debug_str     0x000000000009abc4     0x12b5 ./Drivers/STM32F4xx_HAL_Driver/Src/stm32f4xx_ll_tim.o
                                      0x863f2 (size before relaxing)

.comment        0x0000000000000000       0x50
 .comment       0x0000000000000000       0x50 ./Core/Src/ads1256.o
                                         0x51 (size before relaxing)
 .comment       0x0000000000000050       0x51 ./Core/Src/loadcell.o
 .comment       0x0000000000000050       0x51 ./Core/Src/main.o
 .comment       0x0000000000000050       0x51 ./Core/Src/stm32f4xx_hal_msp.o
 .comment       0x0000000000000050       0x51 ./Core/Src/stm32f4xx_it.o
 .comment       0x0000000000000050       0x51 ./Core/Src/system_stm32f4xx.o
 .comment       0x0000000000000050       0x51 ./Core/Src/utilities.o
 .comment       0x0000000000000050       0x51 ./Drivers/STM32F4xx_HAL_Driver/Src/stm32f4xx_hal.o
 .comment       0x0000000000000050       0x51 ./Drivers/STM32F4xx_HAL_Driver/Src/stm32f4xx_hal_cortex.o
 .comment       0x0000000000000050       0x51 ./Drivers/STM32F4xx_HAL_Driver/Src/stm32f4xx_hal_rcc.o
 .comment       0x0000000000000050       0x51 ./Drivers/STM32F4xx_HAL_Driver/Src/stm32f4xx_hal_rcc_ex.o
 .comment       0x0000000000000050       0x51 ./Drivers/STM32F4xx_HAL_Driver/Src/stm32f4xx_hal_uart.o
 .comment       0x0000000000000050       0x51 ./Drivers/STM32F4xx_HAL_Driver/Src/stm32f4xx_ll_exti.o
 .comment       0x0000000000000050       0x51 ./Drivers/STM32F4xx_HAL_Driver/Src/stm32f4xx_ll_gpio.o
 .comment       0x0000000000000050       0x51 ./Drivers/STM32F4xx_HAL_Driver/Src/stm32f4xx_ll_rtc.o
 .comment       0x0000000000000050       0x51 ./Drivers/STM32F4xx_HAL_Driver/Src/stm32f4xx_ll_spi.o
 .comment       0x0000000000000050       0x51 ./Drivers/STM32F4xx_HAL_Driver/Src/stm32f4xx_ll_tim.o

.debug_frame    0x0000000000000000     0x3bac
 .debug_frame   0x0000000000000000      0x3a8 ./Core/Src/ads1256.o
 .debug_frame   0x00000000000003a8      0x3cc ./Core/Src/loadcell.o
 .debug_frame   0x0000000000000774      0x870 ./Core/Src/main.o
 .debug_frame   0x0000000000000fe4       0x5c ./Core/Src/stm32f4xx_hal_msp.o
 .debug_frame   0x0000000000001040      0x3e0 ./Core/Src/stm32f4xx_it.o
 .debug_frame   0x0000000000001420       0x58 ./Core/Src/system_stm32f4xx.o
 .debug_frame   0x0000000000001478       0xf8 ./Core/Src/utilities.o
 .debug_frame   0x0000000000001570      0x374 ./Drivers/STM32F4xx_HAL_Driver/Src/stm32f4xx_hal.o
 .debug_frame   0x00000000000018e4      0x498 ./Drivers/STM32F4xx_HAL_Driver/Src/stm32f4xx_hal_cortex.o
 .debug_frame   0x0000000000001d7c      0x1f4 ./Drivers/STM32F4xx_HAL_Driver/Src/stm32f4xx_hal_rcc.o
 .debug_frame   0x0000000000001f70       0xf0 ./Drivers/STM32F4xx_HAL_Driver/Src/stm32f4xx_hal_rcc_ex.o
 .debug_frame   0x0000000000002060      0x92c ./Drivers/STM32F4xx_HAL_Driver/Src/stm32f4xx_hal_uart.o
 .debug_frame   0x000000000000298c      0x1bc ./Drivers/STM32F4xx_HAL_Driver/Src/stm32f4xx_ll_exti.o
 .debug_frame   0x0000000000002b48      0x1c0 ./Drivers/STM32F4xx_HAL_Driver/Src/stm32f4xx_ll_gpio.o
 .debug_frame   0x0000000000002d08      0x66c ./Drivers/STM32F4xx_HAL_Driver/Src/stm32f4xx_ll_rtc.o
 .debug_frame   0x0000000000003374      0x254 ./Drivers/STM32F4xx_HAL_Driver/Src/stm32f4xx_ll_spi.o
 .debug_frame   0x00000000000035c8      0x538 ./Drivers/STM32F4xx_HAL_Driver/Src/stm32f4xx_ll_tim.o
 .debug_frame   0x0000000000003b00       0x2c c:/st/stm32cubeide_1.11.0/stm32cubeide/plugins/com.st.stm32cube.ide.mcu.externaltools.gnu-tools-for-stm32.10.3-2021.10.win32_1.0.200.202301161003/tools/bin/../lib/gcc/arm-none-eabi/10.3.1/../../../../arm-none-eabi/lib/thumb/v7e-m+fp/hard\libc_nano.a(lib_a-init.o)
 .debug_frame   0x0000000000003b2c       0x20 c:/st/stm32cubeide_1.11.0/stm32cubeide/plugins/com.st.stm32cube.ide.mcu.externaltools.gnu-tools-for-stm32.10.3-2021.10.win32_1.0.200.202301161003/tools/bin/../lib/gcc/arm-none-eabi/10.3.1/../../../../arm-none-eabi/lib/thumb/v7e-m+fp/hard\libc_nano.a(lib_a-memset.o)
 .debug_frame   0x0000000000003b4c       0x2c c:/st/stm32cubeide_1.11.0/stm32cubeide/plugins/com.st.stm32cube.ide.mcu.externaltools.gnu-tools-for-stm32.10.3-2021.10.win32_1.0.200.202301161003/tools/bin/../lib/gcc/arm-none-eabi/10.3.1/thumb/v7e-m+fp/hard\libgcc.a(_aeabi_uldivmod.o)
 .debug_frame   0x0000000000003b78       0x34 c:/st/stm32cubeide_1.11.0/stm32cubeide/plugins/com.st.stm32cube.ide.mcu.externaltools.gnu-tools-for-stm32.10.3-2021.10.win32_1.0.200.202301161003/tools/bin/../lib/gcc/arm-none-eabi/10.3.1/thumb/v7e-m+fp/hard\libgcc.a(_udivmoddi4.o)
