
loadcell-f401.elf:     file format elf32-littlearm

Sections:
Idx Name          Size      VMA       LMA       File off  Algn
  0 .isr_vector   00000194  08000000  08000000  00010000  2**0
                  CONTENTS, ALLOC, LOAD, READONLY, DATA
  1 .text         000040b4  08000194  08000194  00010194  2**2
                  CONTENTS, ALLOC, LOAD, READONLY, CODE
  2 .rodata       00000094  08004248  08004248  00014248  2**2
                  CONTENTS, ALLOC, LOAD, READONLY, DATA
  3 .ARM.extab    00000000  080042dc  080042dc  00020014  2**0
                  CONTENTS
  4 .ARM          00000008  080042dc  080042dc  000142dc  2**2
                  CONTENTS, ALLOC, LOAD, READONLY, DATA
  5 .preinit_array 00000000  080042e4  080042e4  00020014  2**0
                  CONTENTS, ALLOC, LOAD, DATA
  6 .init_array   00000004  080042e4  080042e4  000142e4  2**2
                  CONTENTS, ALLOC, LOAD, DATA
  7 .fini_array   00000004  080042e8  080042e8  000142e8  2**2
                  CONTENTS, ALLOC, LOAD, DATA
  8 .data         00000014  20000000  080042ec  00020000  2**2
                  CONTENTS, ALLOC, LOAD, DATA
  9 .bss          00000488  20000014  08004300  00020014  2**2
                  ALLOC
 10 ._user_heap_stack 00000604  2000049c  08004300  0002049c  2**0
                  ALLOC
 11 .ARM.attributes 00000030  00000000  00000000  00020014  2**0
                  CONTENTS, READONLY
 12 .debug_info   0000f190  00000000  00000000  00020044  2**0
                  CONTENTS, READONLY, DEBUGGING, OCTETS
 13 .debug_abbrev 0000259b  00000000  00000000  0002f1d4  2**0
                  CONTENTS, READONLY, DEBUGGING, OCTETS
 14 .debug_aranges 00000e10  00000000  00000000  00031770  2**3
                  CONTENTS, READONLY, DEBUGGING, OCTETS
 15 .debug_ranges 00000d28  00000000  00000000  00032580  2**3
                  CONTENTS, READONLY, DEBUGGING, OCTETS
 16 .debug_macro  0001a997  00000000  00000000  000332a8  2**0
                  CONTENTS, READONLY, DEBUGGING, OCTETS
 17 .debug_line   0000f1d4  00000000  00000000  0004dc3f  2**0
                  CONTENTS, READONLY, DEBUGGING, OCTETS
 18 .debug_str    0009be79  00000000  00000000  0005ce13  2**0
                  CONTENTS, READONLY, DEBUGGING, OCTETS
 19 .comment      00000050  00000000  00000000  000f8c8c  2**0
                  CONTENTS, READONLY
 20 .debug_frame  00003bac  00000000  00000000  000f8cdc  2**2
                  CONTENTS, READONLY, DEBUGGING, OCTETS

Disassembly of section .text:

08000194 <__do_global_dtors_aux>:
 8000194:	b510      	push	{r4, lr}
 8000196:	4c05      	ldr	r4, [pc, #20]	; (80001ac <__do_global_dtors_aux+0x18>)
 8000198:	7823      	ldrb	r3, [r4, #0]
 800019a:	b933      	cbnz	r3, 80001aa <__do_global_dtors_aux+0x16>
 800019c:	4b04      	ldr	r3, [pc, #16]	; (80001b0 <__do_global_dtors_aux+0x1c>)
 800019e:	b113      	cbz	r3, 80001a6 <__do_global_dtors_aux+0x12>
 80001a0:	4804      	ldr	r0, [pc, #16]	; (80001b4 <__do_global_dtors_aux+0x20>)
 80001a2:	f3af 8000 	nop.w
 80001a6:	2301      	movs	r3, #1
 80001a8:	7023      	strb	r3, [r4, #0]
 80001aa:	bd10      	pop	{r4, pc}
 80001ac:	20000014 	.word	0x20000014
 80001b0:	00000000 	.word	0x00000000
 80001b4:	08004230 	.word	0x08004230

080001b8 <frame_dummy>:
 80001b8:	b508      	push	{r3, lr}
 80001ba:	4b03      	ldr	r3, [pc, #12]	; (80001c8 <frame_dummy+0x10>)
 80001bc:	b11b      	cbz	r3, 80001c6 <frame_dummy+0xe>
 80001be:	4903      	ldr	r1, [pc, #12]	; (80001cc <frame_dummy+0x14>)
 80001c0:	4803      	ldr	r0, [pc, #12]	; (80001d0 <frame_dummy+0x18>)
 80001c2:	f3af 8000 	nop.w
 80001c6:	bd08      	pop	{r3, pc}
 80001c8:	00000000 	.word	0x00000000
 80001cc:	20000018 	.word	0x20000018
 80001d0:	08004230 	.word	0x08004230

080001d4 <__aeabi_uldivmod>:
 80001d4:	b953      	cbnz	r3, 80001ec <__aeabi_uldivmod+0x18>
 80001d6:	b94a      	cbnz	r2, 80001ec <__aeabi_uldivmod+0x18>
 80001d8:	2900      	cmp	r1, #0
 80001da:	bf08      	it	eq
 80001dc:	2800      	cmpeq	r0, #0
 80001de:	bf1c      	itt	ne
 80001e0:	f04f 31ff 	movne.w	r1, #4294967295
 80001e4:	f04f 30ff 	movne.w	r0, #4294967295
 80001e8:	f000 b974 	b.w	80004d4 <__aeabi_idiv0>
 80001ec:	f1ad 0c08 	sub.w	ip, sp, #8
 80001f0:	e96d ce04 	strd	ip, lr, [sp, #-16]!
 80001f4:	f000 f806 	bl	8000204 <__udivmoddi4>
 80001f8:	f8dd e004 	ldr.w	lr, [sp, #4]
 80001fc:	e9dd 2302 	ldrd	r2, r3, [sp, #8]
 8000200:	b004      	add	sp, #16
 8000202:	4770      	bx	lr

08000204 <__udivmoddi4>:
 8000204:	e92d 47f0 	stmdb	sp!, {r4, r5, r6, r7, r8, r9, sl, lr}
 8000208:	9d08      	ldr	r5, [sp, #32]
 800020a:	4604      	mov	r4, r0
 800020c:	468e      	mov	lr, r1
 800020e:	2b00      	cmp	r3, #0
 8000210:	d14d      	bne.n	80002ae <__udivmoddi4+0xaa>
 8000212:	428a      	cmp	r2, r1
 8000214:	4694      	mov	ip, r2
 8000216:	d969      	bls.n	80002ec <__udivmoddi4+0xe8>
 8000218:	fab2 f282 	clz	r2, r2
 800021c:	b152      	cbz	r2, 8000234 <__udivmoddi4+0x30>
 800021e:	fa01 f302 	lsl.w	r3, r1, r2
 8000222:	f1c2 0120 	rsb	r1, r2, #32
 8000226:	fa20 f101 	lsr.w	r1, r0, r1
 800022a:	fa0c fc02 	lsl.w	ip, ip, r2
 800022e:	ea41 0e03 	orr.w	lr, r1, r3
 8000232:	4094      	lsls	r4, r2
 8000234:	ea4f 481c 	mov.w	r8, ip, lsr #16
 8000238:	0c21      	lsrs	r1, r4, #16
 800023a:	fbbe f6f8 	udiv	r6, lr, r8
 800023e:	fa1f f78c 	uxth.w	r7, ip
 8000242:	fb08 e316 	mls	r3, r8, r6, lr
 8000246:	ea41 4303 	orr.w	r3, r1, r3, lsl #16
 800024a:	fb06 f107 	mul.w	r1, r6, r7
 800024e:	4299      	cmp	r1, r3
 8000250:	d90a      	bls.n	8000268 <__udivmoddi4+0x64>
 8000252:	eb1c 0303 	adds.w	r3, ip, r3
 8000256:	f106 30ff 	add.w	r0, r6, #4294967295
 800025a:	f080 811f 	bcs.w	800049c <__udivmoddi4+0x298>
 800025e:	4299      	cmp	r1, r3
 8000260:	f240 811c 	bls.w	800049c <__udivmoddi4+0x298>
 8000264:	3e02      	subs	r6, #2
 8000266:	4463      	add	r3, ip
 8000268:	1a5b      	subs	r3, r3, r1
 800026a:	b2a4      	uxth	r4, r4
 800026c:	fbb3 f0f8 	udiv	r0, r3, r8
 8000270:	fb08 3310 	mls	r3, r8, r0, r3
 8000274:	ea44 4403 	orr.w	r4, r4, r3, lsl #16
 8000278:	fb00 f707 	mul.w	r7, r0, r7
 800027c:	42a7      	cmp	r7, r4
 800027e:	d90a      	bls.n	8000296 <__udivmoddi4+0x92>
 8000280:	eb1c 0404 	adds.w	r4, ip, r4
 8000284:	f100 33ff 	add.w	r3, r0, #4294967295
 8000288:	f080 810a 	bcs.w	80004a0 <__udivmoddi4+0x29c>
 800028c:	42a7      	cmp	r7, r4
 800028e:	f240 8107 	bls.w	80004a0 <__udivmoddi4+0x29c>
 8000292:	4464      	add	r4, ip
 8000294:	3802      	subs	r0, #2
 8000296:	ea40 4006 	orr.w	r0, r0, r6, lsl #16
 800029a:	1be4      	subs	r4, r4, r7
 800029c:	2600      	movs	r6, #0
 800029e:	b11d      	cbz	r5, 80002a8 <__udivmoddi4+0xa4>
 80002a0:	40d4      	lsrs	r4, r2
 80002a2:	2300      	movs	r3, #0
 80002a4:	e9c5 4300 	strd	r4, r3, [r5]
 80002a8:	4631      	mov	r1, r6
 80002aa:	e8bd 87f0 	ldmia.w	sp!, {r4, r5, r6, r7, r8, r9, sl, pc}
 80002ae:	428b      	cmp	r3, r1
 80002b0:	d909      	bls.n	80002c6 <__udivmoddi4+0xc2>
 80002b2:	2d00      	cmp	r5, #0
 80002b4:	f000 80ef 	beq.w	8000496 <__udivmoddi4+0x292>
 80002b8:	2600      	movs	r6, #0
 80002ba:	e9c5 0100 	strd	r0, r1, [r5]
 80002be:	4630      	mov	r0, r6
 80002c0:	4631      	mov	r1, r6
 80002c2:	e8bd 87f0 	ldmia.w	sp!, {r4, r5, r6, r7, r8, r9, sl, pc}
 80002c6:	fab3 f683 	clz	r6, r3
 80002ca:	2e00      	cmp	r6, #0
 80002cc:	d14a      	bne.n	8000364 <__udivmoddi4+0x160>
 80002ce:	428b      	cmp	r3, r1
 80002d0:	d302      	bcc.n	80002d8 <__udivmoddi4+0xd4>
 80002d2:	4282      	cmp	r2, r0
 80002d4:	f200 80f9 	bhi.w	80004ca <__udivmoddi4+0x2c6>
 80002d8:	1a84      	subs	r4, r0, r2
 80002da:	eb61 0303 	sbc.w	r3, r1, r3
 80002de:	2001      	movs	r0, #1
 80002e0:	469e      	mov	lr, r3
 80002e2:	2d00      	cmp	r5, #0
 80002e4:	d0e0      	beq.n	80002a8 <__udivmoddi4+0xa4>
 80002e6:	e9c5 4e00 	strd	r4, lr, [r5]
 80002ea:	e7dd      	b.n	80002a8 <__udivmoddi4+0xa4>
 80002ec:	b902      	cbnz	r2, 80002f0 <__udivmoddi4+0xec>
 80002ee:	deff      	udf	#255	; 0xff
 80002f0:	fab2 f282 	clz	r2, r2
 80002f4:	2a00      	cmp	r2, #0
 80002f6:	f040 8092 	bne.w	800041e <__udivmoddi4+0x21a>
 80002fa:	eba1 010c 	sub.w	r1, r1, ip
 80002fe:	ea4f 471c 	mov.w	r7, ip, lsr #16
 8000302:	fa1f fe8c 	uxth.w	lr, ip
 8000306:	2601      	movs	r6, #1
 8000308:	0c20      	lsrs	r0, r4, #16
 800030a:	fbb1 f3f7 	udiv	r3, r1, r7
 800030e:	fb07 1113 	mls	r1, r7, r3, r1
 8000312:	ea40 4101 	orr.w	r1, r0, r1, lsl #16
 8000316:	fb0e f003 	mul.w	r0, lr, r3
 800031a:	4288      	cmp	r0, r1
 800031c:	d908      	bls.n	8000330 <__udivmoddi4+0x12c>
 800031e:	eb1c 0101 	adds.w	r1, ip, r1
 8000322:	f103 38ff 	add.w	r8, r3, #4294967295
 8000326:	d202      	bcs.n	800032e <__udivmoddi4+0x12a>
 8000328:	4288      	cmp	r0, r1
 800032a:	f200 80cb 	bhi.w	80004c4 <__udivmoddi4+0x2c0>
 800032e:	4643      	mov	r3, r8
 8000330:	1a09      	subs	r1, r1, r0
 8000332:	b2a4      	uxth	r4, r4
 8000334:	fbb1 f0f7 	udiv	r0, r1, r7
 8000338:	fb07 1110 	mls	r1, r7, r0, r1
 800033c:	ea44 4401 	orr.w	r4, r4, r1, lsl #16
 8000340:	fb0e fe00 	mul.w	lr, lr, r0
 8000344:	45a6      	cmp	lr, r4
 8000346:	d908      	bls.n	800035a <__udivmoddi4+0x156>
 8000348:	eb1c 0404 	adds.w	r4, ip, r4
 800034c:	f100 31ff 	add.w	r1, r0, #4294967295
 8000350:	d202      	bcs.n	8000358 <__udivmoddi4+0x154>
 8000352:	45a6      	cmp	lr, r4
 8000354:	f200 80bb 	bhi.w	80004ce <__udivmoddi4+0x2ca>
 8000358:	4608      	mov	r0, r1
 800035a:	eba4 040e 	sub.w	r4, r4, lr
 800035e:	ea40 4003 	orr.w	r0, r0, r3, lsl #16
 8000362:	e79c      	b.n	800029e <__udivmoddi4+0x9a>
 8000364:	f1c6 0720 	rsb	r7, r6, #32
 8000368:	40b3      	lsls	r3, r6
 800036a:	fa22 fc07 	lsr.w	ip, r2, r7
 800036e:	ea4c 0c03 	orr.w	ip, ip, r3
 8000372:	fa20 f407 	lsr.w	r4, r0, r7
 8000376:	fa01 f306 	lsl.w	r3, r1, r6
 800037a:	431c      	orrs	r4, r3
 800037c:	40f9      	lsrs	r1, r7
 800037e:	ea4f 491c 	mov.w	r9, ip, lsr #16
 8000382:	fa00 f306 	lsl.w	r3, r0, r6
 8000386:	fbb1 f8f9 	udiv	r8, r1, r9
 800038a:	0c20      	lsrs	r0, r4, #16
 800038c:	fa1f fe8c 	uxth.w	lr, ip
 8000390:	fb09 1118 	mls	r1, r9, r8, r1
 8000394:	ea40 4101 	orr.w	r1, r0, r1, lsl #16
 8000398:	fb08 f00e 	mul.w	r0, r8, lr
 800039c:	4288      	cmp	r0, r1
 800039e:	fa02 f206 	lsl.w	r2, r2, r6
 80003a2:	d90b      	bls.n	80003bc <__udivmoddi4+0x1b8>
 80003a4:	eb1c 0101 	adds.w	r1, ip, r1
 80003a8:	f108 3aff 	add.w	sl, r8, #4294967295
 80003ac:	f080 8088 	bcs.w	80004c0 <__udivmoddi4+0x2bc>
 80003b0:	4288      	cmp	r0, r1
 80003b2:	f240 8085 	bls.w	80004c0 <__udivmoddi4+0x2bc>
 80003b6:	f1a8 0802 	sub.w	r8, r8, #2
 80003ba:	4461      	add	r1, ip
 80003bc:	1a09      	subs	r1, r1, r0
 80003be:	b2a4      	uxth	r4, r4
 80003c0:	fbb1 f0f9 	udiv	r0, r1, r9
 80003c4:	fb09 1110 	mls	r1, r9, r0, r1
 80003c8:	ea44 4101 	orr.w	r1, r4, r1, lsl #16
 80003cc:	fb00 fe0e 	mul.w	lr, r0, lr
 80003d0:	458e      	cmp	lr, r1
 80003d2:	d908      	bls.n	80003e6 <__udivmoddi4+0x1e2>
 80003d4:	eb1c 0101 	adds.w	r1, ip, r1
 80003d8:	f100 34ff 	add.w	r4, r0, #4294967295
 80003dc:	d26c      	bcs.n	80004b8 <__udivmoddi4+0x2b4>
 80003de:	458e      	cmp	lr, r1
 80003e0:	d96a      	bls.n	80004b8 <__udivmoddi4+0x2b4>
 80003e2:	3802      	subs	r0, #2
 80003e4:	4461      	add	r1, ip
 80003e6:	ea40 4008 	orr.w	r0, r0, r8, lsl #16
 80003ea:	fba0 9402 	umull	r9, r4, r0, r2
 80003ee:	eba1 010e 	sub.w	r1, r1, lr
 80003f2:	42a1      	cmp	r1, r4
 80003f4:	46c8      	mov	r8, r9
 80003f6:	46a6      	mov	lr, r4
 80003f8:	d356      	bcc.n	80004a8 <__udivmoddi4+0x2a4>
 80003fa:	d053      	beq.n	80004a4 <__udivmoddi4+0x2a0>
 80003fc:	b15d      	cbz	r5, 8000416 <__udivmoddi4+0x212>
 80003fe:	ebb3 0208 	subs.w	r2, r3, r8
 8000402:	eb61 010e 	sbc.w	r1, r1, lr
 8000406:	fa01 f707 	lsl.w	r7, r1, r7
 800040a:	fa22 f306 	lsr.w	r3, r2, r6
 800040e:	40f1      	lsrs	r1, r6
 8000410:	431f      	orrs	r7, r3
 8000412:	e9c5 7100 	strd	r7, r1, [r5]
 8000416:	2600      	movs	r6, #0
 8000418:	4631      	mov	r1, r6
 800041a:	e8bd 87f0 	ldmia.w	sp!, {r4, r5, r6, r7, r8, r9, sl, pc}
 800041e:	f1c2 0320 	rsb	r3, r2, #32
 8000422:	40d8      	lsrs	r0, r3
 8000424:	fa0c fc02 	lsl.w	ip, ip, r2
 8000428:	fa21 f303 	lsr.w	r3, r1, r3
 800042c:	4091      	lsls	r1, r2
 800042e:	4301      	orrs	r1, r0
 8000430:	ea4f 471c 	mov.w	r7, ip, lsr #16
 8000434:	fa1f fe8c 	uxth.w	lr, ip
 8000438:	fbb3 f0f7 	udiv	r0, r3, r7
 800043c:	fb07 3610 	mls	r6, r7, r0, r3
 8000440:	0c0b      	lsrs	r3, r1, #16
 8000442:	ea43 4306 	orr.w	r3, r3, r6, lsl #16
 8000446:	fb00 f60e 	mul.w	r6, r0, lr
 800044a:	429e      	cmp	r6, r3
 800044c:	fa04 f402 	lsl.w	r4, r4, r2
 8000450:	d908      	bls.n	8000464 <__udivmoddi4+0x260>
 8000452:	eb1c 0303 	adds.w	r3, ip, r3
 8000456:	f100 38ff 	add.w	r8, r0, #4294967295
 800045a:	d22f      	bcs.n	80004bc <__udivmoddi4+0x2b8>
 800045c:	429e      	cmp	r6, r3
 800045e:	d92d      	bls.n	80004bc <__udivmoddi4+0x2b8>
 8000460:	3802      	subs	r0, #2
 8000462:	4463      	add	r3, ip
 8000464:	1b9b      	subs	r3, r3, r6
 8000466:	b289      	uxth	r1, r1
 8000468:	fbb3 f6f7 	udiv	r6, r3, r7
 800046c:	fb07 3316 	mls	r3, r7, r6, r3
 8000470:	ea41 4103 	orr.w	r1, r1, r3, lsl #16
 8000474:	fb06 f30e 	mul.w	r3, r6, lr
 8000478:	428b      	cmp	r3, r1
 800047a:	d908      	bls.n	800048e <__udivmoddi4+0x28a>
 800047c:	eb1c 0101 	adds.w	r1, ip, r1
 8000480:	f106 38ff 	add.w	r8, r6, #4294967295
 8000484:	d216      	bcs.n	80004b4 <__udivmoddi4+0x2b0>
 8000486:	428b      	cmp	r3, r1
 8000488:	d914      	bls.n	80004b4 <__udivmoddi4+0x2b0>
 800048a:	3e02      	subs	r6, #2
 800048c:	4461      	add	r1, ip
 800048e:	1ac9      	subs	r1, r1, r3
 8000490:	ea46 4600 	orr.w	r6, r6, r0, lsl #16
 8000494:	e738      	b.n	8000308 <__udivmoddi4+0x104>
 8000496:	462e      	mov	r6, r5
 8000498:	4628      	mov	r0, r5
 800049a:	e705      	b.n	80002a8 <__udivmoddi4+0xa4>
 800049c:	4606      	mov	r6, r0
 800049e:	e6e3      	b.n	8000268 <__udivmoddi4+0x64>
 80004a0:	4618      	mov	r0, r3
 80004a2:	e6f8      	b.n	8000296 <__udivmoddi4+0x92>
 80004a4:	454b      	cmp	r3, r9
 80004a6:	d2a9      	bcs.n	80003fc <__udivmoddi4+0x1f8>
 80004a8:	ebb9 0802 	subs.w	r8, r9, r2
 80004ac:	eb64 0e0c 	sbc.w	lr, r4, ip
 80004b0:	3801      	subs	r0, #1
 80004b2:	e7a3      	b.n	80003fc <__udivmoddi4+0x1f8>
 80004b4:	4646      	mov	r6, r8
 80004b6:	e7ea      	b.n	800048e <__udivmoddi4+0x28a>
 80004b8:	4620      	mov	r0, r4
 80004ba:	e794      	b.n	80003e6 <__udivmoddi4+0x1e2>
 80004bc:	4640      	mov	r0, r8
 80004be:	e7d1      	b.n	8000464 <__udivmoddi4+0x260>
 80004c0:	46d0      	mov	r8, sl
 80004c2:	e77b      	b.n	80003bc <__udivmoddi4+0x1b8>
 80004c4:	3b02      	subs	r3, #2
 80004c6:	4461      	add	r1, ip
 80004c8:	e732      	b.n	8000330 <__udivmoddi4+0x12c>
 80004ca:	4630      	mov	r0, r6
 80004cc:	e709      	b.n	80002e2 <__udivmoddi4+0xde>
 80004ce:	4464      	add	r4, ip
 80004d0:	3802      	subs	r0, #2
 80004d2:	e742      	b.n	800035a <__udivmoddi4+0x156>

080004d4 <__aeabi_idiv0>:
 80004d4:	4770      	bx	lr
 80004d6:	bf00      	nop

080004d8 <LL_DMA_EnableStream>:
  *         @arg @ref LL_DMA_STREAM_6
  *         @arg @ref LL_DMA_STREAM_7
  * @retval None
  */
__STATIC_INLINE void LL_DMA_EnableStream(DMA_TypeDef *DMAx, uint32_t Stream)
{
 80004d8:	b480      	push	{r7}
 80004da:	b083      	sub	sp, #12
 80004dc:	af00      	add	r7, sp, #0
 80004de:	6078      	str	r0, [r7, #4]
 80004e0:	6039      	str	r1, [r7, #0]
  SET_BIT(((DMA_Stream_TypeDef *)((uint32_t)((uint32_t)DMAx + STREAM_OFFSET_TAB[Stream])))->CR, DMA_SxCR_EN);
 80004e2:	4a0c      	ldr	r2, [pc, #48]	; (8000514 <LL_DMA_EnableStream+0x3c>)
 80004e4:	683b      	ldr	r3, [r7, #0]
 80004e6:	4413      	add	r3, r2
 80004e8:	781b      	ldrb	r3, [r3, #0]
 80004ea:	461a      	mov	r2, r3
 80004ec:	687b      	ldr	r3, [r7, #4]
 80004ee:	4413      	add	r3, r2
 80004f0:	681b      	ldr	r3, [r3, #0]
 80004f2:	4908      	ldr	r1, [pc, #32]	; (8000514 <LL_DMA_EnableStream+0x3c>)
 80004f4:	683a      	ldr	r2, [r7, #0]
 80004f6:	440a      	add	r2, r1
 80004f8:	7812      	ldrb	r2, [r2, #0]
 80004fa:	4611      	mov	r1, r2
 80004fc:	687a      	ldr	r2, [r7, #4]
 80004fe:	440a      	add	r2, r1
 8000500:	f043 0301 	orr.w	r3, r3, #1
 8000504:	6013      	str	r3, [r2, #0]
}
 8000506:	bf00      	nop
 8000508:	370c      	adds	r7, #12
 800050a:	46bd      	mov	sp, r7
 800050c:	f85d 7b04 	ldr.w	r7, [sp], #4
 8000510:	4770      	bx	lr
 8000512:	bf00      	nop
 8000514:	08004270 	.word	0x08004270

08000518 <LL_DMA_DisableStream>:
  *         @arg @ref LL_DMA_STREAM_6
  *         @arg @ref LL_DMA_STREAM_7
  * @retval None
  */
__STATIC_INLINE void LL_DMA_DisableStream(DMA_TypeDef *DMAx, uint32_t Stream)
{
 8000518:	b480      	push	{r7}
 800051a:	b083      	sub	sp, #12
 800051c:	af00      	add	r7, sp, #0
 800051e:	6078      	str	r0, [r7, #4]
 8000520:	6039      	str	r1, [r7, #0]
  CLEAR_BIT(((DMA_Stream_TypeDef *)((uint32_t)((uint32_t)DMAx + STREAM_OFFSET_TAB[Stream])))->CR, DMA_SxCR_EN);
 8000522:	4a0c      	ldr	r2, [pc, #48]	; (8000554 <LL_DMA_DisableStream+0x3c>)
 8000524:	683b      	ldr	r3, [r7, #0]
 8000526:	4413      	add	r3, r2
 8000528:	781b      	ldrb	r3, [r3, #0]
 800052a:	461a      	mov	r2, r3
 800052c:	687b      	ldr	r3, [r7, #4]
 800052e:	4413      	add	r3, r2
 8000530:	681b      	ldr	r3, [r3, #0]
 8000532:	4908      	ldr	r1, [pc, #32]	; (8000554 <LL_DMA_DisableStream+0x3c>)
 8000534:	683a      	ldr	r2, [r7, #0]
 8000536:	440a      	add	r2, r1
 8000538:	7812      	ldrb	r2, [r2, #0]
 800053a:	4611      	mov	r1, r2
 800053c:	687a      	ldr	r2, [r7, #4]
 800053e:	440a      	add	r2, r1
 8000540:	f023 0301 	bic.w	r3, r3, #1
 8000544:	6013      	str	r3, [r2, #0]
}
 8000546:	bf00      	nop
 8000548:	370c      	adds	r7, #12
 800054a:	46bd      	mov	sp, r7
 800054c:	f85d 7b04 	ldr.w	r7, [sp], #4
 8000550:	4770      	bx	lr
 8000552:	bf00      	nop
 8000554:	08004270 	.word	0x08004270

08000558 <LL_DMA_GetDataTransferDirection>:
  *         @arg @ref LL_DMA_DIRECTION_PERIPH_TO_MEMORY
  *         @arg @ref LL_DMA_DIRECTION_MEMORY_TO_PERIPH
  *         @arg @ref LL_DMA_DIRECTION_MEMORY_TO_MEMORY
  */
__STATIC_INLINE uint32_t LL_DMA_GetDataTransferDirection(DMA_TypeDef *DMAx, uint32_t Stream)
{
 8000558:	b480      	push	{r7}
 800055a:	b083      	sub	sp, #12
 800055c:	af00      	add	r7, sp, #0
 800055e:	6078      	str	r0, [r7, #4]
 8000560:	6039      	str	r1, [r7, #0]
  return (READ_BIT(((DMA_Stream_TypeDef*)((uint32_t)((uint32_t)DMAx + STREAM_OFFSET_TAB[Stream])))->CR, DMA_SxCR_DIR));
 8000562:	4a08      	ldr	r2, [pc, #32]	; (8000584 <LL_DMA_GetDataTransferDirection+0x2c>)
 8000564:	683b      	ldr	r3, [r7, #0]
 8000566:	4413      	add	r3, r2
 8000568:	781b      	ldrb	r3, [r3, #0]
 800056a:	461a      	mov	r2, r3
 800056c:	687b      	ldr	r3, [r7, #4]
 800056e:	4413      	add	r3, r2
 8000570:	681b      	ldr	r3, [r3, #0]
 8000572:	f003 03c0 	and.w	r3, r3, #192	; 0xc0
}
 8000576:	4618      	mov	r0, r3
 8000578:	370c      	adds	r7, #12
 800057a:	46bd      	mov	sp, r7
 800057c:	f85d 7b04 	ldr.w	r7, [sp], #4
 8000580:	4770      	bx	lr
 8000582:	bf00      	nop
 8000584:	08004270 	.word	0x08004270

08000588 <LL_DMA_SetDataLength>:
  *         @arg @ref LL_DMA_STREAM_7
  * @param  NbData Between 0 to 0xFFFFFFFF
  * @retval None
  */
__STATIC_INLINE void LL_DMA_SetDataLength(DMA_TypeDef* DMAx, uint32_t Stream, uint32_t NbData)
{
 8000588:	b480      	push	{r7}
 800058a:	b085      	sub	sp, #20
 800058c:	af00      	add	r7, sp, #0
 800058e:	60f8      	str	r0, [r7, #12]
 8000590:	60b9      	str	r1, [r7, #8]
 8000592:	607a      	str	r2, [r7, #4]
  MODIFY_REG(((DMA_Stream_TypeDef*)((uint32_t)((uint32_t)DMAx + STREAM_OFFSET_TAB[Stream])))->NDTR, DMA_SxNDT, NbData);
 8000594:	4a0d      	ldr	r2, [pc, #52]	; (80005cc <LL_DMA_SetDataLength+0x44>)
 8000596:	68bb      	ldr	r3, [r7, #8]
 8000598:	4413      	add	r3, r2
 800059a:	781b      	ldrb	r3, [r3, #0]
 800059c:	461a      	mov	r2, r3
 800059e:	68fb      	ldr	r3, [r7, #12]
 80005a0:	4413      	add	r3, r2
 80005a2:	685b      	ldr	r3, [r3, #4]
 80005a4:	0c1b      	lsrs	r3, r3, #16
 80005a6:	041b      	lsls	r3, r3, #16
 80005a8:	4908      	ldr	r1, [pc, #32]	; (80005cc <LL_DMA_SetDataLength+0x44>)
 80005aa:	68ba      	ldr	r2, [r7, #8]
 80005ac:	440a      	add	r2, r1
 80005ae:	7812      	ldrb	r2, [r2, #0]
 80005b0:	4611      	mov	r1, r2
 80005b2:	68fa      	ldr	r2, [r7, #12]
 80005b4:	440a      	add	r2, r1
 80005b6:	4611      	mov	r1, r2
 80005b8:	687a      	ldr	r2, [r7, #4]
 80005ba:	4313      	orrs	r3, r2
 80005bc:	604b      	str	r3, [r1, #4]
}
 80005be:	bf00      	nop
 80005c0:	3714      	adds	r7, #20
 80005c2:	46bd      	mov	sp, r7
 80005c4:	f85d 7b04 	ldr.w	r7, [sp], #4
 80005c8:	4770      	bx	lr
 80005ca:	bf00      	nop
 80005cc:	08004270 	.word	0x08004270

080005d0 <LL_DMA_ConfigAddresses>:
  *         @arg @ref LL_DMA_DIRECTION_MEMORY_TO_PERIPH
  *         @arg @ref LL_DMA_DIRECTION_MEMORY_TO_MEMORY
  * @retval None
  */
__STATIC_INLINE void LL_DMA_ConfigAddresses(DMA_TypeDef* DMAx, uint32_t Stream, uint32_t SrcAddress, uint32_t DstAddress, uint32_t Direction)
{
 80005d0:	b480      	push	{r7}
 80005d2:	b085      	sub	sp, #20
 80005d4:	af00      	add	r7, sp, #0
 80005d6:	60f8      	str	r0, [r7, #12]
 80005d8:	60b9      	str	r1, [r7, #8]
 80005da:	607a      	str	r2, [r7, #4]
 80005dc:	603b      	str	r3, [r7, #0]
  /* Direction Memory to Periph */
  if (Direction == LL_DMA_DIRECTION_MEMORY_TO_PERIPH)
 80005de:	69bb      	ldr	r3, [r7, #24]
 80005e0:	2b40      	cmp	r3, #64	; 0x40
 80005e2:	d114      	bne.n	800060e <LL_DMA_ConfigAddresses+0x3e>
  {
    WRITE_REG(((DMA_Stream_TypeDef*)((uint32_t)((uint32_t)DMAx + STREAM_OFFSET_TAB[Stream])))->M0AR, SrcAddress);
 80005e4:	4a17      	ldr	r2, [pc, #92]	; (8000644 <LL_DMA_ConfigAddresses+0x74>)
 80005e6:	68bb      	ldr	r3, [r7, #8]
 80005e8:	4413      	add	r3, r2
 80005ea:	781b      	ldrb	r3, [r3, #0]
 80005ec:	461a      	mov	r2, r3
 80005ee:	68fb      	ldr	r3, [r7, #12]
 80005f0:	4413      	add	r3, r2
 80005f2:	461a      	mov	r2, r3
 80005f4:	687b      	ldr	r3, [r7, #4]
 80005f6:	60d3      	str	r3, [r2, #12]
    WRITE_REG(((DMA_Stream_TypeDef*)((uint32_t)((uint32_t)DMAx + STREAM_OFFSET_TAB[Stream])))->PAR, DstAddress);
 80005f8:	4a12      	ldr	r2, [pc, #72]	; (8000644 <LL_DMA_ConfigAddresses+0x74>)
 80005fa:	68bb      	ldr	r3, [r7, #8]
 80005fc:	4413      	add	r3, r2
 80005fe:	781b      	ldrb	r3, [r3, #0]
 8000600:	461a      	mov	r2, r3
 8000602:	68fb      	ldr	r3, [r7, #12]
 8000604:	4413      	add	r3, r2
 8000606:	461a      	mov	r2, r3
 8000608:	683b      	ldr	r3, [r7, #0]
 800060a:	6093      	str	r3, [r2, #8]
  else
  {
    WRITE_REG(((DMA_Stream_TypeDef*)((uint32_t)((uint32_t)DMAx + STREAM_OFFSET_TAB[Stream])))->PAR, SrcAddress);
    WRITE_REG(((DMA_Stream_TypeDef*)((uint32_t)((uint32_t)DMAx + STREAM_OFFSET_TAB[Stream])))->M0AR, DstAddress);
  }
}
 800060c:	e013      	b.n	8000636 <LL_DMA_ConfigAddresses+0x66>
    WRITE_REG(((DMA_Stream_TypeDef*)((uint32_t)((uint32_t)DMAx + STREAM_OFFSET_TAB[Stream])))->PAR, SrcAddress);
 800060e:	4a0d      	ldr	r2, [pc, #52]	; (8000644 <LL_DMA_ConfigAddresses+0x74>)
 8000610:	68bb      	ldr	r3, [r7, #8]
 8000612:	4413      	add	r3, r2
 8000614:	781b      	ldrb	r3, [r3, #0]
 8000616:	461a      	mov	r2, r3
 8000618:	68fb      	ldr	r3, [r7, #12]
 800061a:	4413      	add	r3, r2
 800061c:	461a      	mov	r2, r3
 800061e:	687b      	ldr	r3, [r7, #4]
 8000620:	6093      	str	r3, [r2, #8]
    WRITE_REG(((DMA_Stream_TypeDef*)((uint32_t)((uint32_t)DMAx + STREAM_OFFSET_TAB[Stream])))->M0AR, DstAddress);
 8000622:	4a08      	ldr	r2, [pc, #32]	; (8000644 <LL_DMA_ConfigAddresses+0x74>)
 8000624:	68bb      	ldr	r3, [r7, #8]
 8000626:	4413      	add	r3, r2
 8000628:	781b      	ldrb	r3, [r3, #0]
 800062a:	461a      	mov	r2, r3
 800062c:	68fb      	ldr	r3, [r7, #12]
 800062e:	4413      	add	r3, r2
 8000630:	461a      	mov	r2, r3
 8000632:	683b      	ldr	r3, [r7, #0]
 8000634:	60d3      	str	r3, [r2, #12]
}
 8000636:	bf00      	nop
 8000638:	3714      	adds	r7, #20
 800063a:	46bd      	mov	sp, r7
 800063c:	f85d 7b04 	ldr.w	r7, [sp], #4
 8000640:	4770      	bx	lr
 8000642:	bf00      	nop
 8000644:	08004270 	.word	0x08004270

08000648 <LL_DMA_IsActiveFlag_TC3>:
  * @rmtoll LISR  TCIF3    LL_DMA_IsActiveFlag_TC3
  * @param  DMAx DMAx Instance
  * @retval State of bit (1 or 0).
  */
__STATIC_INLINE uint32_t LL_DMA_IsActiveFlag_TC3(DMA_TypeDef *DMAx)
{
 8000648:	b480      	push	{r7}
 800064a:	b083      	sub	sp, #12
 800064c:	af00      	add	r7, sp, #0
 800064e:	6078      	str	r0, [r7, #4]
  return (READ_BIT(DMAx->LISR ,DMA_LISR_TCIF3)==(DMA_LISR_TCIF3));
 8000650:	687b      	ldr	r3, [r7, #4]
 8000652:	681b      	ldr	r3, [r3, #0]
 8000654:	f003 6300 	and.w	r3, r3, #134217728	; 0x8000000
 8000658:	f1b3 6f00 	cmp.w	r3, #134217728	; 0x8000000
 800065c:	bf0c      	ite	eq
 800065e:	2301      	moveq	r3, #1
 8000660:	2300      	movne	r3, #0
 8000662:	b2db      	uxtb	r3, r3
}
 8000664:	4618      	mov	r0, r3
 8000666:	370c      	adds	r7, #12
 8000668:	46bd      	mov	sp, r7
 800066a:	f85d 7b04 	ldr.w	r7, [sp], #4
 800066e:	4770      	bx	lr

08000670 <LL_DMA_ClearFlag_TC3>:
  * @rmtoll LIFCR  CTCIF3    LL_DMA_ClearFlag_TC3
  * @param  DMAx DMAx Instance
  * @retval None
  */
__STATIC_INLINE void LL_DMA_ClearFlag_TC3(DMA_TypeDef *DMAx)
{
 8000670:	b480      	push	{r7}
 8000672:	b083      	sub	sp, #12
 8000674:	af00      	add	r7, sp, #0
 8000676:	6078      	str	r0, [r7, #4]
  WRITE_REG(DMAx->LIFCR , DMA_LIFCR_CTCIF3);
 8000678:	687b      	ldr	r3, [r7, #4]
 800067a:	f04f 6200 	mov.w	r2, #134217728	; 0x8000000
 800067e:	609a      	str	r2, [r3, #8]
}
 8000680:	bf00      	nop
 8000682:	370c      	adds	r7, #12
 8000684:	46bd      	mov	sp, r7
 8000686:	f85d 7b04 	ldr.w	r7, [sp], #4
 800068a:	4770      	bx	lr

0800068c <LL_DMA_ClearFlag_TC4>:
  * @rmtoll HIFCR  CTCIF4    LL_DMA_ClearFlag_TC4
  * @param  DMAx DMAx Instance
  * @retval None
  */
__STATIC_INLINE void LL_DMA_ClearFlag_TC4(DMA_TypeDef *DMAx)
{
 800068c:	b480      	push	{r7}
 800068e:	b083      	sub	sp, #12
 8000690:	af00      	add	r7, sp, #0
 8000692:	6078      	str	r0, [r7, #4]
  WRITE_REG(DMAx->HIFCR , DMA_HIFCR_CTCIF4);
 8000694:	687b      	ldr	r3, [r7, #4]
 8000696:	2220      	movs	r2, #32
 8000698:	60da      	str	r2, [r3, #12]
}
 800069a:	bf00      	nop
 800069c:	370c      	adds	r7, #12
 800069e:	46bd      	mov	sp, r7
 80006a0:	f85d 7b04 	ldr.w	r7, [sp], #4
 80006a4:	4770      	bx	lr

080006a6 <LL_SPI_Enable>:
  * @rmtoll CR1          SPE           LL_SPI_Enable
  * @param  SPIx SPI Instance
  * @retval None
  */
__STATIC_INLINE void LL_SPI_Enable(SPI_TypeDef *SPIx)
{
 80006a6:	b480      	push	{r7}
 80006a8:	b083      	sub	sp, #12
 80006aa:	af00      	add	r7, sp, #0
 80006ac:	6078      	str	r0, [r7, #4]
  SET_BIT(SPIx->CR1, SPI_CR1_SPE);
 80006ae:	687b      	ldr	r3, [r7, #4]
 80006b0:	681b      	ldr	r3, [r3, #0]
 80006b2:	f043 0240 	orr.w	r2, r3, #64	; 0x40
 80006b6:	687b      	ldr	r3, [r7, #4]
 80006b8:	601a      	str	r2, [r3, #0]
}
 80006ba:	bf00      	nop
 80006bc:	370c      	adds	r7, #12
 80006be:	46bd      	mov	sp, r7
 80006c0:	f85d 7b04 	ldr.w	r7, [sp], #4
 80006c4:	4770      	bx	lr

080006c6 <LL_SPI_Disable>:
  * @rmtoll CR1          SPE           LL_SPI_Disable
  * @param  SPIx SPI Instance
  * @retval None
  */
__STATIC_INLINE void LL_SPI_Disable(SPI_TypeDef *SPIx)
{
 80006c6:	b480      	push	{r7}
 80006c8:	b083      	sub	sp, #12
 80006ca:	af00      	add	r7, sp, #0
 80006cc:	6078      	str	r0, [r7, #4]
  CLEAR_BIT(SPIx->CR1, SPI_CR1_SPE);
 80006ce:	687b      	ldr	r3, [r7, #4]
 80006d0:	681b      	ldr	r3, [r3, #0]
 80006d2:	f023 0240 	bic.w	r2, r3, #64	; 0x40
 80006d6:	687b      	ldr	r3, [r7, #4]
 80006d8:	601a      	str	r2, [r3, #0]
}
 80006da:	bf00      	nop
 80006dc:	370c      	adds	r7, #12
 80006de:	46bd      	mov	sp, r7
 80006e0:	f85d 7b04 	ldr.w	r7, [sp], #4
 80006e4:	4770      	bx	lr

080006e6 <LL_SPI_DMA_GetRegAddr>:
  * @rmtoll DR           DR            LL_SPI_DMA_GetRegAddr
  * @param  SPIx SPI Instance
  * @retval Address of data register
  */
__STATIC_INLINE uint32_t LL_SPI_DMA_GetRegAddr(SPI_TypeDef *SPIx)
{
 80006e6:	b480      	push	{r7}
 80006e8:	b083      	sub	sp, #12
 80006ea:	af00      	add	r7, sp, #0
 80006ec:	6078      	str	r0, [r7, #4]
  return (uint32_t) &(SPIx->DR);
 80006ee:	687b      	ldr	r3, [r7, #4]
 80006f0:	330c      	adds	r3, #12
}
 80006f2:	4618      	mov	r0, r3
 80006f4:	370c      	adds	r7, #12
 80006f6:	46bd      	mov	sp, r7
 80006f8:	f85d 7b04 	ldr.w	r7, [sp], #4
 80006fc:	4770      	bx	lr

080006fe <LL_TIM_SetCounter>:
  * @param  TIMx Timer instance
  * @param  Counter Counter value (between Min_Data=0 and Max_Data=0xFFFF or 0xFFFFFFFF)
  * @retval None
  */
__STATIC_INLINE void LL_TIM_SetCounter(TIM_TypeDef *TIMx, uint32_t Counter)
{
 80006fe:	b480      	push	{r7}
 8000700:	b083      	sub	sp, #12
 8000702:	af00      	add	r7, sp, #0
 8000704:	6078      	str	r0, [r7, #4]
 8000706:	6039      	str	r1, [r7, #0]
  WRITE_REG(TIMx->CNT, Counter);
 8000708:	687b      	ldr	r3, [r7, #4]
 800070a:	683a      	ldr	r2, [r7, #0]
 800070c:	625a      	str	r2, [r3, #36]	; 0x24
}
 800070e:	bf00      	nop
 8000710:	370c      	adds	r7, #12
 8000712:	46bd      	mov	sp, r7
 8000714:	f85d 7b04 	ldr.w	r7, [sp], #4
 8000718:	4770      	bx	lr

0800071a <LL_TIM_GetCounter>:
  * @rmtoll CNT          CNT           LL_TIM_GetCounter
  * @param  TIMx Timer instance
  * @retval Counter value (between Min_Data=0 and Max_Data=0xFFFF or 0xFFFFFFFF)
  */
__STATIC_INLINE uint32_t LL_TIM_GetCounter(TIM_TypeDef *TIMx)
{
 800071a:	b480      	push	{r7}
 800071c:	b083      	sub	sp, #12
 800071e:	af00      	add	r7, sp, #0
 8000720:	6078      	str	r0, [r7, #4]
  return (uint32_t)(READ_REG(TIMx->CNT));
 8000722:	687b      	ldr	r3, [r7, #4]
 8000724:	6a5b      	ldr	r3, [r3, #36]	; 0x24
}
 8000726:	4618      	mov	r0, r3
 8000728:	370c      	adds	r7, #12
 800072a:	46bd      	mov	sp, r7
 800072c:	f85d 7b04 	ldr.w	r7, [sp], #4
 8000730:	4770      	bx	lr

08000732 <LL_GPIO_IsInputPinSet>:
  *         @arg @ref LL_GPIO_PIN_15
  *         @arg @ref LL_GPIO_PIN_ALL
  * @retval State of bit (1 or 0).
  */
__STATIC_INLINE uint32_t LL_GPIO_IsInputPinSet(GPIO_TypeDef *GPIOx, uint32_t PinMask)
{
 8000732:	b480      	push	{r7}
 8000734:	b083      	sub	sp, #12
 8000736:	af00      	add	r7, sp, #0
 8000738:	6078      	str	r0, [r7, #4]
 800073a:	6039      	str	r1, [r7, #0]
  return (READ_BIT(GPIOx->IDR, PinMask) == (PinMask));
 800073c:	687b      	ldr	r3, [r7, #4]
 800073e:	691a      	ldr	r2, [r3, #16]
 8000740:	683b      	ldr	r3, [r7, #0]
 8000742:	4013      	ands	r3, r2
 8000744:	683a      	ldr	r2, [r7, #0]
 8000746:	429a      	cmp	r2, r3
 8000748:	bf0c      	ite	eq
 800074a:	2301      	moveq	r3, #1
 800074c:	2300      	movne	r3, #0
 800074e:	b2db      	uxtb	r3, r3
}
 8000750:	4618      	mov	r0, r3
 8000752:	370c      	adds	r7, #12
 8000754:	46bd      	mov	sp, r7
 8000756:	f85d 7b04 	ldr.w	r7, [sp], #4
 800075a:	4770      	bx	lr

0800075c <LL_GPIO_SetOutputPin>:
  *         @arg @ref LL_GPIO_PIN_15
  *         @arg @ref LL_GPIO_PIN_ALL
  * @retval None
  */
__STATIC_INLINE void LL_GPIO_SetOutputPin(GPIO_TypeDef *GPIOx, uint32_t PinMask)
{
 800075c:	b480      	push	{r7}
 800075e:	b083      	sub	sp, #12
 8000760:	af00      	add	r7, sp, #0
 8000762:	6078      	str	r0, [r7, #4]
 8000764:	6039      	str	r1, [r7, #0]
  WRITE_REG(GPIOx->BSRR, PinMask);
 8000766:	687b      	ldr	r3, [r7, #4]
 8000768:	683a      	ldr	r2, [r7, #0]
 800076a:	619a      	str	r2, [r3, #24]
}
 800076c:	bf00      	nop
 800076e:	370c      	adds	r7, #12
 8000770:	46bd      	mov	sp, r7
 8000772:	f85d 7b04 	ldr.w	r7, [sp], #4
 8000776:	4770      	bx	lr

08000778 <LL_GPIO_ResetOutputPin>:
  *         @arg @ref LL_GPIO_PIN_15
  *         @arg @ref LL_GPIO_PIN_ALL
  * @retval None
  */
__STATIC_INLINE void LL_GPIO_ResetOutputPin(GPIO_TypeDef *GPIOx, uint32_t PinMask)
{
 8000778:	b480      	push	{r7}
 800077a:	b083      	sub	sp, #12
 800077c:	af00      	add	r7, sp, #0
 800077e:	6078      	str	r0, [r7, #4]
 8000780:	6039      	str	r1, [r7, #0]
  WRITE_REG(GPIOx->BSRR, (PinMask << 16));
 8000782:	683b      	ldr	r3, [r7, #0]
 8000784:	041a      	lsls	r2, r3, #16
 8000786:	687b      	ldr	r3, [r7, #4]
 8000788:	619a      	str	r2, [r3, #24]
}
 800078a:	bf00      	nop
 800078c:	370c      	adds	r7, #12
 800078e:	46bd      	mov	sp, r7
 8000790:	f85d 7b04 	ldr.w	r7, [sp], #4
 8000794:	4770      	bx	lr
	...

08000798 <ads1256_HAL_is_DRDY_high>:
uint8_t RX_Buffer[8];
uint8_t TX_Buffer[8];

//HAL funtions for ADC
__STATIC_INLINE uint8_t ads1256_HAL_is_DRDY_high(void)
{
 8000798:	b580      	push	{r7, lr}
 800079a:	af00      	add	r7, sp, #0
	return (uint8_t)LL_GPIO_IsInputPinSet(ADC_DRDY_GPIO_Port, ADC_DRDY_Pin);
 800079c:	f44f 7180 	mov.w	r1, #256	; 0x100
 80007a0:	4803      	ldr	r0, [pc, #12]	; (80007b0 <ads1256_HAL_is_DRDY_high+0x18>)
 80007a2:	f7ff ffc6 	bl	8000732 <LL_GPIO_IsInputPinSet>
 80007a6:	4603      	mov	r3, r0
 80007a8:	b2db      	uxtb	r3, r3
}
 80007aa:	4618      	mov	r0, r3
 80007ac:	bd80      	pop	{r7, pc}
 80007ae:	bf00      	nop
 80007b0:	40020000 	.word	0x40020000

080007b4 <ads1256_HAL_reset>:

void ads1256_HAL_reset(void)
{
 80007b4:	b580      	push	{r7, lr}
 80007b6:	af00      	add	r7, sp, #0
	LL_GPIO_ResetOutputPin(ADC_Reset_GPIO_Port, ADC_Reset_Pin);
 80007b8:	f44f 7100 	mov.w	r1, #512	; 0x200
 80007bc:	4806      	ldr	r0, [pc, #24]	; (80007d8 <ads1256_HAL_reset+0x24>)
 80007be:	f7ff ffdb 	bl	8000778 <LL_GPIO_ResetOutputPin>

	delay_us(ADS_RESET_LENGTH_US);
 80007c2:	2064      	movs	r0, #100	; 0x64
 80007c4:	f000 fb28 	bl	8000e18 <delay_us>

	LL_GPIO_SetOutputPin(ADC_Reset_GPIO_Port, ADC_Reset_Pin);
 80007c8:	f44f 7100 	mov.w	r1, #512	; 0x200
 80007cc:	4802      	ldr	r0, [pc, #8]	; (80007d8 <ads1256_HAL_reset+0x24>)
 80007ce:	f7ff ffc5 	bl	800075c <LL_GPIO_SetOutputPin>
}
 80007d2:	bf00      	nop
 80007d4:	bd80      	pop	{r7, pc}
 80007d6:	bf00      	nop
 80007d8:	40020000 	.word	0x40020000

080007dc <ads1256_HAL_Setup_Buffers>:

void ads1256_HAL_Setup_Buffers(uint8_t *TXBuff, uint8_t *RXBuff)
{
 80007dc:	b5b0      	push	{r4, r5, r7, lr}
 80007de:	b084      	sub	sp, #16
 80007e0:	af02      	add	r7, sp, #8
 80007e2:	6078      	str	r0, [r7, #4]
 80007e4:	6039      	str	r1, [r7, #0]
	LL_DMA_ConfigAddresses(DMA1, LL_DMA_STREAM_3, LL_SPI_DMA_GetRegAddr(SPI2),
 80007e6:	4813      	ldr	r0, [pc, #76]	; (8000834 <ads1256_HAL_Setup_Buffers+0x58>)
 80007e8:	f7ff ff7d 	bl	80006e6 <LL_SPI_DMA_GetRegAddr>
 80007ec:	4605      	mov	r5, r0
 80007ee:	683c      	ldr	r4, [r7, #0]
 80007f0:	2103      	movs	r1, #3
 80007f2:	4811      	ldr	r0, [pc, #68]	; (8000838 <ads1256_HAL_Setup_Buffers+0x5c>)
 80007f4:	f7ff feb0 	bl	8000558 <LL_DMA_GetDataTransferDirection>
 80007f8:	4603      	mov	r3, r0
 80007fa:	9300      	str	r3, [sp, #0]
 80007fc:	4623      	mov	r3, r4
 80007fe:	462a      	mov	r2, r5
 8000800:	2103      	movs	r1, #3
 8000802:	480d      	ldr	r0, [pc, #52]	; (8000838 <ads1256_HAL_Setup_Buffers+0x5c>)
 8000804:	f7ff fee4 	bl	80005d0 <LL_DMA_ConfigAddresses>
				  	  	  	  	  (uint32_t)RXBuff, LL_DMA_GetDataTransferDirection(DMA1, LL_DMA_STREAM_3)); //RX
	LL_DMA_ConfigAddresses(DMA1, LL_DMA_STREAM_4, (uint32_t)TXBuff,
 8000808:	687c      	ldr	r4, [r7, #4]
 800080a:	480a      	ldr	r0, [pc, #40]	; (8000834 <ads1256_HAL_Setup_Buffers+0x58>)
 800080c:	f7ff ff6b 	bl	80006e6 <LL_SPI_DMA_GetRegAddr>
 8000810:	4605      	mov	r5, r0
 8000812:	2104      	movs	r1, #4
 8000814:	4808      	ldr	r0, [pc, #32]	; (8000838 <ads1256_HAL_Setup_Buffers+0x5c>)
 8000816:	f7ff fe9f 	bl	8000558 <LL_DMA_GetDataTransferDirection>
 800081a:	4603      	mov	r3, r0
 800081c:	9300      	str	r3, [sp, #0]
 800081e:	462b      	mov	r3, r5
 8000820:	4622      	mov	r2, r4
 8000822:	2104      	movs	r1, #4
 8000824:	4804      	ldr	r0, [pc, #16]	; (8000838 <ads1256_HAL_Setup_Buffers+0x5c>)
 8000826:	f7ff fed3 	bl	80005d0 <LL_DMA_ConfigAddresses>
				  	  	  	  	  LL_SPI_DMA_GetRegAddr(SPI2), LL_DMA_GetDataTransferDirection(DMA1, LL_DMA_STREAM_4));  //TX
}
 800082a:	bf00      	nop
 800082c:	3708      	adds	r7, #8
 800082e:	46bd      	mov	sp, r7
 8000830:	bdb0      	pop	{r4, r5, r7, pc}
 8000832:	bf00      	nop
 8000834:	40003800 	.word	0x40003800
 8000838:	40026000 	.word	0x40026000

0800083c <ads1256_HAL_SPI_Transfer>:

ADS1256C_StatusTypeDef ads1256_HAL_SPI_Transfer(uint8_t bytecount)
{
 800083c:	b580      	push	{r7, lr}
 800083e:	b082      	sub	sp, #8
 8000840:	af00      	add	r7, sp, #0
 8000842:	4603      	mov	r3, r0
 8000844:	71fb      	strb	r3, [r7, #7]
	LL_DMA_SetDataLength(DMA1, LL_DMA_STREAM_3, bytecount);
 8000846:	79fb      	ldrb	r3, [r7, #7]
 8000848:	461a      	mov	r2, r3
 800084a:	2103      	movs	r1, #3
 800084c:	4825      	ldr	r0, [pc, #148]	; (80008e4 <ads1256_HAL_SPI_Transfer+0xa8>)
 800084e:	f7ff fe9b 	bl	8000588 <LL_DMA_SetDataLength>
	LL_DMA_SetDataLength(DMA1, LL_DMA_STREAM_4, bytecount);
 8000852:	79fb      	ldrb	r3, [r7, #7]
 8000854:	461a      	mov	r2, r3
 8000856:	2104      	movs	r1, #4
 8000858:	4822      	ldr	r0, [pc, #136]	; (80008e4 <ads1256_HAL_SPI_Transfer+0xa8>)
 800085a:	f7ff fe95 	bl	8000588 <LL_DMA_SetDataLength>

	//set CS low
	LL_GPIO_ResetOutputPin(ADC_CS_GPIO_Port, ADC_CS_Pin);
 800085e:	f44f 5180 	mov.w	r1, #4096	; 0x1000
 8000862:	4821      	ldr	r0, [pc, #132]	; (80008e8 <ads1256_HAL_SPI_Transfer+0xac>)
 8000864:	f7ff ff88 	bl	8000778 <LL_GPIO_ResetOutputPin>

	// Enable SPI
	LL_SPI_Enable(SPI2);
 8000868:	4820      	ldr	r0, [pc, #128]	; (80008ec <ads1256_HAL_SPI_Transfer+0xb0>)
 800086a:	f7ff ff1c 	bl	80006a6 <LL_SPI_Enable>

	/* Enable DMA Channels */
	LL_DMA_EnableStream(DMA1, LL_DMA_STREAM_3); //RX
 800086e:	2103      	movs	r1, #3
 8000870:	481c      	ldr	r0, [pc, #112]	; (80008e4 <ads1256_HAL_SPI_Transfer+0xa8>)
 8000872:	f7ff fe31 	bl	80004d8 <LL_DMA_EnableStream>
	LL_DMA_EnableStream(DMA1, LL_DMA_STREAM_4); //TX
 8000876:	2104      	movs	r1, #4
 8000878:	481a      	ldr	r0, [pc, #104]	; (80008e4 <ads1256_HAL_SPI_Transfer+0xa8>)
 800087a:	f7ff fe2d 	bl	80004d8 <LL_DMA_EnableStream>

	//wait for (RX) transfer completion
	LL_TIM_SetCounter(TIM3, 0);
 800087e:	2100      	movs	r1, #0
 8000880:	481b      	ldr	r0, [pc, #108]	; (80008f0 <ads1256_HAL_SPI_Transfer+0xb4>)
 8000882:	f7ff ff3c 	bl	80006fe <LL_TIM_SetCounter>
	while (!LL_DMA_IsActiveFlag_TC3(DMA1))
 8000886:	e00b      	b.n	80008a0 <ads1256_HAL_SPI_Transfer+0x64>
	{
		if ( (LL_TIM_GetCounter(TIM3)) > (bytecount * SPI_TIMEOUT_US))
 8000888:	4819      	ldr	r0, [pc, #100]	; (80008f0 <ads1256_HAL_SPI_Transfer+0xb4>)
 800088a:	f7ff ff46 	bl	800071a <LL_TIM_GetCounter>
 800088e:	4602      	mov	r2, r0
 8000890:	79fb      	ldrb	r3, [r7, #7]
 8000892:	2164      	movs	r1, #100	; 0x64
 8000894:	fb01 f303 	mul.w	r3, r1, r3
 8000898:	429a      	cmp	r2, r3
 800089a:	d901      	bls.n	80008a0 <ads1256_HAL_SPI_Transfer+0x64>
		{
			return ADS1256_SPI_TIMEOUT;
 800089c:	2302      	movs	r3, #2
 800089e:	e01c      	b.n	80008da <ads1256_HAL_SPI_Transfer+0x9e>
	while (!LL_DMA_IsActiveFlag_TC3(DMA1))
 80008a0:	4810      	ldr	r0, [pc, #64]	; (80008e4 <ads1256_HAL_SPI_Transfer+0xa8>)
 80008a2:	f7ff fed1 	bl	8000648 <LL_DMA_IsActiveFlag_TC3>
 80008a6:	4603      	mov	r3, r0
 80008a8:	2b00      	cmp	r3, #0
 80008aa:	d0ed      	beq.n	8000888 <ads1256_HAL_SPI_Transfer+0x4c>
		}
	}

	// Set CS High
	LL_GPIO_SetOutputPin(ADC_CS_GPIO_Port, ADC_CS_Pin);
 80008ac:	f44f 5180 	mov.w	r1, #4096	; 0x1000
 80008b0:	480d      	ldr	r0, [pc, #52]	; (80008e8 <ads1256_HAL_SPI_Transfer+0xac>)
 80008b2:	f7ff ff53 	bl	800075c <LL_GPIO_SetOutputPin>

	// clear DMA flags
	LL_DMA_ClearFlag_TC3(DMA1);
 80008b6:	480b      	ldr	r0, [pc, #44]	; (80008e4 <ads1256_HAL_SPI_Transfer+0xa8>)
 80008b8:	f7ff feda 	bl	8000670 <LL_DMA_ClearFlag_TC3>
	LL_DMA_ClearFlag_TC4(DMA1);
 80008bc:	4809      	ldr	r0, [pc, #36]	; (80008e4 <ads1256_HAL_SPI_Transfer+0xa8>)
 80008be:	f7ff fee5 	bl	800068c <LL_DMA_ClearFlag_TC4>

	//Disabe SPI
	LL_SPI_Disable(SPI2);
 80008c2:	480a      	ldr	r0, [pc, #40]	; (80008ec <ads1256_HAL_SPI_Transfer+0xb0>)
 80008c4:	f7ff feff 	bl	80006c6 <LL_SPI_Disable>
	//Disable DMA channels
	LL_DMA_DisableStream(DMA1, LL_DMA_STREAM_4); //TX
 80008c8:	2104      	movs	r1, #4
 80008ca:	4806      	ldr	r0, [pc, #24]	; (80008e4 <ads1256_HAL_SPI_Transfer+0xa8>)
 80008cc:	f7ff fe24 	bl	8000518 <LL_DMA_DisableStream>
	LL_DMA_DisableStream(DMA1, LL_DMA_STREAM_3); //RX
 80008d0:	2103      	movs	r1, #3
 80008d2:	4804      	ldr	r0, [pc, #16]	; (80008e4 <ads1256_HAL_SPI_Transfer+0xa8>)
 80008d4:	f7ff fe20 	bl	8000518 <LL_DMA_DisableStream>

	return ADS1256_OK;
 80008d8:	2300      	movs	r3, #0
}
 80008da:	4618      	mov	r0, r3
 80008dc:	3708      	adds	r7, #8
 80008de:	46bd      	mov	sp, r7
 80008e0:	bd80      	pop	{r7, pc}
 80008e2:	bf00      	nop
 80008e4:	40026000 	.word	0x40026000
 80008e8:	40020400 	.word	0x40020400
 80008ec:	40003800 	.word	0x40003800
 80008f0:	40000400 	.word	0x40000400

080008f4 <ads1256_init>:


ADS1256C_StatusTypeDef ads1256_init(void)
{
 80008f4:	b580      	push	{r7, lr}
 80008f6:	b082      	sub	sp, #8
 80008f8:	af00      	add	r7, sp, #0
	ADS1256C_StatusTypeDef status;

	// set ADC Power down pin
	LL_GPIO_SetOutputPin(ADC_PDWN_GPIO_Port, ADC_PDWN_Pin);
 80008fa:	f44f 6180 	mov.w	r1, #1024	; 0x400
 80008fe:	4828      	ldr	r0, [pc, #160]	; (80009a0 <ads1256_init+0xac>)
 8000900:	f7ff ff2c 	bl	800075c <LL_GPIO_SetOutputPin>

	// wait for oscillator to settle
	delay_us(20000);
 8000904:	f644 6020 	movw	r0, #20000	; 0x4e20
 8000908:	f000 fa86 	bl	8000e18 <delay_us>
	delay_us(20000);
 800090c:	f644 6020 	movw	r0, #20000	; 0x4e20
 8000910:	f000 fa82 	bl	8000e18 <delay_us>

	//setup buffers
	ads1256_HAL_Setup_Buffers(TX_Buffer, RX_Buffer);
 8000914:	4923      	ldr	r1, [pc, #140]	; (80009a4 <ads1256_init+0xb0>)
 8000916:	4824      	ldr	r0, [pc, #144]	; (80009a8 <ads1256_init+0xb4>)
 8000918:	f7ff ff60 	bl	80007dc <ads1256_HAL_Setup_Buffers>

	//ads reset
	ads1256_HAL_reset();
 800091c:	f7ff ff4a 	bl	80007b4 <ads1256_HAL_reset>

	LL_TIM_SetCounter(TIM3, 0);
 8000920:	2100      	movs	r1, #0
 8000922:	4822      	ldr	r0, [pc, #136]	; (80009ac <ads1256_init+0xb8>)
 8000924:	f7ff feeb 	bl	80006fe <LL_TIM_SetCounter>
	while (ads1256_HAL_is_DRDY_high())
 8000928:	e009      	b.n	800093e <ads1256_init+0x4a>
	{
		if ((LL_TIM_GetCounter(TIM3)) > DRDY_CAL_TIMEOUT_US)
 800092a:	4820      	ldr	r0, [pc, #128]	; (80009ac <ads1256_init+0xb8>)
 800092c:	f7ff fef5 	bl	800071a <LL_TIM_GetCounter>
 8000930:	4603      	mov	r3, r0
 8000932:	f242 7210 	movw	r2, #10000	; 0x2710
 8000936:	4293      	cmp	r3, r2
 8000938:	d901      	bls.n	800093e <ads1256_init+0x4a>
		{
			return ADS1256_DRDY_TIMEOUT;
 800093a:	2301      	movs	r3, #1
 800093c:	e02b      	b.n	8000996 <ads1256_init+0xa2>
	while (ads1256_HAL_is_DRDY_high())
 800093e:	f7ff ff2b 	bl	8000798 <ads1256_HAL_is_DRDY_high>
 8000942:	4603      	mov	r3, r0
 8000944:	2b00      	cmp	r3, #0
 8000946:	d1f0      	bne.n	800092a <ads1256_init+0x36>
		}
	}

	// read DRATE register to verify we are communicating
	TX_Buffer[0] = CMD_RREG | REG_STATUS;
 8000948:	4b17      	ldr	r3, [pc, #92]	; (80009a8 <ads1256_init+0xb4>)
 800094a:	2210      	movs	r2, #16
 800094c:	701a      	strb	r2, [r3, #0]
	TX_Buffer[1] = 0x00;
 800094e:	4b16      	ldr	r3, [pc, #88]	; (80009a8 <ads1256_init+0xb4>)
 8000950:	2200      	movs	r2, #0
 8000952:	705a      	strb	r2, [r3, #1]

	status = ads1256_HAL_SPI_Transfer(2);
 8000954:	2002      	movs	r0, #2
 8000956:	f7ff ff71 	bl	800083c <ads1256_HAL_SPI_Transfer>
 800095a:	4603      	mov	r3, r0
 800095c:	71fb      	strb	r3, [r7, #7]
	if ( status != ADS1256_OK)
 800095e:	79fb      	ldrb	r3, [r7, #7]
 8000960:	2b00      	cmp	r3, #0
 8000962:	d001      	beq.n	8000968 <ads1256_init+0x74>
	{
		return status;
 8000964:	79fb      	ldrb	r3, [r7, #7]
 8000966:	e016      	b.n	8000996 <ads1256_init+0xa2>
	}

	delay_us(CMD_TO_DATA_US);
 8000968:	2064      	movs	r0, #100	; 0x64
 800096a:	f000 fa55 	bl	8000e18 <delay_us>
	TX_Buffer[0] = 0x00;
 800096e:	4b0e      	ldr	r3, [pc, #56]	; (80009a8 <ads1256_init+0xb4>)
 8000970:	2200      	movs	r2, #0
 8000972:	701a      	strb	r2, [r3, #0]

	status = ads1256_HAL_SPI_Transfer(1);
 8000974:	2001      	movs	r0, #1
 8000976:	f7ff ff61 	bl	800083c <ads1256_HAL_SPI_Transfer>
 800097a:	4603      	mov	r3, r0
 800097c:	71fb      	strb	r3, [r7, #7]
	if (status != ADS1256_OK)
 800097e:	79fb      	ldrb	r3, [r7, #7]
 8000980:	2b00      	cmp	r3, #0
 8000982:	d001      	beq.n	8000988 <ads1256_init+0x94>
	{
		return status;
 8000984:	79fb      	ldrb	r3, [r7, #7]
 8000986:	e006      	b.n	8000996 <ads1256_init+0xa2>
	}

	if (RX_Buffer[0] != ADS1256_30000_SPS)
 8000988:	4b06      	ldr	r3, [pc, #24]	; (80009a4 <ads1256_init+0xb0>)
 800098a:	781b      	ldrb	r3, [r3, #0]
 800098c:	2bf0      	cmp	r3, #240	; 0xf0
 800098e:	d001      	beq.n	8000994 <ads1256_init+0xa0>
	{
		return ADS1256_MISMATCH;
 8000990:	2303      	movs	r3, #3
 8000992:	e000      	b.n	8000996 <ads1256_init+0xa2>
	}

	return ADS1256_OK;
 8000994:	2300      	movs	r3, #0
}
 8000996:	4618      	mov	r0, r3
 8000998:	3708      	adds	r7, #8
 800099a:	46bd      	mov	sp, r7
 800099c:	bd80      	pop	{r7, pc}
 800099e:	bf00      	nop
 80009a0:	40020000 	.word	0x40020000
 80009a4:	20000030 	.word	0x20000030
 80009a8:	20000038 	.word	0x20000038
 80009ac:	40000400 	.word	0x40000400

080009b0 <ads1256_configure>:

ADS1256C_StatusTypeDef ads1256_configure(ADS1256_DRATE ads_rate, ADS1256_GAIN ads_gain,
										ADS1256_CHANNELS ads_pchannel, ADS1256_CHANNELS ads_nchannel,
										uint8_t buf_en)
{
 80009b0:	b590      	push	{r4, r7, lr}
 80009b2:	b085      	sub	sp, #20
 80009b4:	af00      	add	r7, sp, #0
 80009b6:	4604      	mov	r4, r0
 80009b8:	4608      	mov	r0, r1
 80009ba:	4611      	mov	r1, r2
 80009bc:	461a      	mov	r2, r3
 80009be:	4623      	mov	r3, r4
 80009c0:	71fb      	strb	r3, [r7, #7]
 80009c2:	4603      	mov	r3, r0
 80009c4:	71bb      	strb	r3, [r7, #6]
 80009c6:	460b      	mov	r3, r1
 80009c8:	717b      	strb	r3, [r7, #5]
 80009ca:	4613      	mov	r3, r2
 80009cc:	713b      	strb	r3, [r7, #4]
	ADS1256C_StatusTypeDef status;

	//setup buffers
	ads1256_HAL_Setup_Buffers(TX_Buffer, RX_Buffer);
 80009ce:	4929      	ldr	r1, [pc, #164]	; (8000a74 <ads1256_configure+0xc4>)
 80009d0:	4829      	ldr	r0, [pc, #164]	; (8000a78 <ads1256_configure+0xc8>)
 80009d2:	f7ff ff03 	bl	80007dc <ads1256_HAL_Setup_Buffers>

	//set configuration registers
	TX_Buffer[0] = CMD_WREG | REG_STATUS;
 80009d6:	4b28      	ldr	r3, [pc, #160]	; (8000a78 <ads1256_configure+0xc8>)
 80009d8:	2250      	movs	r2, #80	; 0x50
 80009da:	701a      	strb	r2, [r3, #0]
	TX_Buffer[1] = 0x03; //writing 4 registers
 80009dc:	4b26      	ldr	r3, [pc, #152]	; (8000a78 <ads1256_configure+0xc8>)
 80009de:	2203      	movs	r2, #3
 80009e0:	705a      	strb	r2, [r3, #1]
	TX_Buffer[2] = 0x00 | (buf_en<<1);  // buf_en into status reg
 80009e2:	f897 3020 	ldrb.w	r3, [r7, #32]
 80009e6:	005b      	lsls	r3, r3, #1
 80009e8:	b2da      	uxtb	r2, r3
 80009ea:	4b23      	ldr	r3, [pc, #140]	; (8000a78 <ads1256_configure+0xc8>)
 80009ec:	709a      	strb	r2, [r3, #2]
	TX_Buffer[3] = (ads_pchannel<<4) | ads_nchannel; //active channels
 80009ee:	797b      	ldrb	r3, [r7, #5]
 80009f0:	011b      	lsls	r3, r3, #4
 80009f2:	b25a      	sxtb	r2, r3
 80009f4:	f997 3004 	ldrsb.w	r3, [r7, #4]
 80009f8:	4313      	orrs	r3, r2
 80009fa:	b25b      	sxtb	r3, r3
 80009fc:	b2da      	uxtb	r2, r3
 80009fe:	4b1e      	ldr	r3, [pc, #120]	; (8000a78 <ads1256_configure+0xc8>)
 8000a00:	70da      	strb	r2, [r3, #3]
	TX_Buffer[4] = 0x20 | ads_gain;
 8000a02:	79bb      	ldrb	r3, [r7, #6]
 8000a04:	f043 0320 	orr.w	r3, r3, #32
 8000a08:	b2da      	uxtb	r2, r3
 8000a0a:	4b1b      	ldr	r3, [pc, #108]	; (8000a78 <ads1256_configure+0xc8>)
 8000a0c:	711a      	strb	r2, [r3, #4]
	TX_Buffer[5] = ads_rate;
 8000a0e:	4a1a      	ldr	r2, [pc, #104]	; (8000a78 <ads1256_configure+0xc8>)
 8000a10:	79fb      	ldrb	r3, [r7, #7]
 8000a12:	7153      	strb	r3, [r2, #5]

	status = ads1256_HAL_SPI_Transfer(6);
 8000a14:	2006      	movs	r0, #6
 8000a16:	f7ff ff11 	bl	800083c <ads1256_HAL_SPI_Transfer>
 8000a1a:	4603      	mov	r3, r0
 8000a1c:	73fb      	strb	r3, [r7, #15]
	if ( status != ADS1256_OK )
 8000a1e:	7bfb      	ldrb	r3, [r7, #15]
 8000a20:	2b00      	cmp	r3, #0
 8000a22:	d001      	beq.n	8000a28 <ads1256_configure+0x78>
	{
		return status;
 8000a24:	7bfb      	ldrb	r3, [r7, #15]
 8000a26:	e021      	b.n	8000a6c <ads1256_configure+0xbc>
	}

	//perform self calibration
	TX_Buffer[0] = CMD_SELFCAL;
 8000a28:	4b13      	ldr	r3, [pc, #76]	; (8000a78 <ads1256_configure+0xc8>)
 8000a2a:	22f0      	movs	r2, #240	; 0xf0
 8000a2c:	701a      	strb	r2, [r3, #0]
	status = ads1256_HAL_SPI_Transfer(1);
 8000a2e:	2001      	movs	r0, #1
 8000a30:	f7ff ff04 	bl	800083c <ads1256_HAL_SPI_Transfer>
 8000a34:	4603      	mov	r3, r0
 8000a36:	73fb      	strb	r3, [r7, #15]
	if ( status != ADS1256_OK )
 8000a38:	7bfb      	ldrb	r3, [r7, #15]
 8000a3a:	2b00      	cmp	r3, #0
 8000a3c:	d001      	beq.n	8000a42 <ads1256_configure+0x92>
	{
		return status;
 8000a3e:	7bfb      	ldrb	r3, [r7, #15]
 8000a40:	e014      	b.n	8000a6c <ads1256_configure+0xbc>
	}

	//wait for DRDY to go low after calibration
	LL_TIM_SetCounter(TIM3, 0);
 8000a42:	2100      	movs	r1, #0
 8000a44:	480d      	ldr	r0, [pc, #52]	; (8000a7c <ads1256_configure+0xcc>)
 8000a46:	f7ff fe5a 	bl	80006fe <LL_TIM_SetCounter>
	while (ads1256_HAL_is_DRDY_high())
 8000a4a:	e009      	b.n	8000a60 <ads1256_configure+0xb0>
	{
		if ((LL_TIM_GetCounter(TIM3)) > DRDY_CAL_TIMEOUT_US)
 8000a4c:	480b      	ldr	r0, [pc, #44]	; (8000a7c <ads1256_configure+0xcc>)
 8000a4e:	f7ff fe64 	bl	800071a <LL_TIM_GetCounter>
 8000a52:	4603      	mov	r3, r0
 8000a54:	f242 7210 	movw	r2, #10000	; 0x2710
 8000a58:	4293      	cmp	r3, r2
 8000a5a:	d901      	bls.n	8000a60 <ads1256_configure+0xb0>
		{
			return ADS1256_DRDY_TIMEOUT;
 8000a5c:	2301      	movs	r3, #1
 8000a5e:	e005      	b.n	8000a6c <ads1256_configure+0xbc>
	while (ads1256_HAL_is_DRDY_high())
 8000a60:	f7ff fe9a 	bl	8000798 <ads1256_HAL_is_DRDY_high>
 8000a64:	4603      	mov	r3, r0
 8000a66:	2b00      	cmp	r3, #0
 8000a68:	d1f0      	bne.n	8000a4c <ads1256_configure+0x9c>
		}
	}
	return ADS1256_OK;
 8000a6a:	2300      	movs	r3, #0
}
 8000a6c:	4618      	mov	r0, r3
 8000a6e:	3714      	adds	r7, #20
 8000a70:	46bd      	mov	sp, r7
 8000a72:	bd90      	pop	{r4, r7, pc}
 8000a74:	20000030 	.word	0x20000030
 8000a78:	20000038 	.word	0x20000038
 8000a7c:	40000400 	.word	0x40000400

08000a80 <ads1256_get_samples>:

ADS1256C_StatusTypeDef ads1256_get_samples(float32_t * sample_buffer, uint16_t sample_count, float32_t conversion_factor)
{
 8000a80:	b580      	push	{r7, lr}
 8000a82:	b086      	sub	sp, #24
 8000a84:	af00      	add	r7, sp, #0
 8000a86:	60f8      	str	r0, [r7, #12]
 8000a88:	460b      	mov	r3, r1
 8000a8a:	ed87 0a01 	vstr	s0, [r7, #4]
 8000a8e:	817b      	strh	r3, [r7, #10]
	ADS1256C_StatusTypeDef status;
	int32_t NewDataInt;

	//setup buffers
	ads1256_HAL_Setup_Buffers(TX_Buffer, RX_Buffer);
 8000a90:	4936      	ldr	r1, [pc, #216]	; (8000b6c <ads1256_get_samples+0xec>)
 8000a92:	4837      	ldr	r0, [pc, #220]	; (8000b70 <ads1256_get_samples+0xf0>)
 8000a94:	f7ff fea2 	bl	80007dc <ads1256_HAL_Setup_Buffers>
	TX_Buffer[0] = 0;
 8000a98:	4b35      	ldr	r3, [pc, #212]	; (8000b70 <ads1256_get_samples+0xf0>)
 8000a9a:	2200      	movs	r2, #0
 8000a9c:	701a      	strb	r2, [r3, #0]
	TX_Buffer[1] = 0;
 8000a9e:	4b34      	ldr	r3, [pc, #208]	; (8000b70 <ads1256_get_samples+0xf0>)
 8000aa0:	2200      	movs	r2, #0
 8000aa2:	705a      	strb	r2, [r3, #1]
	TX_Buffer[2] = 0;
 8000aa4:	4b32      	ldr	r3, [pc, #200]	; (8000b70 <ads1256_get_samples+0xf0>)
 8000aa6:	2200      	movs	r2, #0
 8000aa8:	709a      	strb	r2, [r3, #2]

	while (sample_count > 0)
 8000aaa:	e057      	b.n	8000b5c <ads1256_get_samples+0xdc>
	{
		TX_Buffer[0] = CMD_RDATA;
 8000aac:	4b30      	ldr	r3, [pc, #192]	; (8000b70 <ads1256_get_samples+0xf0>)
 8000aae:	2201      	movs	r2, #1
 8000ab0:	701a      	strb	r2, [r3, #0]
  \details Disables IRQ interrupts by setting the I-bit in the CPSR.
           Can only be executed in Privileged modes.
 */
__STATIC_FORCEINLINE void __disable_irq(void)
{
  __ASM volatile ("cpsid i" : : : "memory");
 8000ab2:	b672      	cpsid	i
}
 8000ab4:	bf00      	nop
		//wait for DRDY to go low
		__disable_irq();
		LL_TIM_SetCounter(TIM3, 0);
 8000ab6:	2100      	movs	r1, #0
 8000ab8:	482e      	ldr	r0, [pc, #184]	; (8000b74 <ads1256_get_samples+0xf4>)
 8000aba:	f7ff fe20 	bl	80006fe <LL_TIM_SetCounter>
		while ( ads1256_HAL_is_DRDY_high())
 8000abe:	e007      	b.n	8000ad0 <ads1256_get_samples+0x50>
		{
			if ((LL_TIM_GetCounter(TIM3)) > DRDY_SHORT_TIMEOUT_US)
 8000ac0:	482c      	ldr	r0, [pc, #176]	; (8000b74 <ads1256_get_samples+0xf4>)
 8000ac2:	f7ff fe2a 	bl	800071a <LL_TIM_GetCounter>
 8000ac6:	4603      	mov	r3, r0
 8000ac8:	2b64      	cmp	r3, #100	; 0x64
 8000aca:	d901      	bls.n	8000ad0 <ads1256_get_samples+0x50>
			{
				return ADS1256_DRDY_TIMEOUT;
 8000acc:	2301      	movs	r3, #1
 8000ace:	e049      	b.n	8000b64 <ads1256_get_samples+0xe4>
		while ( ads1256_HAL_is_DRDY_high())
 8000ad0:	f7ff fe62 	bl	8000798 <ads1256_HAL_is_DRDY_high>
 8000ad4:	4603      	mov	r3, r0
 8000ad6:	2b00      	cmp	r3, #0
 8000ad8:	d1f2      	bne.n	8000ac0 <ads1256_get_samples+0x40>
			}
		}

		status = ads1256_HAL_SPI_Transfer(1);
 8000ada:	2001      	movs	r0, #1
 8000adc:	f7ff feae 	bl	800083c <ads1256_HAL_SPI_Transfer>
 8000ae0:	4603      	mov	r3, r0
 8000ae2:	74fb      	strb	r3, [r7, #19]
		if ( status != ADS1256_OK )
 8000ae4:	7cfb      	ldrb	r3, [r7, #19]
 8000ae6:	2b00      	cmp	r3, #0
 8000ae8:	d003      	beq.n	8000af2 <ads1256_get_samples+0x72>
  __ASM volatile ("cpsie i" : : : "memory");
 8000aea:	b662      	cpsie	i
}
 8000aec:	bf00      	nop
		{
			__enable_irq();
			return status;
 8000aee:	7cfb      	ldrb	r3, [r7, #19]
 8000af0:	e038      	b.n	8000b64 <ads1256_get_samples+0xe4>
		}

		delay_us(CMD_TO_DATA_US);
 8000af2:	2064      	movs	r0, #100	; 0x64
 8000af4:	f000 f990 	bl	8000e18 <delay_us>
		TX_Buffer[0] = 0x00;
 8000af8:	4b1d      	ldr	r3, [pc, #116]	; (8000b70 <ads1256_get_samples+0xf0>)
 8000afa:	2200      	movs	r2, #0
 8000afc:	701a      	strb	r2, [r3, #0]

		status = ads1256_HAL_SPI_Transfer(3);
 8000afe:	2003      	movs	r0, #3
 8000b00:	f7ff fe9c 	bl	800083c <ads1256_HAL_SPI_Transfer>
 8000b04:	4603      	mov	r3, r0
 8000b06:	74fb      	strb	r3, [r7, #19]
		if (status != ADS1256_OK)
 8000b08:	7cfb      	ldrb	r3, [r7, #19]
 8000b0a:	2b00      	cmp	r3, #0
 8000b0c:	d003      	beq.n	8000b16 <ads1256_get_samples+0x96>
  __ASM volatile ("cpsie i" : : : "memory");
 8000b0e:	b662      	cpsie	i
}
 8000b10:	bf00      	nop
		{
			__enable_irq();
			return status;
 8000b12:	7cfb      	ldrb	r3, [r7, #19]
 8000b14:	e026      	b.n	8000b64 <ads1256_get_samples+0xe4>
  __ASM volatile ("cpsie i" : : : "memory");
 8000b16:	b662      	cpsie	i
}
 8000b18:	bf00      	nop
		}
		__enable_irq();

		//we have data :)
		NewDataInt = (RX_Buffer[0]<<16) + (RX_Buffer[1]<<8) + RX_Buffer[2];
 8000b1a:	4b14      	ldr	r3, [pc, #80]	; (8000b6c <ads1256_get_samples+0xec>)
 8000b1c:	781b      	ldrb	r3, [r3, #0]
 8000b1e:	041a      	lsls	r2, r3, #16
 8000b20:	4b12      	ldr	r3, [pc, #72]	; (8000b6c <ads1256_get_samples+0xec>)
 8000b22:	785b      	ldrb	r3, [r3, #1]
 8000b24:	021b      	lsls	r3, r3, #8
 8000b26:	4413      	add	r3, r2
 8000b28:	4a10      	ldr	r2, [pc, #64]	; (8000b6c <ads1256_get_samples+0xec>)
 8000b2a:	7892      	ldrb	r2, [r2, #2]
 8000b2c:	4413      	add	r3, r2
 8000b2e:	617b      	str	r3, [r7, #20]
		if (NewDataInt > ((1 << 23) - 1))
 8000b30:	697b      	ldr	r3, [r7, #20]
 8000b32:	f5b3 0f00 	cmp.w	r3, #8388608	; 0x800000
 8000b36:	db03      	blt.n	8000b40 <ads1256_get_samples+0xc0>
		{
			NewDataInt -= ( 1 << 24 );
 8000b38:	697b      	ldr	r3, [r7, #20]
 8000b3a:	f103 437f 	add.w	r3, r3, #4278190080	; 0xff000000
 8000b3e:	617b      	str	r3, [r7, #20]
		}

		*sample_buffer = NewDataInt;  // smoothing operation here? *conversion_factor;
 8000b40:	697b      	ldr	r3, [r7, #20]
 8000b42:	ee07 3a90 	vmov	s15, r3
 8000b46:	eef8 7ae7 	vcvt.f32.s32	s15, s15
 8000b4a:	68fb      	ldr	r3, [r7, #12]
 8000b4c:	edc3 7a00 	vstr	s15, [r3]
		sample_buffer++;
 8000b50:	68fb      	ldr	r3, [r7, #12]
 8000b52:	3304      	adds	r3, #4
 8000b54:	60fb      	str	r3, [r7, #12]
		sample_count--;
 8000b56:	897b      	ldrh	r3, [r7, #10]
 8000b58:	3b01      	subs	r3, #1
 8000b5a:	817b      	strh	r3, [r7, #10]
	while (sample_count > 0)
 8000b5c:	897b      	ldrh	r3, [r7, #10]
 8000b5e:	2b00      	cmp	r3, #0
 8000b60:	d1a4      	bne.n	8000aac <ads1256_get_samples+0x2c>
	}
	return ADS1256_OK;
 8000b62:	2300      	movs	r3, #0
}
 8000b64:	4618      	mov	r0, r3
 8000b66:	3718      	adds	r7, #24
 8000b68:	46bd      	mov	sp, r7
 8000b6a:	bd80      	pop	{r7, pc}
 8000b6c:	20000030 	.word	0x20000030
 8000b70:	20000038 	.word	0x20000038
 8000b74:	40000400 	.word	0x40000400

08000b78 <ads1256_send_command>:

ADS1256C_StatusTypeDef ads1256_send_command(ADS1256_COMMANDS command)
{
 8000b78:	b580      	push	{r7, lr}
 8000b7a:	b084      	sub	sp, #16
 8000b7c:	af00      	add	r7, sp, #0
 8000b7e:	4603      	mov	r3, r0
 8000b80:	71fb      	strb	r3, [r7, #7]

	ADS1256C_StatusTypeDef status;

	//setup buffers
	ads1256_HAL_Setup_Buffers(TX_Buffer, RX_Buffer);
 8000b82:	4918      	ldr	r1, [pc, #96]	; (8000be4 <ads1256_send_command+0x6c>)
 8000b84:	4818      	ldr	r0, [pc, #96]	; (8000be8 <ads1256_send_command+0x70>)
 8000b86:	f7ff fe29 	bl	80007dc <ads1256_HAL_Setup_Buffers>

	TX_Buffer[0] = command;
 8000b8a:	4a17      	ldr	r2, [pc, #92]	; (8000be8 <ads1256_send_command+0x70>)
 8000b8c:	79fb      	ldrb	r3, [r7, #7]
 8000b8e:	7013      	strb	r3, [r2, #0]
  __ASM volatile ("cpsid i" : : : "memory");
 8000b90:	b672      	cpsid	i
}
 8000b92:	bf00      	nop

	//wait for DRDY to go low
	__disable_irq();
	LL_TIM_SetCounter(TIM3, 0);
 8000b94:	2100      	movs	r1, #0
 8000b96:	4815      	ldr	r0, [pc, #84]	; (8000bec <ads1256_send_command+0x74>)
 8000b98:	f7ff fdb1 	bl	80006fe <LL_TIM_SetCounter>

	while (ads1256_HAL_is_DRDY_high())
 8000b9c:	e009      	b.n	8000bb2 <ads1256_send_command+0x3a>
	{
		if ( (LL_TIM_GetCounter(TIM3)) > DRDY_SHORT_TIMEOUT_US)
 8000b9e:	4813      	ldr	r0, [pc, #76]	; (8000bec <ads1256_send_command+0x74>)
 8000ba0:	f7ff fdbb 	bl	800071a <LL_TIM_GetCounter>
 8000ba4:	4603      	mov	r3, r0
 8000ba6:	2b64      	cmp	r3, #100	; 0x64
 8000ba8:	d903      	bls.n	8000bb2 <ads1256_send_command+0x3a>
  __ASM volatile ("cpsie i" : : : "memory");
 8000baa:	b662      	cpsie	i
}
 8000bac:	bf00      	nop
		{
			__enable_irq();
			return ADS1256_DRDY_TIMEOUT;
 8000bae:	2301      	movs	r3, #1
 8000bb0:	e013      	b.n	8000bda <ads1256_send_command+0x62>
	while (ads1256_HAL_is_DRDY_high())
 8000bb2:	f7ff fdf1 	bl	8000798 <ads1256_HAL_is_DRDY_high>
 8000bb6:	4603      	mov	r3, r0
 8000bb8:	2b00      	cmp	r3, #0
 8000bba:	d1f0      	bne.n	8000b9e <ads1256_send_command+0x26>
		}
	}

	status = ads1256_HAL_SPI_Transfer(1);
 8000bbc:	2001      	movs	r0, #1
 8000bbe:	f7ff fe3d 	bl	800083c <ads1256_HAL_SPI_Transfer>
 8000bc2:	4603      	mov	r3, r0
 8000bc4:	73fb      	strb	r3, [r7, #15]
	if ( status != ADS1256_OK )
 8000bc6:	7bfb      	ldrb	r3, [r7, #15]
 8000bc8:	2b00      	cmp	r3, #0
 8000bca:	d003      	beq.n	8000bd4 <ads1256_send_command+0x5c>
  __ASM volatile ("cpsie i" : : : "memory");
 8000bcc:	b662      	cpsie	i
}
 8000bce:	bf00      	nop
	{
		__enable_irq();
		return status;
 8000bd0:	7bfb      	ldrb	r3, [r7, #15]
 8000bd2:	e002      	b.n	8000bda <ads1256_send_command+0x62>
  __ASM volatile ("cpsie i" : : : "memory");
 8000bd4:	b662      	cpsie	i
}
 8000bd6:	bf00      	nop
	}
	__enable_irq();

	return ADS1256_OK;
 8000bd8:	2300      	movs	r3, #0
}
 8000bda:	4618      	mov	r0, r3
 8000bdc:	3710      	adds	r7, #16
 8000bde:	46bd      	mov	sp, r7
 8000be0:	bd80      	pop	{r7, pc}
 8000be2:	bf00      	nop
 8000be4:	20000030 	.word	0x20000030
 8000be8:	20000038 	.word	0x20000038
 8000bec:	40000400 	.word	0x40000400

08000bf0 <__NVIC_EnableIRQ>:
  \details Enables a device specific interrupt in the NVIC interrupt controller.
  \param [in]      IRQn  Device specific interrupt number.
  \note    IRQn must not be negative.
 */
__STATIC_INLINE void __NVIC_EnableIRQ(IRQn_Type IRQn)
{
 8000bf0:	b480      	push	{r7}
 8000bf2:	b083      	sub	sp, #12
 8000bf4:	af00      	add	r7, sp, #0
 8000bf6:	4603      	mov	r3, r0
 8000bf8:	71fb      	strb	r3, [r7, #7]
  if ((int32_t)(IRQn) >= 0)
 8000bfa:	f997 3007 	ldrsb.w	r3, [r7, #7]
 8000bfe:	2b00      	cmp	r3, #0
 8000c00:	db0b      	blt.n	8000c1a <__NVIC_EnableIRQ+0x2a>
  {
    NVIC->ISER[(((uint32_t)IRQn) >> 5UL)] = (uint32_t)(1UL << (((uint32_t)IRQn) & 0x1FUL));
 8000c02:	79fb      	ldrb	r3, [r7, #7]
 8000c04:	f003 021f 	and.w	r2, r3, #31
 8000c08:	4907      	ldr	r1, [pc, #28]	; (8000c28 <__NVIC_EnableIRQ+0x38>)
 8000c0a:	f997 3007 	ldrsb.w	r3, [r7, #7]
 8000c0e:	095b      	lsrs	r3, r3, #5
 8000c10:	2001      	movs	r0, #1
 8000c12:	fa00 f202 	lsl.w	r2, r0, r2
 8000c16:	f841 2023 	str.w	r2, [r1, r3, lsl #2]
  }
}
 8000c1a:	bf00      	nop
 8000c1c:	370c      	adds	r7, #12
 8000c1e:	46bd      	mov	sp, r7
 8000c20:	f85d 7b04 	ldr.w	r7, [sp], #4
 8000c24:	4770      	bx	lr
 8000c26:	bf00      	nop
 8000c28:	e000e100 	.word	0xe000e100

08000c2c <__NVIC_DisableIRQ>:
  \details Disables a device specific interrupt in the NVIC interrupt controller.
  \param [in]      IRQn  Device specific interrupt number.
  \note    IRQn must not be negative.
 */
__STATIC_INLINE void __NVIC_DisableIRQ(IRQn_Type IRQn)
{
 8000c2c:	b480      	push	{r7}
 8000c2e:	b083      	sub	sp, #12
 8000c30:	af00      	add	r7, sp, #0
 8000c32:	4603      	mov	r3, r0
 8000c34:	71fb      	strb	r3, [r7, #7]
  if ((int32_t)(IRQn) >= 0)
 8000c36:	f997 3007 	ldrsb.w	r3, [r7, #7]
 8000c3a:	2b00      	cmp	r3, #0
 8000c3c:	db12      	blt.n	8000c64 <__NVIC_DisableIRQ+0x38>
  {
    NVIC->ICER[(((uint32_t)IRQn) >> 5UL)] = (uint32_t)(1UL << (((uint32_t)IRQn) & 0x1FUL));
 8000c3e:	79fb      	ldrb	r3, [r7, #7]
 8000c40:	f003 021f 	and.w	r2, r3, #31
 8000c44:	490a      	ldr	r1, [pc, #40]	; (8000c70 <__NVIC_DisableIRQ+0x44>)
 8000c46:	f997 3007 	ldrsb.w	r3, [r7, #7]
 8000c4a:	095b      	lsrs	r3, r3, #5
 8000c4c:	2001      	movs	r0, #1
 8000c4e:	fa00 f202 	lsl.w	r2, r0, r2
 8000c52:	3320      	adds	r3, #32
 8000c54:	f841 2023 	str.w	r2, [r1, r3, lsl #2]
  \details Acts as a special kind of Data Memory Barrier.
           It completes when all explicit memory accesses before this instruction complete.
 */
__STATIC_FORCEINLINE void __DSB(void)
{
  __ASM volatile ("dsb 0xF":::"memory");
 8000c58:	f3bf 8f4f 	dsb	sy
}
 8000c5c:	bf00      	nop
  __ASM volatile ("isb 0xF":::"memory");
 8000c5e:	f3bf 8f6f 	isb	sy
}
 8000c62:	bf00      	nop
    __DSB();
    __ISB();
  }
}
 8000c64:	bf00      	nop
 8000c66:	370c      	adds	r7, #12
 8000c68:	46bd      	mov	sp, r7
 8000c6a:	f85d 7b04 	ldr.w	r7, [sp], #4
 8000c6e:	4770      	bx	lr
 8000c70:	e000e100 	.word	0xe000e100

08000c74 <__NVIC_ClearPendingIRQ>:
  \details Clears the pending bit of a device specific interrupt in the NVIC pending register.
  \param [in]      IRQn  Device specific interrupt number.
  \note    IRQn must not be negative.
 */
__STATIC_INLINE void __NVIC_ClearPendingIRQ(IRQn_Type IRQn)
{
 8000c74:	b480      	push	{r7}
 8000c76:	b083      	sub	sp, #12
 8000c78:	af00      	add	r7, sp, #0
 8000c7a:	4603      	mov	r3, r0
 8000c7c:	71fb      	strb	r3, [r7, #7]
  if ((int32_t)(IRQn) >= 0)
 8000c7e:	f997 3007 	ldrsb.w	r3, [r7, #7]
 8000c82:	2b00      	cmp	r3, #0
 8000c84:	db0c      	blt.n	8000ca0 <__NVIC_ClearPendingIRQ+0x2c>
  {
    NVIC->ICPR[(((uint32_t)IRQn) >> 5UL)] = (uint32_t)(1UL << (((uint32_t)IRQn) & 0x1FUL));
 8000c86:	79fb      	ldrb	r3, [r7, #7]
 8000c88:	f003 021f 	and.w	r2, r3, #31
 8000c8c:	4907      	ldr	r1, [pc, #28]	; (8000cac <__NVIC_ClearPendingIRQ+0x38>)
 8000c8e:	f997 3007 	ldrsb.w	r3, [r7, #7]
 8000c92:	095b      	lsrs	r3, r3, #5
 8000c94:	2001      	movs	r0, #1
 8000c96:	fa00 f202 	lsl.w	r2, r0, r2
 8000c9a:	3360      	adds	r3, #96	; 0x60
 8000c9c:	f841 2023 	str.w	r2, [r1, r3, lsl #2]
  }
}
 8000ca0:	bf00      	nop
 8000ca2:	370c      	adds	r7, #12
 8000ca4:	46bd      	mov	sp, r7
 8000ca6:	f85d 7b04 	ldr.w	r7, [sp], #4
 8000caa:	4770      	bx	lr
 8000cac:	e000e100 	.word	0xe000e100

08000cb0 <LL_DMA_DisableStream>:
{
 8000cb0:	b480      	push	{r7}
 8000cb2:	b083      	sub	sp, #12
 8000cb4:	af00      	add	r7, sp, #0
 8000cb6:	6078      	str	r0, [r7, #4]
 8000cb8:	6039      	str	r1, [r7, #0]
  CLEAR_BIT(((DMA_Stream_TypeDef *)((uint32_t)((uint32_t)DMAx + STREAM_OFFSET_TAB[Stream])))->CR, DMA_SxCR_EN);
 8000cba:	4a0c      	ldr	r2, [pc, #48]	; (8000cec <LL_DMA_DisableStream+0x3c>)
 8000cbc:	683b      	ldr	r3, [r7, #0]
 8000cbe:	4413      	add	r3, r2
 8000cc0:	781b      	ldrb	r3, [r3, #0]
 8000cc2:	461a      	mov	r2, r3
 8000cc4:	687b      	ldr	r3, [r7, #4]
 8000cc6:	4413      	add	r3, r2
 8000cc8:	681b      	ldr	r3, [r3, #0]
 8000cca:	4908      	ldr	r1, [pc, #32]	; (8000cec <LL_DMA_DisableStream+0x3c>)
 8000ccc:	683a      	ldr	r2, [r7, #0]
 8000cce:	440a      	add	r2, r1
 8000cd0:	7812      	ldrb	r2, [r2, #0]
 8000cd2:	4611      	mov	r1, r2
 8000cd4:	687a      	ldr	r2, [r7, #4]
 8000cd6:	440a      	add	r2, r1
 8000cd8:	f023 0301 	bic.w	r3, r3, #1
 8000cdc:	6013      	str	r3, [r2, #0]
}
 8000cde:	bf00      	nop
 8000ce0:	370c      	adds	r7, #12
 8000ce2:	46bd      	mov	sp, r7
 8000ce4:	f85d 7b04 	ldr.w	r7, [sp], #4
 8000ce8:	4770      	bx	lr
 8000cea:	bf00      	nop
 8000cec:	08004278 	.word	0x08004278

08000cf0 <LL_DMA_ClearFlag_TC3>:
{
 8000cf0:	b480      	push	{r7}
 8000cf2:	b083      	sub	sp, #12
 8000cf4:	af00      	add	r7, sp, #0
 8000cf6:	6078      	str	r0, [r7, #4]
  WRITE_REG(DMAx->LIFCR , DMA_LIFCR_CTCIF3);
 8000cf8:	687b      	ldr	r3, [r7, #4]
 8000cfa:	f04f 6200 	mov.w	r2, #134217728	; 0x8000000
 8000cfe:	609a      	str	r2, [r3, #8]
}
 8000d00:	bf00      	nop
 8000d02:	370c      	adds	r7, #12
 8000d04:	46bd      	mov	sp, r7
 8000d06:	f85d 7b04 	ldr.w	r7, [sp], #4
 8000d0a:	4770      	bx	lr

08000d0c <LL_DMA_ClearFlag_TC4>:
{
 8000d0c:	b480      	push	{r7}
 8000d0e:	b083      	sub	sp, #12
 8000d10:	af00      	add	r7, sp, #0
 8000d12:	6078      	str	r0, [r7, #4]
  WRITE_REG(DMAx->HIFCR , DMA_HIFCR_CTCIF4);
 8000d14:	687b      	ldr	r3, [r7, #4]
 8000d16:	2220      	movs	r2, #32
 8000d18:	60da      	str	r2, [r3, #12]
}
 8000d1a:	bf00      	nop
 8000d1c:	370c      	adds	r7, #12
 8000d1e:	46bd      	mov	sp, r7
 8000d20:	f85d 7b04 	ldr.w	r7, [sp], #4
 8000d24:	4770      	bx	lr

08000d26 <LL_DMA_ClearFlag_TE3>:
  * @rmtoll LIFCR  CTEIF3    LL_DMA_ClearFlag_TE3
  * @param  DMAx DMAx Instance
  * @retval None
  */
__STATIC_INLINE void LL_DMA_ClearFlag_TE3(DMA_TypeDef *DMAx)
{
 8000d26:	b480      	push	{r7}
 8000d28:	b083      	sub	sp, #12
 8000d2a:	af00      	add	r7, sp, #0
 8000d2c:	6078      	str	r0, [r7, #4]
  WRITE_REG(DMAx->LIFCR , DMA_LIFCR_CTEIF3);
 8000d2e:	687b      	ldr	r3, [r7, #4]
 8000d30:	f04f 7200 	mov.w	r2, #33554432	; 0x2000000
 8000d34:	609a      	str	r2, [r3, #8]
}
 8000d36:	bf00      	nop
 8000d38:	370c      	adds	r7, #12
 8000d3a:	46bd      	mov	sp, r7
 8000d3c:	f85d 7b04 	ldr.w	r7, [sp], #4
 8000d40:	4770      	bx	lr

08000d42 <LL_DMA_ClearFlag_TE4>:
  * @rmtoll HIFCR  CTEIF4    LL_DMA_ClearFlag_TE4
  * @param  DMAx DMAx Instance
  * @retval None
  */
__STATIC_INLINE void LL_DMA_ClearFlag_TE4(DMA_TypeDef *DMAx)
{
 8000d42:	b480      	push	{r7}
 8000d44:	b083      	sub	sp, #12
 8000d46:	af00      	add	r7, sp, #0
 8000d48:	6078      	str	r0, [r7, #4]
  WRITE_REG(DMAx->HIFCR , DMA_HIFCR_CTEIF4);
 8000d4a:	687b      	ldr	r3, [r7, #4]
 8000d4c:	2208      	movs	r2, #8
 8000d4e:	60da      	str	r2, [r3, #12]
}
 8000d50:	bf00      	nop
 8000d52:	370c      	adds	r7, #12
 8000d54:	46bd      	mov	sp, r7
 8000d56:	f85d 7b04 	ldr.w	r7, [sp], #4
 8000d5a:	4770      	bx	lr

08000d5c <LL_SPI_Disable>:
{
 8000d5c:	b480      	push	{r7}
 8000d5e:	b083      	sub	sp, #12
 8000d60:	af00      	add	r7, sp, #0
 8000d62:	6078      	str	r0, [r7, #4]
  CLEAR_BIT(SPIx->CR1, SPI_CR1_SPE);
 8000d64:	687b      	ldr	r3, [r7, #4]
 8000d66:	681b      	ldr	r3, [r3, #0]
 8000d68:	f023 0240 	bic.w	r2, r3, #64	; 0x40
 8000d6c:	687b      	ldr	r3, [r7, #4]
 8000d6e:	601a      	str	r2, [r3, #0]
}
 8000d70:	bf00      	nop
 8000d72:	370c      	adds	r7, #12
 8000d74:	46bd      	mov	sp, r7
 8000d76:	f85d 7b04 	ldr.w	r7, [sp], #4
 8000d7a:	4770      	bx	lr

08000d7c <LL_TIM_SetCounter>:
{
 8000d7c:	b480      	push	{r7}
 8000d7e:	b083      	sub	sp, #12
 8000d80:	af00      	add	r7, sp, #0
 8000d82:	6078      	str	r0, [r7, #4]
 8000d84:	6039      	str	r1, [r7, #0]
  WRITE_REG(TIMx->CNT, Counter);
 8000d86:	687b      	ldr	r3, [r7, #4]
 8000d88:	683a      	ldr	r2, [r7, #0]
 8000d8a:	625a      	str	r2, [r3, #36]	; 0x24
}
 8000d8c:	bf00      	nop
 8000d8e:	370c      	adds	r7, #12
 8000d90:	46bd      	mov	sp, r7
 8000d92:	f85d 7b04 	ldr.w	r7, [sp], #4
 8000d96:	4770      	bx	lr

08000d98 <LL_TIM_GetCounter>:
{
 8000d98:	b480      	push	{r7}
 8000d9a:	b083      	sub	sp, #12
 8000d9c:	af00      	add	r7, sp, #0
 8000d9e:	6078      	str	r0, [r7, #4]
  return (uint32_t)(READ_REG(TIMx->CNT));
 8000da0:	687b      	ldr	r3, [r7, #4]
 8000da2:	6a5b      	ldr	r3, [r3, #36]	; 0x24
}
 8000da4:	4618      	mov	r0, r3
 8000da6:	370c      	adds	r7, #12
 8000da8:	46bd      	mov	sp, r7
 8000daa:	f85d 7b04 	ldr.w	r7, [sp], #4
 8000dae:	4770      	bx	lr

08000db0 <LL_GPIO_SetOutputPin>:
{
 8000db0:	b480      	push	{r7}
 8000db2:	b083      	sub	sp, #12
 8000db4:	af00      	add	r7, sp, #0
 8000db6:	6078      	str	r0, [r7, #4]
 8000db8:	6039      	str	r1, [r7, #0]
  WRITE_REG(GPIOx->BSRR, PinMask);
 8000dba:	687b      	ldr	r3, [r7, #4]
 8000dbc:	683a      	ldr	r2, [r7, #0]
 8000dbe:	619a      	str	r2, [r3, #24]
}
 8000dc0:	bf00      	nop
 8000dc2:	370c      	adds	r7, #12
 8000dc4:	46bd      	mov	sp, r7
 8000dc6:	f85d 7b04 	ldr.w	r7, [sp], #4
 8000dca:	4770      	bx	lr

08000dcc <LL_EXTI_IsActiveFlag_0_31>:
  * @note   (*): Available in some devices
  * @note   Please check each device line mapping for EXTI Line availability
  * @retval State of bit (1 or 0).
  */
__STATIC_INLINE uint32_t LL_EXTI_IsActiveFlag_0_31(uint32_t ExtiLine)
{
 8000dcc:	b480      	push	{r7}
 8000dce:	b083      	sub	sp, #12
 8000dd0:	af00      	add	r7, sp, #0
 8000dd2:	6078      	str	r0, [r7, #4]
  return (READ_BIT(EXTI->PR, ExtiLine) == (ExtiLine));
 8000dd4:	4b07      	ldr	r3, [pc, #28]	; (8000df4 <LL_EXTI_IsActiveFlag_0_31+0x28>)
 8000dd6:	695a      	ldr	r2, [r3, #20]
 8000dd8:	687b      	ldr	r3, [r7, #4]
 8000dda:	4013      	ands	r3, r2
 8000ddc:	687a      	ldr	r2, [r7, #4]
 8000dde:	429a      	cmp	r2, r3
 8000de0:	bf0c      	ite	eq
 8000de2:	2301      	moveq	r3, #1
 8000de4:	2300      	movne	r3, #0
 8000de6:	b2db      	uxtb	r3, r3
}
 8000de8:	4618      	mov	r0, r3
 8000dea:	370c      	adds	r7, #12
 8000dec:	46bd      	mov	sp, r7
 8000dee:	f85d 7b04 	ldr.w	r7, [sp], #4
 8000df2:	4770      	bx	lr
 8000df4:	40013c00 	.word	0x40013c00

08000df8 <LL_EXTI_ClearFlag_0_31>:
  * @note   (*): Available in some devices
  * @note   Please check each device line mapping for EXTI Line availability
  * @retval None
  */
__STATIC_INLINE void LL_EXTI_ClearFlag_0_31(uint32_t ExtiLine)
{
 8000df8:	b480      	push	{r7}
 8000dfa:	b083      	sub	sp, #12
 8000dfc:	af00      	add	r7, sp, #0
 8000dfe:	6078      	str	r0, [r7, #4]
  WRITE_REG(EXTI->PR, ExtiLine);
 8000e00:	4a04      	ldr	r2, [pc, #16]	; (8000e14 <LL_EXTI_ClearFlag_0_31+0x1c>)
 8000e02:	687b      	ldr	r3, [r7, #4]
 8000e04:	6153      	str	r3, [r2, #20]
}
 8000e06:	bf00      	nop
 8000e08:	370c      	adds	r7, #12
 8000e0a:	46bd      	mov	sp, r7
 8000e0c:	f85d 7b04 	ldr.w	r7, [sp], #4
 8000e10:	4770      	bx	lr
 8000e12:	bf00      	nop
 8000e14:	40013c00 	.word	0x40013c00

08000e18 <delay_us>:

char __attribute__ ((aligned(4))) TxBuffer[512];

// Utility
void delay_us (uint16_t us)
{
 8000e18:	b580      	push	{r7, lr}
 8000e1a:	b082      	sub	sp, #8
 8000e1c:	af00      	add	r7, sp, #0
 8000e1e:	4603      	mov	r3, r0
 8000e20:	80fb      	strh	r3, [r7, #6]
	LL_TIM_SetCounter(TIM3, 0);  // set the counter value a 0
 8000e22:	2100      	movs	r1, #0
 8000e24:	4807      	ldr	r0, [pc, #28]	; (8000e44 <delay_us+0x2c>)
 8000e26:	f7ff ffa9 	bl	8000d7c <LL_TIM_SetCounter>
	while ( LL_TIM_GetCounter(TIM3) < us);  // wait for the counter to reach the us input in the parameter
 8000e2a:	bf00      	nop
 8000e2c:	4805      	ldr	r0, [pc, #20]	; (8000e44 <delay_us+0x2c>)
 8000e2e:	f7ff ffb3 	bl	8000d98 <LL_TIM_GetCounter>
 8000e32:	4602      	mov	r2, r0
 8000e34:	88fb      	ldrh	r3, [r7, #6]
 8000e36:	429a      	cmp	r2, r3
 8000e38:	d3f8      	bcc.n	8000e2c <delay_us+0x14>
}
 8000e3a:	bf00      	nop
 8000e3c:	bf00      	nop
 8000e3e:	3708      	adds	r7, #8
 8000e40:	46bd      	mov	sp, r7
 8000e42:	bd80      	pop	{r7, pc}
 8000e44:	40000400 	.word	0x40000400

08000e48 <lc_measure_load>:

	return LC_OK;
}

LC_StatusTypeDef lc_measure_load(float32_t *Load)
{
 8000e48:	b580      	push	{r7, lr}
 8000e4a:	b0c6      	sub	sp, #280	; 0x118
 8000e4c:	af02      	add	r7, sp, #8
 8000e4e:	f507 7388 	add.w	r3, r7, #272	; 0x110
 8000e52:	f5a3 7386 	sub.w	r3, r3, #268	; 0x10c
 8000e56:	6018      	str	r0, [r3, #0]
	ADS1256C_StatusTypeDef ads_status;
	float32_t load_buf[LOAD_SAMPLES];
	uint16_t index;
	*Load = 0.0;
 8000e58:	f507 7388 	add.w	r3, r7, #272	; 0x110
 8000e5c:	f5a3 7386 	sub.w	r3, r3, #268	; 0x10c
 8000e60:	681b      	ldr	r3, [r3, #0]
 8000e62:	f04f 0200 	mov.w	r2, #0
 8000e66:	601a      	str	r2, [r3, #0]

	ads_status =  ads1256_configure(LOAD_RATE, LOAD_GAIN,
 8000e68:	2300      	movs	r3, #0
 8000e6a:	9300      	str	r3, [sp, #0]
 8000e6c:	2301      	movs	r3, #1
 8000e6e:	2200      	movs	r2, #0
 8000e70:	2103      	movs	r1, #3
 8000e72:	20a1      	movs	r0, #161	; 0xa1
 8000e74:	f7ff fd9c 	bl	80009b0 <ads1256_configure>
 8000e78:	4603      	mov	r3, r0
 8000e7a:	f887 310d 	strb.w	r3, [r7, #269]	; 0x10d
						LC_CH, REF_CH, 0);

	if (ads_status != ADS1256_OK)
 8000e7e:	f897 310d 	ldrb.w	r3, [r7, #269]	; 0x10d
 8000e82:	2b00      	cmp	r3, #0
 8000e84:	d001      	beq.n	8000e8a <lc_measure_load+0x42>
	{
		return LC_ADC_ERROR;
 8000e86:	2302      	movs	r3, #2
 8000e88:	e04a      	b.n	8000f20 <lc_measure_load+0xd8>
	}

	ads_status = ads1256_get_samples(load_buf, LOAD_SAMPLES, 0);
 8000e8a:	f107 030c 	add.w	r3, r7, #12
 8000e8e:	ed9f 0a27 	vldr	s0, [pc, #156]	; 8000f2c <lc_measure_load+0xe4>
 8000e92:	2140      	movs	r1, #64	; 0x40
 8000e94:	4618      	mov	r0, r3
 8000e96:	f7ff fdf3 	bl	8000a80 <ads1256_get_samples>
 8000e9a:	4603      	mov	r3, r0
 8000e9c:	f887 310d 	strb.w	r3, [r7, #269]	; 0x10d
	if (ads_status != ADS1256_OK)
 8000ea0:	f897 310d 	ldrb.w	r3, [r7, #269]	; 0x10d
 8000ea4:	2b00      	cmp	r3, #0
 8000ea6:	d001      	beq.n	8000eac <lc_measure_load+0x64>
	{
		return LC_ADC_ERROR;
 8000ea8:	2302      	movs	r3, #2
 8000eaa:	e039      	b.n	8000f20 <lc_measure_load+0xd8>
	}

	//lets average
	for (index = 0; index<LOAD_SAMPLES; index++)
 8000eac:	2300      	movs	r3, #0
 8000eae:	f8a7 310e 	strh.w	r3, [r7, #270]	; 0x10e
 8000eb2:	e01e      	b.n	8000ef2 <lc_measure_load+0xaa>
	{
		*Load += load_buf[index];
 8000eb4:	f507 7388 	add.w	r3, r7, #272	; 0x110
 8000eb8:	f5a3 7386 	sub.w	r3, r3, #268	; 0x10c
 8000ebc:	681b      	ldr	r3, [r3, #0]
 8000ebe:	ed93 7a00 	vldr	s14, [r3]
 8000ec2:	f8b7 310e 	ldrh.w	r3, [r7, #270]	; 0x10e
 8000ec6:	f507 7288 	add.w	r2, r7, #272	; 0x110
 8000eca:	f5a2 7282 	sub.w	r2, r2, #260	; 0x104
 8000ece:	009b      	lsls	r3, r3, #2
 8000ed0:	4413      	add	r3, r2
 8000ed2:	edd3 7a00 	vldr	s15, [r3]
 8000ed6:	ee77 7a27 	vadd.f32	s15, s14, s15
 8000eda:	f507 7388 	add.w	r3, r7, #272	; 0x110
 8000ede:	f5a3 7386 	sub.w	r3, r3, #268	; 0x10c
 8000ee2:	681b      	ldr	r3, [r3, #0]
 8000ee4:	edc3 7a00 	vstr	s15, [r3]
	for (index = 0; index<LOAD_SAMPLES; index++)
 8000ee8:	f8b7 310e 	ldrh.w	r3, [r7, #270]	; 0x10e
 8000eec:	3301      	adds	r3, #1
 8000eee:	f8a7 310e 	strh.w	r3, [r7, #270]	; 0x10e
 8000ef2:	f8b7 310e 	ldrh.w	r3, [r7, #270]	; 0x10e
 8000ef6:	2b3f      	cmp	r3, #63	; 0x3f
 8000ef8:	d9dc      	bls.n	8000eb4 <lc_measure_load+0x6c>
	}

	*Load = (*Load / LOAD_SAMPLES);
 8000efa:	f507 7388 	add.w	r3, r7, #272	; 0x110
 8000efe:	f5a3 7386 	sub.w	r3, r3, #268	; 0x10c
 8000f02:	681b      	ldr	r3, [r3, #0]
 8000f04:	ed93 7a00 	vldr	s14, [r3]
 8000f08:	eddf 6a09 	vldr	s13, [pc, #36]	; 8000f30 <lc_measure_load+0xe8>
 8000f0c:	eec7 7a26 	vdiv.f32	s15, s14, s13
 8000f10:	f507 7388 	add.w	r3, r7, #272	; 0x110
 8000f14:	f5a3 7386 	sub.w	r3, r3, #268	; 0x10c
 8000f18:	681b      	ldr	r3, [r3, #0]
 8000f1a:	edc3 7a00 	vstr	s15, [r3]
	return LC_OK;
 8000f1e:	2300      	movs	r3, #0
}
 8000f20:	4618      	mov	r0, r3
 8000f22:	f507 7788 	add.w	r7, r7, #272	; 0x110
 8000f26:	46bd      	mov	sp, r7
 8000f28:	bd80      	pop	{r7, pc}
 8000f2a:	bf00      	nop
 8000f2c:	00000000 	.word	0x00000000
 8000f30:	42800000 	.word	0x42800000

08000f34 <lc_do_lc_prepare>:
	}

}

void lc_do_lc_prepare(void)
{
 8000f34:	b580      	push	{r7, lr}
 8000f36:	b086      	sub	sp, #24
 8000f38:	af02      	add	r7, sp, #8
	ADS1256C_StatusTypeDef ads_status;
	LC_StatusTypeDef status;
	float32_t V5Vmeasurement = 5.0;
 8000f3a:	4b30      	ldr	r3, [pc, #192]	; (8000ffc <lc_do_lc_prepare+0xc8>)
 8000f3c:	60fb      	str	r3, [r7, #12]
	float32_t Load = 0.0;
 8000f3e:	f04f 0300 	mov.w	r3, #0
 8000f42:	607b      	str	r3, [r7, #4]

	//Exit ADS standby
	if (ads1256_send_command(CMD_WAKEUP) != ADS1256_OK)
 8000f44:	2000      	movs	r0, #0
 8000f46:	f7ff fe17 	bl	8000b78 <ads1256_send_command>
 8000f4a:	4603      	mov	r3, r0
 8000f4c:	2b00      	cmp	r3, #0
 8000f4e:	d004      	beq.n	8000f5a <lc_do_lc_prepare+0x26>
	{
		lc_Error_Handler(ThisFileName, sizeof(ThisFileName), __LINE__);
 8000f50:	22a5      	movs	r2, #165	; 0xa5
 8000f52:	210b      	movs	r1, #11
 8000f54:	482a      	ldr	r0, [pc, #168]	; (8001000 <lc_do_lc_prepare+0xcc>)
 8000f56:	f000 f92d 	bl	80011b4 <lc_Error_Handler>
	}

	status = lc_measure_load(&Load);
 8000f5a:	1d3b      	adds	r3, r7, #4
 8000f5c:	4618      	mov	r0, r3
 8000f5e:	f7ff ff73 	bl	8000e48 <lc_measure_load>
 8000f62:	4603      	mov	r3, r0
 8000f64:	72fb      	strb	r3, [r7, #11]
	if (status != LC_OK)
 8000f66:	7afb      	ldrb	r3, [r7, #11]
 8000f68:	2b00      	cmp	r3, #0
 8000f6a:	d004      	beq.n	8000f76 <lc_do_lc_prepare+0x42>
	{
		lc_Error_Handler( ThisFileName, sizeof(ThisFileName), __LINE__);
 8000f6c:	22ab      	movs	r2, #171	; 0xab
 8000f6e:	210b      	movs	r1, #11
 8000f70:	4823      	ldr	r0, [pc, #140]	; (8001000 <lc_do_lc_prepare+0xcc>)
 8000f72:	f000 f91f 	bl	80011b4 <lc_Error_Handler>
	}

	ads_status =  ads1256_configure(PROBE_RATE, PROBE_GAIN,
 8000f76:	2300      	movs	r3, #0
 8000f78:	9300      	str	r3, [sp, #0]
 8000f7a:	2301      	movs	r3, #1
 8000f7c:	2200      	movs	r2, #0
 8000f7e:	2103      	movs	r1, #3
 8000f80:	20a1      	movs	r0, #161	; 0xa1
 8000f82:	f7ff fd15 	bl	80009b0 <ads1256_configure>
 8000f86:	4603      	mov	r3, r0
 8000f88:	72bb      	strb	r3, [r7, #10]
							LC_CH, REF_CH, 0);
	if (ads_status != ADS1256_OK)
 8000f8a:	7abb      	ldrb	r3, [r7, #10]
 8000f8c:	2b00      	cmp	r3, #0
 8000f8e:	d004      	beq.n	8000f9a <lc_do_lc_prepare+0x66>
	{
		lc_Error_Handler( ThisFileName, sizeof(ThisFileName), __LINE__);
 8000f90:	22b2      	movs	r2, #178	; 0xb2
 8000f92:	210b      	movs	r1, #11
 8000f94:	481a      	ldr	r0, [pc, #104]	; (8001000 <lc_do_lc_prepare+0xcc>)
 8000f96:	f000 f90d 	bl	80011b4 <lc_Error_Handler>
	}

	ads_status = ads1256_send_command(CMD_RDATAC);
 8000f9a:	2003      	movs	r0, #3
 8000f9c:	f7ff fdec 	bl	8000b78 <ads1256_send_command>
 8000fa0:	4603      	mov	r3, r0
 8000fa2:	72bb      	strb	r3, [r7, #10]
	if (ads_status != ADS1256_OK)
 8000fa4:	7abb      	ldrb	r3, [r7, #10]
 8000fa6:	2b00      	cmp	r3, #0
 8000fa8:	d004      	beq.n	8000fb4 <lc_do_lc_prepare+0x80>
	{
		lc_Error_Handler( ThisFileName, sizeof(ThisFileName), __LINE__);
 8000faa:	22b8      	movs	r2, #184	; 0xb8
 8000fac:	210b      	movs	r1, #11
 8000fae:	4814      	ldr	r0, [pc, #80]	; (8001000 <lc_do_lc_prepare+0xcc>)
 8000fb0:	f000 f900 	bl	80011b4 <lc_Error_Handler>
	}

	ProbeDataPointer = 0;
 8000fb4:	4b13      	ldr	r3, [pc, #76]	; (8001004 <lc_do_lc_prepare+0xd0>)
 8000fb6:	2200      	movs	r2, #0
 8000fb8:	701a      	strb	r2, [r3, #0]
	ProbeStarted = 0;
 8000fba:	4b13      	ldr	r3, [pc, #76]	; (8001008 <lc_do_lc_prepare+0xd4>)
 8000fbc:	2200      	movs	r2, #0
 8000fbe:	701a      	strb	r2, [r3, #0]
	LastCollectedPointer = 64;
 8000fc0:	4b12      	ldr	r3, [pc, #72]	; (800100c <lc_do_lc_prepare+0xd8>)
 8000fc2:	2240      	movs	r2, #64	; 0x40
 8000fc4:	701a      	strb	r2, [r3, #0]
  __ASM volatile ("cpsid i" : : : "memory");
 8000fc6:	b672      	cpsid	i
}
 8000fc8:	bf00      	nop

	__disable_irq();

	NVIC_EnableIRQ(DMA1_Stream3_IRQn);
 8000fca:	200e      	movs	r0, #14
 8000fcc:	f7ff fe10 	bl	8000bf0 <__NVIC_EnableIRQ>
	NVIC_EnableIRQ(DMA1_Stream4_IRQn);
 8000fd0:	200f      	movs	r0, #15
 8000fd2:	f7ff fe0d 	bl	8000bf0 <__NVIC_EnableIRQ>
	NVIC_EnableIRQ(EXTI15_10_IRQn);
 8000fd6:	2028      	movs	r0, #40	; 0x28
 8000fd8:	f7ff fe0a 	bl	8000bf0 <__NVIC_EnableIRQ>

	NVIC_ClearPendingIRQ(DMA1_Stream3_IRQn);
 8000fdc:	200e      	movs	r0, #14
 8000fde:	f7ff fe49 	bl	8000c74 <__NVIC_ClearPendingIRQ>
	NVIC_ClearPendingIRQ(DMA1_Stream4_IRQn);
 8000fe2:	200f      	movs	r0, #15
 8000fe4:	f7ff fe46 	bl	8000c74 <__NVIC_ClearPendingIRQ>
	NVIC_ClearPendingIRQ(EXTI15_10_IRQn);
 8000fe8:	2028      	movs	r0, #40	; 0x28
 8000fea:	f7ff fe43 	bl	8000c74 <__NVIC_ClearPendingIRQ>
  __ASM volatile ("cpsie i" : : : "memory");
 8000fee:	b662      	cpsie	i
}
 8000ff0:	bf00      	nop

	__enable_irq();

}
 8000ff2:	bf00      	nop
 8000ff4:	3710      	adds	r7, #16
 8000ff6:	46bd      	mov	sp, r7
 8000ff8:	bd80      	pop	{r7, pc}
 8000ffa:	bf00      	nop
 8000ffc:	40a00000 	.word	0x40a00000
 8001000:	08004280 	.word	0x08004280
 8001004:	20000240 	.word	0x20000240
 8001008:	20000241 	.word	0x20000241
 800100c:	20000000 	.word	0x20000000

08001010 <lc_do_lc_running>:

void lc_do_lc_running(void)
{
 8001010:	b580      	push	{r7, lr}
 8001012:	af00      	add	r7, sp, #0
	if (LastCollectedPointer == 64)
 8001014:	4b16      	ldr	r3, [pc, #88]	; (8001070 <lc_do_lc_running+0x60>)
 8001016:	781b      	ldrb	r3, [r3, #0]
 8001018:	2b40      	cmp	r3, #64	; 0x40
 800101a:	d113      	bne.n	8001044 <lc_do_lc_running+0x34>
	{
		if (ProbeDataPointer > 64)
 800101c:	4b15      	ldr	r3, [pc, #84]	; (8001074 <lc_do_lc_running+0x64>)
 800101e:	781b      	ldrb	r3, [r3, #0]
 8001020:	2b40      	cmp	r3, #64	; 0x40
 8001022:	d923      	bls.n	800106c <lc_do_lc_running+0x5c>
		{
			ProbeStarted = 1;
 8001024:	4b14      	ldr	r3, [pc, #80]	; (8001078 <lc_do_lc_running+0x68>)
 8001026:	2201      	movs	r2, #1
 8001028:	701a      	strb	r2, [r3, #0]
			LastCollectedPointer = 0;
 800102a:	4b11      	ldr	r3, [pc, #68]	; (8001070 <lc_do_lc_running+0x60>)
 800102c:	2200      	movs	r2, #0
 800102e:	701a      	strb	r2, [r3, #0]
			lc_convert_and_send_data(&ProbeDataBuffer[LastCollectedPointer], 64);
 8001030:	4b0f      	ldr	r3, [pc, #60]	; (8001070 <lc_do_lc_running+0x60>)
 8001032:	781b      	ldrb	r3, [r3, #0]
 8001034:	009b      	lsls	r3, r3, #2
 8001036:	4a11      	ldr	r2, [pc, #68]	; (800107c <lc_do_lc_running+0x6c>)
 8001038:	4413      	add	r3, r2
 800103a:	2140      	movs	r1, #64	; 0x40
 800103c:	4618      	mov	r0, r3
 800103e:	f000 f881 	bl	8001144 <lc_convert_and_send_data>
			LastCollectedPointer = 64;
			lc_convert_and_send_data(&ProbeDataBuffer[LastCollectedPointer], 64);

		}
	}
}
 8001042:	e013      	b.n	800106c <lc_do_lc_running+0x5c>
	else if (ProbeStarted==1)
 8001044:	4b0c      	ldr	r3, [pc, #48]	; (8001078 <lc_do_lc_running+0x68>)
 8001046:	781b      	ldrb	r3, [r3, #0]
 8001048:	2b01      	cmp	r3, #1
 800104a:	d10f      	bne.n	800106c <lc_do_lc_running+0x5c>
		if (ProbeDataPointer < 64)
 800104c:	4b09      	ldr	r3, [pc, #36]	; (8001074 <lc_do_lc_running+0x64>)
 800104e:	781b      	ldrb	r3, [r3, #0]
 8001050:	2b3f      	cmp	r3, #63	; 0x3f
 8001052:	d80b      	bhi.n	800106c <lc_do_lc_running+0x5c>
			LastCollectedPointer = 64;
 8001054:	4b06      	ldr	r3, [pc, #24]	; (8001070 <lc_do_lc_running+0x60>)
 8001056:	2240      	movs	r2, #64	; 0x40
 8001058:	701a      	strb	r2, [r3, #0]
			lc_convert_and_send_data(&ProbeDataBuffer[LastCollectedPointer], 64);
 800105a:	4b05      	ldr	r3, [pc, #20]	; (8001070 <lc_do_lc_running+0x60>)
 800105c:	781b      	ldrb	r3, [r3, #0]
 800105e:	009b      	lsls	r3, r3, #2
 8001060:	4a06      	ldr	r2, [pc, #24]	; (800107c <lc_do_lc_running+0x6c>)
 8001062:	4413      	add	r3, r2
 8001064:	2140      	movs	r1, #64	; 0x40
 8001066:	4618      	mov	r0, r3
 8001068:	f000 f86c 	bl	8001144 <lc_convert_and_send_data>
}
 800106c:	bf00      	nop
 800106e:	bd80      	pop	{r7, pc}
 8001070:	20000000 	.word	0x20000000
 8001074:	20000240 	.word	0x20000240
 8001078:	20000241 	.word	0x20000241
 800107c:	20000040 	.word	0x20000040

08001080 <lc_do_lc_stopping>:

void lc_do_lc_stopping(void)
{
 8001080:	b580      	push	{r7, lr}
 8001082:	af00      	add	r7, sp, #0
  __ASM volatile ("cpsid i" : : : "memory");
 8001084:	b672      	cpsid	i
}
 8001086:	bf00      	nop

	__disable_irq();

	NVIC_DisableIRQ(DMA1_Stream3_IRQn);
 8001088:	200e      	movs	r0, #14
 800108a:	f7ff fdcf 	bl	8000c2c <__NVIC_DisableIRQ>
	NVIC_DisableIRQ(DMA1_Stream4_IRQn);
 800108e:	200f      	movs	r0, #15
 8001090:	f7ff fdcc 	bl	8000c2c <__NVIC_DisableIRQ>
	NVIC_DisableIRQ(EXTI15_10_IRQn);
 8001094:	2028      	movs	r0, #40	; 0x28
 8001096:	f7ff fdc9 	bl	8000c2c <__NVIC_DisableIRQ>
  __ASM volatile ("cpsie i" : : : "memory");
 800109a:	b662      	cpsie	i
}
 800109c:	bf00      	nop

	__enable_irq();

	//de-assert CS and clear the DRDY IRQ
	LL_GPIO_SetOutputPin(ADC_CS_GPIO_Port, ADC_CS_Pin);
 800109e:	f44f 5180 	mov.w	r1, #4096	; 0x1000
 80010a2:	4824      	ldr	r0, [pc, #144]	; (8001134 <lc_do_lc_stopping+0xb4>)
 80010a4:	f7ff fe84 	bl	8000db0 <LL_GPIO_SetOutputPin>
	LL_SPI_Disable(SPI2);
 80010a8:	4823      	ldr	r0, [pc, #140]	; (8001138 <lc_do_lc_stopping+0xb8>)
 80010aa:	f7ff fe57 	bl	8000d5c <LL_SPI_Disable>

	if (LL_EXTI_IsActiveFlag_0_31(LL_EXTI_LINE_12) != RESET)
 80010ae:	f44f 5080 	mov.w	r0, #4096	; 0x1000
 80010b2:	f7ff fe8b 	bl	8000dcc <LL_EXTI_IsActiveFlag_0_31>
 80010b6:	4603      	mov	r3, r0
 80010b8:	2b00      	cmp	r3, #0
 80010ba:	d003      	beq.n	80010c4 <lc_do_lc_stopping+0x44>
	{
		LL_EXTI_ClearFlag_0_31(LL_EXTI_LINE_12);
 80010bc:	f44f 5080 	mov.w	r0, #4096	; 0x1000
 80010c0:	f7ff fe9a 	bl	8000df8 <LL_EXTI_ClearFlag_0_31>
	}

	// stop the DMAs and clear any pending flags
	LL_DMA_DisableStream(DMA1, LL_DMA_STREAM_4); //TX
 80010c4:	2104      	movs	r1, #4
 80010c6:	481d      	ldr	r0, [pc, #116]	; (800113c <lc_do_lc_stopping+0xbc>)
 80010c8:	f7ff fdf2 	bl	8000cb0 <LL_DMA_DisableStream>
	LL_DMA_DisableStream(DMA1, LL_DMA_STREAM_3); //RX
 80010cc:	2103      	movs	r1, #3
 80010ce:	481b      	ldr	r0, [pc, #108]	; (800113c <lc_do_lc_stopping+0xbc>)
 80010d0:	f7ff fdee 	bl	8000cb0 <LL_DMA_DisableStream>

	LL_DMA_ClearFlag_TC4(DMA1);
 80010d4:	4819      	ldr	r0, [pc, #100]	; (800113c <lc_do_lc_stopping+0xbc>)
 80010d6:	f7ff fe19 	bl	8000d0c <LL_DMA_ClearFlag_TC4>
	LL_DMA_ClearFlag_TE4(DMA1);
 80010da:	4818      	ldr	r0, [pc, #96]	; (800113c <lc_do_lc_stopping+0xbc>)
 80010dc:	f7ff fe31 	bl	8000d42 <LL_DMA_ClearFlag_TE4>
	LL_DMA_ClearFlag_TC3(DMA1);
 80010e0:	4816      	ldr	r0, [pc, #88]	; (800113c <lc_do_lc_stopping+0xbc>)
 80010e2:	f7ff fe05 	bl	8000cf0 <LL_DMA_ClearFlag_TC3>
	LL_DMA_ClearFlag_TE3(DMA1);
 80010e6:	4815      	ldr	r0, [pc, #84]	; (800113c <lc_do_lc_stopping+0xbc>)
 80010e8:	f7ff fe1d 	bl	8000d26 <LL_DMA_ClearFlag_TE3>

	NVIC_ClearPendingIRQ(DMA1_Stream3_IRQn);
 80010ec:	200e      	movs	r0, #14
 80010ee:	f7ff fdc1 	bl	8000c74 <__NVIC_ClearPendingIRQ>
	NVIC_ClearPendingIRQ(DMA1_Stream4_IRQn);
 80010f2:	200f      	movs	r0, #15
 80010f4:	f7ff fdbe 	bl	8000c74 <__NVIC_ClearPendingIRQ>
	NVIC_ClearPendingIRQ(EXTI15_10_IRQn);
 80010f8:	2028      	movs	r0, #40	; 0x28
 80010fa:	f7ff fdbb 	bl	8000c74 <__NVIC_ClearPendingIRQ>

	// stop continuous mode
	if (ads1256_send_command(CMD_SDATAC) != ADS1256_OK)
 80010fe:	200f      	movs	r0, #15
 8001100:	f7ff fd3a 	bl	8000b78 <ads1256_send_command>
 8001104:	4603      	mov	r3, r0
 8001106:	2b00      	cmp	r3, #0
 8001108:	d005      	beq.n	8001116 <lc_do_lc_stopping+0x96>
	{
		lc_Error_Handler( ThisFileName, sizeof(ThisFileName), __LINE__);
 800110a:	f240 1207 	movw	r2, #263	; 0x107
 800110e:	210b      	movs	r1, #11
 8001110:	480b      	ldr	r0, [pc, #44]	; (8001140 <lc_do_lc_stopping+0xc0>)
 8001112:	f000 f84f 	bl	80011b4 <lc_Error_Handler>
	}

	// ADS standby
	if (ads1256_send_command(CMD_STANDBY) != ADS1256_OK)
 8001116:	20fd      	movs	r0, #253	; 0xfd
 8001118:	f7ff fd2e 	bl	8000b78 <ads1256_send_command>
 800111c:	4603      	mov	r3, r0
 800111e:	2b00      	cmp	r3, #0
 8001120:	d005      	beq.n	800112e <lc_do_lc_stopping+0xae>
	{
		lc_Error_Handler( ThisFileName, sizeof(ThisFileName), __LINE__);
 8001122:	f240 120d 	movw	r2, #269	; 0x10d
 8001126:	210b      	movs	r1, #11
 8001128:	4805      	ldr	r0, [pc, #20]	; (8001140 <lc_do_lc_stopping+0xc0>)
 800112a:	f000 f843 	bl	80011b4 <lc_Error_Handler>
	}

}
 800112e:	bf00      	nop
 8001130:	bd80      	pop	{r7, pc}
 8001132:	bf00      	nop
 8001134:	40020400 	.word	0x40020400
 8001138:	40003800 	.word	0x40003800
 800113c:	40026000 	.word	0x40026000
 8001140:	08004280 	.word	0x08004280

08001144 <lc_convert_and_send_data>:

void lc_convert_and_send_data(float32_t * Buf, uint8_t Len)
{
 8001144:	b580      	push	{r7, lr}
 8001146:	b084      	sub	sp, #16
 8001148:	af00      	add	r7, sp, #0
 800114a:	6078      	str	r0, [r7, #4]
 800114c:	460b      	mov	r3, r1
 800114e:	70fb      	strb	r3, [r7, #3]
	uint8_t index;
	extern UART_HandleTypeDef huart2;

	for (index = 0; index < Len; index++)
 8001150:	2300      	movs	r3, #0
 8001152:	73fb      	strb	r3, [r7, #15]
 8001154:	e019      	b.n	800118a <lc_convert_and_send_data+0x46>
	{
		float_to_char_opt(Buf[index], &TxBuffer[index*8], 7, 10, 3);
 8001156:	7bfb      	ldrb	r3, [r7, #15]
 8001158:	009b      	lsls	r3, r3, #2
 800115a:	687a      	ldr	r2, [r7, #4]
 800115c:	4413      	add	r3, r2
 800115e:	edd3 7a00 	vldr	s15, [r3]
 8001162:	7bfb      	ldrb	r3, [r7, #15]
 8001164:	00db      	lsls	r3, r3, #3
 8001166:	4a11      	ldr	r2, [pc, #68]	; (80011ac <lc_convert_and_send_data+0x68>)
 8001168:	1898      	adds	r0, r3, r2
 800116a:	2303      	movs	r3, #3
 800116c:	220a      	movs	r2, #10
 800116e:	2107      	movs	r1, #7
 8001170:	eeb0 0a67 	vmov.f32	s0, s15
 8001174:	f001 fb0e 	bl	8002794 <float_to_char_opt>
		TxBuffer[(index*8)+7] = ',';
 8001178:	7bfb      	ldrb	r3, [r7, #15]
 800117a:	00db      	lsls	r3, r3, #3
 800117c:	3307      	adds	r3, #7
 800117e:	4a0b      	ldr	r2, [pc, #44]	; (80011ac <lc_convert_and_send_data+0x68>)
 8001180:	212c      	movs	r1, #44	; 0x2c
 8001182:	54d1      	strb	r1, [r2, r3]
	for (index = 0; index < Len; index++)
 8001184:	7bfb      	ldrb	r3, [r7, #15]
 8001186:	3301      	adds	r3, #1
 8001188:	73fb      	strb	r3, [r7, #15]
 800118a:	7bfa      	ldrb	r2, [r7, #15]
 800118c:	78fb      	ldrb	r3, [r7, #3]
 800118e:	429a      	cmp	r2, r3
 8001190:	d3e1      	bcc.n	8001156 <lc_convert_and_send_data+0x12>
	}

	HAL_UART_Transmit(&huart2, (uint8_t *)TxBuffer, sizeof(TxBuffer), 0xFFFF);
 8001192:	f64f 73ff 	movw	r3, #65535	; 0xffff
 8001196:	f44f 7200 	mov.w	r2, #512	; 0x200
 800119a:	4904      	ldr	r1, [pc, #16]	; (80011ac <lc_convert_and_send_data+0x68>)
 800119c:	4804      	ldr	r0, [pc, #16]	; (80011b0 <lc_convert_and_send_data+0x6c>)
 800119e:	f002 fa5f 	bl	8003660 <HAL_UART_Transmit>
}
 80011a2:	bf00      	nop
 80011a4:	3710      	adds	r7, #16
 80011a6:	46bd      	mov	sp, r7
 80011a8:	bd80      	pop	{r7, pc}
 80011aa:	bf00      	nop
 80011ac:	20000244 	.word	0x20000244
 80011b0:	20000444 	.word	0x20000444

080011b4 <lc_Error_Handler>:

void lc_Error_Handler(const char * FileName, uint8_t NameLength, uint16_t LineNumber)
{
 80011b4:	b480      	push	{r7}
 80011b6:	b083      	sub	sp, #12
 80011b8:	af00      	add	r7, sp, #0
 80011ba:	6078      	str	r0, [r7, #4]
 80011bc:	460b      	mov	r3, r1
 80011be:	70fb      	strb	r3, [r7, #3]
 80011c0:	4613      	mov	r3, r2
 80011c2:	803b      	strh	r3, [r7, #0]
  __ASM volatile ("cpsid i" : : : "memory");
 80011c4:	b672      	cpsid	i
}
 80011c6:	bf00      	nop
	__disable_irq();
	while (1)
 80011c8:	e7fe      	b.n	80011c8 <lc_Error_Handler+0x14>
	...

080011cc <__NVIC_GetPriorityGrouping>:
{
 80011cc:	b480      	push	{r7}
 80011ce:	af00      	add	r7, sp, #0
  return ((uint32_t)((SCB->AIRCR & SCB_AIRCR_PRIGROUP_Msk) >> SCB_AIRCR_PRIGROUP_Pos));
 80011d0:	4b04      	ldr	r3, [pc, #16]	; (80011e4 <__NVIC_GetPriorityGrouping+0x18>)
 80011d2:	68db      	ldr	r3, [r3, #12]
 80011d4:	0a1b      	lsrs	r3, r3, #8
 80011d6:	f003 0307 	and.w	r3, r3, #7
}
 80011da:	4618      	mov	r0, r3
 80011dc:	46bd      	mov	sp, r7
 80011de:	f85d 7b04 	ldr.w	r7, [sp], #4
 80011e2:	4770      	bx	lr
 80011e4:	e000ed00 	.word	0xe000ed00

080011e8 <__NVIC_EnableIRQ>:
{
 80011e8:	b480      	push	{r7}
 80011ea:	b083      	sub	sp, #12
 80011ec:	af00      	add	r7, sp, #0
 80011ee:	4603      	mov	r3, r0
 80011f0:	71fb      	strb	r3, [r7, #7]
  if ((int32_t)(IRQn) >= 0)
 80011f2:	f997 3007 	ldrsb.w	r3, [r7, #7]
 80011f6:	2b00      	cmp	r3, #0
 80011f8:	db0b      	blt.n	8001212 <__NVIC_EnableIRQ+0x2a>
    NVIC->ISER[(((uint32_t)IRQn) >> 5UL)] = (uint32_t)(1UL << (((uint32_t)IRQn) & 0x1FUL));
 80011fa:	79fb      	ldrb	r3, [r7, #7]
 80011fc:	f003 021f 	and.w	r2, r3, #31
 8001200:	4907      	ldr	r1, [pc, #28]	; (8001220 <__NVIC_EnableIRQ+0x38>)
 8001202:	f997 3007 	ldrsb.w	r3, [r7, #7]
 8001206:	095b      	lsrs	r3, r3, #5
 8001208:	2001      	movs	r0, #1
 800120a:	fa00 f202 	lsl.w	r2, r0, r2
 800120e:	f841 2023 	str.w	r2, [r1, r3, lsl #2]
}
 8001212:	bf00      	nop
 8001214:	370c      	adds	r7, #12
 8001216:	46bd      	mov	sp, r7
 8001218:	f85d 7b04 	ldr.w	r7, [sp], #4
 800121c:	4770      	bx	lr
 800121e:	bf00      	nop
 8001220:	e000e100 	.word	0xe000e100

08001224 <__NVIC_DisableIRQ>:
{
 8001224:	b480      	push	{r7}
 8001226:	b083      	sub	sp, #12
 8001228:	af00      	add	r7, sp, #0
 800122a:	4603      	mov	r3, r0
 800122c:	71fb      	strb	r3, [r7, #7]
  if ((int32_t)(IRQn) >= 0)
 800122e:	f997 3007 	ldrsb.w	r3, [r7, #7]
 8001232:	2b00      	cmp	r3, #0
 8001234:	db12      	blt.n	800125c <__NVIC_DisableIRQ+0x38>
    NVIC->ICER[(((uint32_t)IRQn) >> 5UL)] = (uint32_t)(1UL << (((uint32_t)IRQn) & 0x1FUL));
 8001236:	79fb      	ldrb	r3, [r7, #7]
 8001238:	f003 021f 	and.w	r2, r3, #31
 800123c:	490a      	ldr	r1, [pc, #40]	; (8001268 <__NVIC_DisableIRQ+0x44>)
 800123e:	f997 3007 	ldrsb.w	r3, [r7, #7]
 8001242:	095b      	lsrs	r3, r3, #5
 8001244:	2001      	movs	r0, #1
 8001246:	fa00 f202 	lsl.w	r2, r0, r2
 800124a:	3320      	adds	r3, #32
 800124c:	f841 2023 	str.w	r2, [r1, r3, lsl #2]
  __ASM volatile ("dsb 0xF":::"memory");
 8001250:	f3bf 8f4f 	dsb	sy
}
 8001254:	bf00      	nop
  __ASM volatile ("isb 0xF":::"memory");
 8001256:	f3bf 8f6f 	isb	sy
}
 800125a:	bf00      	nop
}
 800125c:	bf00      	nop
 800125e:	370c      	adds	r7, #12
 8001260:	46bd      	mov	sp, r7
 8001262:	f85d 7b04 	ldr.w	r7, [sp], #4
 8001266:	4770      	bx	lr
 8001268:	e000e100 	.word	0xe000e100

0800126c <__NVIC_SetPriority>:
  \param [in]      IRQn  Interrupt number.
  \param [in]  priority  Priority to set.
  \note    The priority cannot be set for every processor exception.
 */
__STATIC_INLINE void __NVIC_SetPriority(IRQn_Type IRQn, uint32_t priority)
{
 800126c:	b480      	push	{r7}
 800126e:	b083      	sub	sp, #12
 8001270:	af00      	add	r7, sp, #0
 8001272:	4603      	mov	r3, r0
 8001274:	6039      	str	r1, [r7, #0]
 8001276:	71fb      	strb	r3, [r7, #7]
  if ((int32_t)(IRQn) >= 0)
 8001278:	f997 3007 	ldrsb.w	r3, [r7, #7]
 800127c:	2b00      	cmp	r3, #0
 800127e:	db0a      	blt.n	8001296 <__NVIC_SetPriority+0x2a>
  {
    NVIC->IP[((uint32_t)IRQn)]               = (uint8_t)((priority << (8U - __NVIC_PRIO_BITS)) & (uint32_t)0xFFUL);
 8001280:	683b      	ldr	r3, [r7, #0]
 8001282:	b2da      	uxtb	r2, r3
 8001284:	490c      	ldr	r1, [pc, #48]	; (80012b8 <__NVIC_SetPriority+0x4c>)
 8001286:	f997 3007 	ldrsb.w	r3, [r7, #7]
 800128a:	0112      	lsls	r2, r2, #4
 800128c:	b2d2      	uxtb	r2, r2
 800128e:	440b      	add	r3, r1
 8001290:	f883 2300 	strb.w	r2, [r3, #768]	; 0x300
  }
  else
  {
    SCB->SHP[(((uint32_t)IRQn) & 0xFUL)-4UL] = (uint8_t)((priority << (8U - __NVIC_PRIO_BITS)) & (uint32_t)0xFFUL);
  }
}
 8001294:	e00a      	b.n	80012ac <__NVIC_SetPriority+0x40>
    SCB->SHP[(((uint32_t)IRQn) & 0xFUL)-4UL] = (uint8_t)((priority << (8U - __NVIC_PRIO_BITS)) & (uint32_t)0xFFUL);
 8001296:	683b      	ldr	r3, [r7, #0]
 8001298:	b2da      	uxtb	r2, r3
 800129a:	4908      	ldr	r1, [pc, #32]	; (80012bc <__NVIC_SetPriority+0x50>)
 800129c:	79fb      	ldrb	r3, [r7, #7]
 800129e:	f003 030f 	and.w	r3, r3, #15
 80012a2:	3b04      	subs	r3, #4
 80012a4:	0112      	lsls	r2, r2, #4
 80012a6:	b2d2      	uxtb	r2, r2
 80012a8:	440b      	add	r3, r1
 80012aa:	761a      	strb	r2, [r3, #24]
}
 80012ac:	bf00      	nop
 80012ae:	370c      	adds	r7, #12
 80012b0:	46bd      	mov	sp, r7
 80012b2:	f85d 7b04 	ldr.w	r7, [sp], #4
 80012b6:	4770      	bx	lr
 80012b8:	e000e100 	.word	0xe000e100
 80012bc:	e000ed00 	.word	0xe000ed00

080012c0 <NVIC_EncodePriority>:
  \param [in]   PreemptPriority  Preemptive priority value (starting from 0).
  \param [in]       SubPriority  Subpriority value (starting from 0).
  \return                        Encoded priority. Value can be used in the function \ref NVIC_SetPriority().
 */
__STATIC_INLINE uint32_t NVIC_EncodePriority (uint32_t PriorityGroup, uint32_t PreemptPriority, uint32_t SubPriority)
{
 80012c0:	b480      	push	{r7}
 80012c2:	b089      	sub	sp, #36	; 0x24
 80012c4:	af00      	add	r7, sp, #0
 80012c6:	60f8      	str	r0, [r7, #12]
 80012c8:	60b9      	str	r1, [r7, #8]
 80012ca:	607a      	str	r2, [r7, #4]
  uint32_t PriorityGroupTmp = (PriorityGroup & (uint32_t)0x07UL);   /* only values 0..7 are used          */
 80012cc:	68fb      	ldr	r3, [r7, #12]
 80012ce:	f003 0307 	and.w	r3, r3, #7
 80012d2:	61fb      	str	r3, [r7, #28]
  uint32_t PreemptPriorityBits;
  uint32_t SubPriorityBits;

  PreemptPriorityBits = ((7UL - PriorityGroupTmp) > (uint32_t)(__NVIC_PRIO_BITS)) ? (uint32_t)(__NVIC_PRIO_BITS) : (uint32_t)(7UL - PriorityGroupTmp);
 80012d4:	69fb      	ldr	r3, [r7, #28]
 80012d6:	f1c3 0307 	rsb	r3, r3, #7
 80012da:	2b04      	cmp	r3, #4
 80012dc:	bf28      	it	cs
 80012de:	2304      	movcs	r3, #4
 80012e0:	61bb      	str	r3, [r7, #24]
  SubPriorityBits     = ((PriorityGroupTmp + (uint32_t)(__NVIC_PRIO_BITS)) < (uint32_t)7UL) ? (uint32_t)0UL : (uint32_t)((PriorityGroupTmp - 7UL) + (uint32_t)(__NVIC_PRIO_BITS));
 80012e2:	69fb      	ldr	r3, [r7, #28]
 80012e4:	3304      	adds	r3, #4
 80012e6:	2b06      	cmp	r3, #6
 80012e8:	d902      	bls.n	80012f0 <NVIC_EncodePriority+0x30>
 80012ea:	69fb      	ldr	r3, [r7, #28]
 80012ec:	3b03      	subs	r3, #3
 80012ee:	e000      	b.n	80012f2 <NVIC_EncodePriority+0x32>
 80012f0:	2300      	movs	r3, #0
 80012f2:	617b      	str	r3, [r7, #20]

  return (
           ((PreemptPriority & (uint32_t)((1UL << (PreemptPriorityBits)) - 1UL)) << SubPriorityBits) |
 80012f4:	f04f 32ff 	mov.w	r2, #4294967295
 80012f8:	69bb      	ldr	r3, [r7, #24]
 80012fa:	fa02 f303 	lsl.w	r3, r2, r3
 80012fe:	43da      	mvns	r2, r3
 8001300:	68bb      	ldr	r3, [r7, #8]
 8001302:	401a      	ands	r2, r3
 8001304:	697b      	ldr	r3, [r7, #20]
 8001306:	409a      	lsls	r2, r3
           ((SubPriority     & (uint32_t)((1UL << (SubPriorityBits    )) - 1UL)))
 8001308:	f04f 31ff 	mov.w	r1, #4294967295
 800130c:	697b      	ldr	r3, [r7, #20]
 800130e:	fa01 f303 	lsl.w	r3, r1, r3
 8001312:	43d9      	mvns	r1, r3
 8001314:	687b      	ldr	r3, [r7, #4]
 8001316:	400b      	ands	r3, r1
           ((PreemptPriority & (uint32_t)((1UL << (PreemptPriorityBits)) - 1UL)) << SubPriorityBits) |
 8001318:	4313      	orrs	r3, r2
         );
}
 800131a:	4618      	mov	r0, r3
 800131c:	3724      	adds	r7, #36	; 0x24
 800131e:	46bd      	mov	sp, r7
 8001320:	f85d 7b04 	ldr.w	r7, [sp], #4
 8001324:	4770      	bx	lr
	...

08001328 <LL_DMA_SetDataTransferDirection>:
{
 8001328:	b480      	push	{r7}
 800132a:	b085      	sub	sp, #20
 800132c:	af00      	add	r7, sp, #0
 800132e:	60f8      	str	r0, [r7, #12]
 8001330:	60b9      	str	r1, [r7, #8]
 8001332:	607a      	str	r2, [r7, #4]
  MODIFY_REG(((DMA_Stream_TypeDef*)((uint32_t)((uint32_t)DMAx + STREAM_OFFSET_TAB[Stream])))->CR, DMA_SxCR_DIR, Direction);
 8001334:	4a0d      	ldr	r2, [pc, #52]	; (800136c <LL_DMA_SetDataTransferDirection+0x44>)
 8001336:	68bb      	ldr	r3, [r7, #8]
 8001338:	4413      	add	r3, r2
 800133a:	781b      	ldrb	r3, [r3, #0]
 800133c:	461a      	mov	r2, r3
 800133e:	68fb      	ldr	r3, [r7, #12]
 8001340:	4413      	add	r3, r2
 8001342:	681b      	ldr	r3, [r3, #0]
 8001344:	f023 02c0 	bic.w	r2, r3, #192	; 0xc0
 8001348:	4908      	ldr	r1, [pc, #32]	; (800136c <LL_DMA_SetDataTransferDirection+0x44>)
 800134a:	68bb      	ldr	r3, [r7, #8]
 800134c:	440b      	add	r3, r1
 800134e:	781b      	ldrb	r3, [r3, #0]
 8001350:	4619      	mov	r1, r3
 8001352:	68fb      	ldr	r3, [r7, #12]
 8001354:	440b      	add	r3, r1
 8001356:	4619      	mov	r1, r3
 8001358:	687b      	ldr	r3, [r7, #4]
 800135a:	4313      	orrs	r3, r2
 800135c:	600b      	str	r3, [r1, #0]
}
 800135e:	bf00      	nop
 8001360:	3714      	adds	r7, #20
 8001362:	46bd      	mov	sp, r7
 8001364:	f85d 7b04 	ldr.w	r7, [sp], #4
 8001368:	4770      	bx	lr
 800136a:	bf00      	nop
 800136c:	0800428c 	.word	0x0800428c

08001370 <LL_DMA_GetDataTransferDirection>:
{
 8001370:	b480      	push	{r7}
 8001372:	b083      	sub	sp, #12
 8001374:	af00      	add	r7, sp, #0
 8001376:	6078      	str	r0, [r7, #4]
 8001378:	6039      	str	r1, [r7, #0]
  return (READ_BIT(((DMA_Stream_TypeDef*)((uint32_t)((uint32_t)DMAx + STREAM_OFFSET_TAB[Stream])))->CR, DMA_SxCR_DIR));
 800137a:	4a08      	ldr	r2, [pc, #32]	; (800139c <LL_DMA_GetDataTransferDirection+0x2c>)
 800137c:	683b      	ldr	r3, [r7, #0]
 800137e:	4413      	add	r3, r2
 8001380:	781b      	ldrb	r3, [r3, #0]
 8001382:	461a      	mov	r2, r3
 8001384:	687b      	ldr	r3, [r7, #4]
 8001386:	4413      	add	r3, r2
 8001388:	681b      	ldr	r3, [r3, #0]
 800138a:	f003 03c0 	and.w	r3, r3, #192	; 0xc0
}
 800138e:	4618      	mov	r0, r3
 8001390:	370c      	adds	r7, #12
 8001392:	46bd      	mov	sp, r7
 8001394:	f85d 7b04 	ldr.w	r7, [sp], #4
 8001398:	4770      	bx	lr
 800139a:	bf00      	nop
 800139c:	0800428c 	.word	0x0800428c

080013a0 <LL_DMA_SetMode>:
{
 80013a0:	b480      	push	{r7}
 80013a2:	b085      	sub	sp, #20
 80013a4:	af00      	add	r7, sp, #0
 80013a6:	60f8      	str	r0, [r7, #12]
 80013a8:	60b9      	str	r1, [r7, #8]
 80013aa:	607a      	str	r2, [r7, #4]
  MODIFY_REG(((DMA_Stream_TypeDef*)((uint32_t)((uint32_t)DMAx + STREAM_OFFSET_TAB[Stream])))->CR, DMA_SxCR_CIRC | DMA_SxCR_PFCTRL, Mode);
 80013ac:	4a0d      	ldr	r2, [pc, #52]	; (80013e4 <LL_DMA_SetMode+0x44>)
 80013ae:	68bb      	ldr	r3, [r7, #8]
 80013b0:	4413      	add	r3, r2
 80013b2:	781b      	ldrb	r3, [r3, #0]
 80013b4:	461a      	mov	r2, r3
 80013b6:	68fb      	ldr	r3, [r7, #12]
 80013b8:	4413      	add	r3, r2
 80013ba:	681b      	ldr	r3, [r3, #0]
 80013bc:	f423 7290 	bic.w	r2, r3, #288	; 0x120
 80013c0:	4908      	ldr	r1, [pc, #32]	; (80013e4 <LL_DMA_SetMode+0x44>)
 80013c2:	68bb      	ldr	r3, [r7, #8]
 80013c4:	440b      	add	r3, r1
 80013c6:	781b      	ldrb	r3, [r3, #0]
 80013c8:	4619      	mov	r1, r3
 80013ca:	68fb      	ldr	r3, [r7, #12]
 80013cc:	440b      	add	r3, r1
 80013ce:	4619      	mov	r1, r3
 80013d0:	687b      	ldr	r3, [r7, #4]
 80013d2:	4313      	orrs	r3, r2
 80013d4:	600b      	str	r3, [r1, #0]
}
 80013d6:	bf00      	nop
 80013d8:	3714      	adds	r7, #20
 80013da:	46bd      	mov	sp, r7
 80013dc:	f85d 7b04 	ldr.w	r7, [sp], #4
 80013e0:	4770      	bx	lr
 80013e2:	bf00      	nop
 80013e4:	0800428c 	.word	0x0800428c

080013e8 <LL_DMA_SetPeriphIncMode>:
{
 80013e8:	b480      	push	{r7}
 80013ea:	b085      	sub	sp, #20
 80013ec:	af00      	add	r7, sp, #0
 80013ee:	60f8      	str	r0, [r7, #12]
 80013f0:	60b9      	str	r1, [r7, #8]
 80013f2:	607a      	str	r2, [r7, #4]
  MODIFY_REG(((DMA_Stream_TypeDef*)((uint32_t)((uint32_t)DMAx + STREAM_OFFSET_TAB[Stream])))->CR, DMA_SxCR_PINC, IncrementMode);
 80013f4:	4a0d      	ldr	r2, [pc, #52]	; (800142c <LL_DMA_SetPeriphIncMode+0x44>)
 80013f6:	68bb      	ldr	r3, [r7, #8]
 80013f8:	4413      	add	r3, r2
 80013fa:	781b      	ldrb	r3, [r3, #0]
 80013fc:	461a      	mov	r2, r3
 80013fe:	68fb      	ldr	r3, [r7, #12]
 8001400:	4413      	add	r3, r2
 8001402:	681b      	ldr	r3, [r3, #0]
 8001404:	f423 7200 	bic.w	r2, r3, #512	; 0x200
 8001408:	4908      	ldr	r1, [pc, #32]	; (800142c <LL_DMA_SetPeriphIncMode+0x44>)
 800140a:	68bb      	ldr	r3, [r7, #8]
 800140c:	440b      	add	r3, r1
 800140e:	781b      	ldrb	r3, [r3, #0]
 8001410:	4619      	mov	r1, r3
 8001412:	68fb      	ldr	r3, [r7, #12]
 8001414:	440b      	add	r3, r1
 8001416:	4619      	mov	r1, r3
 8001418:	687b      	ldr	r3, [r7, #4]
 800141a:	4313      	orrs	r3, r2
 800141c:	600b      	str	r3, [r1, #0]
}
 800141e:	bf00      	nop
 8001420:	3714      	adds	r7, #20
 8001422:	46bd      	mov	sp, r7
 8001424:	f85d 7b04 	ldr.w	r7, [sp], #4
 8001428:	4770      	bx	lr
 800142a:	bf00      	nop
 800142c:	0800428c 	.word	0x0800428c

08001430 <LL_DMA_SetMemoryIncMode>:
{
 8001430:	b480      	push	{r7}
 8001432:	b085      	sub	sp, #20
 8001434:	af00      	add	r7, sp, #0
 8001436:	60f8      	str	r0, [r7, #12]
 8001438:	60b9      	str	r1, [r7, #8]
 800143a:	607a      	str	r2, [r7, #4]
  MODIFY_REG(((DMA_Stream_TypeDef*)((uint32_t)((uint32_t)DMAx + STREAM_OFFSET_TAB[Stream])))->CR, DMA_SxCR_MINC, IncrementMode);
 800143c:	4a0d      	ldr	r2, [pc, #52]	; (8001474 <LL_DMA_SetMemoryIncMode+0x44>)
 800143e:	68bb      	ldr	r3, [r7, #8]
 8001440:	4413      	add	r3, r2
 8001442:	781b      	ldrb	r3, [r3, #0]
 8001444:	461a      	mov	r2, r3
 8001446:	68fb      	ldr	r3, [r7, #12]
 8001448:	4413      	add	r3, r2
 800144a:	681b      	ldr	r3, [r3, #0]
 800144c:	f423 6280 	bic.w	r2, r3, #1024	; 0x400
 8001450:	4908      	ldr	r1, [pc, #32]	; (8001474 <LL_DMA_SetMemoryIncMode+0x44>)
 8001452:	68bb      	ldr	r3, [r7, #8]
 8001454:	440b      	add	r3, r1
 8001456:	781b      	ldrb	r3, [r3, #0]
 8001458:	4619      	mov	r1, r3
 800145a:	68fb      	ldr	r3, [r7, #12]
 800145c:	440b      	add	r3, r1
 800145e:	4619      	mov	r1, r3
 8001460:	687b      	ldr	r3, [r7, #4]
 8001462:	4313      	orrs	r3, r2
 8001464:	600b      	str	r3, [r1, #0]
}
 8001466:	bf00      	nop
 8001468:	3714      	adds	r7, #20
 800146a:	46bd      	mov	sp, r7
 800146c:	f85d 7b04 	ldr.w	r7, [sp], #4
 8001470:	4770      	bx	lr
 8001472:	bf00      	nop
 8001474:	0800428c 	.word	0x0800428c

08001478 <LL_DMA_SetPeriphSize>:
{
 8001478:	b480      	push	{r7}
 800147a:	b085      	sub	sp, #20
 800147c:	af00      	add	r7, sp, #0
 800147e:	60f8      	str	r0, [r7, #12]
 8001480:	60b9      	str	r1, [r7, #8]
 8001482:	607a      	str	r2, [r7, #4]
  MODIFY_REG(((DMA_Stream_TypeDef*)((uint32_t)((uint32_t)DMAx + STREAM_OFFSET_TAB[Stream])))->CR, DMA_SxCR_PSIZE, Size);
 8001484:	4a0d      	ldr	r2, [pc, #52]	; (80014bc <LL_DMA_SetPeriphSize+0x44>)
 8001486:	68bb      	ldr	r3, [r7, #8]
 8001488:	4413      	add	r3, r2
 800148a:	781b      	ldrb	r3, [r3, #0]
 800148c:	461a      	mov	r2, r3
 800148e:	68fb      	ldr	r3, [r7, #12]
 8001490:	4413      	add	r3, r2
 8001492:	681b      	ldr	r3, [r3, #0]
 8001494:	f423 52c0 	bic.w	r2, r3, #6144	; 0x1800
 8001498:	4908      	ldr	r1, [pc, #32]	; (80014bc <LL_DMA_SetPeriphSize+0x44>)
 800149a:	68bb      	ldr	r3, [r7, #8]
 800149c:	440b      	add	r3, r1
 800149e:	781b      	ldrb	r3, [r3, #0]
 80014a0:	4619      	mov	r1, r3
 80014a2:	68fb      	ldr	r3, [r7, #12]
 80014a4:	440b      	add	r3, r1
 80014a6:	4619      	mov	r1, r3
 80014a8:	687b      	ldr	r3, [r7, #4]
 80014aa:	4313      	orrs	r3, r2
 80014ac:	600b      	str	r3, [r1, #0]
}
 80014ae:	bf00      	nop
 80014b0:	3714      	adds	r7, #20
 80014b2:	46bd      	mov	sp, r7
 80014b4:	f85d 7b04 	ldr.w	r7, [sp], #4
 80014b8:	4770      	bx	lr
 80014ba:	bf00      	nop
 80014bc:	0800428c 	.word	0x0800428c

080014c0 <LL_DMA_SetMemorySize>:
{
 80014c0:	b480      	push	{r7}
 80014c2:	b085      	sub	sp, #20
 80014c4:	af00      	add	r7, sp, #0
 80014c6:	60f8      	str	r0, [r7, #12]
 80014c8:	60b9      	str	r1, [r7, #8]
 80014ca:	607a      	str	r2, [r7, #4]
  MODIFY_REG(((DMA_Stream_TypeDef*)((uint32_t)((uint32_t)DMAx + STREAM_OFFSET_TAB[Stream])))->CR, DMA_SxCR_MSIZE, Size);
 80014cc:	4a0d      	ldr	r2, [pc, #52]	; (8001504 <LL_DMA_SetMemorySize+0x44>)
 80014ce:	68bb      	ldr	r3, [r7, #8]
 80014d0:	4413      	add	r3, r2
 80014d2:	781b      	ldrb	r3, [r3, #0]
 80014d4:	461a      	mov	r2, r3
 80014d6:	68fb      	ldr	r3, [r7, #12]
 80014d8:	4413      	add	r3, r2
 80014da:	681b      	ldr	r3, [r3, #0]
 80014dc:	f423 42c0 	bic.w	r2, r3, #24576	; 0x6000
 80014e0:	4908      	ldr	r1, [pc, #32]	; (8001504 <LL_DMA_SetMemorySize+0x44>)
 80014e2:	68bb      	ldr	r3, [r7, #8]
 80014e4:	440b      	add	r3, r1
 80014e6:	781b      	ldrb	r3, [r3, #0]
 80014e8:	4619      	mov	r1, r3
 80014ea:	68fb      	ldr	r3, [r7, #12]
 80014ec:	440b      	add	r3, r1
 80014ee:	4619      	mov	r1, r3
 80014f0:	687b      	ldr	r3, [r7, #4]
 80014f2:	4313      	orrs	r3, r2
 80014f4:	600b      	str	r3, [r1, #0]
}
 80014f6:	bf00      	nop
 80014f8:	3714      	adds	r7, #20
 80014fa:	46bd      	mov	sp, r7
 80014fc:	f85d 7b04 	ldr.w	r7, [sp], #4
 8001500:	4770      	bx	lr
 8001502:	bf00      	nop
 8001504:	0800428c 	.word	0x0800428c

08001508 <LL_DMA_SetStreamPriorityLevel>:
{
 8001508:	b480      	push	{r7}
 800150a:	b085      	sub	sp, #20
 800150c:	af00      	add	r7, sp, #0
 800150e:	60f8      	str	r0, [r7, #12]
 8001510:	60b9      	str	r1, [r7, #8]
 8001512:	607a      	str	r2, [r7, #4]
  MODIFY_REG(((DMA_Stream_TypeDef*)((uint32_t)((uint32_t)DMAx + STREAM_OFFSET_TAB[Stream])))->CR, DMA_SxCR_PL, Priority);
 8001514:	4a0d      	ldr	r2, [pc, #52]	; (800154c <LL_DMA_SetStreamPriorityLevel+0x44>)
 8001516:	68bb      	ldr	r3, [r7, #8]
 8001518:	4413      	add	r3, r2
 800151a:	781b      	ldrb	r3, [r3, #0]
 800151c:	461a      	mov	r2, r3
 800151e:	68fb      	ldr	r3, [r7, #12]
 8001520:	4413      	add	r3, r2
 8001522:	681b      	ldr	r3, [r3, #0]
 8001524:	f423 3240 	bic.w	r2, r3, #196608	; 0x30000
 8001528:	4908      	ldr	r1, [pc, #32]	; (800154c <LL_DMA_SetStreamPriorityLevel+0x44>)
 800152a:	68bb      	ldr	r3, [r7, #8]
 800152c:	440b      	add	r3, r1
 800152e:	781b      	ldrb	r3, [r3, #0]
 8001530:	4619      	mov	r1, r3
 8001532:	68fb      	ldr	r3, [r7, #12]
 8001534:	440b      	add	r3, r1
 8001536:	4619      	mov	r1, r3
 8001538:	687b      	ldr	r3, [r7, #4]
 800153a:	4313      	orrs	r3, r2
 800153c:	600b      	str	r3, [r1, #0]
}
 800153e:	bf00      	nop
 8001540:	3714      	adds	r7, #20
 8001542:	46bd      	mov	sp, r7
 8001544:	f85d 7b04 	ldr.w	r7, [sp], #4
 8001548:	4770      	bx	lr
 800154a:	bf00      	nop
 800154c:	0800428c 	.word	0x0800428c

08001550 <LL_DMA_SetDataLength>:
{
 8001550:	b480      	push	{r7}
 8001552:	b085      	sub	sp, #20
 8001554:	af00      	add	r7, sp, #0
 8001556:	60f8      	str	r0, [r7, #12]
 8001558:	60b9      	str	r1, [r7, #8]
 800155a:	607a      	str	r2, [r7, #4]
  MODIFY_REG(((DMA_Stream_TypeDef*)((uint32_t)((uint32_t)DMAx + STREAM_OFFSET_TAB[Stream])))->NDTR, DMA_SxNDT, NbData);
 800155c:	4a0d      	ldr	r2, [pc, #52]	; (8001594 <LL_DMA_SetDataLength+0x44>)
 800155e:	68bb      	ldr	r3, [r7, #8]
 8001560:	4413      	add	r3, r2
 8001562:	781b      	ldrb	r3, [r3, #0]
 8001564:	461a      	mov	r2, r3
 8001566:	68fb      	ldr	r3, [r7, #12]
 8001568:	4413      	add	r3, r2
 800156a:	685b      	ldr	r3, [r3, #4]
 800156c:	0c1b      	lsrs	r3, r3, #16
 800156e:	041b      	lsls	r3, r3, #16
 8001570:	4908      	ldr	r1, [pc, #32]	; (8001594 <LL_DMA_SetDataLength+0x44>)
 8001572:	68ba      	ldr	r2, [r7, #8]
 8001574:	440a      	add	r2, r1
 8001576:	7812      	ldrb	r2, [r2, #0]
 8001578:	4611      	mov	r1, r2
 800157a:	68fa      	ldr	r2, [r7, #12]
 800157c:	440a      	add	r2, r1
 800157e:	4611      	mov	r1, r2
 8001580:	687a      	ldr	r2, [r7, #4]
 8001582:	4313      	orrs	r3, r2
 8001584:	604b      	str	r3, [r1, #4]
}
 8001586:	bf00      	nop
 8001588:	3714      	adds	r7, #20
 800158a:	46bd      	mov	sp, r7
 800158c:	f85d 7b04 	ldr.w	r7, [sp], #4
 8001590:	4770      	bx	lr
 8001592:	bf00      	nop
 8001594:	0800428c 	.word	0x0800428c

08001598 <LL_DMA_SetChannelSelection>:
{
 8001598:	b480      	push	{r7}
 800159a:	b085      	sub	sp, #20
 800159c:	af00      	add	r7, sp, #0
 800159e:	60f8      	str	r0, [r7, #12]
 80015a0:	60b9      	str	r1, [r7, #8]
 80015a2:	607a      	str	r2, [r7, #4]
  MODIFY_REG(((DMA_Stream_TypeDef*)((uint32_t)((uint32_t)DMAx + STREAM_OFFSET_TAB[Stream])))->CR, DMA_SxCR_CHSEL, Channel);
 80015a4:	4a0d      	ldr	r2, [pc, #52]	; (80015dc <LL_DMA_SetChannelSelection+0x44>)
 80015a6:	68bb      	ldr	r3, [r7, #8]
 80015a8:	4413      	add	r3, r2
 80015aa:	781b      	ldrb	r3, [r3, #0]
 80015ac:	461a      	mov	r2, r3
 80015ae:	68fb      	ldr	r3, [r7, #12]
 80015b0:	4413      	add	r3, r2
 80015b2:	681b      	ldr	r3, [r3, #0]
 80015b4:	f023 6260 	bic.w	r2, r3, #234881024	; 0xe000000
 80015b8:	4908      	ldr	r1, [pc, #32]	; (80015dc <LL_DMA_SetChannelSelection+0x44>)
 80015ba:	68bb      	ldr	r3, [r7, #8]
 80015bc:	440b      	add	r3, r1
 80015be:	781b      	ldrb	r3, [r3, #0]
 80015c0:	4619      	mov	r1, r3
 80015c2:	68fb      	ldr	r3, [r7, #12]
 80015c4:	440b      	add	r3, r1
 80015c6:	4619      	mov	r1, r3
 80015c8:	687b      	ldr	r3, [r7, #4]
 80015ca:	4313      	orrs	r3, r2
 80015cc:	600b      	str	r3, [r1, #0]
}
 80015ce:	bf00      	nop
 80015d0:	3714      	adds	r7, #20
 80015d2:	46bd      	mov	sp, r7
 80015d4:	f85d 7b04 	ldr.w	r7, [sp], #4
 80015d8:	4770      	bx	lr
 80015da:	bf00      	nop
 80015dc:	0800428c 	.word	0x0800428c

080015e0 <LL_DMA_DisableFifoMode>:
{
 80015e0:	b480      	push	{r7}
 80015e2:	b083      	sub	sp, #12
 80015e4:	af00      	add	r7, sp, #0
 80015e6:	6078      	str	r0, [r7, #4]
 80015e8:	6039      	str	r1, [r7, #0]
  CLEAR_BIT(((DMA_Stream_TypeDef *)((uint32_t)((uint32_t)DMAx + STREAM_OFFSET_TAB[Stream])))->FCR, DMA_SxFCR_DMDIS);
 80015ea:	4a0c      	ldr	r2, [pc, #48]	; (800161c <LL_DMA_DisableFifoMode+0x3c>)
 80015ec:	683b      	ldr	r3, [r7, #0]
 80015ee:	4413      	add	r3, r2
 80015f0:	781b      	ldrb	r3, [r3, #0]
 80015f2:	461a      	mov	r2, r3
 80015f4:	687b      	ldr	r3, [r7, #4]
 80015f6:	4413      	add	r3, r2
 80015f8:	695b      	ldr	r3, [r3, #20]
 80015fa:	4908      	ldr	r1, [pc, #32]	; (800161c <LL_DMA_DisableFifoMode+0x3c>)
 80015fc:	683a      	ldr	r2, [r7, #0]
 80015fe:	440a      	add	r2, r1
 8001600:	7812      	ldrb	r2, [r2, #0]
 8001602:	4611      	mov	r1, r2
 8001604:	687a      	ldr	r2, [r7, #4]
 8001606:	440a      	add	r2, r1
 8001608:	f023 0304 	bic.w	r3, r3, #4
 800160c:	6153      	str	r3, [r2, #20]
}
 800160e:	bf00      	nop
 8001610:	370c      	adds	r7, #12
 8001612:	46bd      	mov	sp, r7
 8001614:	f85d 7b04 	ldr.w	r7, [sp], #4
 8001618:	4770      	bx	lr
 800161a:	bf00      	nop
 800161c:	0800428c 	.word	0x0800428c

08001620 <LL_DMA_ConfigAddresses>:
{
 8001620:	b480      	push	{r7}
 8001622:	b085      	sub	sp, #20
 8001624:	af00      	add	r7, sp, #0
 8001626:	60f8      	str	r0, [r7, #12]
 8001628:	60b9      	str	r1, [r7, #8]
 800162a:	607a      	str	r2, [r7, #4]
 800162c:	603b      	str	r3, [r7, #0]
  if (Direction == LL_DMA_DIRECTION_MEMORY_TO_PERIPH)
 800162e:	69bb      	ldr	r3, [r7, #24]
 8001630:	2b40      	cmp	r3, #64	; 0x40
 8001632:	d114      	bne.n	800165e <LL_DMA_ConfigAddresses+0x3e>
    WRITE_REG(((DMA_Stream_TypeDef*)((uint32_t)((uint32_t)DMAx + STREAM_OFFSET_TAB[Stream])))->M0AR, SrcAddress);
 8001634:	4a17      	ldr	r2, [pc, #92]	; (8001694 <LL_DMA_ConfigAddresses+0x74>)
 8001636:	68bb      	ldr	r3, [r7, #8]
 8001638:	4413      	add	r3, r2
 800163a:	781b      	ldrb	r3, [r3, #0]
 800163c:	461a      	mov	r2, r3
 800163e:	68fb      	ldr	r3, [r7, #12]
 8001640:	4413      	add	r3, r2
 8001642:	461a      	mov	r2, r3
 8001644:	687b      	ldr	r3, [r7, #4]
 8001646:	60d3      	str	r3, [r2, #12]
    WRITE_REG(((DMA_Stream_TypeDef*)((uint32_t)((uint32_t)DMAx + STREAM_OFFSET_TAB[Stream])))->PAR, DstAddress);
 8001648:	4a12      	ldr	r2, [pc, #72]	; (8001694 <LL_DMA_ConfigAddresses+0x74>)
 800164a:	68bb      	ldr	r3, [r7, #8]
 800164c:	4413      	add	r3, r2
 800164e:	781b      	ldrb	r3, [r3, #0]
 8001650:	461a      	mov	r2, r3
 8001652:	68fb      	ldr	r3, [r7, #12]
 8001654:	4413      	add	r3, r2
 8001656:	461a      	mov	r2, r3
 8001658:	683b      	ldr	r3, [r7, #0]
 800165a:	6093      	str	r3, [r2, #8]
}
 800165c:	e013      	b.n	8001686 <LL_DMA_ConfigAddresses+0x66>
    WRITE_REG(((DMA_Stream_TypeDef*)((uint32_t)((uint32_t)DMAx + STREAM_OFFSET_TAB[Stream])))->PAR, SrcAddress);
 800165e:	4a0d      	ldr	r2, [pc, #52]	; (8001694 <LL_DMA_ConfigAddresses+0x74>)
 8001660:	68bb      	ldr	r3, [r7, #8]
 8001662:	4413      	add	r3, r2
 8001664:	781b      	ldrb	r3, [r3, #0]
 8001666:	461a      	mov	r2, r3
 8001668:	68fb      	ldr	r3, [r7, #12]
 800166a:	4413      	add	r3, r2
 800166c:	461a      	mov	r2, r3
 800166e:	687b      	ldr	r3, [r7, #4]
 8001670:	6093      	str	r3, [r2, #8]
    WRITE_REG(((DMA_Stream_TypeDef*)((uint32_t)((uint32_t)DMAx + STREAM_OFFSET_TAB[Stream])))->M0AR, DstAddress);
 8001672:	4a08      	ldr	r2, [pc, #32]	; (8001694 <LL_DMA_ConfigAddresses+0x74>)
 8001674:	68bb      	ldr	r3, [r7, #8]
 8001676:	4413      	add	r3, r2
 8001678:	781b      	ldrb	r3, [r3, #0]
 800167a:	461a      	mov	r2, r3
 800167c:	68fb      	ldr	r3, [r7, #12]
 800167e:	4413      	add	r3, r2
 8001680:	461a      	mov	r2, r3
 8001682:	683b      	ldr	r3, [r7, #0]
 8001684:	60d3      	str	r3, [r2, #12]
}
 8001686:	bf00      	nop
 8001688:	3714      	adds	r7, #20
 800168a:	46bd      	mov	sp, r7
 800168c:	f85d 7b04 	ldr.w	r7, [sp], #4
 8001690:	4770      	bx	lr
 8001692:	bf00      	nop
 8001694:	0800428c 	.word	0x0800428c

08001698 <LL_DMA_EnableIT_TE>:
  *         @arg @ref LL_DMA_STREAM_6
  *         @arg @ref LL_DMA_STREAM_7
  * @retval None
  */
__STATIC_INLINE void LL_DMA_EnableIT_TE(DMA_TypeDef *DMAx, uint32_t Stream)
{
 8001698:	b480      	push	{r7}
 800169a:	b083      	sub	sp, #12
 800169c:	af00      	add	r7, sp, #0
 800169e:	6078      	str	r0, [r7, #4]
 80016a0:	6039      	str	r1, [r7, #0]
  SET_BIT(((DMA_Stream_TypeDef *)((uint32_t)((uint32_t)DMAx + STREAM_OFFSET_TAB[Stream])))->CR, DMA_SxCR_TEIE);
 80016a2:	4a0c      	ldr	r2, [pc, #48]	; (80016d4 <LL_DMA_EnableIT_TE+0x3c>)
 80016a4:	683b      	ldr	r3, [r7, #0]
 80016a6:	4413      	add	r3, r2
 80016a8:	781b      	ldrb	r3, [r3, #0]
 80016aa:	461a      	mov	r2, r3
 80016ac:	687b      	ldr	r3, [r7, #4]
 80016ae:	4413      	add	r3, r2
 80016b0:	681b      	ldr	r3, [r3, #0]
 80016b2:	4908      	ldr	r1, [pc, #32]	; (80016d4 <LL_DMA_EnableIT_TE+0x3c>)
 80016b4:	683a      	ldr	r2, [r7, #0]
 80016b6:	440a      	add	r2, r1
 80016b8:	7812      	ldrb	r2, [r2, #0]
 80016ba:	4611      	mov	r1, r2
 80016bc:	687a      	ldr	r2, [r7, #4]
 80016be:	440a      	add	r2, r1
 80016c0:	f043 0304 	orr.w	r3, r3, #4
 80016c4:	6013      	str	r3, [r2, #0]
}
 80016c6:	bf00      	nop
 80016c8:	370c      	adds	r7, #12
 80016ca:	46bd      	mov	sp, r7
 80016cc:	f85d 7b04 	ldr.w	r7, [sp], #4
 80016d0:	4770      	bx	lr
 80016d2:	bf00      	nop
 80016d4:	0800428c 	.word	0x0800428c

080016d8 <LL_DMA_EnableIT_TC>:
  *         @arg @ref LL_DMA_STREAM_6
  *         @arg @ref LL_DMA_STREAM_7
  * @retval None
  */
__STATIC_INLINE void LL_DMA_EnableIT_TC(DMA_TypeDef *DMAx, uint32_t Stream)
{
 80016d8:	b480      	push	{r7}
 80016da:	b083      	sub	sp, #12
 80016dc:	af00      	add	r7, sp, #0
 80016de:	6078      	str	r0, [r7, #4]
 80016e0:	6039      	str	r1, [r7, #0]
  SET_BIT(((DMA_Stream_TypeDef *)((uint32_t)((uint32_t)DMAx + STREAM_OFFSET_TAB[Stream])))->CR, DMA_SxCR_TCIE);
 80016e2:	4a0c      	ldr	r2, [pc, #48]	; (8001714 <LL_DMA_EnableIT_TC+0x3c>)
 80016e4:	683b      	ldr	r3, [r7, #0]
 80016e6:	4413      	add	r3, r2
 80016e8:	781b      	ldrb	r3, [r3, #0]
 80016ea:	461a      	mov	r2, r3
 80016ec:	687b      	ldr	r3, [r7, #4]
 80016ee:	4413      	add	r3, r2
 80016f0:	681b      	ldr	r3, [r3, #0]
 80016f2:	4908      	ldr	r1, [pc, #32]	; (8001714 <LL_DMA_EnableIT_TC+0x3c>)
 80016f4:	683a      	ldr	r2, [r7, #0]
 80016f6:	440a      	add	r2, r1
 80016f8:	7812      	ldrb	r2, [r2, #0]
 80016fa:	4611      	mov	r1, r2
 80016fc:	687a      	ldr	r2, [r7, #4]
 80016fe:	440a      	add	r2, r1
 8001700:	f043 0310 	orr.w	r3, r3, #16
 8001704:	6013      	str	r3, [r2, #0]
}
 8001706:	bf00      	nop
 8001708:	370c      	adds	r7, #12
 800170a:	46bd      	mov	sp, r7
 800170c:	f85d 7b04 	ldr.w	r7, [sp], #4
 8001710:	4770      	bx	lr
 8001712:	bf00      	nop
 8001714:	0800428c 	.word	0x0800428c

08001718 <LL_IWDG_Enable>:
  * @rmtoll KR           KEY           LL_IWDG_Enable
  * @param  IWDGx IWDG Instance
  * @retval None
  */
__STATIC_INLINE void LL_IWDG_Enable(IWDG_TypeDef *IWDGx)
{
 8001718:	b480      	push	{r7}
 800171a:	b083      	sub	sp, #12
 800171c:	af00      	add	r7, sp, #0
 800171e:	6078      	str	r0, [r7, #4]
  WRITE_REG(IWDGx->KR, LL_IWDG_KEY_ENABLE);
 8001720:	687b      	ldr	r3, [r7, #4]
 8001722:	f64c 42cc 	movw	r2, #52428	; 0xcccc
 8001726:	601a      	str	r2, [r3, #0]
}
 8001728:	bf00      	nop
 800172a:	370c      	adds	r7, #12
 800172c:	46bd      	mov	sp, r7
 800172e:	f85d 7b04 	ldr.w	r7, [sp], #4
 8001732:	4770      	bx	lr

08001734 <LL_IWDG_ReloadCounter>:
  * @rmtoll KR           KEY           LL_IWDG_ReloadCounter
  * @param  IWDGx IWDG Instance
  * @retval None
  */
__STATIC_INLINE void LL_IWDG_ReloadCounter(IWDG_TypeDef *IWDGx)
{
 8001734:	b480      	push	{r7}
 8001736:	b083      	sub	sp, #12
 8001738:	af00      	add	r7, sp, #0
 800173a:	6078      	str	r0, [r7, #4]
  WRITE_REG(IWDGx->KR, LL_IWDG_KEY_RELOAD);
 800173c:	687b      	ldr	r3, [r7, #4]
 800173e:	f64a 22aa 	movw	r2, #43690	; 0xaaaa
 8001742:	601a      	str	r2, [r3, #0]
}
 8001744:	bf00      	nop
 8001746:	370c      	adds	r7, #12
 8001748:	46bd      	mov	sp, r7
 800174a:	f85d 7b04 	ldr.w	r7, [sp], #4
 800174e:	4770      	bx	lr

08001750 <LL_IWDG_EnableWriteAccess>:
  * @rmtoll KR           KEY           LL_IWDG_EnableWriteAccess
  * @param  IWDGx IWDG Instance
  * @retval None
  */
__STATIC_INLINE void LL_IWDG_EnableWriteAccess(IWDG_TypeDef *IWDGx)
{
 8001750:	b480      	push	{r7}
 8001752:	b083      	sub	sp, #12
 8001754:	af00      	add	r7, sp, #0
 8001756:	6078      	str	r0, [r7, #4]
  WRITE_REG(IWDGx->KR, LL_IWDG_KEY_WR_ACCESS_ENABLE);
 8001758:	687b      	ldr	r3, [r7, #4]
 800175a:	f245 5255 	movw	r2, #21845	; 0x5555
 800175e:	601a      	str	r2, [r3, #0]
}
 8001760:	bf00      	nop
 8001762:	370c      	adds	r7, #12
 8001764:	46bd      	mov	sp, r7
 8001766:	f85d 7b04 	ldr.w	r7, [sp], #4
 800176a:	4770      	bx	lr

0800176c <LL_IWDG_SetPrescaler>:
  *         @arg @ref LL_IWDG_PRESCALER_128
  *         @arg @ref LL_IWDG_PRESCALER_256
  * @retval None
  */
__STATIC_INLINE void LL_IWDG_SetPrescaler(IWDG_TypeDef *IWDGx, uint32_t Prescaler)
{
 800176c:	b480      	push	{r7}
 800176e:	b083      	sub	sp, #12
 8001770:	af00      	add	r7, sp, #0
 8001772:	6078      	str	r0, [r7, #4]
 8001774:	6039      	str	r1, [r7, #0]
  WRITE_REG(IWDGx->PR, IWDG_PR_PR & Prescaler);
 8001776:	683b      	ldr	r3, [r7, #0]
 8001778:	f003 0207 	and.w	r2, r3, #7
 800177c:	687b      	ldr	r3, [r7, #4]
 800177e:	605a      	str	r2, [r3, #4]
}
 8001780:	bf00      	nop
 8001782:	370c      	adds	r7, #12
 8001784:	46bd      	mov	sp, r7
 8001786:	f85d 7b04 	ldr.w	r7, [sp], #4
 800178a:	4770      	bx	lr

0800178c <LL_IWDG_SetReloadCounter>:
  * @param  IWDGx IWDG Instance
  * @param  Counter Value between Min_Data=0 and Max_Data=0x0FFF
  * @retval None
  */
__STATIC_INLINE void LL_IWDG_SetReloadCounter(IWDG_TypeDef *IWDGx, uint32_t Counter)
{
 800178c:	b480      	push	{r7}
 800178e:	b083      	sub	sp, #12
 8001790:	af00      	add	r7, sp, #0
 8001792:	6078      	str	r0, [r7, #4]
 8001794:	6039      	str	r1, [r7, #0]
  WRITE_REG(IWDGx->RLR, IWDG_RLR_RL & Counter);
 8001796:	683b      	ldr	r3, [r7, #0]
 8001798:	f3c3 020b 	ubfx	r2, r3, #0, #12
 800179c:	687b      	ldr	r3, [r7, #4]
 800179e:	609a      	str	r2, [r3, #8]
}
 80017a0:	bf00      	nop
 80017a2:	370c      	adds	r7, #12
 80017a4:	46bd      	mov	sp, r7
 80017a6:	f85d 7b04 	ldr.w	r7, [sp], #4
 80017aa:	4770      	bx	lr

080017ac <LL_IWDG_IsReady>:
  *         SR           RVU           LL_IWDG_IsReady
  * @param  IWDGx IWDG Instance
  * @retval State of bits (1 or 0).
  */
__STATIC_INLINE uint32_t LL_IWDG_IsReady(IWDG_TypeDef *IWDGx)
{
 80017ac:	b480      	push	{r7}
 80017ae:	b083      	sub	sp, #12
 80017b0:	af00      	add	r7, sp, #0
 80017b2:	6078      	str	r0, [r7, #4]
  return ((READ_BIT(IWDGx->SR, IWDG_SR_PVU | IWDG_SR_RVU) == 0U) ? 1UL : 0UL);
 80017b4:	687b      	ldr	r3, [r7, #4]
 80017b6:	68db      	ldr	r3, [r3, #12]
 80017b8:	f003 0303 	and.w	r3, r3, #3
 80017bc:	2b00      	cmp	r3, #0
 80017be:	d101      	bne.n	80017c4 <LL_IWDG_IsReady+0x18>
 80017c0:	2301      	movs	r3, #1
 80017c2:	e000      	b.n	80017c6 <LL_IWDG_IsReady+0x1a>
 80017c4:	2300      	movs	r3, #0
}
 80017c6:	4618      	mov	r0, r3
 80017c8:	370c      	adds	r7, #12
 80017ca:	46bd      	mov	sp, r7
 80017cc:	f85d 7b04 	ldr.w	r7, [sp], #4
 80017d0:	4770      	bx	lr

080017d2 <LL_RTC_SetAsynchPrescaler>:
  * @param  RTCx RTC Instance
  * @param  AsynchPrescaler Value between Min_Data = 0 and Max_Data = 0x7F
  * @retval None
  */
__STATIC_INLINE void LL_RTC_SetAsynchPrescaler(RTC_TypeDef *RTCx, uint32_t AsynchPrescaler)
{
 80017d2:	b480      	push	{r7}
 80017d4:	b083      	sub	sp, #12
 80017d6:	af00      	add	r7, sp, #0
 80017d8:	6078      	str	r0, [r7, #4]
 80017da:	6039      	str	r1, [r7, #0]
  MODIFY_REG(RTCx->PRER, RTC_PRER_PREDIV_A, AsynchPrescaler << RTC_PRER_PREDIV_A_Pos);
 80017dc:	687b      	ldr	r3, [r7, #4]
 80017de:	691b      	ldr	r3, [r3, #16]
 80017e0:	f423 02fe 	bic.w	r2, r3, #8323072	; 0x7f0000
 80017e4:	683b      	ldr	r3, [r7, #0]
 80017e6:	041b      	lsls	r3, r3, #16
 80017e8:	431a      	orrs	r2, r3
 80017ea:	687b      	ldr	r3, [r7, #4]
 80017ec:	611a      	str	r2, [r3, #16]
}
 80017ee:	bf00      	nop
 80017f0:	370c      	adds	r7, #12
 80017f2:	46bd      	mov	sp, r7
 80017f4:	f85d 7b04 	ldr.w	r7, [sp], #4
 80017f8:	4770      	bx	lr

080017fa <LL_RTC_SetSynchPrescaler>:
  * @param  RTCx RTC Instance
  * @param  SynchPrescaler Value between Min_Data = 0 and Max_Data = 0x7FFF
  * @retval None
  */
__STATIC_INLINE void LL_RTC_SetSynchPrescaler(RTC_TypeDef *RTCx, uint32_t SynchPrescaler)
{
 80017fa:	b480      	push	{r7}
 80017fc:	b083      	sub	sp, #12
 80017fe:	af00      	add	r7, sp, #0
 8001800:	6078      	str	r0, [r7, #4]
 8001802:	6039      	str	r1, [r7, #0]
  MODIFY_REG(RTCx->PRER, RTC_PRER_PREDIV_S, SynchPrescaler);
 8001804:	687b      	ldr	r3, [r7, #4]
 8001806:	691b      	ldr	r3, [r3, #16]
 8001808:	f423 43ff 	bic.w	r3, r3, #32640	; 0x7f80
 800180c:	f023 037f 	bic.w	r3, r3, #127	; 0x7f
 8001810:	683a      	ldr	r2, [r7, #0]
 8001812:	431a      	orrs	r2, r3
 8001814:	687b      	ldr	r3, [r7, #4]
 8001816:	611a      	str	r2, [r3, #16]
}
 8001818:	bf00      	nop
 800181a:	370c      	adds	r7, #12
 800181c:	46bd      	mov	sp, r7
 800181e:	f85d 7b04 	ldr.w	r7, [sp], #4
 8001822:	4770      	bx	lr

08001824 <LL_SPI_SetStandard>:
{
 8001824:	b480      	push	{r7}
 8001826:	b083      	sub	sp, #12
 8001828:	af00      	add	r7, sp, #0
 800182a:	6078      	str	r0, [r7, #4]
 800182c:	6039      	str	r1, [r7, #0]
  MODIFY_REG(SPIx->CR2, SPI_CR2_FRF, Standard);
 800182e:	687b      	ldr	r3, [r7, #4]
 8001830:	685b      	ldr	r3, [r3, #4]
 8001832:	f023 0210 	bic.w	r2, r3, #16
 8001836:	683b      	ldr	r3, [r7, #0]
 8001838:	431a      	orrs	r2, r3
 800183a:	687b      	ldr	r3, [r7, #4]
 800183c:	605a      	str	r2, [r3, #4]
}
 800183e:	bf00      	nop
 8001840:	370c      	adds	r7, #12
 8001842:	46bd      	mov	sp, r7
 8001844:	f85d 7b04 	ldr.w	r7, [sp], #4
 8001848:	4770      	bx	lr

0800184a <LL_SPI_EnableDMAReq_RX>:
{
 800184a:	b480      	push	{r7}
 800184c:	b083      	sub	sp, #12
 800184e:	af00      	add	r7, sp, #0
 8001850:	6078      	str	r0, [r7, #4]
  SET_BIT(SPIx->CR2, SPI_CR2_RXDMAEN);
 8001852:	687b      	ldr	r3, [r7, #4]
 8001854:	685b      	ldr	r3, [r3, #4]
 8001856:	f043 0201 	orr.w	r2, r3, #1
 800185a:	687b      	ldr	r3, [r7, #4]
 800185c:	605a      	str	r2, [r3, #4]
}
 800185e:	bf00      	nop
 8001860:	370c      	adds	r7, #12
 8001862:	46bd      	mov	sp, r7
 8001864:	f85d 7b04 	ldr.w	r7, [sp], #4
 8001868:	4770      	bx	lr

0800186a <LL_SPI_EnableDMAReq_TX>:
{
 800186a:	b480      	push	{r7}
 800186c:	b083      	sub	sp, #12
 800186e:	af00      	add	r7, sp, #0
 8001870:	6078      	str	r0, [r7, #4]
  SET_BIT(SPIx->CR2, SPI_CR2_TXDMAEN);
 8001872:	687b      	ldr	r3, [r7, #4]
 8001874:	685b      	ldr	r3, [r3, #4]
 8001876:	f043 0202 	orr.w	r2, r3, #2
 800187a:	687b      	ldr	r3, [r7, #4]
 800187c:	605a      	str	r2, [r3, #4]
}
 800187e:	bf00      	nop
 8001880:	370c      	adds	r7, #12
 8001882:	46bd      	mov	sp, r7
 8001884:	f85d 7b04 	ldr.w	r7, [sp], #4
 8001888:	4770      	bx	lr

0800188a <LL_SPI_DMA_GetRegAddr>:
{
 800188a:	b480      	push	{r7}
 800188c:	b083      	sub	sp, #12
 800188e:	af00      	add	r7, sp, #0
 8001890:	6078      	str	r0, [r7, #4]
  return (uint32_t) &(SPIx->DR);
 8001892:	687b      	ldr	r3, [r7, #4]
 8001894:	330c      	adds	r3, #12
}
 8001896:	4618      	mov	r0, r3
 8001898:	370c      	adds	r7, #12
 800189a:	46bd      	mov	sp, r7
 800189c:	f85d 7b04 	ldr.w	r7, [sp], #4
 80018a0:	4770      	bx	lr

080018a2 <LL_TIM_EnableCounter>:
{
 80018a2:	b480      	push	{r7}
 80018a4:	b083      	sub	sp, #12
 80018a6:	af00      	add	r7, sp, #0
 80018a8:	6078      	str	r0, [r7, #4]
  SET_BIT(TIMx->CR1, TIM_CR1_CEN);
 80018aa:	687b      	ldr	r3, [r7, #4]
 80018ac:	681b      	ldr	r3, [r3, #0]
 80018ae:	f043 0201 	orr.w	r2, r3, #1
 80018b2:	687b      	ldr	r3, [r7, #4]
 80018b4:	601a      	str	r2, [r3, #0]
}
 80018b6:	bf00      	nop
 80018b8:	370c      	adds	r7, #12
 80018ba:	46bd      	mov	sp, r7
 80018bc:	f85d 7b04 	ldr.w	r7, [sp], #4
 80018c0:	4770      	bx	lr

080018c2 <LL_TIM_DisableARRPreload>:
{
 80018c2:	b480      	push	{r7}
 80018c4:	b083      	sub	sp, #12
 80018c6:	af00      	add	r7, sp, #0
 80018c8:	6078      	str	r0, [r7, #4]
  CLEAR_BIT(TIMx->CR1, TIM_CR1_ARPE);
 80018ca:	687b      	ldr	r3, [r7, #4]
 80018cc:	681b      	ldr	r3, [r3, #0]
 80018ce:	f023 0280 	bic.w	r2, r3, #128	; 0x80
 80018d2:	687b      	ldr	r3, [r7, #4]
 80018d4:	601a      	str	r2, [r3, #0]
}
 80018d6:	bf00      	nop
 80018d8:	370c      	adds	r7, #12
 80018da:	46bd      	mov	sp, r7
 80018dc:	f85d 7b04 	ldr.w	r7, [sp], #4
 80018e0:	4770      	bx	lr

080018e2 <LL_TIM_SetCounter>:
{
 80018e2:	b480      	push	{r7}
 80018e4:	b083      	sub	sp, #12
 80018e6:	af00      	add	r7, sp, #0
 80018e8:	6078      	str	r0, [r7, #4]
 80018ea:	6039      	str	r1, [r7, #0]
  WRITE_REG(TIMx->CNT, Counter);
 80018ec:	687b      	ldr	r3, [r7, #4]
 80018ee:	683a      	ldr	r2, [r7, #0]
 80018f0:	625a      	str	r2, [r3, #36]	; 0x24
}
 80018f2:	bf00      	nop
 80018f4:	370c      	adds	r7, #12
 80018f6:	46bd      	mov	sp, r7
 80018f8:	f85d 7b04 	ldr.w	r7, [sp], #4
 80018fc:	4770      	bx	lr

080018fe <LL_TIM_SetClockSource>:
  *         @arg @ref LL_TIM_CLOCKSOURCE_EXT_MODE1
  *         @arg @ref LL_TIM_CLOCKSOURCE_EXT_MODE2
  * @retval None
  */
__STATIC_INLINE void LL_TIM_SetClockSource(TIM_TypeDef *TIMx, uint32_t ClockSource)
{
 80018fe:	b480      	push	{r7}
 8001900:	b083      	sub	sp, #12
 8001902:	af00      	add	r7, sp, #0
 8001904:	6078      	str	r0, [r7, #4]
 8001906:	6039      	str	r1, [r7, #0]
  MODIFY_REG(TIMx->SMCR, TIM_SMCR_SMS | TIM_SMCR_ECE, ClockSource);
 8001908:	687b      	ldr	r3, [r7, #4]
 800190a:	689b      	ldr	r3, [r3, #8]
 800190c:	f423 4380 	bic.w	r3, r3, #16384	; 0x4000
 8001910:	f023 0307 	bic.w	r3, r3, #7
 8001914:	683a      	ldr	r2, [r7, #0]
 8001916:	431a      	orrs	r2, r3
 8001918:	687b      	ldr	r3, [r7, #4]
 800191a:	609a      	str	r2, [r3, #8]
}
 800191c:	bf00      	nop
 800191e:	370c      	adds	r7, #12
 8001920:	46bd      	mov	sp, r7
 8001922:	f85d 7b04 	ldr.w	r7, [sp], #4
 8001926:	4770      	bx	lr

08001928 <LL_TIM_SetTriggerOutput>:
  *         @arg @ref LL_TIM_TRGO_OC3REF
  *         @arg @ref LL_TIM_TRGO_OC4REF
  * @retval None
  */
__STATIC_INLINE void LL_TIM_SetTriggerOutput(TIM_TypeDef *TIMx, uint32_t TimerSynchronization)
{
 8001928:	b480      	push	{r7}
 800192a:	b083      	sub	sp, #12
 800192c:	af00      	add	r7, sp, #0
 800192e:	6078      	str	r0, [r7, #4]
 8001930:	6039      	str	r1, [r7, #0]
  MODIFY_REG(TIMx->CR2, TIM_CR2_MMS, TimerSynchronization);
 8001932:	687b      	ldr	r3, [r7, #4]
 8001934:	685b      	ldr	r3, [r3, #4]
 8001936:	f023 0270 	bic.w	r2, r3, #112	; 0x70
 800193a:	683b      	ldr	r3, [r7, #0]
 800193c:	431a      	orrs	r2, r3
 800193e:	687b      	ldr	r3, [r7, #4]
 8001940:	605a      	str	r2, [r3, #4]
}
 8001942:	bf00      	nop
 8001944:	370c      	adds	r7, #12
 8001946:	46bd      	mov	sp, r7
 8001948:	f85d 7b04 	ldr.w	r7, [sp], #4
 800194c:	4770      	bx	lr

0800194e <LL_TIM_DisableMasterSlaveMode>:
  * @rmtoll SMCR         MSM           LL_TIM_DisableMasterSlaveMode
  * @param  TIMx Timer instance
  * @retval None
  */
__STATIC_INLINE void LL_TIM_DisableMasterSlaveMode(TIM_TypeDef *TIMx)
{
 800194e:	b480      	push	{r7}
 8001950:	b083      	sub	sp, #12
 8001952:	af00      	add	r7, sp, #0
 8001954:	6078      	str	r0, [r7, #4]
  CLEAR_BIT(TIMx->SMCR, TIM_SMCR_MSM);
 8001956:	687b      	ldr	r3, [r7, #4]
 8001958:	689b      	ldr	r3, [r3, #8]
 800195a:	f023 0280 	bic.w	r2, r3, #128	; 0x80
 800195e:	687b      	ldr	r3, [r7, #4]
 8001960:	609a      	str	r2, [r3, #8]
}
 8001962:	bf00      	nop
 8001964:	370c      	adds	r7, #12
 8001966:	46bd      	mov	sp, r7
 8001968:	f85d 7b04 	ldr.w	r7, [sp], #4
 800196c:	4770      	bx	lr
	...

08001970 <LL_SYSCFG_SetEXTISource>:
  *         @arg @ref LL_SYSCFG_EXTI_LINE14
  *         @arg @ref LL_SYSCFG_EXTI_LINE15
  * @retval None
  */
__STATIC_INLINE void LL_SYSCFG_SetEXTISource(uint32_t Port, uint32_t Line)
{
 8001970:	b480      	push	{r7}
 8001972:	b085      	sub	sp, #20
 8001974:	af00      	add	r7, sp, #0
 8001976:	6078      	str	r0, [r7, #4]
 8001978:	6039      	str	r1, [r7, #0]
  MODIFY_REG(SYSCFG->EXTICR[Line & 0xFF], (Line >> 16), Port << POSITION_VAL((Line >> 16)));
 800197a:	4a13      	ldr	r2, [pc, #76]	; (80019c8 <LL_SYSCFG_SetEXTISource+0x58>)
 800197c:	683b      	ldr	r3, [r7, #0]
 800197e:	b2db      	uxtb	r3, r3
 8001980:	3302      	adds	r3, #2
 8001982:	f852 2023 	ldr.w	r2, [r2, r3, lsl #2]
 8001986:	683b      	ldr	r3, [r7, #0]
 8001988:	0c1b      	lsrs	r3, r3, #16
 800198a:	43db      	mvns	r3, r3
 800198c:	ea02 0103 	and.w	r1, r2, r3
 8001990:	683b      	ldr	r3, [r7, #0]
 8001992:	0c1b      	lsrs	r3, r3, #16
 8001994:	60fb      	str	r3, [r7, #12]
  uint32_t result;

#if ((defined (__ARM_ARCH_7M__      ) && (__ARM_ARCH_7M__      == 1)) || \
     (defined (__ARM_ARCH_7EM__     ) && (__ARM_ARCH_7EM__     == 1)) || \
     (defined (__ARM_ARCH_8M_MAIN__ ) && (__ARM_ARCH_8M_MAIN__ == 1))    )
   __ASM volatile ("rbit %0, %1" : "=r" (result) : "r" (value) );
 8001996:	68fb      	ldr	r3, [r7, #12]
 8001998:	fa93 f3a3 	rbit	r3, r3
 800199c:	60bb      	str	r3, [r7, #8]
    result |= value & 1U;
    s--;
  }
  result <<= s;                        /* shift when v's highest bits are zero */
#endif
  return result;
 800199e:	68bb      	ldr	r3, [r7, #8]
 80019a0:	fab3 f383 	clz	r3, r3
 80019a4:	b2db      	uxtb	r3, r3
 80019a6:	461a      	mov	r2, r3
 80019a8:	687b      	ldr	r3, [r7, #4]
 80019aa:	fa03 f202 	lsl.w	r2, r3, r2
 80019ae:	4806      	ldr	r0, [pc, #24]	; (80019c8 <LL_SYSCFG_SetEXTISource+0x58>)
 80019b0:	683b      	ldr	r3, [r7, #0]
 80019b2:	b2db      	uxtb	r3, r3
 80019b4:	430a      	orrs	r2, r1
 80019b6:	3302      	adds	r3, #2
 80019b8:	f840 2023 	str.w	r2, [r0, r3, lsl #2]
}
 80019bc:	bf00      	nop
 80019be:	3714      	adds	r7, #20
 80019c0:	46bd      	mov	sp, r7
 80019c2:	f85d 7b04 	ldr.w	r7, [sp], #4
 80019c6:	4770      	bx	lr
 80019c8:	40013800 	.word	0x40013800

080019cc <LL_GPIO_SetPinMode>:
{
 80019cc:	b480      	push	{r7}
 80019ce:	b089      	sub	sp, #36	; 0x24
 80019d0:	af00      	add	r7, sp, #0
 80019d2:	60f8      	str	r0, [r7, #12]
 80019d4:	60b9      	str	r1, [r7, #8]
 80019d6:	607a      	str	r2, [r7, #4]
  MODIFY_REG(GPIOx->MODER, (GPIO_MODER_MODER0 << (POSITION_VAL(Pin) * 2U)), (Mode << (POSITION_VAL(Pin) * 2U)));
 80019d8:	68fb      	ldr	r3, [r7, #12]
 80019da:	681a      	ldr	r2, [r3, #0]
 80019dc:	68bb      	ldr	r3, [r7, #8]
 80019de:	617b      	str	r3, [r7, #20]
   __ASM volatile ("rbit %0, %1" : "=r" (result) : "r" (value) );
 80019e0:	697b      	ldr	r3, [r7, #20]
 80019e2:	fa93 f3a3 	rbit	r3, r3
 80019e6:	613b      	str	r3, [r7, #16]
  return result;
 80019e8:	693b      	ldr	r3, [r7, #16]
 80019ea:	fab3 f383 	clz	r3, r3
 80019ee:	b2db      	uxtb	r3, r3
 80019f0:	005b      	lsls	r3, r3, #1
 80019f2:	2103      	movs	r1, #3
 80019f4:	fa01 f303 	lsl.w	r3, r1, r3
 80019f8:	43db      	mvns	r3, r3
 80019fa:	401a      	ands	r2, r3
 80019fc:	68bb      	ldr	r3, [r7, #8]
 80019fe:	61fb      	str	r3, [r7, #28]
   __ASM volatile ("rbit %0, %1" : "=r" (result) : "r" (value) );
 8001a00:	69fb      	ldr	r3, [r7, #28]
 8001a02:	fa93 f3a3 	rbit	r3, r3
 8001a06:	61bb      	str	r3, [r7, #24]
  return result;
 8001a08:	69bb      	ldr	r3, [r7, #24]
 8001a0a:	fab3 f383 	clz	r3, r3
 8001a0e:	b2db      	uxtb	r3, r3
 8001a10:	005b      	lsls	r3, r3, #1
 8001a12:	6879      	ldr	r1, [r7, #4]
 8001a14:	fa01 f303 	lsl.w	r3, r1, r3
 8001a18:	431a      	orrs	r2, r3
 8001a1a:	68fb      	ldr	r3, [r7, #12]
 8001a1c:	601a      	str	r2, [r3, #0]
}
 8001a1e:	bf00      	nop
 8001a20:	3724      	adds	r7, #36	; 0x24
 8001a22:	46bd      	mov	sp, r7
 8001a24:	f85d 7b04 	ldr.w	r7, [sp], #4
 8001a28:	4770      	bx	lr

08001a2a <LL_GPIO_SetPinPull>:
{
 8001a2a:	b480      	push	{r7}
 8001a2c:	b089      	sub	sp, #36	; 0x24
 8001a2e:	af00      	add	r7, sp, #0
 8001a30:	60f8      	str	r0, [r7, #12]
 8001a32:	60b9      	str	r1, [r7, #8]
 8001a34:	607a      	str	r2, [r7, #4]
  MODIFY_REG(GPIOx->PUPDR, (GPIO_PUPDR_PUPDR0 << (POSITION_VAL(Pin) * 2U)), (Pull << (POSITION_VAL(Pin) * 2U)));
 8001a36:	68fb      	ldr	r3, [r7, #12]
 8001a38:	68da      	ldr	r2, [r3, #12]
 8001a3a:	68bb      	ldr	r3, [r7, #8]
 8001a3c:	617b      	str	r3, [r7, #20]
   __ASM volatile ("rbit %0, %1" : "=r" (result) : "r" (value) );
 8001a3e:	697b      	ldr	r3, [r7, #20]
 8001a40:	fa93 f3a3 	rbit	r3, r3
 8001a44:	613b      	str	r3, [r7, #16]
  return result;
 8001a46:	693b      	ldr	r3, [r7, #16]
 8001a48:	fab3 f383 	clz	r3, r3
 8001a4c:	b2db      	uxtb	r3, r3
 8001a4e:	005b      	lsls	r3, r3, #1
 8001a50:	2103      	movs	r1, #3
 8001a52:	fa01 f303 	lsl.w	r3, r1, r3
 8001a56:	43db      	mvns	r3, r3
 8001a58:	401a      	ands	r2, r3
 8001a5a:	68bb      	ldr	r3, [r7, #8]
 8001a5c:	61fb      	str	r3, [r7, #28]
   __ASM volatile ("rbit %0, %1" : "=r" (result) : "r" (value) );
 8001a5e:	69fb      	ldr	r3, [r7, #28]
 8001a60:	fa93 f3a3 	rbit	r3, r3
 8001a64:	61bb      	str	r3, [r7, #24]
  return result;
 8001a66:	69bb      	ldr	r3, [r7, #24]
 8001a68:	fab3 f383 	clz	r3, r3
 8001a6c:	b2db      	uxtb	r3, r3
 8001a6e:	005b      	lsls	r3, r3, #1
 8001a70:	6879      	ldr	r1, [r7, #4]
 8001a72:	fa01 f303 	lsl.w	r3, r1, r3
 8001a76:	431a      	orrs	r2, r3
 8001a78:	68fb      	ldr	r3, [r7, #12]
 8001a7a:	60da      	str	r2, [r3, #12]
}
 8001a7c:	bf00      	nop
 8001a7e:	3724      	adds	r7, #36	; 0x24
 8001a80:	46bd      	mov	sp, r7
 8001a82:	f85d 7b04 	ldr.w	r7, [sp], #4
 8001a86:	4770      	bx	lr

08001a88 <LL_GPIO_SetOutputPin>:
{
 8001a88:	b480      	push	{r7}
 8001a8a:	b083      	sub	sp, #12
 8001a8c:	af00      	add	r7, sp, #0
 8001a8e:	6078      	str	r0, [r7, #4]
 8001a90:	6039      	str	r1, [r7, #0]
  WRITE_REG(GPIOx->BSRR, PinMask);
 8001a92:	687b      	ldr	r3, [r7, #4]
 8001a94:	683a      	ldr	r2, [r7, #0]
 8001a96:	619a      	str	r2, [r3, #24]
}
 8001a98:	bf00      	nop
 8001a9a:	370c      	adds	r7, #12
 8001a9c:	46bd      	mov	sp, r7
 8001a9e:	f85d 7b04 	ldr.w	r7, [sp], #4
 8001aa2:	4770      	bx	lr

08001aa4 <LL_GPIO_ResetOutputPin>:
{
 8001aa4:	b480      	push	{r7}
 8001aa6:	b083      	sub	sp, #12
 8001aa8:	af00      	add	r7, sp, #0
 8001aaa:	6078      	str	r0, [r7, #4]
 8001aac:	6039      	str	r1, [r7, #0]
  WRITE_REG(GPIOx->BSRR, (PinMask << 16));
 8001aae:	683b      	ldr	r3, [r7, #0]
 8001ab0:	041a      	lsls	r2, r3, #16
 8001ab2:	687b      	ldr	r3, [r7, #4]
 8001ab4:	619a      	str	r2, [r3, #24]
}
 8001ab6:	bf00      	nop
 8001ab8:	370c      	adds	r7, #12
 8001aba:	46bd      	mov	sp, r7
 8001abc:	f85d 7b04 	ldr.w	r7, [sp], #4
 8001ac0:	4770      	bx	lr
	...

08001ac4 <LL_AHB1_GRP1_EnableClock>:
  *
  *         (*) value not defined in all devices.
  * @retval None
*/
__STATIC_INLINE void LL_AHB1_GRP1_EnableClock(uint32_t Periphs)
{
 8001ac4:	b480      	push	{r7}
 8001ac6:	b085      	sub	sp, #20
 8001ac8:	af00      	add	r7, sp, #0
 8001aca:	6078      	str	r0, [r7, #4]
  __IO uint32_t tmpreg;
  SET_BIT(RCC->AHB1ENR, Periphs);
 8001acc:	4b08      	ldr	r3, [pc, #32]	; (8001af0 <LL_AHB1_GRP1_EnableClock+0x2c>)
 8001ace:	6b1a      	ldr	r2, [r3, #48]	; 0x30
 8001ad0:	4907      	ldr	r1, [pc, #28]	; (8001af0 <LL_AHB1_GRP1_EnableClock+0x2c>)
 8001ad2:	687b      	ldr	r3, [r7, #4]
 8001ad4:	4313      	orrs	r3, r2
 8001ad6:	630b      	str	r3, [r1, #48]	; 0x30
  /* Delay after an RCC peripheral clock enabling */
  tmpreg = READ_BIT(RCC->AHB1ENR, Periphs);
 8001ad8:	4b05      	ldr	r3, [pc, #20]	; (8001af0 <LL_AHB1_GRP1_EnableClock+0x2c>)
 8001ada:	6b1a      	ldr	r2, [r3, #48]	; 0x30
 8001adc:	687b      	ldr	r3, [r7, #4]
 8001ade:	4013      	ands	r3, r2
 8001ae0:	60fb      	str	r3, [r7, #12]
  (void)tmpreg;
 8001ae2:	68fb      	ldr	r3, [r7, #12]
}
 8001ae4:	bf00      	nop
 8001ae6:	3714      	adds	r7, #20
 8001ae8:	46bd      	mov	sp, r7
 8001aea:	f85d 7b04 	ldr.w	r7, [sp], #4
 8001aee:	4770      	bx	lr
 8001af0:	40023800 	.word	0x40023800

08001af4 <LL_APB1_GRP1_EnableClock>:
  *
  *         (*) value not defined in all devices.
  * @retval None
*/
__STATIC_INLINE void LL_APB1_GRP1_EnableClock(uint32_t Periphs)
{
 8001af4:	b480      	push	{r7}
 8001af6:	b085      	sub	sp, #20
 8001af8:	af00      	add	r7, sp, #0
 8001afa:	6078      	str	r0, [r7, #4]
  __IO uint32_t tmpreg;
  SET_BIT(RCC->APB1ENR, Periphs);
 8001afc:	4b08      	ldr	r3, [pc, #32]	; (8001b20 <LL_APB1_GRP1_EnableClock+0x2c>)
 8001afe:	6c1a      	ldr	r2, [r3, #64]	; 0x40
 8001b00:	4907      	ldr	r1, [pc, #28]	; (8001b20 <LL_APB1_GRP1_EnableClock+0x2c>)
 8001b02:	687b      	ldr	r3, [r7, #4]
 8001b04:	4313      	orrs	r3, r2
 8001b06:	640b      	str	r3, [r1, #64]	; 0x40
  /* Delay after an RCC peripheral clock enabling */
  tmpreg = READ_BIT(RCC->APB1ENR, Periphs);
 8001b08:	4b05      	ldr	r3, [pc, #20]	; (8001b20 <LL_APB1_GRP1_EnableClock+0x2c>)
 8001b0a:	6c1a      	ldr	r2, [r3, #64]	; 0x40
 8001b0c:	687b      	ldr	r3, [r7, #4]
 8001b0e:	4013      	ands	r3, r2
 8001b10:	60fb      	str	r3, [r7, #12]
  (void)tmpreg;
 8001b12:	68fb      	ldr	r3, [r7, #12]
}
 8001b14:	bf00      	nop
 8001b16:	3714      	adds	r7, #20
 8001b18:	46bd      	mov	sp, r7
 8001b1a:	f85d 7b04 	ldr.w	r7, [sp], #4
 8001b1e:	4770      	bx	lr
 8001b20:	40023800 	.word	0x40023800

08001b24 <LL_RCC_EnableRTC>:
  * @brief  Enable RTC
  * @rmtoll BDCR         RTCEN         LL_RCC_EnableRTC
  * @retval None
  */
__STATIC_INLINE void LL_RCC_EnableRTC(void)
{
 8001b24:	b480      	push	{r7}
 8001b26:	af00      	add	r7, sp, #0
  SET_BIT(RCC->BDCR, RCC_BDCR_RTCEN);
 8001b28:	4b05      	ldr	r3, [pc, #20]	; (8001b40 <LL_RCC_EnableRTC+0x1c>)
 8001b2a:	6f1b      	ldr	r3, [r3, #112]	; 0x70
 8001b2c:	4a04      	ldr	r2, [pc, #16]	; (8001b40 <LL_RCC_EnableRTC+0x1c>)
 8001b2e:	f443 4300 	orr.w	r3, r3, #32768	; 0x8000
 8001b32:	6713      	str	r3, [r2, #112]	; 0x70
}
 8001b34:	bf00      	nop
 8001b36:	46bd      	mov	sp, r7
 8001b38:	f85d 7b04 	ldr.w	r7, [sp], #4
 8001b3c:	4770      	bx	lr
 8001b3e:	bf00      	nop
 8001b40:	40023800 	.word	0x40023800

08001b44 <main>:
/**
  * @brief  The application entry point.
  * @retval int
  */
int main(void)
{
 8001b44:	b5b0      	push	{r4, r5, r7, lr}
 8001b46:	b098      	sub	sp, #96	; 0x60
 8001b48:	af02      	add	r7, sp, #8
  /* USER CODE BEGIN 1 */

	float32_t iir_coeffs[5 * IIR_NUMSTAGES] = IIR_COEFFS;
 8001b4a:	4b62      	ldr	r3, [pc, #392]	; (8001cd4 <main+0x190>)
 8001b4c:	f107 042c 	add.w	r4, r7, #44	; 0x2c
 8001b50:	461d      	mov	r5, r3
 8001b52:	cd0f      	ldmia	r5!, {r0, r1, r2, r3}
 8001b54:	c40f      	stmia	r4!, {r0, r1, r2, r3}
 8001b56:	cd0f      	ldmia	r5!, {r0, r1, r2, r3}
 8001b58:	c40f      	stmia	r4!, {r0, r1, r2, r3}
 8001b5a:	e895 0003 	ldmia.w	r5, {r0, r1}
 8001b5e:	e884 0003 	stmia.w	r4, {r0, r1}
	float32_t iir_state[4 * IIR_NUMSTAGES];

	//uint8_t MA_buffer_sent = 1;
	LC_ModeTypeDef lc_mode = LC_IDLE;
 8001b62:	2300      	movs	r3, #0
 8001b64:	f887 3057 	strb.w	r3, [r7, #87]	; 0x57


  /* MCU Configuration--------------------------------------------------------*/

  /* Reset of all peripherals, Initializes the Flash interface and the Systick. */
  HAL_Init();
 8001b68:	f000 ff10 	bl	800298c <HAL_Init>

  /* Configure the system clock */
  SystemClock_Config();
 8001b6c:	f000 f8c8 	bl	8001d00 <SystemClock_Config>
  /* USER CODE BEGIN SysInit */

   // Configure both watchdog timers to be halted if the CPU is halted by the debugger
   //
   //*((volatile int *)(0xE0042008)) |= (1 << 11) | (1 << 12);
   __HAL_DBGMCU_FREEZE_IWDG();
 8001b70:	4b59      	ldr	r3, [pc, #356]	; (8001cd8 <main+0x194>)
 8001b72:	689b      	ldr	r3, [r3, #8]
 8001b74:	4a58      	ldr	r2, [pc, #352]	; (8001cd8 <main+0x194>)
 8001b76:	f443 5380 	orr.w	r3, r3, #4096	; 0x1000
 8001b7a:	6093      	str	r3, [r2, #8]

  MX_GPIO_Init();
 8001b7c:	f000 fac8 	bl	8002110 <MX_GPIO_Init>
  MX_DMA_Init();
 8001b80:	f000 fa9e 	bl	80020c0 <MX_DMA_Init>
  MX_IWDG_Init();
 8001b84:	f000 f92c 	bl	8001de0 <MX_IWDG_Init>
  MX_SPI2_Init();
 8001b88:	f000 f984 	bl	8001e94 <MX_SPI2_Init>
  MX_TIM2_Init();
 8001b8c:	f000 fa34 	bl	8001ff8 <MX_TIM2_Init>
  MX_RTC_Init();
 8001b90:	f000 f946 	bl	8001e20 <MX_RTC_Init>
  MX_TIM3_Init();
 8001b94:	f000 fa64 	bl	8002060 <MX_TIM3_Init>
  //MX_USB_DEVICE_Init();
  /* USER CODE BEGIN 2 */

  //check for IWDG flag:
  if (__HAL_RCC_GET_FLAG(RCC_FLAG_IWDGRST)){
 8001b98:	4b50      	ldr	r3, [pc, #320]	; (8001cdc <main+0x198>)
 8001b9a:	6f5b      	ldr	r3, [r3, #116]	; 0x74
 8001b9c:	f003 5300 	and.w	r3, r3, #536870912	; 0x20000000
 8001ba0:	2b00      	cmp	r3, #0
 8001ba2:	d005      	beq.n	8001bb0 <main+0x6c>
	  //CDC_Transmit_FS((uint8_t *)watchdog_message, sizeof(watchdog_message));
	  __HAL_RCC_CLEAR_RESET_FLAGS();
 8001ba4:	4b4d      	ldr	r3, [pc, #308]	; (8001cdc <main+0x198>)
 8001ba6:	6f5b      	ldr	r3, [r3, #116]	; 0x74
 8001ba8:	4a4c      	ldr	r2, [pc, #304]	; (8001cdc <main+0x198>)
 8001baa:	f043 7380 	orr.w	r3, r3, #16777216	; 0x1000000
 8001bae:	6753      	str	r3, [r2, #116]	; 0x74
  }

  	// set ADC SPI CS
	LL_GPIO_SetOutputPin(ADC_CS_GPIO_Port, ADC_CS_Pin);
 8001bb0:	f44f 5180 	mov.w	r1, #4096	; 0x1000
 8001bb4:	484a      	ldr	r0, [pc, #296]	; (8001ce0 <main+0x19c>)
 8001bb6:	f7ff ff67 	bl	8001a88 <LL_GPIO_SetOutputPin>

	/* Configure SPI1 DMA transfer interrupts */
	/* Enable DMA RX Interrupt */
	LL_SPI_EnableDMAReq_RX(SPI2);
 8001bba:	484a      	ldr	r0, [pc, #296]	; (8001ce4 <main+0x1a0>)
 8001bbc:	f7ff fe45 	bl	800184a <LL_SPI_EnableDMAReq_RX>
	/* Enable DMA TX Interrupt */
	LL_SPI_EnableDMAReq_TX(SPI2);
 8001bc0:	4848      	ldr	r0, [pc, #288]	; (8001ce4 <main+0x1a0>)
 8001bc2:	f7ff fe52 	bl	800186a <LL_SPI_EnableDMAReq_TX>

	LL_DMA_ConfigAddresses(DMA1, LL_DMA_STREAM_3, LL_SPI_DMA_GetRegAddr(SPI2),
 8001bc6:	4847      	ldr	r0, [pc, #284]	; (8001ce4 <main+0x1a0>)
 8001bc8:	f7ff fe5f 	bl	800188a <LL_SPI_DMA_GetRegAddr>
 8001bcc:	4604      	mov	r4, r0
 8001bce:	4d46      	ldr	r5, [pc, #280]	; (8001ce8 <main+0x1a4>)
 8001bd0:	2103      	movs	r1, #3
 8001bd2:	4846      	ldr	r0, [pc, #280]	; (8001cec <main+0x1a8>)
 8001bd4:	f7ff fbcc 	bl	8001370 <LL_DMA_GetDataTransferDirection>
 8001bd8:	4603      	mov	r3, r0
 8001bda:	9300      	str	r3, [sp, #0]
 8001bdc:	462b      	mov	r3, r5
 8001bde:	4622      	mov	r2, r4
 8001be0:	2103      	movs	r1, #3
 8001be2:	4842      	ldr	r0, [pc, #264]	; (8001cec <main+0x1a8>)
 8001be4:	f7ff fd1c 	bl	8001620 <LL_DMA_ConfigAddresses>
						  (uint32_t)SpiDmaRxBuf, LL_DMA_GetDataTransferDirection(DMA1, LL_DMA_STREAM_3)); //RX
	LL_DMA_ConfigAddresses(DMA1, LL_DMA_STREAM_4, (uint32_t)SpiDmaTxBuf,
 8001be8:	4d41      	ldr	r5, [pc, #260]	; (8001cf0 <main+0x1ac>)
 8001bea:	483e      	ldr	r0, [pc, #248]	; (8001ce4 <main+0x1a0>)
 8001bec:	f7ff fe4d 	bl	800188a <LL_SPI_DMA_GetRegAddr>
 8001bf0:	4604      	mov	r4, r0
 8001bf2:	2104      	movs	r1, #4
 8001bf4:	483d      	ldr	r0, [pc, #244]	; (8001cec <main+0x1a8>)
 8001bf6:	f7ff fbbb 	bl	8001370 <LL_DMA_GetDataTransferDirection>
 8001bfa:	4603      	mov	r3, r0
 8001bfc:	9300      	str	r3, [sp, #0]
 8001bfe:	4623      	mov	r3, r4
 8001c00:	462a      	mov	r2, r5
 8001c02:	2104      	movs	r1, #4
 8001c04:	4839      	ldr	r0, [pc, #228]	; (8001cec <main+0x1a8>)
 8001c06:	f7ff fd0b 	bl	8001620 <LL_DMA_ConfigAddresses>
						  LL_SPI_DMA_GetRegAddr(SPI2), LL_DMA_GetDataTransferDirection(DMA1, LL_DMA_STREAM_4));  //TX

	LL_DMA_SetDataLength(DMA1, LL_DMA_STREAM_3, 3);
 8001c0a:	2203      	movs	r2, #3
 8001c0c:	2103      	movs	r1, #3
 8001c0e:	4837      	ldr	r0, [pc, #220]	; (8001cec <main+0x1a8>)
 8001c10:	f7ff fc9e 	bl	8001550 <LL_DMA_SetDataLength>
	LL_DMA_SetDataLength(DMA1, LL_DMA_STREAM_4, 3);
 8001c14:	2203      	movs	r2, #3
 8001c16:	2104      	movs	r1, #4
 8001c18:	4834      	ldr	r0, [pc, #208]	; (8001cec <main+0x1a8>)
 8001c1a:	f7ff fc99 	bl	8001550 <LL_DMA_SetDataLength>

	/* (5) Enable DMA interrupts complete/error */
	LL_DMA_EnableIT_TC(DMA1, LL_DMA_STREAM_3);
 8001c1e:	2103      	movs	r1, #3
 8001c20:	4832      	ldr	r0, [pc, #200]	; (8001cec <main+0x1a8>)
 8001c22:	f7ff fd59 	bl	80016d8 <LL_DMA_EnableIT_TC>
	LL_DMA_EnableIT_TE(DMA1, LL_DMA_STREAM_3);
 8001c26:	2103      	movs	r1, #3
 8001c28:	4830      	ldr	r0, [pc, #192]	; (8001cec <main+0x1a8>)
 8001c2a:	f7ff fd35 	bl	8001698 <LL_DMA_EnableIT_TE>
	LL_DMA_EnableIT_TC(DMA1, LL_DMA_STREAM_4);
 8001c2e:	2104      	movs	r1, #4
 8001c30:	482e      	ldr	r0, [pc, #184]	; (8001cec <main+0x1a8>)
 8001c32:	f7ff fd51 	bl	80016d8 <LL_DMA_EnableIT_TC>
	LL_DMA_EnableIT_TE(DMA1, LL_DMA_STREAM_4);
 8001c36:	2104      	movs	r1, #4
 8001c38:	482c      	ldr	r0, [pc, #176]	; (8001cec <main+0x1a8>)
 8001c3a:	f7ff fd2d 	bl	8001698 <LL_DMA_EnableIT_TE>

	LL_TIM_EnableCounter(TIM2);
 8001c3e:	f04f 4080 	mov.w	r0, #1073741824	; 0x40000000
 8001c42:	f7ff fe2e 	bl	80018a2 <LL_TIM_EnableCounter>
	LL_TIM_EnableCounter(TIM3);
 8001c46:	482b      	ldr	r0, [pc, #172]	; (8001cf4 <main+0x1b0>)
 8001c48:	f7ff fe2b 	bl	80018a2 <LL_TIM_EnableCounter>

	//arm_biquad_cascade_df2T_init_f32(iir_inst, (uint8_t)IIR_NUMSTAGES, iir_coeffs, iir_state);

	LL_TIM_SetCounter(TIM2, 0);
 8001c4c:	2100      	movs	r1, #0
 8001c4e:	f04f 4080 	mov.w	r0, #1073741824	; 0x40000000
 8001c52:	f7ff fe46 	bl	80018e2 <LL_TIM_SetCounter>

	//Disable DMA and EXTI IRqs for idle mode
	NVIC_DisableIRQ(DMA1_Stream3_IRQn);
 8001c56:	200e      	movs	r0, #14
 8001c58:	f7ff fae4 	bl	8001224 <__NVIC_DisableIRQ>
	NVIC_DisableIRQ(DMA1_Stream4_IRQn);
 8001c5c:	200f      	movs	r0, #15
 8001c5e:	f7ff fae1 	bl	8001224 <__NVIC_DisableIRQ>
	NVIC_DisableIRQ(EXTI15_10_IRQn);
 8001c62:	2028      	movs	r0, #40	; 0x28
 8001c64:	f7ff fade 	bl	8001224 <__NVIC_DisableIRQ>

	LL_IWDG_ReloadCounter(IWDG);
 8001c68:	4823      	ldr	r0, [pc, #140]	; (8001cf8 <main+0x1b4>)
 8001c6a:	f7ff fd63 	bl	8001734 <LL_IWDG_ReloadCounter>

	if (ads1256_init() != ADS1256_OK)
 8001c6e:	f7fe fe41 	bl	80008f4 <ads1256_init>
 8001c72:	4603      	mov	r3, r0
 8001c74:	2b00      	cmp	r3, #0
 8001c76:	d004      	beq.n	8001c82 <main+0x13e>
	{
		lc_Error_Handler( ThisFileName, sizeof(ThisFileName), __LINE__);
 8001c78:	22a8      	movs	r2, #168	; 0xa8
 8001c7a:	2107      	movs	r1, #7
 8001c7c:	481f      	ldr	r0, [pc, #124]	; (8001cfc <main+0x1b8>)
 8001c7e:	f7ff fa99 	bl	80011b4 <lc_Error_Handler>

  /* Infinite loop */
  /* USER CODE BEGIN WHILE */
  while (1)
  {
	  LL_IWDG_ReloadCounter(IWDG);
 8001c82:	481d      	ldr	r0, [pc, #116]	; (8001cf8 <main+0x1b4>)
 8001c84:	f7ff fd56 	bl	8001734 <LL_IWDG_ReloadCounter>

	  switch( lc_mode ){
 8001c88:	f897 3057 	ldrb.w	r3, [r7, #87]	; 0x57
 8001c8c:	2b03      	cmp	r3, #3
 8001c8e:	d81b      	bhi.n	8001cc8 <main+0x184>
 8001c90:	a201      	add	r2, pc, #4	; (adr r2, 8001c98 <main+0x154>)
 8001c92:	f852 f023 	ldr.w	pc, [r2, r3, lsl #2]
 8001c96:	bf00      	nop
 8001c98:	08001ca9 	.word	0x08001ca9
 8001c9c:	08001cb1 	.word	0x08001cb1
 8001ca0:	08001cb7 	.word	0x08001cb7
 8001ca4:	08001cbd 	.word	0x08001cbd
	  case LC_IDLE:
		  lc_mode = LC_PREPARE;
 8001ca8:	2301      	movs	r3, #1
 8001caa:	f887 3057 	strb.w	r3, [r7, #87]	; 0x57
		  break;
 8001cae:	e010      	b.n	8001cd2 <main+0x18e>
			  LL_TIM_SetCounter(TIM2, 0);
			  lc_do_lc_idle();
		  }
		  break;
	  case LC_PREPARE:
		  lc_do_lc_prepare();
 8001cb0:	f7ff f940 	bl	8000f34 <lc_do_lc_prepare>
		  break;
 8001cb4:	e00d      	b.n	8001cd2 <main+0x18e>
	  case LC_RUNNING:
		  lc_do_lc_running();
 8001cb6:	f7ff f9ab 	bl	8001010 <lc_do_lc_running>
		  break;
 8001cba:	e00a      	b.n	8001cd2 <main+0x18e>
	  case LC_STOPPING:
		  lc_do_lc_stopping();
 8001cbc:	f7ff f9e0 	bl	8001080 <lc_do_lc_stopping>
		  lc_mode = LC_IDLE;
 8001cc0:	2300      	movs	r3, #0
 8001cc2:	f887 3057 	strb.w	r3, [r7, #87]	; 0x57
		  break;
 8001cc6:	e004      	b.n	8001cd2 <main+0x18e>
	  default:
		  lc_Error_Handler( ThisFileName, sizeof(ThisFileName), __LINE__);
 8001cc8:	22c9      	movs	r2, #201	; 0xc9
 8001cca:	2107      	movs	r1, #7
 8001ccc:	480b      	ldr	r0, [pc, #44]	; (8001cfc <main+0x1b8>)
 8001cce:	f7ff fa71 	bl	80011b4 <lc_Error_Handler>
	  LL_IWDG_ReloadCounter(IWDG);
 8001cd2:	e7d6      	b.n	8001c82 <main+0x13e>
 8001cd4:	08004248 	.word	0x08004248
 8001cd8:	e0042000 	.word	0xe0042000
 8001cdc:	40023800 	.word	0x40023800
 8001ce0:	40020400 	.word	0x40020400
 8001ce4:	40003800 	.word	0x40003800
 8001ce8:	20000488 	.word	0x20000488
 8001cec:	40026000 	.word	0x40026000
 8001cf0:	20000490 	.word	0x20000490
 8001cf4:	40000400 	.word	0x40000400
 8001cf8:	40003000 	.word	0x40003000
 8001cfc:	08004294 	.word	0x08004294

08001d00 <SystemClock_Config>:
/**
  * @brief System Clock Configuration
  * @retval None
  */
void SystemClock_Config(void)
{
 8001d00:	b580      	push	{r7, lr}
 8001d02:	b094      	sub	sp, #80	; 0x50
 8001d04:	af00      	add	r7, sp, #0
  RCC_OscInitTypeDef RCC_OscInitStruct = {0};
 8001d06:	f107 0320 	add.w	r3, r7, #32
 8001d0a:	2230      	movs	r2, #48	; 0x30
 8001d0c:	2100      	movs	r1, #0
 8001d0e:	4618      	mov	r0, r3
 8001d10:	f002 fa86 	bl	8004220 <memset>
  RCC_ClkInitTypeDef RCC_ClkInitStruct = {0};
 8001d14:	f107 030c 	add.w	r3, r7, #12
 8001d18:	2200      	movs	r2, #0
 8001d1a:	601a      	str	r2, [r3, #0]
 8001d1c:	605a      	str	r2, [r3, #4]
 8001d1e:	609a      	str	r2, [r3, #8]
 8001d20:	60da      	str	r2, [r3, #12]
 8001d22:	611a      	str	r2, [r3, #16]

  /** Configure the main internal regulator output voltage
  */
  __HAL_RCC_PWR_CLK_ENABLE();
 8001d24:	2300      	movs	r3, #0
 8001d26:	60bb      	str	r3, [r7, #8]
 8001d28:	4b2b      	ldr	r3, [pc, #172]	; (8001dd8 <SystemClock_Config+0xd8>)
 8001d2a:	6c1b      	ldr	r3, [r3, #64]	; 0x40
 8001d2c:	4a2a      	ldr	r2, [pc, #168]	; (8001dd8 <SystemClock_Config+0xd8>)
 8001d2e:	f043 5380 	orr.w	r3, r3, #268435456	; 0x10000000
 8001d32:	6413      	str	r3, [r2, #64]	; 0x40
 8001d34:	4b28      	ldr	r3, [pc, #160]	; (8001dd8 <SystemClock_Config+0xd8>)
 8001d36:	6c1b      	ldr	r3, [r3, #64]	; 0x40
 8001d38:	f003 5380 	and.w	r3, r3, #268435456	; 0x10000000
 8001d3c:	60bb      	str	r3, [r7, #8]
 8001d3e:	68bb      	ldr	r3, [r7, #8]
  __HAL_PWR_VOLTAGESCALING_CONFIG(PWR_REGULATOR_VOLTAGE_SCALE2);
 8001d40:	2300      	movs	r3, #0
 8001d42:	607b      	str	r3, [r7, #4]
 8001d44:	4b25      	ldr	r3, [pc, #148]	; (8001ddc <SystemClock_Config+0xdc>)
 8001d46:	681b      	ldr	r3, [r3, #0]
 8001d48:	f423 4340 	bic.w	r3, r3, #49152	; 0xc000
 8001d4c:	4a23      	ldr	r2, [pc, #140]	; (8001ddc <SystemClock_Config+0xdc>)
 8001d4e:	f443 4300 	orr.w	r3, r3, #32768	; 0x8000
 8001d52:	6013      	str	r3, [r2, #0]
 8001d54:	4b21      	ldr	r3, [pc, #132]	; (8001ddc <SystemClock_Config+0xdc>)
 8001d56:	681b      	ldr	r3, [r3, #0]
 8001d58:	f403 4340 	and.w	r3, r3, #49152	; 0xc000
 8001d5c:	607b      	str	r3, [r7, #4]
 8001d5e:	687b      	ldr	r3, [r7, #4]

  /** Initializes the RCC Oscillators according to the specified parameters
  * in the RCC_OscInitTypeDef structure.
  */
  RCC_OscInitStruct.OscillatorType = RCC_OSCILLATORTYPE_LSI|RCC_OSCILLATORTYPE_HSE
 8001d60:	230d      	movs	r3, #13
 8001d62:	623b      	str	r3, [r7, #32]
                              |RCC_OSCILLATORTYPE_LSE;
  RCC_OscInitStruct.HSEState = RCC_HSE_ON;
 8001d64:	f44f 3380 	mov.w	r3, #65536	; 0x10000
 8001d68:	627b      	str	r3, [r7, #36]	; 0x24
  RCC_OscInitStruct.LSEState = RCC_LSE_ON;
 8001d6a:	2301      	movs	r3, #1
 8001d6c:	62bb      	str	r3, [r7, #40]	; 0x28
  RCC_OscInitStruct.LSIState = RCC_LSI_ON;
 8001d6e:	2301      	movs	r3, #1
 8001d70:	637b      	str	r3, [r7, #52]	; 0x34
  RCC_OscInitStruct.PLL.PLLState = RCC_PLL_ON;
 8001d72:	2302      	movs	r3, #2
 8001d74:	63bb      	str	r3, [r7, #56]	; 0x38
  RCC_OscInitStruct.PLL.PLLSource = RCC_PLLSOURCE_HSE;
 8001d76:	f44f 0380 	mov.w	r3, #4194304	; 0x400000
 8001d7a:	63fb      	str	r3, [r7, #60]	; 0x3c
  RCC_OscInitStruct.PLL.PLLM = 25;
 8001d7c:	2319      	movs	r3, #25
 8001d7e:	643b      	str	r3, [r7, #64]	; 0x40
  RCC_OscInitStruct.PLL.PLLN = 336;
 8001d80:	f44f 73a8 	mov.w	r3, #336	; 0x150
 8001d84:	647b      	str	r3, [r7, #68]	; 0x44
  RCC_OscInitStruct.PLL.PLLP = RCC_PLLP_DIV4;
 8001d86:	2304      	movs	r3, #4
 8001d88:	64bb      	str	r3, [r7, #72]	; 0x48
  RCC_OscInitStruct.PLL.PLLQ = 7;
 8001d8a:	2307      	movs	r3, #7
 8001d8c:	64fb      	str	r3, [r7, #76]	; 0x4c
  if (HAL_RCC_OscConfig(&RCC_OscInitStruct) != HAL_OK)
 8001d8e:	f107 0320 	add.w	r3, r7, #32
 8001d92:	4618      	mov	r0, r3
 8001d94:	f000 ff52 	bl	8002c3c <HAL_RCC_OscConfig>
 8001d98:	4603      	mov	r3, r0
 8001d9a:	2b00      	cmp	r3, #0
 8001d9c:	d001      	beq.n	8001da2 <SystemClock_Config+0xa2>
  {
    Error_Handler();
 8001d9e:	f000 fa57 	bl	8002250 <Error_Handler>
  }

  /** Initializes the CPU, AHB and APB buses clocks
  */
  RCC_ClkInitStruct.ClockType = RCC_CLOCKTYPE_HCLK|RCC_CLOCKTYPE_SYSCLK
 8001da2:	230f      	movs	r3, #15
 8001da4:	60fb      	str	r3, [r7, #12]
                              |RCC_CLOCKTYPE_PCLK1|RCC_CLOCKTYPE_PCLK2;
  RCC_ClkInitStruct.SYSCLKSource = RCC_SYSCLKSOURCE_PLLCLK;
 8001da6:	2302      	movs	r3, #2
 8001da8:	613b      	str	r3, [r7, #16]
  RCC_ClkInitStruct.AHBCLKDivider = RCC_SYSCLK_DIV1;
 8001daa:	2300      	movs	r3, #0
 8001dac:	617b      	str	r3, [r7, #20]
  RCC_ClkInitStruct.APB1CLKDivider = RCC_HCLK_DIV2;
 8001dae:	f44f 5380 	mov.w	r3, #4096	; 0x1000
 8001db2:	61bb      	str	r3, [r7, #24]
  RCC_ClkInitStruct.APB2CLKDivider = RCC_HCLK_DIV1;
 8001db4:	2300      	movs	r3, #0
 8001db6:	61fb      	str	r3, [r7, #28]

  if (HAL_RCC_ClockConfig(&RCC_ClkInitStruct, FLASH_LATENCY_2) != HAL_OK)
 8001db8:	f107 030c 	add.w	r3, r7, #12
 8001dbc:	2102      	movs	r1, #2
 8001dbe:	4618      	mov	r0, r3
 8001dc0:	f001 f9b4 	bl	800312c <HAL_RCC_ClockConfig>
 8001dc4:	4603      	mov	r3, r0
 8001dc6:	2b00      	cmp	r3, #0
 8001dc8:	d001      	beq.n	8001dce <SystemClock_Config+0xce>
  {
    Error_Handler();
 8001dca:	f000 fa41 	bl	8002250 <Error_Handler>
  }
}
 8001dce:	bf00      	nop
 8001dd0:	3750      	adds	r7, #80	; 0x50
 8001dd2:	46bd      	mov	sp, r7
 8001dd4:	bd80      	pop	{r7, pc}
 8001dd6:	bf00      	nop
 8001dd8:	40023800 	.word	0x40023800
 8001ddc:	40007000 	.word	0x40007000

08001de0 <MX_IWDG_Init>:
  * @brief IWDG Initialization Function
  * @param None
  * @retval None
  */
static void MX_IWDG_Init(void)
{
 8001de0:	b580      	push	{r7, lr}
 8001de2:	af00      	add	r7, sp, #0
  /* USER CODE END IWDG_Init 0 */

  /* USER CODE BEGIN IWDG_Init 1 */

  /* USER CODE END IWDG_Init 1 */
  LL_IWDG_Enable(IWDG);
 8001de4:	480d      	ldr	r0, [pc, #52]	; (8001e1c <MX_IWDG_Init+0x3c>)
 8001de6:	f7ff fc97 	bl	8001718 <LL_IWDG_Enable>
  LL_IWDG_EnableWriteAccess(IWDG);
 8001dea:	480c      	ldr	r0, [pc, #48]	; (8001e1c <MX_IWDG_Init+0x3c>)
 8001dec:	f7ff fcb0 	bl	8001750 <LL_IWDG_EnableWriteAccess>
  LL_IWDG_SetPrescaler(IWDG, LL_IWDG_PRESCALER_4);
 8001df0:	2100      	movs	r1, #0
 8001df2:	480a      	ldr	r0, [pc, #40]	; (8001e1c <MX_IWDG_Init+0x3c>)
 8001df4:	f7ff fcba 	bl	800176c <LL_IWDG_SetPrescaler>
  LL_IWDG_SetReloadCounter(IWDG, 2000);
 8001df8:	f44f 61fa 	mov.w	r1, #2000	; 0x7d0
 8001dfc:	4807      	ldr	r0, [pc, #28]	; (8001e1c <MX_IWDG_Init+0x3c>)
 8001dfe:	f7ff fcc5 	bl	800178c <LL_IWDG_SetReloadCounter>
  while (LL_IWDG_IsReady(IWDG) != 1)
 8001e02:	bf00      	nop
 8001e04:	4805      	ldr	r0, [pc, #20]	; (8001e1c <MX_IWDG_Init+0x3c>)
 8001e06:	f7ff fcd1 	bl	80017ac <LL_IWDG_IsReady>
 8001e0a:	4603      	mov	r3, r0
 8001e0c:	2b01      	cmp	r3, #1
 8001e0e:	d1f9      	bne.n	8001e04 <MX_IWDG_Init+0x24>
  {
  }

  LL_IWDG_ReloadCounter(IWDG);
 8001e10:	4802      	ldr	r0, [pc, #8]	; (8001e1c <MX_IWDG_Init+0x3c>)
 8001e12:	f7ff fc8f 	bl	8001734 <LL_IWDG_ReloadCounter>
  /* USER CODE BEGIN IWDG_Init 2 */

  /* USER CODE END IWDG_Init 2 */

}
 8001e16:	bf00      	nop
 8001e18:	bd80      	pop	{r7, pc}
 8001e1a:	bf00      	nop
 8001e1c:	40003000 	.word	0x40003000

08001e20 <MX_RTC_Init>:
  * @brief RTC Initialization Function
  * @param None
  * @retval None
  */
static void MX_RTC_Init(void)
{
 8001e20:	b580      	push	{r7, lr}
 8001e22:	b088      	sub	sp, #32
 8001e24:	af00      	add	r7, sp, #0

  /* USER CODE BEGIN RTC_Init 0 */

  /* USER CODE END RTC_Init 0 */

  LL_RTC_InitTypeDef RTC_InitStruct = {0};
 8001e26:	f107 0314 	add.w	r3, r7, #20
 8001e2a:	2200      	movs	r2, #0
 8001e2c:	601a      	str	r2, [r3, #0]
 8001e2e:	605a      	str	r2, [r3, #4]
 8001e30:	609a      	str	r2, [r3, #8]

  RCC_PeriphCLKInitTypeDef PeriphClkInitStruct = {0};
 8001e32:	463b      	mov	r3, r7
 8001e34:	2200      	movs	r2, #0
 8001e36:	601a      	str	r2, [r3, #0]
 8001e38:	605a      	str	r2, [r3, #4]
 8001e3a:	609a      	str	r2, [r3, #8]
 8001e3c:	60da      	str	r2, [r3, #12]
 8001e3e:	611a      	str	r2, [r3, #16]

  /** Initializes the peripherals clock
  */
  PeriphClkInitStruct.PeriphClockSelection = RCC_PERIPHCLK_RTC;
 8001e40:	2302      	movs	r3, #2
 8001e42:	603b      	str	r3, [r7, #0]
  PeriphClkInitStruct.RTCClockSelection = RCC_RTCCLKSOURCE_LSE;
 8001e44:	f44f 7380 	mov.w	r3, #256	; 0x100
 8001e48:	60fb      	str	r3, [r7, #12]
  if (HAL_RCCEx_PeriphCLKConfig(&PeriphClkInitStruct) != HAL_OK)
 8001e4a:	463b      	mov	r3, r7
 8001e4c:	4618      	mov	r0, r3
 8001e4e:	f001 fb19 	bl	8003484 <HAL_RCCEx_PeriphCLKConfig>
 8001e52:	4603      	mov	r3, r0
 8001e54:	2b00      	cmp	r3, #0
 8001e56:	d001      	beq.n	8001e5c <MX_RTC_Init+0x3c>
  {
    Error_Handler();
 8001e58:	f000 f9fa 	bl	8002250 <Error_Handler>
  }

  /* Peripheral clock enable */
  LL_RCC_EnableRTC();
 8001e5c:	f7ff fe62 	bl	8001b24 <LL_RCC_EnableRTC>

  /* USER CODE END RTC_Init 1 */

  /** Initialize RTC and set the Time and Date
  */
  RTC_InitStruct.HourFormat = LL_RTC_HOURFORMAT_24HOUR;
 8001e60:	2300      	movs	r3, #0
 8001e62:	617b      	str	r3, [r7, #20]
  RTC_InitStruct.AsynchPrescaler = 127;
 8001e64:	237f      	movs	r3, #127	; 0x7f
 8001e66:	61bb      	str	r3, [r7, #24]
  RTC_InitStruct.SynchPrescaler = 255;
 8001e68:	23ff      	movs	r3, #255	; 0xff
 8001e6a:	61fb      	str	r3, [r7, #28]
  LL_RTC_Init(RTC, &RTC_InitStruct);
 8001e6c:	f107 0314 	add.w	r3, r7, #20
 8001e70:	4619      	mov	r1, r3
 8001e72:	4807      	ldr	r0, [pc, #28]	; (8001e90 <MX_RTC_Init+0x70>)
 8001e74:	f002 f822 	bl	8003ebc <LL_RTC_Init>
  LL_RTC_SetAsynchPrescaler(RTC, 127);
 8001e78:	217f      	movs	r1, #127	; 0x7f
 8001e7a:	4805      	ldr	r0, [pc, #20]	; (8001e90 <MX_RTC_Init+0x70>)
 8001e7c:	f7ff fca9 	bl	80017d2 <LL_RTC_SetAsynchPrescaler>
  LL_RTC_SetSynchPrescaler(RTC, 255);
 8001e80:	21ff      	movs	r1, #255	; 0xff
 8001e82:	4803      	ldr	r0, [pc, #12]	; (8001e90 <MX_RTC_Init+0x70>)
 8001e84:	f7ff fcb9 	bl	80017fa <LL_RTC_SetSynchPrescaler>
  /* USER CODE BEGIN RTC_Init 2 */

  /* USER CODE END RTC_Init 2 */

}
 8001e88:	bf00      	nop
 8001e8a:	3720      	adds	r7, #32
 8001e8c:	46bd      	mov	sp, r7
 8001e8e:	bd80      	pop	{r7, pc}
 8001e90:	40002800 	.word	0x40002800

08001e94 <MX_SPI2_Init>:
  * @brief SPI2 Initialization Function
  * @param None
  * @retval None
  */
static void MX_SPI2_Init(void)
{
 8001e94:	b580      	push	{r7, lr}
 8001e96:	b090      	sub	sp, #64	; 0x40
 8001e98:	af00      	add	r7, sp, #0

  /* USER CODE BEGIN SPI2_Init 0 */

  /* USER CODE END SPI2_Init 0 */

  LL_SPI_InitTypeDef SPI_InitStruct = {0};
 8001e9a:	f107 0318 	add.w	r3, r7, #24
 8001e9e:	2228      	movs	r2, #40	; 0x28
 8001ea0:	2100      	movs	r1, #0
 8001ea2:	4618      	mov	r0, r3
 8001ea4:	f002 f9bc 	bl	8004220 <memset>
  LL_GPIO_InitTypeDef GPIO_InitStruct = {0};
 8001ea8:	463b      	mov	r3, r7
 8001eaa:	2200      	movs	r2, #0
 8001eac:	601a      	str	r2, [r3, #0]
 8001eae:	605a      	str	r2, [r3, #4]
 8001eb0:	609a      	str	r2, [r3, #8]
 8001eb2:	60da      	str	r2, [r3, #12]
 8001eb4:	611a      	str	r2, [r3, #16]
 8001eb6:	615a      	str	r2, [r3, #20]

  /* Peripheral clock enable */
  LL_APB1_GRP1_EnableClock(LL_APB1_GRP1_PERIPH_SPI2);
 8001eb8:	f44f 4080 	mov.w	r0, #16384	; 0x4000
 8001ebc:	f7ff fe1a 	bl	8001af4 <LL_APB1_GRP1_EnableClock>
  LL_AHB1_GRP1_EnableClock(LL_AHB1_GRP1_PERIPH_GPIOB);
 8001ec0:	2002      	movs	r0, #2
 8001ec2:	f7ff fdff 	bl	8001ac4 <LL_AHB1_GRP1_EnableClock>
  Alt config -> PB10 ------> SPI2_SCK
  Alt config -> PC2  ------> SPI2_MISO
  Alt config -> PC3  ------> SPI2_MOSI
  */

  GPIO_InitStruct.Pin = LL_GPIO_PIN_13|LL_GPIO_PIN_14|LL_GPIO_PIN_15;
 8001ec6:	f44f 4360 	mov.w	r3, #57344	; 0xe000
 8001eca:	603b      	str	r3, [r7, #0]
  GPIO_InitStruct.Mode = LL_GPIO_MODE_ALTERNATE;
 8001ecc:	2302      	movs	r3, #2
 8001ece:	607b      	str	r3, [r7, #4]
  GPIO_InitStruct.Speed = LL_GPIO_SPEED_FREQ_VERY_HIGH;
 8001ed0:	2303      	movs	r3, #3
 8001ed2:	60bb      	str	r3, [r7, #8]
  GPIO_InitStruct.OutputType = LL_GPIO_OUTPUT_PUSHPULL;
 8001ed4:	2300      	movs	r3, #0
 8001ed6:	60fb      	str	r3, [r7, #12]
  GPIO_InitStruct.Pull = LL_GPIO_PULL_NO;
 8001ed8:	2300      	movs	r3, #0
 8001eda:	613b      	str	r3, [r7, #16]
  GPIO_InitStruct.Alternate = GPIO_AF5_SPI2;
 8001edc:	2305      	movs	r3, #5
 8001ede:	617b      	str	r3, [r7, #20]
  LL_GPIO_Init(GPIOB, &GPIO_InitStruct);
 8001ee0:	463b      	mov	r3, r7
 8001ee2:	4619      	mov	r1, r3
 8001ee4:	4841      	ldr	r0, [pc, #260]	; (8001fec <MX_SPI2_Init+0x158>)
 8001ee6:	f001 fed9 	bl	8003c9c <LL_GPIO_Init>
  LL_GPIO_Init(GPIOC, &GPIO_InitStruct);
  */

  /* SPI2 DMA Init */
  /* SPI2_RX Init */
  LL_DMA_SetChannelSelection(DMA1, LL_DMA_STREAM_3, LL_DMA_CHANNEL_0);
 8001eea:	2200      	movs	r2, #0
 8001eec:	2103      	movs	r1, #3
 8001eee:	4840      	ldr	r0, [pc, #256]	; (8001ff0 <MX_SPI2_Init+0x15c>)
 8001ef0:	f7ff fb52 	bl	8001598 <LL_DMA_SetChannelSelection>
  LL_DMA_SetDataTransferDirection(DMA1, LL_DMA_STREAM_3, LL_DMA_DIRECTION_PERIPH_TO_MEMORY);
 8001ef4:	2200      	movs	r2, #0
 8001ef6:	2103      	movs	r1, #3
 8001ef8:	483d      	ldr	r0, [pc, #244]	; (8001ff0 <MX_SPI2_Init+0x15c>)
 8001efa:	f7ff fa15 	bl	8001328 <LL_DMA_SetDataTransferDirection>
  LL_DMA_SetStreamPriorityLevel(DMA1, LL_DMA_STREAM_3, LL_DMA_PRIORITY_HIGH);
 8001efe:	f44f 3200 	mov.w	r2, #131072	; 0x20000
 8001f02:	2103      	movs	r1, #3
 8001f04:	483a      	ldr	r0, [pc, #232]	; (8001ff0 <MX_SPI2_Init+0x15c>)
 8001f06:	f7ff faff 	bl	8001508 <LL_DMA_SetStreamPriorityLevel>
  LL_DMA_SetMode(DMA1, LL_DMA_STREAM_3, LL_DMA_MODE_NORMAL);
 8001f0a:	2200      	movs	r2, #0
 8001f0c:	2103      	movs	r1, #3
 8001f0e:	4838      	ldr	r0, [pc, #224]	; (8001ff0 <MX_SPI2_Init+0x15c>)
 8001f10:	f7ff fa46 	bl	80013a0 <LL_DMA_SetMode>
  LL_DMA_SetPeriphIncMode(DMA1, LL_DMA_STREAM_3, LL_DMA_PERIPH_NOINCREMENT);
 8001f14:	2200      	movs	r2, #0
 8001f16:	2103      	movs	r1, #3
 8001f18:	4835      	ldr	r0, [pc, #212]	; (8001ff0 <MX_SPI2_Init+0x15c>)
 8001f1a:	f7ff fa65 	bl	80013e8 <LL_DMA_SetPeriphIncMode>
  LL_DMA_SetMemoryIncMode(DMA1, LL_DMA_STREAM_3, LL_DMA_MEMORY_INCREMENT);
 8001f1e:	f44f 6280 	mov.w	r2, #1024	; 0x400
 8001f22:	2103      	movs	r1, #3
 8001f24:	4832      	ldr	r0, [pc, #200]	; (8001ff0 <MX_SPI2_Init+0x15c>)
 8001f26:	f7ff fa83 	bl	8001430 <LL_DMA_SetMemoryIncMode>
  LL_DMA_SetPeriphSize(DMA1, LL_DMA_STREAM_3, LL_DMA_PDATAALIGN_BYTE);
 8001f2a:	2200      	movs	r2, #0
 8001f2c:	2103      	movs	r1, #3
 8001f2e:	4830      	ldr	r0, [pc, #192]	; (8001ff0 <MX_SPI2_Init+0x15c>)
 8001f30:	f7ff faa2 	bl	8001478 <LL_DMA_SetPeriphSize>
  LL_DMA_SetMemorySize(DMA1, LL_DMA_STREAM_3, LL_DMA_MDATAALIGN_BYTE);
 8001f34:	2200      	movs	r2, #0
 8001f36:	2103      	movs	r1, #3
 8001f38:	482d      	ldr	r0, [pc, #180]	; (8001ff0 <MX_SPI2_Init+0x15c>)
 8001f3a:	f7ff fac1 	bl	80014c0 <LL_DMA_SetMemorySize>
  LL_DMA_DisableFifoMode(DMA1, LL_DMA_STREAM_3);
 8001f3e:	2103      	movs	r1, #3
 8001f40:	482b      	ldr	r0, [pc, #172]	; (8001ff0 <MX_SPI2_Init+0x15c>)
 8001f42:	f7ff fb4d 	bl	80015e0 <LL_DMA_DisableFifoMode>

  /* SPI2_TX Init */
  LL_DMA_SetChannelSelection(DMA1, LL_DMA_STREAM_4, LL_DMA_CHANNEL_0);
 8001f46:	2200      	movs	r2, #0
 8001f48:	2104      	movs	r1, #4
 8001f4a:	4829      	ldr	r0, [pc, #164]	; (8001ff0 <MX_SPI2_Init+0x15c>)
 8001f4c:	f7ff fb24 	bl	8001598 <LL_DMA_SetChannelSelection>
  LL_DMA_SetDataTransferDirection(DMA1, LL_DMA_STREAM_4, LL_DMA_DIRECTION_MEMORY_TO_PERIPH);
 8001f50:	2240      	movs	r2, #64	; 0x40
 8001f52:	2104      	movs	r1, #4
 8001f54:	4826      	ldr	r0, [pc, #152]	; (8001ff0 <MX_SPI2_Init+0x15c>)
 8001f56:	f7ff f9e7 	bl	8001328 <LL_DMA_SetDataTransferDirection>
  LL_DMA_SetStreamPriorityLevel(DMA1, LL_DMA_STREAM_4, LL_DMA_PRIORITY_HIGH);
 8001f5a:	f44f 3200 	mov.w	r2, #131072	; 0x20000
 8001f5e:	2104      	movs	r1, #4
 8001f60:	4823      	ldr	r0, [pc, #140]	; (8001ff0 <MX_SPI2_Init+0x15c>)
 8001f62:	f7ff fad1 	bl	8001508 <LL_DMA_SetStreamPriorityLevel>
  LL_DMA_SetMode(DMA1, LL_DMA_STREAM_4, LL_DMA_MODE_NORMAL);
 8001f66:	2200      	movs	r2, #0
 8001f68:	2104      	movs	r1, #4
 8001f6a:	4821      	ldr	r0, [pc, #132]	; (8001ff0 <MX_SPI2_Init+0x15c>)
 8001f6c:	f7ff fa18 	bl	80013a0 <LL_DMA_SetMode>
  LL_DMA_SetPeriphIncMode(DMA1, LL_DMA_STREAM_4, LL_DMA_PERIPH_NOINCREMENT);
 8001f70:	2200      	movs	r2, #0
 8001f72:	2104      	movs	r1, #4
 8001f74:	481e      	ldr	r0, [pc, #120]	; (8001ff0 <MX_SPI2_Init+0x15c>)
 8001f76:	f7ff fa37 	bl	80013e8 <LL_DMA_SetPeriphIncMode>
  LL_DMA_SetMemoryIncMode(DMA1, LL_DMA_STREAM_4, LL_DMA_MEMORY_INCREMENT);
 8001f7a:	f44f 6280 	mov.w	r2, #1024	; 0x400
 8001f7e:	2104      	movs	r1, #4
 8001f80:	481b      	ldr	r0, [pc, #108]	; (8001ff0 <MX_SPI2_Init+0x15c>)
 8001f82:	f7ff fa55 	bl	8001430 <LL_DMA_SetMemoryIncMode>
  LL_DMA_SetPeriphSize(DMA1, LL_DMA_STREAM_4, LL_DMA_PDATAALIGN_BYTE);
 8001f86:	2200      	movs	r2, #0
 8001f88:	2104      	movs	r1, #4
 8001f8a:	4819      	ldr	r0, [pc, #100]	; (8001ff0 <MX_SPI2_Init+0x15c>)
 8001f8c:	f7ff fa74 	bl	8001478 <LL_DMA_SetPeriphSize>
  LL_DMA_SetMemorySize(DMA1, LL_DMA_STREAM_4, LL_DMA_MDATAALIGN_BYTE);
 8001f90:	2200      	movs	r2, #0
 8001f92:	2104      	movs	r1, #4
 8001f94:	4816      	ldr	r0, [pc, #88]	; (8001ff0 <MX_SPI2_Init+0x15c>)
 8001f96:	f7ff fa93 	bl	80014c0 <LL_DMA_SetMemorySize>
  LL_DMA_DisableFifoMode(DMA1, LL_DMA_STREAM_4);
 8001f9a:	2104      	movs	r1, #4
 8001f9c:	4814      	ldr	r0, [pc, #80]	; (8001ff0 <MX_SPI2_Init+0x15c>)
 8001f9e:	f7ff fb1f 	bl	80015e0 <LL_DMA_DisableFifoMode>

  /* SPI2 parameter configuration*/
  SPI_InitStruct.TransferDirection = LL_SPI_FULL_DUPLEX;
 8001fa2:	2300      	movs	r3, #0
 8001fa4:	61bb      	str	r3, [r7, #24]
  SPI_InitStruct.Mode = LL_SPI_MODE_MASTER;
 8001fa6:	f44f 7382 	mov.w	r3, #260	; 0x104
 8001faa:	61fb      	str	r3, [r7, #28]
  SPI_InitStruct.DataWidth = LL_SPI_DATAWIDTH_8BIT;
 8001fac:	2300      	movs	r3, #0
 8001fae:	623b      	str	r3, [r7, #32]
  SPI_InitStruct.ClockPolarity = LL_SPI_POLARITY_LOW;
 8001fb0:	2300      	movs	r3, #0
 8001fb2:	627b      	str	r3, [r7, #36]	; 0x24
  SPI_InitStruct.ClockPhase = LL_SPI_PHASE_2EDGE;
 8001fb4:	2301      	movs	r3, #1
 8001fb6:	62bb      	str	r3, [r7, #40]	; 0x28
  SPI_InitStruct.NSS = LL_SPI_NSS_SOFT;
 8001fb8:	f44f 7300 	mov.w	r3, #512	; 0x200
 8001fbc:	62fb      	str	r3, [r7, #44]	; 0x2c
  SPI_InitStruct.BaudRate = LL_SPI_BAUDRATEPRESCALER_DIV32;
 8001fbe:	2320      	movs	r3, #32
 8001fc0:	633b      	str	r3, [r7, #48]	; 0x30
  SPI_InitStruct.BitOrder = LL_SPI_MSB_FIRST;
 8001fc2:	2300      	movs	r3, #0
 8001fc4:	637b      	str	r3, [r7, #52]	; 0x34
  SPI_InitStruct.CRCCalculation = LL_SPI_CRCCALCULATION_DISABLE;
 8001fc6:	2300      	movs	r3, #0
 8001fc8:	63bb      	str	r3, [r7, #56]	; 0x38
  SPI_InitStruct.CRCPoly = 10;
 8001fca:	230a      	movs	r3, #10
 8001fcc:	63fb      	str	r3, [r7, #60]	; 0x3c
  LL_SPI_Init(SPI2, &SPI_InitStruct);
 8001fce:	f107 0318 	add.w	r3, r7, #24
 8001fd2:	4619      	mov	r1, r3
 8001fd4:	4807      	ldr	r0, [pc, #28]	; (8001ff4 <MX_SPI2_Init+0x160>)
 8001fd6:	f001 fff8 	bl	8003fca <LL_SPI_Init>
  LL_SPI_SetStandard(SPI2, LL_SPI_PROTOCOL_MOTOROLA);
 8001fda:	2100      	movs	r1, #0
 8001fdc:	4805      	ldr	r0, [pc, #20]	; (8001ff4 <MX_SPI2_Init+0x160>)
 8001fde:	f7ff fc21 	bl	8001824 <LL_SPI_SetStandard>

}
 8001fe2:	bf00      	nop
 8001fe4:	3740      	adds	r7, #64	; 0x40
 8001fe6:	46bd      	mov	sp, r7
 8001fe8:	bd80      	pop	{r7, pc}
 8001fea:	bf00      	nop
 8001fec:	40020400 	.word	0x40020400
 8001ff0:	40026000 	.word	0x40026000
 8001ff4:	40003800 	.word	0x40003800

08001ff8 <MX_TIM2_Init>:
  * @brief TIM2 Initialization Function
  * @param None
  * @retval None
  */
static void MX_TIM2_Init(void)
{
 8001ff8:	b580      	push	{r7, lr}
 8001ffa:	b086      	sub	sp, #24
 8001ffc:	af00      	add	r7, sp, #0

  /* USER CODE BEGIN TIM2_Init 0 */

  /* USER CODE END TIM2_Init 0 */

  LL_TIM_InitTypeDef TIM_InitStruct = {0};
 8001ffe:	1d3b      	adds	r3, r7, #4
 8002000:	2200      	movs	r2, #0
 8002002:	601a      	str	r2, [r3, #0]
 8002004:	605a      	str	r2, [r3, #4]
 8002006:	609a      	str	r2, [r3, #8]
 8002008:	60da      	str	r2, [r3, #12]
 800200a:	611a      	str	r2, [r3, #16]

  /* Peripheral clock enable */
  LL_APB1_GRP1_EnableClock(LL_APB1_GRP1_PERIPH_TIM2);
 800200c:	2001      	movs	r0, #1
 800200e:	f7ff fd71 	bl	8001af4 <LL_APB1_GRP1_EnableClock>

  /* USER CODE BEGIN TIM2_Init 1 */

  /* USER CODE END TIM2_Init 1 */
  TIM_InitStruct.Prescaler = 21000;
 8002012:	f245 2308 	movw	r3, #21000	; 0x5208
 8002016:	80bb      	strh	r3, [r7, #4]
  TIM_InitStruct.CounterMode = LL_TIM_COUNTERMODE_UP;
 8002018:	2300      	movs	r3, #0
 800201a:	60bb      	str	r3, [r7, #8]
  TIM_InitStruct.Autoreload = 4294967295;
 800201c:	f04f 33ff 	mov.w	r3, #4294967295
 8002020:	60fb      	str	r3, [r7, #12]
  TIM_InitStruct.ClockDivision = LL_TIM_CLOCKDIVISION_DIV4;
 8002022:	f44f 7300 	mov.w	r3, #512	; 0x200
 8002026:	613b      	str	r3, [r7, #16]
  LL_TIM_Init(TIM2, &TIM_InitStruct);
 8002028:	1d3b      	adds	r3, r7, #4
 800202a:	4619      	mov	r1, r3
 800202c:	f04f 4080 	mov.w	r0, #1073741824	; 0x40000000
 8002030:	f002 f858 	bl	80040e4 <LL_TIM_Init>
  LL_TIM_DisableARRPreload(TIM2);
 8002034:	f04f 4080 	mov.w	r0, #1073741824	; 0x40000000
 8002038:	f7ff fc43 	bl	80018c2 <LL_TIM_DisableARRPreload>
  LL_TIM_SetClockSource(TIM2, LL_TIM_CLOCKSOURCE_INTERNAL);
 800203c:	2100      	movs	r1, #0
 800203e:	f04f 4080 	mov.w	r0, #1073741824	; 0x40000000
 8002042:	f7ff fc5c 	bl	80018fe <LL_TIM_SetClockSource>
  LL_TIM_SetTriggerOutput(TIM2, LL_TIM_TRGO_RESET);
 8002046:	2100      	movs	r1, #0
 8002048:	f04f 4080 	mov.w	r0, #1073741824	; 0x40000000
 800204c:	f7ff fc6c 	bl	8001928 <LL_TIM_SetTriggerOutput>
  LL_TIM_DisableMasterSlaveMode(TIM2);
 8002050:	f04f 4080 	mov.w	r0, #1073741824	; 0x40000000
 8002054:	f7ff fc7b 	bl	800194e <LL_TIM_DisableMasterSlaveMode>
  /* USER CODE BEGIN TIM2_Init 2 */

  /* USER CODE END TIM2_Init 2 */

}
 8002058:	bf00      	nop
 800205a:	3718      	adds	r7, #24
 800205c:	46bd      	mov	sp, r7
 800205e:	bd80      	pop	{r7, pc}

08002060 <MX_TIM3_Init>:
  * @brief TIM3 Initialization Function
  * @param None
  * @retval None
  */
static void MX_TIM3_Init(void)
{
 8002060:	b580      	push	{r7, lr}
 8002062:	b086      	sub	sp, #24
 8002064:	af00      	add	r7, sp, #0

  /* USER CODE BEGIN TIM3_Init 0 */

  /* USER CODE END TIM3_Init 0 */

  LL_TIM_InitTypeDef TIM_InitStruct = {0};
 8002066:	1d3b      	adds	r3, r7, #4
 8002068:	2200      	movs	r2, #0
 800206a:	601a      	str	r2, [r3, #0]
 800206c:	605a      	str	r2, [r3, #4]
 800206e:	609a      	str	r2, [r3, #8]
 8002070:	60da      	str	r2, [r3, #12]
 8002072:	611a      	str	r2, [r3, #16]

  /* Peripheral clock enable */
  LL_APB1_GRP1_EnableClock(LL_APB1_GRP1_PERIPH_TIM3);
 8002074:	2002      	movs	r0, #2
 8002076:	f7ff fd3d 	bl	8001af4 <LL_APB1_GRP1_EnableClock>

  /* USER CODE BEGIN TIM3_Init 1 */

  /* USER CODE END TIM3_Init 1 */
  TIM_InitStruct.Prescaler = 21;
 800207a:	2315      	movs	r3, #21
 800207c:	80bb      	strh	r3, [r7, #4]
  TIM_InitStruct.CounterMode = LL_TIM_COUNTERMODE_UP;
 800207e:	2300      	movs	r3, #0
 8002080:	60bb      	str	r3, [r7, #8]
  TIM_InitStruct.Autoreload = 65535;
 8002082:	f64f 73ff 	movw	r3, #65535	; 0xffff
 8002086:	60fb      	str	r3, [r7, #12]
  TIM_InitStruct.ClockDivision = LL_TIM_CLOCKDIVISION_DIV4;
 8002088:	f44f 7300 	mov.w	r3, #512	; 0x200
 800208c:	613b      	str	r3, [r7, #16]
  LL_TIM_Init(TIM3, &TIM_InitStruct);
 800208e:	1d3b      	adds	r3, r7, #4
 8002090:	4619      	mov	r1, r3
 8002092:	480a      	ldr	r0, [pc, #40]	; (80020bc <MX_TIM3_Init+0x5c>)
 8002094:	f002 f826 	bl	80040e4 <LL_TIM_Init>
  LL_TIM_DisableARRPreload(TIM3);
 8002098:	4808      	ldr	r0, [pc, #32]	; (80020bc <MX_TIM3_Init+0x5c>)
 800209a:	f7ff fc12 	bl	80018c2 <LL_TIM_DisableARRPreload>
  LL_TIM_SetClockSource(TIM3, LL_TIM_CLOCKSOURCE_INTERNAL);
 800209e:	2100      	movs	r1, #0
 80020a0:	4806      	ldr	r0, [pc, #24]	; (80020bc <MX_TIM3_Init+0x5c>)
 80020a2:	f7ff fc2c 	bl	80018fe <LL_TIM_SetClockSource>
  LL_TIM_SetTriggerOutput(TIM3, LL_TIM_TRGO_RESET);
 80020a6:	2100      	movs	r1, #0
 80020a8:	4804      	ldr	r0, [pc, #16]	; (80020bc <MX_TIM3_Init+0x5c>)
 80020aa:	f7ff fc3d 	bl	8001928 <LL_TIM_SetTriggerOutput>
  LL_TIM_DisableMasterSlaveMode(TIM3);
 80020ae:	4803      	ldr	r0, [pc, #12]	; (80020bc <MX_TIM3_Init+0x5c>)
 80020b0:	f7ff fc4d 	bl	800194e <LL_TIM_DisableMasterSlaveMode>
  /* USER CODE BEGIN TIM3_Init 2 */

  /* USER CODE END TIM3_Init 2 */

}
 80020b4:	bf00      	nop
 80020b6:	3718      	adds	r7, #24
 80020b8:	46bd      	mov	sp, r7
 80020ba:	bd80      	pop	{r7, pc}
 80020bc:	40000400 	.word	0x40000400

080020c0 <MX_DMA_Init>:

/**
  * Enable DMA controller clock
  */
static void MX_DMA_Init(void)
{
 80020c0:	b580      	push	{r7, lr}
 80020c2:	af00      	add	r7, sp, #0

  /* Init with LL driver */
  /* DMA controller clock enable */
  LL_AHB1_GRP1_EnableClock(LL_AHB1_GRP1_PERIPH_DMA1);
 80020c4:	f44f 1000 	mov.w	r0, #2097152	; 0x200000
 80020c8:	f7ff fcfc 	bl	8001ac4 <LL_AHB1_GRP1_EnableClock>

  /* DMA interrupt init */
  /* DMA1_Stream3_IRQn interrupt configuration */
  NVIC_SetPriority(DMA1_Stream3_IRQn, NVIC_EncodePriority(NVIC_GetPriorityGrouping(),3, 0));
 80020cc:	f7ff f87e 	bl	80011cc <__NVIC_GetPriorityGrouping>
 80020d0:	4603      	mov	r3, r0
 80020d2:	2200      	movs	r2, #0
 80020d4:	2103      	movs	r1, #3
 80020d6:	4618      	mov	r0, r3
 80020d8:	f7ff f8f2 	bl	80012c0 <NVIC_EncodePriority>
 80020dc:	4603      	mov	r3, r0
 80020de:	4619      	mov	r1, r3
 80020e0:	200e      	movs	r0, #14
 80020e2:	f7ff f8c3 	bl	800126c <__NVIC_SetPriority>
  NVIC_EnableIRQ(DMA1_Stream3_IRQn);
 80020e6:	200e      	movs	r0, #14
 80020e8:	f7ff f87e 	bl	80011e8 <__NVIC_EnableIRQ>
  /* DMA1_Stream4_IRQn interrupt configuration */
  NVIC_SetPriority(DMA1_Stream4_IRQn, NVIC_EncodePriority(NVIC_GetPriorityGrouping(),2, 0));
 80020ec:	f7ff f86e 	bl	80011cc <__NVIC_GetPriorityGrouping>
 80020f0:	4603      	mov	r3, r0
 80020f2:	2200      	movs	r2, #0
 80020f4:	2102      	movs	r1, #2
 80020f6:	4618      	mov	r0, r3
 80020f8:	f7ff f8e2 	bl	80012c0 <NVIC_EncodePriority>
 80020fc:	4603      	mov	r3, r0
 80020fe:	4619      	mov	r1, r3
 8002100:	200f      	movs	r0, #15
 8002102:	f7ff f8b3 	bl	800126c <__NVIC_SetPriority>
  NVIC_EnableIRQ(DMA1_Stream4_IRQn);
 8002106:	200f      	movs	r0, #15
 8002108:	f7ff f86e 	bl	80011e8 <__NVIC_EnableIRQ>

}
 800210c:	bf00      	nop
 800210e:	bd80      	pop	{r7, pc}

08002110 <MX_GPIO_Init>:
  * @brief GPIO Initialization Function
  * @param None
  * @retval None
  */
static void MX_GPIO_Init(void)
{
 8002110:	b580      	push	{r7, lr}
 8002112:	b088      	sub	sp, #32
 8002114:	af00      	add	r7, sp, #0
  LL_EXTI_InitTypeDef EXTI_InitStruct = {0};
 8002116:	f107 0318 	add.w	r3, r7, #24
 800211a:	2200      	movs	r2, #0
 800211c:	601a      	str	r2, [r3, #0]
 800211e:	605a      	str	r2, [r3, #4]
  LL_GPIO_InitTypeDef GPIO_InitStruct = {0};
 8002120:	463b      	mov	r3, r7
 8002122:	2200      	movs	r2, #0
 8002124:	601a      	str	r2, [r3, #0]
 8002126:	605a      	str	r2, [r3, #4]
 8002128:	609a      	str	r2, [r3, #8]
 800212a:	60da      	str	r2, [r3, #12]
 800212c:	611a      	str	r2, [r3, #16]
 800212e:	615a      	str	r2, [r3, #20]

  /* GPIO Ports Clock Enable */
  LL_AHB1_GRP1_EnableClock(LL_AHB1_GRP1_PERIPH_GPIOC);
 8002130:	2004      	movs	r0, #4
 8002132:	f7ff fcc7 	bl	8001ac4 <LL_AHB1_GRP1_EnableClock>
  LL_AHB1_GRP1_EnableClock(LL_AHB1_GRP1_PERIPH_GPIOH);
 8002136:	2080      	movs	r0, #128	; 0x80
 8002138:	f7ff fcc4 	bl	8001ac4 <LL_AHB1_GRP1_EnableClock>
  LL_AHB1_GRP1_EnableClock(LL_AHB1_GRP1_PERIPH_GPIOB);
 800213c:	2002      	movs	r0, #2
 800213e:	f7ff fcc1 	bl	8001ac4 <LL_AHB1_GRP1_EnableClock>
  LL_AHB1_GRP1_EnableClock(LL_AHB1_GRP1_PERIPH_GPIOA);
 8002142:	2001      	movs	r0, #1
 8002144:	f7ff fcbe 	bl	8001ac4 <LL_AHB1_GRP1_EnableClock>
  LL_AHB1_GRP1_EnableClock(LL_AHB1_GRP1_PERIPH_GPIOD);
 8002148:	2008      	movs	r0, #8
 800214a:	f7ff fcbb 	bl	8001ac4 <LL_AHB1_GRP1_EnableClock>

  LL_GPIO_ResetOutputPin(GPIOB, Probe_Out_Pin|SW2_Pin);
 800214e:	f240 4102 	movw	r1, #1026	; 0x402
 8002152:	483c      	ldr	r0, [pc, #240]	; (8002244 <MX_GPIO_Init+0x134>)
 8002154:	f7ff fca6 	bl	8001aa4 <LL_GPIO_ResetOutputPin>
  LL_GPIO_ResetOutputPin(GPIOA, ADC_Reset_Pin|ADC_PDWN_Pin);
 8002158:	f44f 61c0 	mov.w	r1, #1536	; 0x600
 800215c:	483a      	ldr	r0, [pc, #232]	; (8002248 <MX_GPIO_Init+0x138>)
 800215e:	f7ff fca1 	bl	8001aa4 <LL_GPIO_ResetOutputPin>

  LL_GPIO_SetOutputPin(GPIOB, SW1_Pin|ADC_CS_Pin);
 8002162:	f241 0104 	movw	r1, #4100	; 0x1004
 8002166:	4837      	ldr	r0, [pc, #220]	; (8002244 <MX_GPIO_Init+0x134>)
 8002168:	f7ff fc8e 	bl	8001a88 <LL_GPIO_SetOutputPin>

  GPIO_InitStruct.Pin = Control_Pin;
 800216c:	2301      	movs	r3, #1
 800216e:	603b      	str	r3, [r7, #0]
  GPIO_InitStruct.Mode = LL_GPIO_MODE_INPUT;
 8002170:	2300      	movs	r3, #0
 8002172:	607b      	str	r3, [r7, #4]
  GPIO_InitStruct.Pull = LL_GPIO_PULL_DOWN;
 8002174:	2302      	movs	r3, #2
 8002176:	613b      	str	r3, [r7, #16]
  LL_GPIO_Init(Control_GPIO_Port, &GPIO_InitStruct);
 8002178:	463b      	mov	r3, r7
 800217a:	4619      	mov	r1, r3
 800217c:	4831      	ldr	r0, [pc, #196]	; (8002244 <MX_GPIO_Init+0x134>)
 800217e:	f001 fd8d 	bl	8003c9c <LL_GPIO_Init>

  /**/
  GPIO_InitStruct.Pin = Probe_Out_Pin;
 8002182:	2302      	movs	r3, #2
 8002184:	603b      	str	r3, [r7, #0]
  GPIO_InitStruct.Mode = LL_GPIO_MODE_OUTPUT;
 8002186:	2301      	movs	r3, #1
 8002188:	607b      	str	r3, [r7, #4]
  GPIO_InitStruct.Speed = LL_GPIO_SPEED_FREQ_HIGH;
 800218a:	2302      	movs	r3, #2
 800218c:	60bb      	str	r3, [r7, #8]
  GPIO_InitStruct.OutputType = LL_GPIO_OUTPUT_PUSHPULL;
 800218e:	2300      	movs	r3, #0
 8002190:	60fb      	str	r3, [r7, #12]
  GPIO_InitStruct.Pull = LL_GPIO_PULL_NO;
 8002192:	2300      	movs	r3, #0
 8002194:	613b      	str	r3, [r7, #16]
  LL_GPIO_Init(Probe_Out_GPIO_Port, &GPIO_InitStruct);
 8002196:	463b      	mov	r3, r7
 8002198:	4619      	mov	r1, r3
 800219a:	482a      	ldr	r0, [pc, #168]	; (8002244 <MX_GPIO_Init+0x134>)
 800219c:	f001 fd7e 	bl	8003c9c <LL_GPIO_Init>

  /**/
  GPIO_InitStruct.Pin = SW1_Pin|SW2_Pin|ADC_CS_Pin;
 80021a0:	f241 4304 	movw	r3, #5124	; 0x1404
 80021a4:	603b      	str	r3, [r7, #0]
  GPIO_InitStruct.Mode = LL_GPIO_MODE_OUTPUT;
 80021a6:	2301      	movs	r3, #1
 80021a8:	607b      	str	r3, [r7, #4]
  GPIO_InitStruct.Speed = LL_GPIO_SPEED_FREQ_MEDIUM;
 80021aa:	2301      	movs	r3, #1
 80021ac:	60bb      	str	r3, [r7, #8]
  GPIO_InitStruct.OutputType = LL_GPIO_OUTPUT_PUSHPULL;
 80021ae:	2300      	movs	r3, #0
 80021b0:	60fb      	str	r3, [r7, #12]
  GPIO_InitStruct.Pull = LL_GPIO_PULL_NO;
 80021b2:	2300      	movs	r3, #0
 80021b4:	613b      	str	r3, [r7, #16]
  LL_GPIO_Init(GPIOB, &GPIO_InitStruct);
 80021b6:	463b      	mov	r3, r7
 80021b8:	4619      	mov	r1, r3
 80021ba:	4822      	ldr	r0, [pc, #136]	; (8002244 <MX_GPIO_Init+0x134>)
 80021bc:	f001 fd6e 	bl	8003c9c <LL_GPIO_Init>

  /**/
  GPIO_InitStruct.Pin = ADC_Reset_Pin|ADC_PDWN_Pin;
 80021c0:	f44f 63c0 	mov.w	r3, #1536	; 0x600
 80021c4:	603b      	str	r3, [r7, #0]
  GPIO_InitStruct.Mode = LL_GPIO_MODE_OUTPUT;
 80021c6:	2301      	movs	r3, #1
 80021c8:	607b      	str	r3, [r7, #4]
  GPIO_InitStruct.Speed = LL_GPIO_SPEED_FREQ_LOW;
 80021ca:	2300      	movs	r3, #0
 80021cc:	60bb      	str	r3, [r7, #8]
  GPIO_InitStruct.OutputType = LL_GPIO_OUTPUT_PUSHPULL;
 80021ce:	2300      	movs	r3, #0
 80021d0:	60fb      	str	r3, [r7, #12]
  GPIO_InitStruct.Pull = LL_GPIO_PULL_NO;
 80021d2:	2300      	movs	r3, #0
 80021d4:	613b      	str	r3, [r7, #16]
  LL_GPIO_Init(GPIOA, &GPIO_InitStruct);
 80021d6:	463b      	mov	r3, r7
 80021d8:	4619      	mov	r1, r3
 80021da:	481b      	ldr	r0, [pc, #108]	; (8002248 <MX_GPIO_Init+0x138>)
 80021dc:	f001 fd5e 	bl	8003c9c <LL_GPIO_Init>

  /**/
  LL_SYSCFG_SetEXTISource(LL_SYSCFG_EXTI_PORTA, LL_SYSCFG_EXTI_LINE8);
 80021e0:	491a      	ldr	r1, [pc, #104]	; (800224c <MX_GPIO_Init+0x13c>)
 80021e2:	2000      	movs	r0, #0
 80021e4:	f7ff fbc4 	bl	8001970 <LL_SYSCFG_SetEXTISource>

  /**/
  EXTI_InitStruct.Line_0_31 = LL_EXTI_LINE_8;
 80021e8:	f44f 7380 	mov.w	r3, #256	; 0x100
 80021ec:	61bb      	str	r3, [r7, #24]
  EXTI_InitStruct.LineCommand = ENABLE;
 80021ee:	2301      	movs	r3, #1
 80021f0:	773b      	strb	r3, [r7, #28]
  EXTI_InitStruct.Mode = LL_EXTI_MODE_IT;
 80021f2:	2300      	movs	r3, #0
 80021f4:	777b      	strb	r3, [r7, #29]
  EXTI_InitStruct.Trigger = LL_EXTI_TRIGGER_FALLING;
 80021f6:	2302      	movs	r3, #2
 80021f8:	77bb      	strb	r3, [r7, #30]
  LL_EXTI_Init(&EXTI_InitStruct);
 80021fa:	f107 0318 	add.w	r3, r7, #24
 80021fe:	4618      	mov	r0, r3
 8002200:	f001 fbc6 	bl	8003990 <LL_EXTI_Init>

  /**/
  LL_GPIO_SetPinPull(ADC_DRDY_GPIO_Port, ADC_DRDY_Pin, LL_GPIO_PULL_NO);
 8002204:	2200      	movs	r2, #0
 8002206:	f44f 7180 	mov.w	r1, #256	; 0x100
 800220a:	480f      	ldr	r0, [pc, #60]	; (8002248 <MX_GPIO_Init+0x138>)
 800220c:	f7ff fc0d 	bl	8001a2a <LL_GPIO_SetPinPull>

  /**/
  LL_GPIO_SetPinMode(ADC_DRDY_GPIO_Port, ADC_DRDY_Pin, LL_GPIO_MODE_INPUT);
 8002210:	2200      	movs	r2, #0
 8002212:	f44f 7180 	mov.w	r1, #256	; 0x100
 8002216:	480c      	ldr	r0, [pc, #48]	; (8002248 <MX_GPIO_Init+0x138>)
 8002218:	f7ff fbd8 	bl	80019cc <LL_GPIO_SetPinMode>

  /* EXTI interrupt init*/
  NVIC_SetPriority(EXTI9_5_IRQn, NVIC_EncodePriority(NVIC_GetPriorityGrouping(),1, 0));
 800221c:	f7fe ffd6 	bl	80011cc <__NVIC_GetPriorityGrouping>
 8002220:	4603      	mov	r3, r0
 8002222:	2200      	movs	r2, #0
 8002224:	2101      	movs	r1, #1
 8002226:	4618      	mov	r0, r3
 8002228:	f7ff f84a 	bl	80012c0 <NVIC_EncodePriority>
 800222c:	4603      	mov	r3, r0
 800222e:	4619      	mov	r1, r3
 8002230:	2017      	movs	r0, #23
 8002232:	f7ff f81b 	bl	800126c <__NVIC_SetPriority>
  NVIC_EnableIRQ(EXTI9_5_IRQn);
 8002236:	2017      	movs	r0, #23
 8002238:	f7fe ffd6 	bl	80011e8 <__NVIC_EnableIRQ>

}
 800223c:	bf00      	nop
 800223e:	3720      	adds	r7, #32
 8002240:	46bd      	mov	sp, r7
 8002242:	bd80      	pop	{r7, pc}
 8002244:	40020400 	.word	0x40020400
 8002248:	40020000 	.word	0x40020000
 800224c:	000f0002 	.word	0x000f0002

08002250 <Error_Handler>:
/**
  * @brief  This function is executed in case of error occurrence.
  * @retval None
  */
void Error_Handler(void)
{
 8002250:	b480      	push	{r7}
 8002252:	af00      	add	r7, sp, #0
  __ASM volatile ("cpsid i" : : : "memory");
 8002254:	b672      	cpsid	i
}
 8002256:	bf00      	nop
  /* USER CODE BEGIN Error_Handler_Debug */
  /* User can add his own implementation to report the HAL error return state */
  __disable_irq();
  while (1)
 8002258:	e7fe      	b.n	8002258 <Error_Handler+0x8>
	...

0800225c <HAL_MspInit>:
/* USER CODE END 0 */
/**
  * Initializes the Global MSP.
  */
void HAL_MspInit(void)
{
 800225c:	b480      	push	{r7}
 800225e:	b083      	sub	sp, #12
 8002260:	af00      	add	r7, sp, #0
  /* USER CODE BEGIN MspInit 0 */

  /* USER CODE END MspInit 0 */

  __HAL_RCC_SYSCFG_CLK_ENABLE();
 8002262:	2300      	movs	r3, #0
 8002264:	607b      	str	r3, [r7, #4]
 8002266:	4b10      	ldr	r3, [pc, #64]	; (80022a8 <HAL_MspInit+0x4c>)
 8002268:	6c5b      	ldr	r3, [r3, #68]	; 0x44
 800226a:	4a0f      	ldr	r2, [pc, #60]	; (80022a8 <HAL_MspInit+0x4c>)
 800226c:	f443 4380 	orr.w	r3, r3, #16384	; 0x4000
 8002270:	6453      	str	r3, [r2, #68]	; 0x44
 8002272:	4b0d      	ldr	r3, [pc, #52]	; (80022a8 <HAL_MspInit+0x4c>)
 8002274:	6c5b      	ldr	r3, [r3, #68]	; 0x44
 8002276:	f403 4380 	and.w	r3, r3, #16384	; 0x4000
 800227a:	607b      	str	r3, [r7, #4]
 800227c:	687b      	ldr	r3, [r7, #4]
  __HAL_RCC_PWR_CLK_ENABLE();
 800227e:	2300      	movs	r3, #0
 8002280:	603b      	str	r3, [r7, #0]
 8002282:	4b09      	ldr	r3, [pc, #36]	; (80022a8 <HAL_MspInit+0x4c>)
 8002284:	6c1b      	ldr	r3, [r3, #64]	; 0x40
 8002286:	4a08      	ldr	r2, [pc, #32]	; (80022a8 <HAL_MspInit+0x4c>)
 8002288:	f043 5380 	orr.w	r3, r3, #268435456	; 0x10000000
 800228c:	6413      	str	r3, [r2, #64]	; 0x40
 800228e:	4b06      	ldr	r3, [pc, #24]	; (80022a8 <HAL_MspInit+0x4c>)
 8002290:	6c1b      	ldr	r3, [r3, #64]	; 0x40
 8002292:	f003 5380 	and.w	r3, r3, #268435456	; 0x10000000
 8002296:	603b      	str	r3, [r7, #0]
 8002298:	683b      	ldr	r3, [r7, #0]
  /* System interrupt init*/

  /* USER CODE BEGIN MspInit 1 */

  /* USER CODE END MspInit 1 */
}
 800229a:	bf00      	nop
 800229c:	370c      	adds	r7, #12
 800229e:	46bd      	mov	sp, r7
 80022a0:	f85d 7b04 	ldr.w	r7, [sp], #4
 80022a4:	4770      	bx	lr
 80022a6:	bf00      	nop
 80022a8:	40023800 	.word	0x40023800

080022ac <LL_DMA_EnableStream>:
{
 80022ac:	b480      	push	{r7}
 80022ae:	b083      	sub	sp, #12
 80022b0:	af00      	add	r7, sp, #0
 80022b2:	6078      	str	r0, [r7, #4]
 80022b4:	6039      	str	r1, [r7, #0]
  SET_BIT(((DMA_Stream_TypeDef *)((uint32_t)((uint32_t)DMAx + STREAM_OFFSET_TAB[Stream])))->CR, DMA_SxCR_EN);
 80022b6:	4a0c      	ldr	r2, [pc, #48]	; (80022e8 <LL_DMA_EnableStream+0x3c>)
 80022b8:	683b      	ldr	r3, [r7, #0]
 80022ba:	4413      	add	r3, r2
 80022bc:	781b      	ldrb	r3, [r3, #0]
 80022be:	461a      	mov	r2, r3
 80022c0:	687b      	ldr	r3, [r7, #4]
 80022c2:	4413      	add	r3, r2
 80022c4:	681b      	ldr	r3, [r3, #0]
 80022c6:	4908      	ldr	r1, [pc, #32]	; (80022e8 <LL_DMA_EnableStream+0x3c>)
 80022c8:	683a      	ldr	r2, [r7, #0]
 80022ca:	440a      	add	r2, r1
 80022cc:	7812      	ldrb	r2, [r2, #0]
 80022ce:	4611      	mov	r1, r2
 80022d0:	687a      	ldr	r2, [r7, #4]
 80022d2:	440a      	add	r2, r1
 80022d4:	f043 0301 	orr.w	r3, r3, #1
 80022d8:	6013      	str	r3, [r2, #0]
}
 80022da:	bf00      	nop
 80022dc:	370c      	adds	r7, #12
 80022de:	46bd      	mov	sp, r7
 80022e0:	f85d 7b04 	ldr.w	r7, [sp], #4
 80022e4:	4770      	bx	lr
 80022e6:	bf00      	nop
 80022e8:	0800429c 	.word	0x0800429c

080022ec <LL_DMA_DisableStream>:
{
 80022ec:	b480      	push	{r7}
 80022ee:	b083      	sub	sp, #12
 80022f0:	af00      	add	r7, sp, #0
 80022f2:	6078      	str	r0, [r7, #4]
 80022f4:	6039      	str	r1, [r7, #0]
  CLEAR_BIT(((DMA_Stream_TypeDef *)((uint32_t)((uint32_t)DMAx + STREAM_OFFSET_TAB[Stream])))->CR, DMA_SxCR_EN);
 80022f6:	4a0c      	ldr	r2, [pc, #48]	; (8002328 <LL_DMA_DisableStream+0x3c>)
 80022f8:	683b      	ldr	r3, [r7, #0]
 80022fa:	4413      	add	r3, r2
 80022fc:	781b      	ldrb	r3, [r3, #0]
 80022fe:	461a      	mov	r2, r3
 8002300:	687b      	ldr	r3, [r7, #4]
 8002302:	4413      	add	r3, r2
 8002304:	681b      	ldr	r3, [r3, #0]
 8002306:	4908      	ldr	r1, [pc, #32]	; (8002328 <LL_DMA_DisableStream+0x3c>)
 8002308:	683a      	ldr	r2, [r7, #0]
 800230a:	440a      	add	r2, r1
 800230c:	7812      	ldrb	r2, [r2, #0]
 800230e:	4611      	mov	r1, r2
 8002310:	687a      	ldr	r2, [r7, #4]
 8002312:	440a      	add	r2, r1
 8002314:	f023 0301 	bic.w	r3, r3, #1
 8002318:	6013      	str	r3, [r2, #0]
}
 800231a:	bf00      	nop
 800231c:	370c      	adds	r7, #12
 800231e:	46bd      	mov	sp, r7
 8002320:	f85d 7b04 	ldr.w	r7, [sp], #4
 8002324:	4770      	bx	lr
 8002326:	bf00      	nop
 8002328:	0800429c 	.word	0x0800429c

0800232c <LL_DMA_IsActiveFlag_TC3>:
{
 800232c:	b480      	push	{r7}
 800232e:	b083      	sub	sp, #12
 8002330:	af00      	add	r7, sp, #0
 8002332:	6078      	str	r0, [r7, #4]
  return (READ_BIT(DMAx->LISR ,DMA_LISR_TCIF3)==(DMA_LISR_TCIF3));
 8002334:	687b      	ldr	r3, [r7, #4]
 8002336:	681b      	ldr	r3, [r3, #0]
 8002338:	f003 6300 	and.w	r3, r3, #134217728	; 0x8000000
 800233c:	f1b3 6f00 	cmp.w	r3, #134217728	; 0x8000000
 8002340:	bf0c      	ite	eq
 8002342:	2301      	moveq	r3, #1
 8002344:	2300      	movne	r3, #0
 8002346:	b2db      	uxtb	r3, r3
}
 8002348:	4618      	mov	r0, r3
 800234a:	370c      	adds	r7, #12
 800234c:	46bd      	mov	sp, r7
 800234e:	f85d 7b04 	ldr.w	r7, [sp], #4
 8002352:	4770      	bx	lr

08002354 <LL_DMA_IsActiveFlag_TC4>:
{
 8002354:	b480      	push	{r7}
 8002356:	b083      	sub	sp, #12
 8002358:	af00      	add	r7, sp, #0
 800235a:	6078      	str	r0, [r7, #4]
  return (READ_BIT(DMAx->HISR ,DMA_HISR_TCIF4)==(DMA_HISR_TCIF4));
 800235c:	687b      	ldr	r3, [r7, #4]
 800235e:	685b      	ldr	r3, [r3, #4]
 8002360:	f003 0320 	and.w	r3, r3, #32
 8002364:	2b20      	cmp	r3, #32
 8002366:	bf0c      	ite	eq
 8002368:	2301      	moveq	r3, #1
 800236a:	2300      	movne	r3, #0
 800236c:	b2db      	uxtb	r3, r3
}
 800236e:	4618      	mov	r0, r3
 8002370:	370c      	adds	r7, #12
 8002372:	46bd      	mov	sp, r7
 8002374:	f85d 7b04 	ldr.w	r7, [sp], #4
 8002378:	4770      	bx	lr

0800237a <LL_DMA_IsActiveFlag_TE3>:
{
 800237a:	b480      	push	{r7}
 800237c:	b083      	sub	sp, #12
 800237e:	af00      	add	r7, sp, #0
 8002380:	6078      	str	r0, [r7, #4]
  return (READ_BIT(DMAx->LISR ,DMA_LISR_TEIF3)==(DMA_LISR_TEIF3));
 8002382:	687b      	ldr	r3, [r7, #4]
 8002384:	681b      	ldr	r3, [r3, #0]
 8002386:	f003 7300 	and.w	r3, r3, #33554432	; 0x2000000
 800238a:	f1b3 7f00 	cmp.w	r3, #33554432	; 0x2000000
 800238e:	bf0c      	ite	eq
 8002390:	2301      	moveq	r3, #1
 8002392:	2300      	movne	r3, #0
 8002394:	b2db      	uxtb	r3, r3
}
 8002396:	4618      	mov	r0, r3
 8002398:	370c      	adds	r7, #12
 800239a:	46bd      	mov	sp, r7
 800239c:	f85d 7b04 	ldr.w	r7, [sp], #4
 80023a0:	4770      	bx	lr

080023a2 <LL_DMA_IsActiveFlag_TE4>:
{
 80023a2:	b480      	push	{r7}
 80023a4:	b083      	sub	sp, #12
 80023a6:	af00      	add	r7, sp, #0
 80023a8:	6078      	str	r0, [r7, #4]
  return (READ_BIT(DMAx->HISR ,DMA_HISR_TEIF4)==(DMA_HISR_TEIF4));
 80023aa:	687b      	ldr	r3, [r7, #4]
 80023ac:	685b      	ldr	r3, [r3, #4]
 80023ae:	f003 0308 	and.w	r3, r3, #8
 80023b2:	2b08      	cmp	r3, #8
 80023b4:	bf0c      	ite	eq
 80023b6:	2301      	moveq	r3, #1
 80023b8:	2300      	movne	r3, #0
 80023ba:	b2db      	uxtb	r3, r3
}
 80023bc:	4618      	mov	r0, r3
 80023be:	370c      	adds	r7, #12
 80023c0:	46bd      	mov	sp, r7
 80023c2:	f85d 7b04 	ldr.w	r7, [sp], #4
 80023c6:	4770      	bx	lr

080023c8 <LL_DMA_ClearFlag_TC3>:
{
 80023c8:	b480      	push	{r7}
 80023ca:	b083      	sub	sp, #12
 80023cc:	af00      	add	r7, sp, #0
 80023ce:	6078      	str	r0, [r7, #4]
  WRITE_REG(DMAx->LIFCR , DMA_LIFCR_CTCIF3);
 80023d0:	687b      	ldr	r3, [r7, #4]
 80023d2:	f04f 6200 	mov.w	r2, #134217728	; 0x8000000
 80023d6:	609a      	str	r2, [r3, #8]
}
 80023d8:	bf00      	nop
 80023da:	370c      	adds	r7, #12
 80023dc:	46bd      	mov	sp, r7
 80023de:	f85d 7b04 	ldr.w	r7, [sp], #4
 80023e2:	4770      	bx	lr

080023e4 <LL_DMA_ClearFlag_TC4>:
{
 80023e4:	b480      	push	{r7}
 80023e6:	b083      	sub	sp, #12
 80023e8:	af00      	add	r7, sp, #0
 80023ea:	6078      	str	r0, [r7, #4]
  WRITE_REG(DMAx->HIFCR , DMA_HIFCR_CTCIF4);
 80023ec:	687b      	ldr	r3, [r7, #4]
 80023ee:	2220      	movs	r2, #32
 80023f0:	60da      	str	r2, [r3, #12]
}
 80023f2:	bf00      	nop
 80023f4:	370c      	adds	r7, #12
 80023f6:	46bd      	mov	sp, r7
 80023f8:	f85d 7b04 	ldr.w	r7, [sp], #4
 80023fc:	4770      	bx	lr

080023fe <LL_DMA_ClearFlag_TE3>:
{
 80023fe:	b480      	push	{r7}
 8002400:	b083      	sub	sp, #12
 8002402:	af00      	add	r7, sp, #0
 8002404:	6078      	str	r0, [r7, #4]
  WRITE_REG(DMAx->LIFCR , DMA_LIFCR_CTEIF3);
 8002406:	687b      	ldr	r3, [r7, #4]
 8002408:	f04f 7200 	mov.w	r2, #33554432	; 0x2000000
 800240c:	609a      	str	r2, [r3, #8]
}
 800240e:	bf00      	nop
 8002410:	370c      	adds	r7, #12
 8002412:	46bd      	mov	sp, r7
 8002414:	f85d 7b04 	ldr.w	r7, [sp], #4
 8002418:	4770      	bx	lr

0800241a <LL_DMA_ClearFlag_TE4>:
{
 800241a:	b480      	push	{r7}
 800241c:	b083      	sub	sp, #12
 800241e:	af00      	add	r7, sp, #0
 8002420:	6078      	str	r0, [r7, #4]
  WRITE_REG(DMAx->HIFCR , DMA_HIFCR_CTEIF4);
 8002422:	687b      	ldr	r3, [r7, #4]
 8002424:	2208      	movs	r2, #8
 8002426:	60da      	str	r2, [r3, #12]
}
 8002428:	bf00      	nop
 800242a:	370c      	adds	r7, #12
 800242c:	46bd      	mov	sp, r7
 800242e:	f85d 7b04 	ldr.w	r7, [sp], #4
 8002432:	4770      	bx	lr

08002434 <LL_SPI_Enable>:
{
 8002434:	b480      	push	{r7}
 8002436:	b083      	sub	sp, #12
 8002438:	af00      	add	r7, sp, #0
 800243a:	6078      	str	r0, [r7, #4]
  SET_BIT(SPIx->CR1, SPI_CR1_SPE);
 800243c:	687b      	ldr	r3, [r7, #4]
 800243e:	681b      	ldr	r3, [r3, #0]
 8002440:	f043 0240 	orr.w	r2, r3, #64	; 0x40
 8002444:	687b      	ldr	r3, [r7, #4]
 8002446:	601a      	str	r2, [r3, #0]
}
 8002448:	bf00      	nop
 800244a:	370c      	adds	r7, #12
 800244c:	46bd      	mov	sp, r7
 800244e:	f85d 7b04 	ldr.w	r7, [sp], #4
 8002452:	4770      	bx	lr

08002454 <LL_SPI_Disable>:
{
 8002454:	b480      	push	{r7}
 8002456:	b083      	sub	sp, #12
 8002458:	af00      	add	r7, sp, #0
 800245a:	6078      	str	r0, [r7, #4]
  CLEAR_BIT(SPIx->CR1, SPI_CR1_SPE);
 800245c:	687b      	ldr	r3, [r7, #4]
 800245e:	681b      	ldr	r3, [r3, #0]
 8002460:	f023 0240 	bic.w	r2, r3, #64	; 0x40
 8002464:	687b      	ldr	r3, [r7, #4]
 8002466:	601a      	str	r2, [r3, #0]
}
 8002468:	bf00      	nop
 800246a:	370c      	adds	r7, #12
 800246c:	46bd      	mov	sp, r7
 800246e:	f85d 7b04 	ldr.w	r7, [sp], #4
 8002472:	4770      	bx	lr

08002474 <LL_GPIO_SetOutputPin>:
{
 8002474:	b480      	push	{r7}
 8002476:	b083      	sub	sp, #12
 8002478:	af00      	add	r7, sp, #0
 800247a:	6078      	str	r0, [r7, #4]
 800247c:	6039      	str	r1, [r7, #0]
  WRITE_REG(GPIOx->BSRR, PinMask);
 800247e:	687b      	ldr	r3, [r7, #4]
 8002480:	683a      	ldr	r2, [r7, #0]
 8002482:	619a      	str	r2, [r3, #24]
}
 8002484:	bf00      	nop
 8002486:	370c      	adds	r7, #12
 8002488:	46bd      	mov	sp, r7
 800248a:	f85d 7b04 	ldr.w	r7, [sp], #4
 800248e:	4770      	bx	lr

08002490 <LL_GPIO_ResetOutputPin>:
{
 8002490:	b480      	push	{r7}
 8002492:	b083      	sub	sp, #12
 8002494:	af00      	add	r7, sp, #0
 8002496:	6078      	str	r0, [r7, #4]
 8002498:	6039      	str	r1, [r7, #0]
  WRITE_REG(GPIOx->BSRR, (PinMask << 16));
 800249a:	683b      	ldr	r3, [r7, #0]
 800249c:	041a      	lsls	r2, r3, #16
 800249e:	687b      	ldr	r3, [r7, #4]
